:1020000000800020853E00006F3E00006F3E000013
:1020100000000000000000000000000000000000C0
:102020000000000000000000000000006F3E000003
:1020300000000000000000006F3E0000D93E0000DC
:102040006F3E00006F3E00006F3E00006F3E0000DC
:102050006F3E00006F3E00006F3E0000713E0000CA
:102060006F3E00006F3E00006F3E00006F3E0000BC
:102070006F3E00006F3E0000F94900006F3E000017
:102080006F3E00006F3E00006F3E00006F3E00009C
:10209000000000006F3E00006F3E00006F3E000039
:1020A0006F3E00006F3E00006F3E00006F3E00007C
:1020B0000000000010B5064C2378002B07D1054B1B
:1020C000002B02D0044800E000BF0123237010BDA4
:1020D0005001002000000000FCAA000008B5084BD9
:1020E000002B03D00748084900E000BF07480368F9
:1020F000002B03D0064B002B00D0984708BDC046EC
:1021000000000000FCAA0000540100204C01002047
:1021100000000000002070477047000010B5044A1E
:10212000041C083204C002F01FFB201C10BDC04676
:1021300010A4000010B5041CFFF7F0FF201C01F0F4
:102140008FFE201C10BD70B54B688C68CD68436055
:102150000A1C031CC56084601033103270CA70C33F
:1021600012781A70096A016270BD0000F0B51D4B4B
:10217000051C083308C58BB0041C1B49281C02F041
:102180003AFB261C201C1030343600F0F9FA301CC3
:1021900000F0F6FA201C583000F0F2FA0023E36752
:1021A000EB67124D1249281C02F00AF80B2001219E
:1021B00001F04AFF0F4F0B21381C00F0D7FB00281D
:1021C00003D1281C0C4901F0FBFF01A8391C0B4A64
:1021D000012300F061FC301C01A9FFF7B4FF201CB3
:1021E0000BB0F0BD10A40000AAA200003004002033
:1021F0006CA20000800100208AA20000A6A20000BC
:10220000F0B5051CA7B04268172310351DA80C1C9B
:10221000644900F041FC1DA9281CFFF794FF281C0D
:1022200000F0EDFA0023984200D1B8E0201C00F045
:102230002DFA0222011C02A802F02DFB02A905A81A
:1022400002F0FCFA092105A802F082FB061C201C02
:1022500000F00FFA0A22011C08A802F00AFB301C49
:1022600008A902F054FB504902F05FFB061C201C39
:1022700000F0FAF90A22011C0BA802F0FAFA301C4D
:102280000BA902F044FB494E311C02F04EFB071C27
:10229000201C00F0F3F90A22011C0EA802F0E9FA52
:1022A000381C0EA902F033FB414F391C02F03DFBF4
:1022B0000190201C00F0E4F90A22011C11A802F090
:1022C000D8FA11A9019802F022FB391C02F02DFB6B
:1022D000071C201C00F0D8F90A22011C14A802F0E7
:1022E000C8FA381C14A902F012FB311C02F01DFBC5
:1022F000071C201C00F0C6F90A22011C17A802F0D6
:10230000B8FA381C17A902F002FB2A4902F00DFBAB
:10231000071C201C00F0BCF90222011C1AA802F0C4
:10232000BAFA1AA9381C02F0F2FA311C02F0FDFACE
:10233000061C201C00F0AEF90222011C1DA802F0B0
:10234000AAFA1DA9301C02F0E2FA011C281C01F0B7
:1023500041FF1DA802F008FA1AA802F005FA17A812
:1023600002F002FA14A802F0FFF911A802F0FCF939
:102370000EA802F0F9F90BA802F0F6F908A802F08D
:10238000F3F905A802F0F0F902A802F0EDF9281C13
:1023900000F028FA0848094901F026FF0123181C1B
:1023A00027B0F0BD80010020A8A20000ACA2000070
:1023B000ABA20000AFA2000030040020B2A20000D7
:1023C000F0B58DB001900E1C2348096800F0ACFBFD
:1023D000224C071E09D0201C214901F0F1FE019872
:1023E000311C043002F01AFA32E0019D03A81035C6
:1023F00019493268172300F04FFB281C03A9FFF787
:10240000A2FE281C00F0FBF900281DD01549281C4D
:1024100001F0EAFE281C00F0C1F9011C201C01F0AB
:10242000E3FE281C00F0DEF90F49201C01F0DCFE61
:10243000019D311C0435281C02F0F0F9201C291CD8
:1024400001F0C8FE012703E0201C084901F0B8FE96
:10245000381C0DB0F0BDC0468001002030040020C3
:10246000BBA20000D4A2000025A3000037A30000F7
:1024700038B5084D0C1C281C096800F055FB0028D5
:1024800003D0281C216800F05BFB281C216800F0A9
:102490004BFB38BD8001002010B5041C8AB00A68CF
:1024A0000123103401A8104900F0F6FA01A9201CFC
:1024B000FFF749FE201C00F0A2F90023984210D03B
:1024C000201C00F07BF9002807D0201C00F01AF92E
:1024D000C1B2064801F010FDF2E7201C00F082F9BD
:1024E0000123181C0AB010BD800100203004002018
:1024F000F0B59621FA2487B08901A400204801F0A4
:102500008DFD201C01F08EFC842001F0A5FC061C32
:10251000FFF72CFE1B4D5C202E6001F09DFC061C7D
:1025200000F088F8184F19483E6001F07BFC184E07
:102530002B68311C03A8019302F080F903A90198CC
:10254000FFF73EFF03A802F00FF9201C01F06AFC20
:1025500039682868FFF754FE201C01F063FC2D68E1
:10256000311C03A802F06AF903A9281CFFF794FFA5
:1025700003A802F0F9F8201C01F054FC07B0F0BDEC
:10258000300400207C0100206C0100208813000032
:10259000700100207FB5114801F044FC104D114C32
:1025A0002E68211C01A802F049F901A9301CFFF78F
:1025B00007FF01A802F0D8F8FA20800001F032FCF1
:1025C0002D68211C01A802F039F9281C01A9FFF788
:1025D0004FFF01A802F0C8F87FBDC0468813000075
:1025E0007C0100207001002010B5054C0549201C1D
:1025F00002F001F9201C0449044A03F08FFD10BDCC
:102600007001002020A400006947000000000020A5
:10261000014B08330360704730A4000010B5044B31
:10262000041C0833036001F01BFC201C10BDC046D5
:1026300030A400000B4B00220833036000238364A6
:10264000C36403654365836542608360C26102625F
:1026500042628362C362036343638363C36302644E
:102660004264704730A4000008B5006A03F086FE9B
:1026700008BD08B5406A03F081FE08BDC06A704716
:10268000006B7047806B7047C06B70474068704745
:10269000006C7047406C704713B502686B46D97187
:1026A00007335468191C0122A04716BD38B5041C15
:1026B000006A0025A84202D1012363600AE0456058
:1026C00092B200F0A9FD236A5B68002B02D00123BF
:1026D0006360281C38BD006A08B5002801D000F0EE
:1026E000E7FB08BD13B56C460734211C012200F03E
:1026F00003FB012801D1207800E0014800B216BD9B
:10270000FFFF0000006A08B5002802D0FFF7EAFFCB
:1027100001E00120404208BD38B5051C006A0028D0
:102720000AD0FFF7DFFF041C631C05D0286A01698B
:10273000013900F08BFB201C38BD0000F8B5FA23EE
:102740009B0083600D4B00250833041C456003602B
:1027500028200F1C161C05F0BDFC2062A8420AD0E0
:10276000391C282205F0D9FC201C1030311C0C2209
:1027700005F0F5FD2577201CF8BDC04640A40000FB
:10278000FA2292008260044A002308324360026009
:10279000036203747047C04640A4000010307047C5
:1027A000036A002B01D0186901E001204042704704
:1027B000006A002800D0C0697047000038B5041CCA
:1027C000006A00280BD0201CFFF7F2FF051C201C1C
:1027D000FFF7E6FF024B281A984200D9181C38BDB3
:1027E000FF7F000010B5041C006A002806D000F02E
:1027F0009BFB206A05F078FC0023236210BD006A71
:10280000002803D0407A431E9841C0B270470000B0
:1028100010B50A1C0C498AB0041C002300916946BB
:102820004B720193211C6846012300F02DFC041C0F
:10283000601E8441E4B2002C02D0684600F074FBB4
:10284000201C0AB010BDC04680A4000008B50123BA
:10285000002A05D000F0C6FC031C581E8341DBB2E1
:10286000181C08BD38B50122051C0C1C01F094F998
:10287000021C0120002A03D1281C211C01F08CF924
:1028800038BDF0B50C68035D2F3B5D426B41E41829
:10289000271C0C37231CC55C1E1B2F2D09D0002DB7
:1028A00007D00133161BF618013E3570BB42F2D13A
:1028B0000C2600249455C25C2F3A544262419B1866
:1028C0000B60C05C431E9841C0B2F0BDF0B5A1B032
:1028D000039025480D1C049205930CAA002316A909
:1028E0000D930C905372179316904B7207932C1CF8
:1028F000009207A908AA0398FFF7C3FF0126021C4C
:1029000072400190D2B2201C08A9059B049FB847D1
:10291000002807D1AC4201D1002023E0201C00F0A8
:1029200003FBF9E7019F002F11D0331C0098211CF5
:1029300008AA00F0A9FB061CAC420FD0201C00F036
:10294000F3FA002EE8D0231C009C0093D1E7AC42A0
:1029500002D0201C00F0E8FA301C03E00028DBD095
:1029600016ACF0E721B0F0BD80A4000038B5031C20
:1029700041331B78041C0D1C002B02D0383000F0B2
:10298000D3FA201C01212A1C00F0F2FD002801D1FD
:1029900000200FE0251C1035281C211CFFF762FFCA
:1029A0000028F5D0201C3830291C00F07BF9431E8C
:1029B0009841C0B238BD00004B6843600A4B0360C9
:1029C0000B7A03724B7A4372CB68C3600B69036165
:1029D0004B6943610B7E0376CB69C3610B6A496A1D
:1029E000036241627047C04680A40000F0B59DB00C
:1029F00008AE02920393274A002312AF051C7360AE
:102A00007B601031301C0892737212927B7200F05E
:102A100049F9029C201C2F2105F086FC00282ED0AD
:102A200023782F2B01D10134F4E7001BC0B2031C23
:102A30000C2800D90C23DBB21A1C211C04A801931A
:102A400005F08DFC019A002304A9381C8B5400F07A
:102A50006BFA381C311C04AA012300F015FB002876
:102A600004D10C4B68602B60687210E0019B301C35
:102A7000E41800F059FA331C3E1C1F1CCAE70299E7
:102A8000039A641A1460281C311CFFF795FF281C58
:102A90001DB0F0BD80A40000F0B5A1B0051C1F1C46
:102AA00002A801AB161CFFF7A1FF019BF6183378B3
:102AB000002B07D102A916A8FFF77EFF281C16A934
:102AC000174A28E000230CAC636063726B46113335
:102AD000144A1B780C92002B03D1281CFFF750FEE0
:102AE0001BE0201C02A9321C3B1C00F0CDFA002880
:102AF000F3D002A800F018FA06231F409F4203D12A
:102B0000201C139900F0A2F9211C16A8FFF754FF0E
:102B1000281C16A9321CFFF711FE281C21B0F0BD9D
:102B2000A6A2000080A4000008B5031C081C191C04
:102B30003831024A0023FFF7C9FE08BD1128000002
:102B400008B5031C081C191C3831024A0023FFF782
:102B5000BDFE08BD4D280000084B02211961191C5B
:102B6000002230310A7006495A719A719A721A73AA
:102B7000DA63996341331A707047C04680010020C0
:102B800080A40000021C10B50C32041C0121406A14
:102B900000F078FF00280AD0236A0120002B06D11C
:102BA000E368227A236280235B421343237210BDC1
:102BB00070B5041CFFF7E6FF002801D100201BE0E0
:102BC000636AE6681A7C023E96405A691D79B61817
:102BD000002D08D0701E401900F0A0FE0028EDD096
:102BE000013DEDB2F4E7636A01201A7C80239B006B
:102BF0009340E269D318E36170BD000010B5041C76
:102C0000406900F067FE002803D0207E014B4001A0
:102C1000C01810BDFC010020F0B5002387B0071CD0
:102C20000E1C2022F25401330B2BFAD10721002570
:102C300001913C78002C2AD02E2C06D1019B0A2B26
:102C40002BD00A21082501911FE002A81449102267
:102C500005F063FA002302A9CA5C002A03D00133FD
:102C6000A242F8D119E0019B9D4216D8231C213BBA
:102C70005D2B12D8221C6B1C613ADBB27519192A24
:102C800001D8203CE4B22C701D1C0137D1E730780C
:102C90002038431E9841C0B200E0002007B0F0BDCC
:102CA00068A4000038B5427A041C0D1C002A01D02B
:102CB00000201FE04B1CDB7F102B06D10223437248
:102CC00002624B8C5B01C3610CE0202BF0D103232B
:102CD0004372496A221C01621C32281C00F06CFEFF
:102CE0000028E5D00023012065622072E3602361A3
:102CF0006361237638BD0000F0B5437A85B0041CCB
:102D00000E1C0392002B01D13A4811E0037AD80738
:102D1000FAD5E26920690399131A994201D99BB245
:102D2000039303990291029B002B04D1039988B26B
:102D300000B205B0F0BD2369617ADF05FF0D5A0AC4
:102D4000606A022902D1416A51181BE00579013DF0
:102D50002A40D5B2002F0DD1002D0BD1002B02D16E
:102D6000226AE26006E0221CE1680C3200F0F4FD09
:102D70000028C9D0636AE1681A7C02395B69914016
:102D8000C91849198022029D9200D31B9D4200DD83
:102D90009DB2237A580601D4954218D1164B1B6870
:102DA000994214D0154B3A1C186800962B1C00F061
:102DB0009DFC0028A8D0761901E0DF1BF6192169D7
:102DC000029A4B19551BADB223610295ABE7081C63
:102DD000002100F07FFD002896D0094B321CFF181F
:102DE00079193B1C8B42E8D01878013310700132FE
:102DF000F8E7C046FFFF000004000020F8010020B3
:102E0000FC01002073B5437A041C012B01D800207B
:102E100016E003696D460735DE05291C0122360FD1
:102E2000FFF76AFF012801D12B7800E0054B1BB2A8
:102E30000133ECD0236970011F332361024BC018AA
:102E400076BDC046FFFF0000FC01002070B5041CE9
:102E5000407A0D1C00282AD0E269914201D9002055
:102E600025E0022821D0002D01D1E5601DE0626A35
:102E70002169137C681E09334A1ED840DA40031EBC
:102E8000934201D3002902D1226AE26000E0831A52
:102E90001E1C002E09D0221C606AE1680C3200F072
:102EA0005BFD013E0028F4D101E02561012070BDE9
:102EB00038B5051C407A002833D02B7A7F2B2DD9CA
:102EC000281C0121FFF79AFE041E2AD06B7A012BE1
:102ED00007D82B7F03776B7F4377AB7F8377EB7FBD
:102EE000C3772B6A9AB21B0C23751B0A63750D4BB3
:102EF000A2761B68120AE276002B0BD0201C211C44
:102F0000183016319847637E227E1B021343A37448
:102F10001B0AE3742A7A7F2313402B7200F0B0FC63
:102F2000FFE738BDE401002010B5041CFFF7C0FF27
:102F3000002802D000236372012010BD73B5427ACD
:102F4000041C0D1C0020012A4BD1207A02231840BA
:102F500047D0E3690020994243D8101C002B40D091
:102F6000201C291C2669FFF771FF002825D0606A04
:102F7000002D06D1216A00F0E9FD00281DD0256250
:102F80001DE0E16801AA00F0E7FC002815D0606AA6
:102F90000199431CDB7F102B01D1124B00E0124B37
:102FA00099420CD200F0D2FD002806D0606AE16898
:102FB0000E4A00F023FD002801D1002011E0227A02
:102FC00080235B421343E5612372201CFFF770FFEF
:102FD0000028F2D0291EB14200D9311C201CFFF775
:102FE00035FF76BDF8FF0000F8FFFF0FFFFFFF0F72
:102FF00038B5234B151C4A01D318041CD87A11226A
:10300000104204D04222154201D0002036E01D4A71
:103010002176126862615A7D187DD97E12020243C0
:10302000987E09021204014311432162D87A1822C2
:1030300002400CD15A7F197F12020A43997FDB7F2D
:1030400009040A431B061343E361012309E0102A24
:10305000DBD1221C606A1C3200F0AEFC0028D4D008
:10306000042363720F2300212B402372E16021614E
:1030700001206A0602D5201CFFF760FF38BDC0465C
:10308000FC01002004000020F0B5457A87B0041C44
:103090000E1C0193002D00D086E0101C03A9FFF741
:1030A000BBFD002800D180E0726A2F1C6262F560CF
:1030B00035613369F269934226D2DB051B0F301C60
:1030C0000093FFF79FFE011E6FD00378002B01D005
:1030D000E52B0BD1002F04D1009B2376344B1B68CA
:1030E00063610B780127002BE3D10DE003A80B22CD
:1030F00005F004F80028DCD1019A30231340302B6E
:1031000053D0201C00994BE0019A12231340122B3C
:103110004BD1002F06D0201C0121FFF76FFD061EAA
:103120000AD142E0737A022B3FD0301CFFF740FDFA
:1031300000283AD01F4E277600212022301C05F0AF
:103140000EF8301C03A90B2204F0E7FF1A4B1B6892
:10315000002B05D0301C311C10300E31984706E092
:1031600021223274B373282208237274F373737CA0
:10317000327C1B021343FF221A401B0AF37473763E
:10318000F37BB2743276B27B1B021343B3751B0A16
:10319000F37500F075FB002807D0217E019A201CF2
:1031A000FFF726FF051C00E00025281C07B0F0BD36
:1031B00004000020FC010020E401002010B50021E3
:1031C000041CFFF7BBFE00280BD0201C0121FFF7D9
:1031D00015FD002805D0E52303700023637200F07D
:1031E0004FFB10BD10B50A1C0A498AB008310023F4
:1031F000041C009169464B7201936846211C02230E
:10320000FFF742FF002802D06846FFF7D7FF0AB059
:1032100010BDC04678A40000F0B5437A87B0041C06
:103220000D1C0392012B0DD1037A99070AD55A0779
:103230000CD5E16922698A4208D0201CFFF706FEFE
:10324000002803D1012363600020AAE0039B0193BF
:103250003BE0606A730A0779F605013F1F40FFB241
:10326000F60D002F36D080229200921B019992B267
:103270000B1C914200D9131C9BB20293636AE16854
:103280001A7C023991405A698B18029ADF198023FF
:103290009B009A423FD1444B1968B94202D10122A6
:1032A00052421A60414B391C18682A1C00F0A0FADF
:1032B0000028C7D080229200AD180199029A8B1A7B
:1032C00021699BB201938B182361019A2669002A18
:1032D000BFD149E0002EC6D1E168002903D1236A9D
:1032E000002B16D10FE005AA00F036FB002858D0BD
:1032F000626A059B0132D27F102A01D12C4A00E07C
:103300002C4A934205D3201CFFF73CFC0028AAD18D
:1033100098E7E360A7E7002E0FD12369E1698B42AC
:103320000BD300F0ADFA00288CD01F4B01211F6099
:10333000214B1A780A431A7006E0381C012100F06C
:10334000C9FA002800D17DE71C4B2A1CF618029B05
:10335000F118331C8B4204D01078013218700133FD
:10336000F8E79E1BAD19A8E7E169237A8E4201D9DF
:10337000E66106E0124A1268002A06D0039A002A83
:1033800003D08022524213432372237A190701D4B7
:10339000039806E0201CFFF78BFD002800D151E7C1
:1033A000F6E707B0F0BDC04604000020F801002099
:1033B000F8FF0000F8FFFF0FFC030020FC010020D5
:1033C000E401002007B56B46D9710733191C0122AF
:1033D000FFF722FF0EBD000008B5011C014800F0F8
:1033E000E9FC08BD0804002008B50248FF2100F0F0
:1033F000E1FC08BD0804002008B50121007900F0B7
:103400007DFE054B1A78002A04D0002203481A706A
:1034100000F0BEFC08BDC046F001002008040020FA
:1034200010B5084B041C1A78002A06D101221A7024
:10343000054B064806CB00F08FFC2079002100F0F8
:103440005DFE10BDF0010020E8010020080400200E
:1034500010B58379041C002B0DD023895A1C2281BE
:10346000054A934202D8FFF7BFFFF6E7201CFFF79B
:10347000C3FF0023A37110BD0102000000B506299F
:1034800003D91623437100201CE00F4B052913D8E4
:10349000081C002202F07AFE030507090B0D0B49F8
:1034A00008E00B4906E00B4904E00B4902E00B4938
:1034B00000E00B49196002E00A4A1A6000221A7102
:1034C0005A71012000BDC046E8010020001BB70072
:1034D00000093D0080841E0040420F0020A107002B
:1034E00090D0030048E8010038B50C1C00F094FCB3
:1034F000051CFFF779FFFF2806D000F08DFC401B6C
:10350000A042F6D3002000E0012038BDF8B5041C2D
:103510000E1C171CFFF79CFF201CFFF781FF962154
:103520004900201CFFF7E0FF40203043FFF754FF25
:103530001825381CE840C0B2083DFFF74DFF2B1C92
:103540000833F6D19520002E03D08720082E00D016
:10355000FF20FFF741FF0025FFF746FF43B2E0726F
:10356000002B04DAFF2D02D00135EDB2F4E7F8BDEF
:10357000F7B5002502710573857285714571041CCC
:10358000019100F049FC0121071C207900F05CFD4D
:103590000121207900F0B2FD424E301C00F0B4FB56
:1035A000414B42491D715D711960301C5A6800F031
:1035B000D3FB0A25013DFF20EDB2FFF70DFF002DE3
:1035C000F8D1301C00F0E4FB201CFFF729FF00219C
:1035D000201C0A1CFFF79AFF061CE072012808D085
:1035E00000F01AFCFA23C01BDB009842EFD901233C
:1035F0003BE0D522201C08215200FFF787FF04235F
:10360000184201D026730BE01E1CFFF7EDFE013EB1
:10361000F6B2E072002EF8D10223AA2825D1237336
:10362000267B023E73425E41B60737210022201CF2
:10363000FFF76CFF321C201C2921FFF767FF021CDB
:10364000E07208D000F0E8FBFA23C01BDB009842D0
:10365000EBD9082309E0237B022B19D1201C3A2146
:10366000FFF754FF002805D006236371201CFFF7E5
:10367000C3FE15E0FFF7B8FEC0231840984201D101
:1036800003232373FFF7B0FEFFF7AEFEFFF7ACFE98
:10369000201CFFF7B1FE201C0199FFF7EFFE051C6F
:1036A000281CFEBD08040020E801002090D0030083
:1036B00038B5041C00F0B0FB051CFFF795FEE07266
:1036C000FF2808D100F0A8FB9623401B5B0098421E
:1036D000F3D90F2302E0FE2806D00D23201C6371CE
:1036E000FFF78AFE002000E0012038BDF8B5041C79
:1036F0000F1C151C1E1E45D09A1880239B009A4251
:1037000042DC8379002B05D00268914202D1038903
:10371000AB4216D9237B2760032B00D07F023A1CD3
:10372000201C1121FFF7F2FE071E02D00323637154
:103730002AE0201CFFF7BCFF002825D001232781A9
:10374000A3712389AB4205D2FFF74EFE23890133D3
:103750002381F6E7069D069AAB1A9BB2B34204D2C8
:10376000FFF742FE28700135F5E72389A27AF318A6
:103770009BB22381002A02D0064A934202D9201C20
:10378000FFF766FE012003E0201CFFF735FE002056
:10379000F8BDC046FF01000007B5802300929B00E2
:1037A0000022FFF7A3FF0EBD70B5051C081C161CF8
:1037B000FFF712FE0024305DFFF70EFE0134802378
:1037C0009B009C42F7D1FF20FFF706FEFF20FFF78A
:1037D00003FEFFF709FE1F23E87203400120052BBB
:1037E00005D01123281C6B71FFF706FE002070BD69
:1037F00070B50B1C041C161C002901D1122328E0F3
:10380000027B032A00D04B02201C18211A1CFFF750
:103810007DFE051E01D004231BE0201CFE21321C6E
:10382000FFF7C2FF002815D09621201C8900FFF762
:103830005BFE002801D115230BE0201C0D212A1C62
:10384000FFF764FE002803D1FFF7CEFD002806D065
:1038500014236371201CFFF7CFFD002003E0201C20
:10386000FFF7CAFD012070BD034B044A1A60002215
:103870005A711A717047C046E801002000093D00E6
:10388000F8B50F4F01203B78002B18D00D4E0E4B92
:103890000E4D196830682A1CFFF7AAFF00280ED0C9
:1038A0000B4C2168002907D030682A1CFFF7A0FFC5
:1038B000002804D00023236000233B700120F8BDC2
:1038C000FC030020F801002004000020FC0100207F
:1038D000F401002070B50D4D041C2B680E1C8342B2
:1038E0000ED0FFF7CDFF002801D100200DE0084BDE
:1038F000211C1868074AFFF74FFF0028F5D02C60FD
:10390000054B01201A7816431E7070BD040000207C
:10391000F8010020FC010020FC03002010B5041C6D
:10392000FFF7AEFF00280FD00023084A002199546A
:103930008022013392009342F7D1054B01201C6095
:10394000044B1A7802431A7010BDC046FC010020D7
:1039500004000020FC030020C36870B501330C1C78
:10396000151C994201D9002021E0461CF17FC26953
:10397000E309102900D1230A98180D4B1B689842BF
:1039800007D1F27F0B4B102A09D1E4B264001B5B14
:103990000BE00021FFF79EFF0028F2D1E3E77F2232
:1039A0001440A4001B591B011B092B60012070BD92
:1039B00004000020FC01002073B5051C0191161CB9
:1039C0000024281C019901AAFFF7C6FF002810D087
:1039D0002A7C80239B009340E4186B1CDB7F019AB8
:1039E000102B01D1034B00E0034B9A42E9D3346022
:1039F000012076BDF8FF0000F8FFFF0FF7B5051CAA
:103A00000C1C0192012932D9C3680020013399426C
:103A10002ED86F1CFA7FEE69CB09102A00D10B0A51
:103A20009E19144B1B689E4208D1FA7F124B102A34
:103A30000BD1E4B2019A64001A530BE0301C002150
:103A4000FFF748FF0028F0D112E07F221440019ACE
:103A5000A4001A51094B01201A7802431A702B7ED8
:103A6000834205D9AB68F618054B1E6000E00020C4
:103A7000FEBDC04604000020FC010020FC03002025
:103A8000F4010020F0B5156887B0061C0291171CE0
:103A9000002D03D000210135019106E0029B05684D
:103AA000013B5A425341DBB20193F26800230132D9
:103AB00003922C1C00930099F268914221D2039B3F
:103AC0009C4201D90224251C301C211C05AAFFF7A9
:103AD00043FF002815D00599631C002901D01D1C47
:103AE00003E002995A1B8A4204D0009A1C1C01323E
:103AF0000092E0E7301C211C134AFFF77FFF0028EB
:103B00000BD100201DE0631E301C191C221C0093E9
:103B1000FFF774FF0028F4D0009CAC42F3D839685A
:103B2000002906D101993D60002909D00135356091
:103B300006E0301C2A1CFFF761FF0028F2D1E0E705
:103B4000012007B0F0BDC046FFFFFF0F022337B5CD
:103B5000051C0C1C0360281C211C01AAFFF7FCFE9D
:103B6000002812D0281C211C0022FFF747FF002844
:103B70000BD06B1CDB7F019C102B01D1044B00E0B0
:103B8000044B9C42E7D3012000E000203EBDC0462C
:103B9000F8FF0000F8FFFF0FF8B5444B041C151C9C
:103BA000196029D0042A01D900207DE00020011CE1
:103BB000FFF790FE0028F7D02D013D4BA935FF35CA
:103BC0005D19AA79AB1D5006EED1EA7CA97C1202E0
:103BD0000A43297D09040A43697D09060A43632AC9
:103BE000E2D9AA7BED7B2D0215439A7ADB7A120487
:103BF00015431B061D43D7D0281C0021FFF76AFE82
:103C00000028D1D02A4B197BDA7A0902114380228D
:103C100092009142C8D11A7C002AC5D0D9890029C6
:103C2000C2D0597B0029BFD0227600222171227494
:103C3000227C01209040814204D0501C2074072A2D
:103C4000F6D9B1E7D98A002900D1596AA160D8898B
:103C50002818E0611F693E02360C6684B7B21E7CEC
:103C600071430E18134879010918491271186662D8
:103C70006161187DDE7C0002304300D1186A6D1A44
:103C80002818D040021CE0600B48611C824201D819
:103C90000C2307E00948824201D8102302E0DB6AC6
:103CA00063622023CB770120F8BDC046F8010020D5
:103CB000FC010020FF010000F40F0000F4FF0000F1
:103CC000437A002B04D18372C372C3600123437211
:103CD000704730B585B0041C02AD006802910392B4
:103CE00000F01AFC6B79E179227A009320680023B6
:103CF00000F0B4FC29792068029A00F0DDFB20680E
:103D000000F000FC05B030BD70B5041C1826FFF7AC
:103D1000D7FF2079331C43430D4D0821EB1859562A
:103D200000F0C0FCA079331C43430821EB1859561E
:103D300000F0B8FC607908214643AD19695600F0DF
:103D4000B1FC044B201C06CBFFF7C3FF70BDC0467F
:103D5000C8A400000004002007B5837A00910192F6
:103D6000002B0DD09A0706D5EFF310835A4253412A
:103D7000C37272B604E0DA0702D58289034B9A60F7
:103D80000099019AFFF7A5FF07BDC0460018004043
:103D9000837A002B0BD09A0704D5C37A002B06D068
:103DA00062B604E0DA0702D58289014BDA60704717
:103DB0000018004008B5006800F0B7FB08BD00001F
:103DC0000F4B104A10491A6000225A711A710F4B9A
:103DD0000F4819600A211971092199710821597137
:103DE00003215A72DA7119720A4B18601D2018717A
:103DF0001B2098711A205A725871DA711972704723
:103E00000004002000093D00900600200804002066
:103E10009406002018040020014B18687047C04623
:103E20002804002070B5041E08D0054B1D681E1C18
:103E300000F01AF833685B1BA342F9D370BDC0468B
:103E40002804002008B5034B1A6801321A6000F0FC
:103E500099FD08BD2804002008B504F03BF908BD11
:103E600008B504F041F908BD704700207047FEE72F
:103E700008B5034B1B68002B00D0984708BDC0460F
:103E80002C04002038B50F490F4CA14204D100F09A
:103E9000B5F900F069FA0BE00C4D8D42F7D0002324
:103EA000CA18E818A24204D2006804331060F7E789
:103EB000FEE79042EBD0064B064A9342E7D200223F
:103EC00004C3F9E7000000205001002000AB00000F
:103ED00050010020740C002008B5FFF7C6FF002831
:103EE00001D1FFF7AFFF08BD014B18607047C04616
:103EF0002C0400203F20704713B502686B46D9712F
:103F000007335468191C0122A04716BD08B5006983
:103F1000022101F0C1F908BD08B50069032101F0D3
:103F2000D1F908BD38B50D1C041C131C0069032110
:103F30002A1C01F0B7FA002801D10123636038BDC3
:103F400010B5054C23685A1C04D103685B69984777
:103F50002060031C181C10BD58000020074A08B53B
:103F60001368591C04D0012149421160181C03E058
:103F70000069022101F088FA08BDC04658000020FF
:103F800008B503780349023303704222024801F066
:103F900033FB08BD140000204B0B002010B5017846
:103FA000031C42780020A12908D1212A2FD11848CA
:103FB0001849072201F020FB012028E0212926D101
:103FC000202A05D113490722114801F0C1F904E064
:103FD000222A10D19A780F4BDA710E4B962219686B
:103FE000D200914210D1DC7901231C400CD1FA207F
:103FF00000F0BAFC0AE0232A09D1DA789B78120291
:104000001A43054B1A6002E000F0B4FC002010BD1A
:104010004B0B00200800002010000020704700001B
:10402000064BFA2189009960054900220831196080
:1040300004495A6019611A767047C046300400205E
:1040400090A400004B0B002010B51824021C201C6B
:104050005043274B1818007A40B2013046D003294C
:1040600044D8081C211C02F091F80233112162434C
:1040700098569A18C3011F4852681B189918403166
:10408000022008700121914059602FE06243985648
:1040900018499A185268C3015B18991840310620D4
:1040A000087001219140596099611FE051435A56AF
:1040B000104859184B68D2011118C818403006240E
:1040C00004700120984048600B49521850600DE080
:1040D000624398569A18C301064852681B189918EB
:1040E00040310220087001219140996010BDC04606
:1040F000C8A4000000440041104400411823584364
:10410000134AF0B5131808241C5701341FD08256E7
:10411000104ED2015D6801249019231C8668AB40C3
:104120001E420BD10E1C771EBE4140193440403058
:10413000A50004780426B4432C430470002903D15D
:1041400005495218536002E0024E92199361F0BD86
:10415000C8A400000044004110440041F7B58A188B
:10416000061C0D1C01920C1C019B671B9C4207D076
:10417000336821781B68301C984701340028F3D13C
:10418000381CFEBD38B5051C0C1C081E07D004F0F9
:10419000DFF82B68021C5B68281C211C984738BD7F
:1041A00010B504680B1C9A6809686368984710BDCD
:1041B00008B50249FFF7E6FF08BDC046B8A40000F5
:1041C00038B5041CFFF7DEFF051C201CFFF7F0FFCD
:1041D000281838BD38B5041CFFF7E2FF051C201C69
:1041E000FFF7E6FF401938BD38B5041CFFF7CAFFDA
:1041F000051C201CFFF7DCFF281838BD70B5494AA4
:104200001E21536802208B430343474953608B6947
:10421000082423438B61454C454B9C829C8A204358
:104220009882101CDA689407FCD5424A0124147065
:104230001478E50704D53F4C647864B2002CF7DBB2
:1042400001249460547864B2002CFBDB3A4D394C65
:104250006560547864B2002CFBDB8225354CED019F
:104260006580547864B2002CFBDB02249C84DC68FB
:10427000E606FCD5314D2E4CE562DD682C4CEE0691
:10428000FBD5A58C2E4E3543A584DD68284CEE0663
:10429000FBD5A58C02263543A584DC682506FCD514
:1042A000234CE4686606F8D5DC68E506FCD50024F6
:1042B0009460547864B2002CFBDB224D1D4C656089
:1042C00055781C4C6DB2002DFADB1E6A1E4D354030
:1042D0001D621D6A8026B5431D620323A3601B4B2C
:1042E000636053785BB2002BFBDB00230B72184A30
:1042F0004B728B72CB72174BFF211A60164B174A09
:104300001B6812685C01D20E214011439A06520FBD
:1043100012020B1C1343124A138543688022134375
:10432000436070BD00400041000400400C060000E6
:1043300000080040000C004001050100B905FF7DA8
:10434000040A000000070300FFFCFFFF0306010052
:10435000006CDC0288000020246080002060800067
:10436000004000427047000010B501F093FB03F0DD
:104370008BFEFFF7F7FF0120FFF754FD084C201CD0
:1043800000F03EFE201C00F09BFEFEF7B1F8FEF7A9
:1043900001F9044B002BFAD000E000BFF7E7C0465C
:1043A0004B0B00200000000001607047F7B508AC1F
:1043B000267804689D1E27686C1EA541ECB2920702
:1043C00005683A4327063A432A60026807252940D0
:1043D0005068B501002C00D05C03294301430C4315
:1043E0005460F7BD30B50368C0251C68AD031205E5
:1043F0002A402243C024A402090421401143196029
:1044000003685A6814435C6030BD036801211A6870
:104410000A431A600268116801231942FBD1D1696D
:104420001942F8D17047036802211A680A431A60DA
:104430000268D3699907FCD4704703681A7ED107D4
:1044400002D41A7E9107FCD57047036800225A8374
:1044500070470368187E4007C00F70470368187ED6
:10446000C009704703688022197E52420A431A76B7
:1044700070470368588B8007C00F7047036802219C
:104480005A8B0A435A8370470368187E01231840E9
:1044900070470368188DC0B2704703681A7E012008
:1044A0000242FBD019857047036801229A75704754
:1044B000036801221A75704770B5036801268D07DD
:1044C000ED0F31401C686D0709072943214319602E
:1044D00004685100034801F063FE0138C0B2207344
:1044E00070BDC046006CDC02036801211A680A43F3
:1044F0001A600268116801231942FBD1D16919427F
:10450000F8D17047036802211A680A431A600268EA
:10451000D3699907FCD470470368DA699107FCD422
:104520001A6802218A431A60704703689A6A520A1D
:1045300052021143996203681A7E5107FCD5986AAA
:10454000C0B270470368224A30B5934211D0214A65
:10455000934211D0204A934211D0204A934211D065
:104560001F4A934211D01F4A934230D10E23192281
:104570000DE0092314220AE00A23152207E00B2389
:10458000162204E00C23172201E00D231822DCB2CE
:10459000154901209B08A0409B0008605B18032080
:1045A000C021890004405D58E000FF248440A543F9
:1045B0002C1CC0258540281C204358508023DB013B
:1045C0001A430A4B5A805A7852B2002AFBDB30BD9C
:1045D00000080042000C004200100042001400429B
:1045E00000180042001C004200E100E0000C004006
:1045F000F8B5041C151C0E1C1F1CFFF7A3FF201C84
:10460000FFF703FFB1001C220A4069072368090C69
:104610000A431A60226884239375012E1AD1082157
:10462000012D00D110210C4B79431868C00001F016
:10463000B7FD236807219A890140D2044903D20CAF
:104640000A439A8123680004C20C9889400B4003F6
:1046500010439881F8BDC04688000020F7B501934B
:1046600008AB041C1F780D1C161CFFF73DFF201C17
:10467000FFF768FFBF070C221743C02292033605DD
:104680001640C02292022D0423683E430199154032
:10469000354307221D600A408021236889020A43AE
:1046A0005A60F7BD18224243F8B52D4D0824AA18C8
:1046B0001457031C621C50D0481C00240C284CD8F2
:1046C00001F064FD071E1E1E1E1E1E1E1E0A0A0A83
:1046D0000A000124644240E0092902D1181C00218B
:1046E00003E00A2904D1181C0221FFF7ADFC23E0E6
:1046F00000240B2931D1181C0121FFF7A5FC2CE067
:1047000018225343EA185268EB560120141C044047
:104710005508DB01002C11D0124C1B195D193035E6
:104720002E780C010F21314021439A18C9B229700B
:10473000403213781843107000240EE0094E0F2702
:104740009B195D1930352E789A18BE433143C9B292
:1047500029704032137818431070201CF8BDC046F1
:10476000C8A400000044004110B5041C006803F018
:10477000BBFC201C10BD10B5041C0068002801D033
:1047800003F0B2FC00232360A360636010BD38B562
:10479000041C0D1C0068013103F086FD002801D0C7
:1047A00021C4012038BD036810B5041C002B02D0C1
:1047B00043688B4209D2201CFFF7E9FF002805D08F
:1047C000A368002B01D122681370012010BD70B5C1
:1047D0000E1C111C041C151CFFF7E5FF002803D15B
:1047E000201CFFF7C8FF04E0A5602068311C03F01F
:1047F000A7FD201C70BD38B50023041C0D1C0360F0
:1048000043608360994207D0081C03F0A1FD291C76
:10481000021C201CFFF7DBFF201C38BD10B50B1C51
:10482000041E8C4208D00968002903D09A68FFF75B
:10483000CEFF01E0FFF79FFF201C10BD10B5002345
:10484000041C036043608360FFF7E8FF201C10BD79
:1048500038B5041C0D1E08D0081C03F079FD291C76
:10486000021C201CFFF7B3FF01E0FFF784FF201CB0
:1048700038BD10B500238AB0041C03604360836018
:10488000081C01A900F045F9201C01A9FFF7E0FF71
:10489000201C0AB010BDC0B500238DB0061C171C2B
:1048A000036043608360081C03F06EFB03ABBA1C1B
:1048B00052B200933B1C00F031F9011C301CFFF791
:1048C000C7FF301C0DB0C0BDF8B5041C0F1C8668B6
:1048D00001D100250FE00125002A0CD09619311CCA
:1048E000FFF761FF0028F4D02268A368391CD018B4
:1048F00003F026FDA660281CF8BD07B5002201AB19
:1049000019705A70191C0122FFF7DEFF0EBD0B1C37
:1049100010B509689A68041CFFF7D6FF002802D179
:10492000201CFFF728FF201C10BD38B5041C0D1EED
:1049300009D0081C03F00CFD291C021C201CFFF7E9
:10494000C3FF002802D1201CFFF715FF201C38BD33
:1049500010B5041CFFF7D1FF002802D1201CFFF77F
:104960000AFF201C10BD0000014B18607047C046B4
:104970005C000020024B012252421A607047C04680
:104980005C000020154A1368581C25D0013B1360B9
:10499000002B21D172B6124A124B04329A4207D828
:1049A000BFF34F8F104A114BDA60BFF34F8F11E006
:1049B0000F4B197DC807FBD5188B2021FF319208BA
:1049C000520001431983DA610A4A1A801A7DD1071D
:1049D000FCD5E5E7C046FDE77047C0465C00002017
:1049E00000200000030200000400FA0500ED00E0D2
:1049F0000040004102A5FFFF08B5024801F024FA7B
:104A000008BDC0464C04002013B512491248FFF7F8
:104A1000CBFC12491248FFF7C7FC12491248FFF7B6
:104A2000C3FC12491248FFF7BFFC12491248FFF7B6
:104A3000BBFC124C1249201CFFF7B6FC0323009369
:104A400001230193211C0D220E230E4801F014F9BD
:104A500013BDC046000800428C060020000C004236
:104A6000900600200010004294060020001400422E
:104A70008806002000180042980600209C060020AE
:104A8000001C00424C040020F0B58FB00D1C0292B7
:104A900035D0131C023B222B33D80A2A33D10028ED
:104AA00031DA01234642039305AC0194002E12D063
:104AB000301C029901F0B8FB301C0F1C029901F068
:104AC0006FFB631C061C092F01DC303700E05737F1
:104AD00027701C1CEAE7019A9442E9D0039A2B1C28
:104AE000002A02D02D226B1C2A70019A944204D90C
:104AF000013C22781A700133F7E700221A70281C53
:104B000005E0002003E00022061C0392CCE70FB072
:104B1000F0BD08B5FFF7B8FF08BD000070B586B05E
:104B2000041C0D1C0A9E064901A803F0DBFB301C87
:104B300001A9221C2B1C03F0D5FB301C06B070BD54
:104B400028A8000010B507230F220240141C0009FA
:104B50003034092A00DD0734CC54013BF4D210BDB7
:104B600010B5054B041C0360806903F0BDFAA06A10
:104B700003F0BAFA201C10BD40A8000010B5041CB8
:104B8000FFF7EEFF201CFFF76BF9201C10BD0000A3
:104B900070B582291ED1C2B22A495301CB189D6932
:104BA000294C80012C40C025AD052C439C61274C2D
:104BB0000832201858610B68520199180C7980202E
:104BC000404220430871D15C702081433020014372
:104BD000D15435E0002933D1C2B21A495301CB1860
:104BE0009E68194DC0242E40A40526439E60184E91
:104BF000800109683018083258605201505C07265D
:104C0000B0430126304350549E6935402C439C618B
:104C10000E4C5C61505C7024A0431024204350541F
:104C20009C680C488A1820408024640320439860C4
:104C300098684021800B8003986053790B4353712F
:104C400070BDC046500B0020FFFFFF8FAC07002057
:104C50006C090020FF3F00F038B5041C08CC01218E
:104C60001A78051C0A431A708022201C0021520069
:104C700003F075FA2B689A78D107FCD45C6238BDD2
:104C8000134BF0B51B6899035A029B01C90ED20E53
:104C90005B0F1F2900D105211F2A00D11D22072BE0
:104CA00000D1032304688E01278D0A491F2539404E
:104CB0003143218501682A400C8DAC4322430A858B
:104CC00002681903108D044B03400B431385F0BD9C
:104CD000246080003FF8FFFFFF8FFFFFEFF310839A
:104CE00003600123436072B670470368002B02D152
:104CF00062B6BFF36F8F704737B50569041C68460D
:104D0000002D12D1FFF7EAFF019B013B03D3621D87
:104D1000D57FEDB2F9E768460193FFF7E6FF002083
:104D2000854217D0206AE36913E0FFF7D7FF019BA4
:104D30000025013B04D3221C34321578EDB2F8E78C
:104D400068460193FFF7D1FF0020854202D0206B17
:104D5000E36AC01A3EBD0000436810B51A68037AC2
:104D600001215B01D318FF339A7A0A439A72037ABE
:104D700042685B01D318C2689C6891040B4A090918
:104D800022400A439A60037A42685B01D3189A680A
:104D90004021920B92039A6043681A68037A0833A1
:104DA0005B01D3181A790A431A7110BDFF3F00F056
:104DB000F7B50569041C0E1C171C6846002D1FD191
:104DC000FFF78CFF019B013B5A1C06D0621DD17F6F
:104DD0005A1E00293AD0131CF6E768460193FFF7E4
:104DE00084FF0025E369BD4235D0226A934232D266
:104DF0005A1CE261A269D3181B7873550135F1E79B
:104E0000FFF76CFF019B013B5A1C08D0221C343277
:104E100015785A1EEDB2002D18D0131CF4E7684621
:104E20000193FFF762FF0025E36ABD4226D0226BA3
:104E3000934241D322E0621D0021D17730321678AF
:104E4000581E8E4214D1031C5A1CF4D1684601939B
:104E5000FFF74BFF38E0226A934235D10023E3612C
:104E6000012323616846FFF739FF019B013BEBE714
:104E70001170201C0193FFF76FFFF6E7226B93423E
:104E800022D10023E36223616846FFF727FF019BDD
:104E9000013B5A1CDAD0221C34320021117001323D
:104EA0001678581E8E4201D1031CF2E71170201CA7
:104EB0000193FFF751FFEAE75A1CE262A26AD31896
:104EC0001B7873550135AFE7281CFEBD37B5436825
:104ED000027A1B68083252019A18041CD079012307
:104EE000FF21184255D0D371A068656962680140FE
:104EF000002D1FD14901521891688904890C216243
:104F0000216A002942D06361A36A68465360FFF7B3
:104F1000E5FE019B013B5D1C34D0621D0120D07772
:104F20002F3211785D1EC9B21218002915D11170E7
:104F30002B1CF0E74B01D3189A689204920C226361
:104F4000226B002A22D000226261A26968465A6060
:104F5000FFF7C4FE019B013B12E00193107068460D
:104F6000FFF7C3FE15E0221C343201201070621DD1
:104F7000D17F5D1EC9B230320029EED111702B1CD9
:104F80005D1CF0D168460193FFF7AFFE201CFFF7D0
:104F9000E3FE37BD37B500236C46E3710734201CB0
:104FA0000D1CFEF7EDFF2B681818286001F0A4F81F
:104FB000211C01F05BF82B681818286020783EBD92
:104FC00003290BD10D4BB2221B685200985C802143
:104FD000494201439954022168220CE001290CD175
:104FE000064B92221B685200985C80214942014383
:104FF000995402212822FF3299547047500B002007
:1050000038B5264B2021DA69051C0A43DA61244BA6
:1050100001201A78062402431A70224B0F221978B5
:10502000914319701978214319701F490C78204356
:10503000087019780A401A701A7860210A431A70A9
:105040001A4B1B4A5A805A78D209FCD11948FEF7EC
:105050004BFF194C201CFFF7FFFD201CFFF710FE33
:1050600023687F2219780A401A701A7804210A43AB
:105070001A701A890C218A431A81C1210F4A8900AA
:1050800050580002000A5050802111601A78022105
:105090000A431A7001232B7038BDC046000400403B
:1050A000584400413C44004159440041000C004038
:1050B00006400000755A0000500B002000E100E09F
:1050C0000078002810D0094B01211B681A898A43F7
:1050D0001A811A8B08210A431A831A8B04210A4366
:1050E0001A83034B00221A607047C046500B002001
:1050F000540C00200F4B9A69920B92039A611B6823
:105100000222FF331A7298798022524202439A7126
:105110001A7A9007FCD5084B081C997A7F22104018
:10512000914301439972997A802252420A439A72BA
:105130007047C046500B00200050004110B50B795D
:105140000C1C002B0BD1081CFEF728FF002804D1F3
:10515000094B9A69920B92039A6101200BE000F0CF
:10516000CBFF211C00F0B6FF0028F6D1024B9A6954
:10517000920B92039A6110BD500B0020F7B50D1CE5
:10518000832A18D1CAB236495301CB189C693548D5
:10519000AD012040C024A405204398613248083264
:1051A00045195D610B685201D15C7020814340203C
:1051B0000143D15453E0022A4DD12C4B8900C858E9
:1051C0000191002802D003681B6998473820FEF738
:1051D00043FE274B224F8026036076000023421DAA
:1051E000036203614361C36147608560C660D37732
:1051F0002F32041CC36203631370301C537002F01F
:1052000069FFA061301C02F065FFFF231D406D01A6
:10521000A0627F19B968134A07250A40C021890591
:105220000A43BA60A16862681940126808314901EE
:10523000885CA843032528438854A268616813400A
:105240005B01A269CB185A60201CFFF785FD074B54
:1052500001995C5003E0081C111CFFF799FCF7BD95
:10526000500B0020FFFFFF8FAC0700202C0B00200D
:1052700040A8000038B5051C0124064BA200D258F6
:10528000002A06D0211C281C0134FFF777FFE4B266
:10529000F3E738BD6000002008B5084B8A00D058FD
:1052A000002803D003689B68984706E0C9B2044B06
:1052B0004901591888688004800C08BD2C0B002017
:1052C000500B002010B50C1CFFF7E6FF00280CD097
:1052D000064BE1B21B680831490159184A7980230D
:1052E0005B4213434B710223CB7110BD500B002066
:1052F00070B5CAB2134B14485401890159180319E7
:1053000059609D681149083229408025AD02294322
:10531000996099684026890B890399600368510157
:1053200059180D7935430D715101591889794D0678
:10533000FAD551015918C979CD07FAD50419A068D1
:10534000C0B270BD6C090020500B0020FF3F00F080
:1053500038B50C4B141C1B680D1CFF335A794021C7
:105360000A435A710021FFF7C3FFA04200D9201C55
:105370000023A34204D0044A9A5CEA540133F8E7BC
:1053800038BDC046500B00206C09002010B5C9B2D2
:105390000C48490143189A689204920C3F2A08D994
:1053A000141C9A68403CA404920BA40C9203224360
:1053B00002E09A68920B92039A6041188868C0B222
:1053C00010BDC046500B0020F0B51C1C2A4B85B008
:1053D0001B68061C0D1C0292002B46D0274B8A002E
:1053E000D058002805D0036802995B68221C9847B2
:1053F0003FE0301CFFF750FFA04204D2301C291CB4
:10540000FFF74AFF041C291C301CFFF7BFFF1C4F8D
:10541000E9B24A010191396803928B18FF335A7A35
:1054200001210A4317495A72AB01C9180298221C7C
:1054300002F073FE002C1BD0301C291CFFF72CFF40
:10544000002815D1019B3A6808335B01D3181979FC
:105450004020014319710121D97103995318FF3379
:105460009A7A01210A439A7202E00120404200E048
:10547000201C05B0F0BDC046540C00202C0B0020B1
:10548000500B00206C09002013B56C460734221C19
:105490000123FFF799FF012801D1207801E00120C5
:1054A000404216BDF0B51C1C3A4B85B01B680E1C63
:1054B0000292002B60D08023DB019C425CD800224A
:1054C0000092002C56D0344DF7B22B6801933B1C50
:1054D0000833019A5B01D3189B79DB091AD02F4B53
:1054E0002F49186800F05CFE2E4B1721584300F03E
:1054F00057FE3B1C0833019A5B01D318DB799A07EE
:1055000008D4294B9A5D002A38D1421E002835D094
:10551000101CEEE7244B00229A55251E3F2D00D982
:105520003F25224AB301D318181C02992A1C039361
:1055300002F0F3FD184A7B01D318039AA9045A61BB
:105540009A69890C920B92030A439A613B1C019A57
:1055500008335B01D3180222DA7159798022524252
:105560000A435A71009B029A5B1952190093641BFB
:105570000292A6E700980BE0012008E001229A556C
:105580007B01ED18AB69101C9B0B9B03AB61404288
:1055900005B0F0BD540C0020500B00208800002006
:1055A00040420F0070110100A4070020AC0700204A
:1055B00070B50E4D1C1C8B01ED18281C0E1C111C07
:1055C000221C02F0AAFDF6B20949760189194D6143
:1055D0008A69084B201C13408B618B69A2049B0BCA
:1055E000920C9B0313438B6170BDC046AC07002037
:1055F000500B0020FF3F00F0F7B5114B01901B78D6
:105600000F1C141C002B19D10E4B1E78002E01D13B
:10561000151C08E00C4D0D482E888019361902F033
:105620007CFD2E800AE0002D08D0BA192B1C0198B1
:105630000021FFF7BDFF36182D1AF4E7201CFEBD30
:105640004A0B0020480B0020A2070020A1060020E2
:10565000F8B50E1C00AF151E012D28D9D31DDB088F
:10566000DB006A46D21A9546081C02F071FE013032
:105670006C4640000323207063700222AA420ED2BF
:105680003378002B0BD0511CC9B20136A354A94268
:1056900004D0002302326354D2B2EFE72A1C05483B
:1056A000211CFFF7A9FF431E9841C0B200E0002073
:1056B000BD46F8BD4B0B002008B5044B00221A7004
:1056C000034B04491A88FFF797FF08BD480B0020D9
:1056D000A2070020A1060020F0B5204A87B00123D0
:1056E0000026009102A91370051C0296FFF752FCD8
:1056F00003AC092701903A1C201C311C02F02FFD3D
:1057000002236370A023E371FA232372029B012218
:10571000DB196380019B62712371104A009B277023
:105720001670BB4205D1281C211C1A1CFFF764FF10
:1057300011E00B4B01221A700A4B211C3A1C281C49
:105740001E800296FFF758FF281C02A9FFF722FCD3
:10575000281CFFF7B1FF012007B0F0BD4A0B002065
:10576000480B0020A207002070B5CE7892B0051C2F
:105770000C1C022E08D1C9882D48FFF7ADFF031C71
:10578000581E8341D8B251E000F0B6FC211C00F055
:1057900082FC002803D0C3171B1AD80F46E0012E45
:1057A00004D1E2882349112A3BD837E0032E3DD1AA
:1057B000A278002A05D12049E2880B7893422DD89F
:1057C0002FE0022A03D1A279281C1C4904E0012AF7
:1057D00005D1A2791A49281CFFF73AFF26E0032ACF
:1057E00024D1184B01A91868FFF7ACF9164B03A98F
:1057F0001868FFF7A7F9154B05A91868FFF7A2F974
:10580000134B07A91868FFF79DF900F075FC09A96B
:1058100000F051FCA279281C01A9DDE7D2B2002AD0
:1058200000D10A78281CFFF7E7FE012012B070BDF6
:105830004B0B002068A8000064A800007AA80000B4
:1058400058A800000CA0800040A0800044A0800068
:1058500048A0800073B5051C48780C1C0B2878D82C
:1058600000F094FC081C7728773E4306474B686F8E
:1058700000206FE0097801AA002903D1117051704E
:10588000281C09E0002313705370334B1B78012B45
:1058900000D11370281C002102234FE08A780023D6
:1058A000012A04D101AA137053702C4BEEE72A4A47
:1058B000137049E08E78012E07D1284B01AA0021F0
:1058C0001E701170281C331C38E0002E08D1224AAB
:1058D00001231370224A9169890B8903916138E091
:1058E000A178281CFFF706FC33E0281CFFF73CFFDB
:1058F00030E0281C00211B4A1FE00A780020D30654
:1059000028D1281CFFF7B6FCA2781549154B0224B4
:105910001A600A682A23FF33D05C2043D0544A20FF
:10592000FF30145C01231C4314548A69920B9203C8
:105930008A610EE00C4A281C00210123FFF738FE83
:1059400007E08A78084B1A60054B9A69920B92031C
:105950009A61012076BDC046A0060020490B0020B8
:10596000500B0020540C00204C0B0020F8B53B4B92
:10597000071C1C78002C70D1394D2868838B1907BF
:105980000ED5201C211CFFF703F92B6810201A1CD0
:10599000FF32917A01439172324A146008229A834D
:1059A0002B689A8B500701D504229A83FF331A7A09
:1059B000D10626D510221A725A7940210A432A4963
:1059C0005A710A786023381C1A4202D1FFF742FF4D
:1059D00001E0FFF7B3FB002806D02B688022FF33DD
:1059E000997952420A4301E0204B20229A712B6898
:1059F000FF331A7A500604D540221A72597A0A43A4
:105A00005A722968FE230E8C00241E40E1B2002E3B
:105A100023D0321C012322411A4216D0221C2868AE
:105A2000083252018218D079184203D1D279DA4073
:105A30001A4207D00E4BA200D058002809D00368A4
:105A40001B6898470123A3409E430134092CDDD1F4
:105A500003E0381CFFF7B4FAF4E7F8BD480B002068
:105A6000500B0020540C00206C090020FF50004116
:105A70002C0B002008B50248FFF778FF08BDC04690
:105A80004B0B0020014A024B1A6070470050004146
:105A9000500B0020314BFA21186810B5890000F036
:105AA0007FFB2F4B0138984224D82E4A2E4B506052
:105AB000186AC0210002000A090601431962002485
:105AC000072194601160196A80220902090A1206EE
:105AD0000A431A62254BFC211A6A0A431A62196AA0
:105AE000FC2292010A431A62196AA022D2020A43D6
:105AF0001A6200E0FEE7201C00210134FEF7A4FA40
:105B00000F2CF8D11A4C63785BB2002BFADB194BDF
:105B10006380194B5A7ED209012AFAD0E422D200BE
:105B20009A803F22DA70597E134AC9090129FAD0B6
:105B3000C0235B0100201361907000F069FA637864
:105B40005BB2002BFBDB0D4A094B5A800C4BDA7918
:105B5000D209012AFAD041225A7010BD88000020D3
:105B6000FFFFFF0010E000E000ED00E00004004057
:105B7000000C00401E400000004000422140000098
:105B8000004800420120704708B50368014A1B6ABB
:105B9000984708BD13040000031CFC33D9699A69B7
:105BA000914203D0DB69C018007D01E00120404232
:105BB000704710B5041C0069FEF727FC221C002367
:105BC000FC329361D36186229200A4186360A360C3
:105BD00010BD0000F0B587B001930CAB1B78802698
:105BE00002930DAB1B78002503930EAB1B78760058
:105BF00004930FAB1B78041C0593FA239B0083606E
:105C0000194B0F1C0833009245600360291C321C9D
:105C1000143002F0A4FA231C8E22FC3352009D6142
:105C2000A018DD61321C291C02F099FA862292002C
:105C3000A3185D60009A9D6089239B002761E25450
:105C4000019A0A4B201CE254029A094BE254039A2F
:105C5000084BE254049A8A239B00E254059A8E234F
:105C60009B00E25407B0F0BD90A8000025020000A0
:105C7000260200002702000030B585B0041C08A8E9
:105C8000057809A8007800950190FF200290039004
:105C9000201CFFF79FFF201C05B030BDF023081C1F
:105CA00018403038434258417047F0231B011940D7
:105CB00080239B0099420CD0C0239B00994206D0C0
:105CC00080235B000520994204D0002002E00720D9
:105CD00000E0062070470F231940012905D0023942
:105CE0004B424B410220C01A00E0002070470000E8
:105CF000F0B5892385B003919B00041C1827C05C74
:105D00003B1C4343324E0821F3185956151CFEF72D
:105D1000C9FC304B0821E05C3B1C4343F318595647
:105D2000FEF7C0FC2C4BE25C022A0AD18E239B00BA
:105D3000E05CFF2805D047430821F7197956FEF7A4
:105D4000B1FC8A27BF00E05DFF281AD00121FEF7D1
:105D50007BF9E35D18225A43B3562049DB015818FA
:105D60008B21890060501E49B6185B188C2172681F
:105D700089006350012191400A1C8D2189006250E5
:105D80001A6001210A1C039B2069FEF731FC291CC3
:105D9000201CFFF78AFF291C071C201CFFF79BFF14
:105DA000291C061C201CFFF779FF391C0090331CAE
:105DB00020690122FEF7FAFA074B2069E15C094BE2
:105DC000E25CFEF70FFB2069FEF72DFB05B0F0BD8E
:105DD000C8A400002502000027020000184400416A
:105DE0001444004126020000031CFC3358689B68E1
:105DF000C01A01D50130FF30704710B5041C8E2346
:105E00005B00E018FFF7F0FF0028F8D12069FEF7EB
:105E100014FB10BD08B51430FFF7E6FF08BDFC30D9
:105E2000426883689A4204DB43688068C01AFF3086
:105E300003E082684368D01A0138704708B51D3006
:105E4000FF30FFF7ECFF08BD38B5041C0069FEF712
:105E500010FB002805D02069FEF71BFB2069FEF728
:105E60000DFB2069FEF7F5FA002820D02069FEF727
:105E700010FB231CFC339A69D9690132D2B28A42E1
:105E800003D09969611808759A618A239B00E35CC5
:105E9000FF2B0CD0201C1430FFF7C1FF092806DCB3
:105EA0008B238D229B009200E358A2581A60206930
:105EB000FEF7EAFA00281FD08E225200A518281CEF
:105EC000FFF792FF031C2069002B13D0862292005B
:105ED000A31899685A68914206D09A68A95C9A6892
:105EE0000132D2B29A6001E001214942C9B2FEF703
:105EF000D4FA01E0FEF7DCFA2069FEF7AFFA0028D9
:105F000005D02069FEF7AEFA2069FEF79EFA38BD8B
:105F100070B5041C00690D1CFEF7B6FA8E22520003
:105F2000A61800280ED0301CFFF75EFF00283DD0D9
:105F300008E0EFF31083DA0722D41F4B5A68D2052A
:105F4000D20D0AD186229200A31858689A680130AF
:105F5000FF2108409042ECD01BE0103AD2B253B27D
:105F6000002B08DA0F231A40083A144B92089200CB
:105F7000D218536804E09B08C033114A9B009B5819
:105F80002069FEF781FA0028DCD0201CFFF75CFFB7
:105F9000D8E75A6801320A4099688A4202D05968A3
:105FA00075545A602069FEF77FFA03E02069291CC6
:105FB000FEF773FA012070BD00ED00E018ED00E07F
:105FC00000E100E038B5031CFC33D9699A69041C70
:105FD000914207D0DA698218157DDA690132D2B2AE
:105FE000DA6101E001256D428A239B00E35CFF2B0F
:105FF0000CD0201C1430FFF712FF0A2806DD8C237A
:106000008D229B009200E358A2581A60281C38BDCC
:1060100000B5144A517E131CC9090129F9D0013871
:10602000042813D81969104A0A401A615A780F21B6
:106030008A4300F0ABF8030509070300012102E0E1
:10604000032100E002210A435A700AE01169F0239B
:106050001B050B43136153780F218B4302210B4324
:10606000537000BD00400042FFFFFFF070B5446870
:106070000E1C0025002C09D02368201C5B68311CF5
:106080009847002804DB2D18E468F3E7281C01E09A
:106090000120404270BD38B544680D1C002C08D06A
:1060A0002368201C9B68291C9847002802D1E468BB
:1060B000F4E7201C38BD38B544680D1C002C07D00F
:1060C0002368201C291CDB689847E4682D18F5E735
:1060D0002C7038BD38B544680D1C002C08D02368DE
:1060E000201C1B68291C9847002803D1E468F4E7AA
:1060F000201C00E0012038BD064B0122196810B5B4
:106100001140054805D10224047004244470416004
:106110001A6010BD600C0020580C002008B5031C4C
:10612000081C191C01F0A0FF08BD00000B1C011C7D
:10613000021C30B519430220002900D130BD802156
:1061400009068B4216D00D4904205C180C498C427C
:10615000F4D90C4D5C198C42F0D90B4C590049080C
:106160000320A142EAD9074C0020A142E6D15042C7
:106170005041E3E7002AE1D0EFE7C0460000F0FF1E
:10618000FFFFDF7F0000F07FFFFF0F0002B47146CA
:1061900049084900095C49008E4402BC7047C0466A
:1061A000002934D00123002210B488422CD30124CA
:1061B0002407A14204D2814202D209011B01F8E75F
:1061C000E400A14204D2814202D249005B00F8E718
:1061D000884201D3401A1A434C08A04202D3001B44
:1061E0005C0822438C08A04202D3001B9C08224377
:1061F000CC08A04202D3001BDC082243002803D0B5
:106200001B0901D00909E3E7101C10BC70470028E6
:1062100001D00020C04307B4024802A140180290F8
:1062200003BDC046D90000000029F0D003B5FFF738
:10623000B9FF0EBC4243891A1847C046002941D015
:1062400010B4041C4C40A44601230022002900D5B0
:106250004942002800D5404288422CD3012424071B
:10626000A14204D2814202D209011B01F8E7E400F5
:10627000A14204D2814202D249005B00F8E7884281
:1062800001D3401A1A434C08A04202D3001B5C08F9
:1062900022438C08A04202D3001B9C082243CC0856
:1062A000A04202D3001BDC082243002803D01B09B4
:1062B00001D00909E3E7101C6446002C00D54042D8
:1062C00010BC7047002806D003DB0020C043400804
:1062D00001E08020000607B4024802A140180290A5
:1062E00003BDC046190000000029EBD003B5FFF73D
:1062F000A7FF0EBC4243891A1847C0467047C046E4
:106300008446101C62468C46191C634600E0C04659
:106310001FB500F05BFF002801D40021C8421FBD5B
:1063200010B500F08BFE4042013010BD10B500F0FA
:106330004DFF002801DB002010BD012010BDC0462C
:1063400010B500F043FF002801DD002010BD012042
:1063500010BDC04610B500F0BBFE002801DC0020D7
:1063600010BD012010BDC04610B500F0B1FE0028E0
:1063700001DA002010BD012010BDC0464302590AB9
:106380004300C20F1B0E00207E2B0DDD9D2B0CDC6D
:10639000802000040143952B0ADC9620C31AD940C3
:1063A0004842002A00D1081C7047034BD018FBE775
:1063B000963B9940F4E7C046FFFFFF7FF8B55F4684
:1063C000564644464D46F0B40C034D00CE0F610ACC
:1063D000440F2143C400180380465800400D8246F4
:1063E000D80F84464046400A530F0343D0006D0D3A
:1063F000371C83465246664500D19DE0AF1A002FF8
:1064000000DC03E1002A38D1184300D0E4E0630740
:1064100009D00F232340042B05D0231DA342A44100
:10642000644209191C1C080200D478E0CE4B6A1C97
:106430009A4200D105E1CD4BE408194048075205C6
:10644000490204430B0B520D371C002000211B0393
:10645000201C1C0B0B0D1B05C54D23435205520878
:106460001D4015436D006D08FF07291C39433CBCD6
:1064700090469946A246AB46F8BDBB488542C6D079
:10648000802000040343382F00DDECE01F2F00DDE7
:1064900020E12020C01B1A1C814682405846F8404B
:1064A0000243944658464A469040421E9041FB4063
:1064B000624602431F1CA21A9442A4416442C91BB3
:1064C000091B141C0B02A2D549024F0A002F00D150
:1064D000C4E0381C01F0AAFD021C083A1F2A00DDA6
:1064E000B7E02821091A201C9740C8400743944070
:1064F000954200DDA9E0551B691C1F2900DDD8E08D
:106500001F22551B3B1C221CAB40CA40AC40651EE1
:10651000AC411343CF401C43391C002577E74807A3
:10652000E4086A05C908520D371C04438E4B9D428E
:1065300048D009030B0B88E7AA1A9446002A00DC0E
:1065400098E05046002853D08748854200D15EE746
:106550008020000403436246382A00DDFDE01F2A44
:1065600000DD4BE120226046101A1A1C8240824650
:10657000914658466246D0404A46024390465846A5
:1065800052469040421E9041424602436046C340FC
:106590001219A242A441644259180919141C080294
:1065A00000D434E7704B01359D4200D124E16F4B9C
:1065B00060081940012323401C1C0443CB071C43E3
:1065C000490824E70B1C234300D1C7E180231B03A8
:1065D0000B431B031B0B38E7013F002F64D15846C8
:1065E000221A9442A4416442C91A091B141C69E787
:1065F0005846184300D10AE70122524294446046AB
:10660000002800D0C5E058460219C2E7002F72D119
:10661000681C4005400D012800DCDEE05A46A21A45
:106620009442BF41C81A7F42C71B380200D488E099
:106630005A46141BA3459241591A52428F1A664674
:1066400044E7371C00230024FFE64849AD1A3940CF
:10665000DDE6271C28388740002449E7201C01F08C
:10666000E5FC203038E75A461A43531E9A41D2B20D
:10667000002720E7002A00D0DDE0681C4205520D0B
:10668000012A00DC8EE0384DA84200D1B3E05D461F
:106690002A19A242A441644259180919CC07520888
:1066A00014434908051CB2E62F48854200D0EAE6AB
:1066B000ADE62B1C1F3B3A1CDA40131C20296DD081
:1066C0003F22551BAF403C43601E84411C430021C8
:1066D00000259CE6381C20381A1CC240101C202FB4
:1066E0005ED04022D71BBB405A461A43531E9A41E4
:1066F00002430027DFE6002D3CD01B4DAA4500D108
:1067000094E080252D047F422943382F00DDADE041
:106710001F2F00DD2CE12025ED1B081C261CA840A6
:10672000FE40AC400643651EAC413443F9405D4633
:106730002C1BA34592415B1A5242991A5546664654
:10674000C0E6131C3B43141C002B00D0BEE6002700
:106750000022002500210024E8E65A461A43531E71
:106760009A41D2B2002313E7FF070000FFFF7FFF2B
:10677000FFFF0F800D1C254358D0FF43002F51D140
:10678000041BA3459241591A5242891A554666463E
:1067900098E69648854200D0DDE638E6002792E785
:1067A0000023A1E7081C2043002D00D0C0E00028F2
:1067B00000D1FBE05846184300D128E6584602199C
:1067C000A242A441644259180919141C0A0200D4B7
:1067D0001DE6874B0125194019E6081C2043002DB2
:1067E00039D100286DD15946194300D1BDE0191C9B
:1067F0005C4666460BE6051C2A1CABE76046203863
:106800001A1CC24060469146202800D1ABE04022CD
:10681000121A93405A461A43531E9A414B461A4342
:106820000023B5E6714DAA4500D06EE7191C5C4601
:1068300055466646EBE5002D1ED10D1C254373D051
:10684000D543002D6DD15C445C45924159185242AC
:1068500089185546A3E6002849D15946194300D165
:1068600096E0191C5C466646604DD0E50C43611EFF
:106870008C41E4B200215AE75C4DAA4554D0554200
:10688000802210040143382D00DD85E01F2D00DD3E
:1068900095E02022501B0A1C84468240201CE840C0
:1068A0000243904662469440601E8441424614432F
:1068B000E9405C445C459241CB18524299185546D8
:1068C0006DE65846184300D1A1E55846271ABC4248
:1068D0009241C81A5242801A02026AD55846041BD5
:1068E000A3459241591A5242891A66468FE5584685
:1068F000184336D04807E40804438020C908000341
:10690000014208D0DD08054205D15946CA085C0796
:106910001443291C6646630FC9001943E400334D34
:1069200075E5324A9245AED1191C5C4655466EE576
:10693000002837D05846184313D080254807E4086C
:10694000C9082D0304432942E5D0D8082842E2D1E2
:106950005D46EA085C071443011CDCE700230024C1
:1069600073E5224D53E5002354E700270022F1E6AA
:106970003D1C203D0A1CEA40151C202F31D040262A
:10698000F71BB9400C43611E8C412C430021CEE61D
:10699000164A0027151CDDE60C43611E8C41E4B24B
:1069A000002186E7191C5C46104D30E5191C5C4639
:1069B0002DE5031C3B43D8D0011C3C1C27E52020BF
:1069C000404240190A1CC2409046202D0BD0402066
:1069D000451BA9400C43611E8C4145462C430021B8
:1069E00067E70021CEE70021F4E7C046FF0700007B
:1069F000FFFF7FFFF0B5564644465F464D46F0B474
:106A00001F1C0B031B0B98464B0087B0041C8146D0
:106A10005B0DC80F161C9A460090002B51D06A4B94
:106A20009A4531D08022414652030A43630FD20077
:106A30001A43664B90460025E20091469A44002492
:106A400002953B031B0B9B46FD0F7B00311C5B0D2E
:106A5000019560D05C4A934254D080215846490346
:106A60000143720FC9001143584A8B469B18F1002D
:106A70000020009A04436A4003920F2C00D9ADE035
:106A8000534EA4003459A746404604436ED100211A
:106A900002250824884689460295D2E7009C029880
:106AA000C34649460194022864D0032800D1ABE2D2
:106AB000012800D038E2019A002402400025A146B6
:106AC00060E0434623434AD04046002800D1C0E15D
:106AD00001F0ACFA031E272B00DDB3E128210D1ACB
:106AE000211C083B4246E9409A400D1C1543221CDC
:106AF0009A40A8469146374B00251B1A9A46002417
:106B000002959EE75A4616430320002EB1D1B346A4
:106B100000210220ADE75A4632431BD05B46002BD2
:106B200000D18AE1584601F081FA272800DD7DE195
:106B30002822171A011C321C08395B46FA408B4088
:106B4000171C1F43331C8B40BB46191C214B1B1ABF
:106B500000208EE70027BB460021012089E70020A6
:106B6000012504248046814602956AE703250C240A
:106B7000029566E7019C0394039D01222A400024AC
:106B8000114DA146002000212403260B0C0D2405E5
:106B9000114B34432D0523402B435B005B08D20788
:106BA000191C4846114307B03CBC90469946A24682
:106BB000AB46F0BD0022802424039146024DE1E75C
:106BC00000240025A146DDE7FF07000001FCFFFFD0
:106BD000C8A800000DFCFFFFFFFF0F805546ED1A0F
:106BE0000495D84500D953E100D14EE1049C00251D
:106BF000013C4E4604944746A946584603020C0EF3
:106C00001C430902250C23041B0C0091381C291C71
:106C10000193FFF7C5FA019983464143381C8A4620
:106C2000291CFFF701FB330C090419438A450CD9D1
:106C30005B460919013B8C4200D947E18A4500D8DF
:106C400044E102225242934409195346CB1A181CBC
:106C5000291C9846FFF7A4FA071C0198291C7843C1
:106C600082464046FFF7E0FA36040B04360C334305
:106C70009A4509D91B197A1E9C4200D924E19A45EC
:106C800000D821E1023F1B195E4632041743380C3D
:106C9000BB46009E009F51463F0C32045B1A59468A
:106CA000BA46120C0F043F0C904651467A434F43AC
:106CB0004146414356467043CF19160CBE19B142A6
:106CC00002D980277F02C019310C12043604120C3D
:106CD0004018B618834200D2C4E000D1BEE0191AB1
:106CE0004846861BB145BF417F42CF1BA74200D11A
:106CF00013E1291C381CFFF753FA01990290414314
:106D0000381C8946291CFFF78FFA330C09041943F4
:106D100089450CD9029B0919013B8C4200D9FFE03F
:106D2000894500D8FCE0029F0919023F02974F46AF
:106D3000CF1B381C291C0597FFF732FA071C019856
:106D4000291C784381460598FFF76EFA360409043A
:106D5000360C0E43B14509D936197B1EB44200D911
:106D6000E0E0B14500D8DDE0023F3619029D49461A
:106D7000761A290439430B0457460A0C1B0C40466B
:106D80004546584355437B437A43EB18070CDB19C0
:106D90009D4202D980256D0252191D0C00041B046E
:106DA000000C52191B18964235D300D1FCE0012388
:106DB0001943049E994FF519002D00DCA1E0480706
:106DC00009D00F230B40042B05D00B1D8B428941AA
:106DD00049428B44191C5A46D20107D5904B5C4658
:106DE000049E80271C40FF00A346F5198D4B9D4251
:106DF0007ADD039C0122224000248B4DA146C1E68E
:106E000080242403474627424CD13C432403240BCF
:106E1000009A854DB6E63619481EB4425ED9011C6B
:106E20009642C4D1009E9E42C1D1C2E7031C283BBA
:106E3000311C99408B46002188E6301C01F0F6F8A1
:106E4000203072E6283B211C99400022884691465A
:106E500051E6201C01F0EAF820303BE60021B14564
:106E600000D33DE7009F5A46B944B945BF417F4230
:106E70003F19FB18013A9C421ED2984200D97EE08D
:106E800000D1B5E0191A93462AE7894500D8ADE646
:106E90004846464642467708D3074608C0071E4381
:106EA0008146AAE65846204212D1044324032A1CF4
:106EB000240B89465C4D65E6A342E3D1009F4F4514
:106EC000DBD9211A93460BE7171CDDE69B46BCE68F
:106ED0003C432403240B009A534D53E6B24259D845
:106EE00000D18AE0011C62E75F46C9087B07039E68
:106EF0000B437C026D0501229946240B6D0D324037
:106F000040E64A4B049FDB1B382B10DD039C01221B
:106F1000224000240025A14634E60121494248E7E9
:106F2000029304E71F1C21E7019C039441E71F2BF8
:106F300040DC3F48049F0C1C3A1858469140DC4006
:106F4000904020430A1C511E8A41011C11435A469D
:106F5000DA40131C480709D00F220A40042A05D042
:106F60000A1D8A42894149425B18111C1A0234D514
:106F7000039C0122224000240125A14602E6009F35
:106F800002214942B9448B44B94589414942091912
:106F9000CB18A4E6009D881E6900A942AD416D4250
:106FA0002C19361900913AE7002B00D033E7002462
:106FB000009437E71F4A049C5D46121BD5402A1CEB
:106FC000202B1FD01C4E5F46A3199F403B1C19432A
:106FD0004B1E994111430023BCE75A07C9080A43D5
:106FE000039F91465B0201221C0B3A400025C9E534
:106FF0004E45C4D89346002172E6009F9F42C9D3F4
:10700000011C0FE70023E2E7802424035F463C4392
:107010002403240B019A8946034DB3E5FF030000C6
:10702000FFFFFFFEFE070000FF07000002FCFFFF5E
:107030001E040000E2FBFFFF3E040000F0B55F46C7
:1070400056464D464446F0B40D1C041C8046E80FDD
:10705000814618030F03000B3F0B83B084461B4887
:10706000009749005E00DF0F490D9246760DBB4642
:1070700081420CD01548864210D00120B14215D073
:1070800003B03CBC90469946A246AB46F0BD009F7B
:1070900001202743F4D10D488642EED160460243D9
:1070A0000120002AECD10120B142E9D1009B6345C7
:1070B000E6D1D045E4D1D94506D00029E0D11C4322
:1070C000201C441EA041DBE70020D9E7FF07000099
:1070D000F0B55F4656464D464446F0B4CD0FDE0F40
:1070E000AC461D032D0BB146374E0F034C00AB468B
:1070F0005D0080463F0B640D92466D0DB44232D068
:10710000314EB54235D0002C0ED138434142414179
:10711000081C002D0BD0002919D1CC452DD0654677
:1071200068420123184318E0002DF6D1281C594667
:107130000A4353425341002806D1002BEDD0634649
:1071400058420123184308E00020002B05D14A468D
:10715000504250414042012318433CBC904699465E
:10716000A246AB46F0BD3E1C0643C9D002204042B9
:10717000F3E75E461643C6D0F8E7AC4207DC0BDA0D
:10718000614648424841404201231843E5E76646CC
:10719000704201231843E0E75F450AD80ED0002073
:1071A0005F45DAD265466842684140420123184390
:1071B000D3E76246504201231843CEE7D045F8D8C2
:1071C0000020D045EED3C8E7FF070000F0B55646D3
:1071D0004D4644465F46F0B40D1C83B0041C01903C
:1071E000E80F814618030F03000B3F0B8446354818
:1071F000009749005E00DF0F490D9246760DB846B4
:10720000814234D02F48864236D0002918D0002E33
:107210001FD1341C67463A4353425341002C1FD0C0
:107220000020002B05D142465042504140420123EC
:10723000184303B03CBC90469946A246AB46F0BD0D
:107240000098044360426041041C002EE2D00028F4
:10725000E9D1C14515D04F46784201231843E8E7EC
:10726000002BF6D04B46584201231843E1E7009F1C
:1072700002202743DDD1C5E7674602201743D8D156
:10728000C3E7B14204DD4A46504201231843D0E728
:10729000B14207DB00986045E4D80AD0009F002087
:1072A0006745C6D24F467842784140420123184391
:1072B000BFE7019A5245D5D8019A00205245F1D333
:1072C000B7E7C046FF070000F0B5564644465F46A4
:1072D0004D46F0B41F1C0B031B0B9A464B0087B0A6
:1072E000041C80465B0DC80F161C02938146002BC0
:1072F00068D0694B0299994232D08022534652039A
:107300001A43D200630F1A439246644AE000891878
:1073100080460291002400253B031B0B9B4678000E
:10732000FB0F321C400D039300D175E05A4B98427D
:1073300069D08022594652030A43730FD2001A4380
:10734000564B9346C018F200002303994E467140F5
:107350001C430F2C00D9A9E0514EA4003459A74674
:1073600053461C4300D087E00025AA46A8460824BF
:107370000225D1E74946022D6CD0032D00D117E23A
:10738000012D00D058E10D40EDB20024A9460023A4
:10739000A0460020002125030A0D1C052D0B120517
:1073A000404B2A43134023435B004C465B08E207F3
:1073B000191C4046114307B03CBC90469946A24672
:1073C000AB46F0BD5346234350D05346002B00D16B
:1073D00084E1504600F02AFE031E272B00DD76E1F3
:1073E00028210D1A211C083B5246E9409A400D1CE9
:1073F0001543221C9A40AA4690462B4B00241B1A88
:107400000293002588E75B461E430323002E9CD190
:10741000B3460022022398E75B46334321D0584607
:10742000002800D14EE100F001FE272800DD42E1F6
:1074300028210F1A021C311C083A5B46F940934080
:107440000F1C1F43331C9340BB461A1C164B181AC3
:1074500000237AE701230B4000249946A0460E4BF7
:1074600097E70027BB46002201236EE70021042492
:107470008A46884601254FE70C2403254CE7002562
:107480008024A9462403A846034B82E7DA469046A7
:1074900003991D1C6FE7C046FF07000001FCFFFFBA
:1074A00008A90000FFFF0F800DFCFFFF029F160CD4
:1074B000381804904046070C0004000C1204120C0B
:1074C000031C5343041C3D1C7443554398463B1C0A
:1074D00073436419A44644460293230C63449D42BB
:1074E00004D9029D802464022D1902951D0C039578
:1074F00045462C041B04240C1C1905945C46230CE3
:10750000051C58432404240C8446381C60436543FE
:107510005F438146CC44280C6044BB46814502D978
:1075200080277F02BB442D04070C2D0C000440195A
:107530005546BC462F04E3448446280C3D0C2F1CC2
:107540005743B8462F1C77434243B94647463F0C42
:107550009144BA46D14446434A4502D98022520258
:10756000B6184F463A0CB6183A0447463F043F0C4B
:10757000B8462F1C67435D43444358436519019047
:10758000380C2D184244B846AC4204D901988023E7
:107590005B02C0180190039C029F201C6044C0192C
:1075A0006045A44147466442A4462B043C049946E6
:1075B000240C4C44A046D8448018C246E244904271
:1075C0009241574652429146F219E245BF417F42ED
:1075D0004B46BC46D845BF41D4187F4263461F4343
:1075E0002D0C7F19B24292414C45AD4152426D4241
:1075F0001543019E7D19AB19E20D5B02059F1343F4
:1076000042023A439A46531E9A41C30D101C184336
:107610006402204380465046C0010DD545460122F4
:107620005646049C6B082A401A43F30701341A4358
:10763000760804949046B246049E634FF319002BDB
:1076400061DD404640070BD00F2244462240042A09
:1076500006D0424604324245804140428244904630
:107660005546ED0107D5594B5646049F80201E40D4
:10767000C000B2463B18564A934200DDEAE6444653
:107680005546E2086807104301226C025B050A4078
:107690008046240B5B0D91467BE6DA4690461D1C26
:1076A00069E680242403574627421CD13C43240327
:1076B000240B484B6DE6031C283B311C99408B463C
:1076C0000022C3E6301C00F0B1FC2030ADE6283BC0
:1076D000211C994000228A4690468EE6201C00F02C
:1076E000A5FC203078E65846204207D10443039990
:1076F0002403240B89469046364B4AE63C43240338
:10770000240B344B45E6344B049E9B1B382B06DD83
:1077100001230B4000249946A046002339E61F2B85
:1077200025DC049C2D4D4646601952464446864051
:10773000DC4082405746301C2243DF40441EA041BB
:1077400002433B1C540709D00F201040042805D0E9
:10775000101D9042924152429B18021C1D021AD5E4
:1077600001230B4000249946A046012311E61C4842
:10777000049C5546001BC540281C202B16D0194ED2
:107780005746A21997403A1C43461A43531E9A4142
:1077900002430023D6E758075B02D2081C0B0123E3
:1077A0000B401043994680460023F2E50022EBE7A8
:1077B0008024240350460123044319402403240B4E
:1077C0008946044BE5E5C046FF030000FFFFFFFECE
:1077D000FE070000FF07000002FCFFFF1E04000080
:1077E000E2FBFFFF3E040000F8B55F465646444604
:1077F0004D46F0B40C034D00CF0F610A440F2143F6
:10780000C4001803DE0F8046B44646465800760A88
:10781000530F3343D600C94A6D0DBA46400DB346E7
:10782000904200D1EBE062460126724094466745E3
:1078300000D1A1E02F1A002F00DC08E100283BD185
:107840005846184300D0E8E0600709D00F232340D2
:10785000042B05D0231DA342A441644209191C1C1A
:107860000A0200D479E0B54B6A1C9A4200D109E1C2
:10787000B34BE40819404807044349025205012765
:1078800050460B0B520D0740002000211B03201C0B
:107890001C0B0B0D1B05AB4D2343520552081D401D
:1078A00015436D006D08FF07291C39433CBC904609
:1078B0009946A246AB46F8BDA0488542C4D0802078
:1078C00000040343382F00DDF0E01F2F00DD24E12A
:1078D0002020C01B1A1C5E468240FE403243944664
:1078E0005A468240101C421E9041FB4062460243B1
:1078F0001F1CA21A9442A4416442C91B091B141CF8
:107900000A02A1D549024F0A002F00D1C9E0381C54
:1079100000F08CFB021C083A1F2A00DDBCE0282185
:10792000231C091A9740CB401F439440954200DD29
:10793000AEE0551B691C1F2900DDDDE01F22551B31
:107940003B1C221CAB40CA40AC40651EAC411343FB
:10795000CF401C43391C002576E74807E4086A0538
:1079600001275646C908520D37400443734B9D42C8
:1079700049D009030B0B87E72A1A9446002A00DC3A
:107980009BE0002855D06D48854200D15CE78020FF
:10799000000403436046382800DD09E11F2800DDAC
:1079A00050E162462020801A1E1C8640B1465E4689
:1079B000D6404A4632435E4686409046301C421EC0
:1079C0009041424602436046C3401219A242A4417C
:1079D000644259180919141C080200D434E7574BA3
:1079E00001359D4200D142E1554B60081940012309
:1079F00023401C1C0443CB071C43490824E71E43B7
:107A000000D014E70FE70B1C234300D1CFE1802304
:107A10001B030B431B031B0B36E7013F002F66D1F3
:107A20005E46A21B9442A4416442C91A091B141C5D
:107A300066E75846184300D106E701267642B4446B
:107A40006046002800D0CAE05E463219BEE7002F2B
:107A50007AD1681C4005400D012800DCE3E05A465D
:107A6000A21A9442BF41C81A7F42C71B3E0200D4EB
:107A700092E05846041BA3459241591A52428F1A6C
:107A8000E24641E7534601271F4000240023FBE65E
:107A90002B49AD1A3940D7E6271C283887400024E7
:107AA00044E7201C00F0C2FA203033E75A461A435C
:107AB000531E9A41D2B200271BE7002A00D0E1E012
:107AC000681C4605760D012E00DC91E01B4DA84296
:107AD00000D1F7E05E463219A242A441644259182F
