:1020000000800020F92A0000E32A0000E32A0000F3
:1020100000000000000000000000000000000000C0
:10202000000000000000000000000000E32A0000A3
:102030000000000000000000E32A00004D2B00001B
:10204000E32A0000E32A0000E32A0000712A0000CE
:10205000E32A0000E32A0000E32A0000E52A00004A
:10206000E32A0000E32A0000E32A0000E32A00003C
:10207000E32A0000E32A0000F1330000E32A000015
:10208000E32A0000E32A0000E32A0000E32A00001C
:1020900000000000E32A0000E32A0000E32A000019
:1020A000E32A0000E32A0000E32A0000E32A0000FC
:1020B0000000000010B5064C2378002B07D1054B1B
:1020C000002B02D0044800E000BF0123237010BDA4
:1020D0001001002000000000F451000008B5084B7A
:1020E000002B03D00748084900E000BF07480368F9
:1020F000002B03D0064B002B00D0984708BDC046EC
:1021000000000000F4510000140100200C01002028
:10211000000000007047704730B585B0041C02AD68
:1021200000680291039200F0F3FF6B79E179227A63
:1021300000932068002301F08DF829792068029A25
:1021400000F0B6FF206800F0D9FF05B030BD0000F8
:1021500007B5837A00910192002B0DD09A0706D51E
:10216000EFF310835A425341C37272B604E0DA07A8
:1021700002D58289034B9A600099019AFFF7CCFF40
:1021800007BDC04600180040837A002B0BD09A0789
:1021900004D5C37A002B06D062B604E0DA0702D574
:1021A0008289014BDA6070470018004008B500686A
:1021B00000F0B7FF08BD00000F4B104A10491A602D
:1021C00000225A711A710F4B0F4819600A211971B8
:1021D000092199710821597103215A72DA71197212
:1021E0000A4B18601D2018711B2098711A205A7212
:1021F0005871DA71197270472C01002000093D00F6
:102200004006002034010020440600204401002044
:102210000020704770470000084B02211961191C0B
:10222000002230310A7006495A719A719A721A73F3
:10223000DA63996341331A707047C0465401002035
:10224000684D0000021C10B50C32041C0121406ACC
:1022500000F0AAFB00280AD0236A0120002B06D137
:10226000E368227A236280235B421343237210BD0A
:1022700010B5041C406900F0FFFA002803D0207E4E
:10228000014B4001C01810BDD001002070B5041CE6
:10229000407A0D1C00282AD0E269914201D9002021
:1022A00025E0022821D0002D01D1E5601DE0626A01
:1022B0002169137C681E09334A1ED840DA40031E88
:1022C000934201D3002902D1226AE26000E0831A1E
:1022D0001E1C002E09D0221C606AE1680C3200F03E
:1022E000EFFA013E0028F4D101E02561012070BD24
:1022F00038B5051C407A002833D02B7A7F2B2DD996
:10230000281C0121FFF7B4FF041E2AD06B7A012B91
:1023100007D82B7F03776B7F4377AB7F8377EB7F88
:10232000C3772B6A9AB21B0C23751B0A63750D4B7E
:10233000A2761B68120AE276002B0BD0201C211C0F
:10234000183016319847637E227E1B021343A37414
:102350001B0AE3742A7A7F2313402B7200F062FA7F
:10236000FFE738BDB8010020F0B5437A87B0041C00
:102370000D1C0392012B0DD1037A99070AD55A0738
:102380000CD5E16922698A4208D0201CFFF77EFF44
:10239000002803D1012363600020AAE0039B01937E
:1023A0003BE0606A730A0779F605013F1F40FFB200
:1023B000F60D002F36D080229200921B019992B226
:1023C0000B1C914200D9131C9BB20293636AE16813
:1023D0001A7C023991405A698B18029ADF198023BE
:1023E0009B009A423FD1444B1968B94202D1012265
:1023F00052421A60414B391C18682A1C00F0CAF975
:102400000028C7D080229200AD180199029A8B1A39
:1024100021699BB201938B182361019A2669002AD6
:10242000BFD149E0002EC6D1E168002903D1236A5B
:10243000002B16D10FE005AA00F042FA002858D070
:10244000626A059B0132D27F102A01D12C4A00E03A
:102450002C4A934205D3201CFFF7F4FE0028AAD192
:1024600098E7E360A7E7002E0FD12369E1698B426B
:102470000BD300F0D7F900288CD01F4B01211F602F
:10248000214B1A780A431A7006E0381C012100F02B
:10249000F3F9002800D17DE71C4B2A1CF618029B9B
:1024A000F118331C8B4204D01078013218700133BC
:1024B000F8E79E1BAD19A8E7E169237A8E4201D99E
:1024C000E66106E0124A1268002A06D0039A002A42
:1024D00003D08022524213432372237A190701D476
:1024E000039806E0201CFFF703FF002800D151E706
:1024F000F6E707B0F0BDC04600000020CC01002088
:10250000F8FF0000F8FFFF0FD0030020D0010020EB
:10251000B801002007B56B46D9710733191C012299
:10252000FFF722FF0EBD000008B5011C0148FFF7B0
:102530003DFE08BD3401002008B50248FF21FFF729
:1025400035FE08BD3401002008B50121007900F0F6
:102550000DFC054B1A78002A04D0002203481A709B
:10256000FFF712FE08BDC046C40100203401002060
:1025700010B5084B041C1A78002A06D101221A70E3
:10258000054B064806CBFFF7E3FD2079002100F05C
:10259000EDFB10BDC4010020BC010020340100206F
:1025A00010B58379041C002B0DD023895A1C22817D
:1025B000054A934202D8FFF7BFFFF6E7201CFFF75A
:1025C000C3FF0023A37110BD0102000038B50C1C2D
:1025D00000F05CFA051CFFF7AFFFFF2806D000F003
:1025E00055FA401BA042F6D3002000E0012038BD80
:1025F000F8B5041C0E1C171CFFF7D2FF201CFFF7B8
:10260000B7FF96214900201CFFF7E0FF4020304330
:10261000FFF78AFF1825381CE840C0B2083DFFF7D5
:1026200083FF2B1C0833F6D19520002E03D0872082
:10263000082E00D0FF20FFF777FF0025FFF77CFF73
:1026400043B2E072002B04DAFF2D02D00135EDB267
:10265000F4E7F8BD38B5041C00F018FA051CFFF7C4
:102660006BFFE072FF2808D100F010FA9623401BA0
:102670005B009842F3D90F2302E0FE2806D00D2319
:10268000201C6371FFF760FF002000E0012038BDCF
:10269000F8B5041C0F1C151C1E1E45D09A1880236B
:1026A0009B009A4242DC8379002B05D0026891425C
:1026B00002D10389AB4216D9237B2760032B00D0BC
:1026C0007F023A1C201C1121FFF792FF071E02D047
:1026D000032363712AE0201CFFF7BCFF002825D0EC
:1026E00001232781A3712389AB4205D2FFF724FF81
:1026F000238901332381F6E7069D069AAB1A9BB224
:10270000B34204D2FFF718FF28700135F5E723899B
:10271000A27AF3189BB22381002A02D0064A934280
:1027200002D9201CFFF73CFF012003E0201CFFF72B
:102730000BFF0020F8BDC046FF01000007B5802355
:1027400000929B000022FFF7A3FF0EBD70B5051C91
:10275000081C161CFFF7E8FE0024305DFFF7E4FEBE
:10276000013480239B009C42F7D1FF20FFF7DCFE61
:10277000FF20FFF7D9FEFFF7DFFE1F23E8720340BB
:102780000120052B05D01123281C6B71FFF7DCFEFF
:10279000002070BD70B50B1C041C161C002901D153
:1027A000122328E0027B032A00D04B02201C1821B0
:1027B0001A1CFFF71DFF051E01D004231BE0201C7F
:1027C000FE21321CFFF7C2FF002815D09621201CE5
:1027D0008900FFF7FBFE002801D115230BE0201C28
:1027E0000D212A1CFFF704FF002803D1FFF7A4FEE8
:1027F000002806D014236371201CFFF7A5FE0020DB
:1028000003E0201CFFF7A0FE012070BD034B044A2B
:102810001A6000225A711A717047C046BC0100202C
:1028200000093D00F8B50F4F01203B78002B18D070
:102830000D4E0E4B0E4D196830682A1CFFF7AAFF8B
:1028400000280ED00B4C2168002907D030682A1CC4
:10285000FFF7A0FF002804D00023236000233B7073
:102860000120F8BDD0030020CC0100200000002092
:10287000D0010020C801002070B50D4D041C2B684C
:102880000E1C83420ED0FFF7CDFF002801D100209F
:102890000DE0084B211C1868074AFFF74FFF00287E
:1028A000F5D02C60054B01201A7816431E7070BDC0
:1028B00000000020CC010020D0010020D003002027
:1028C000C36870B501330C1C151C994201D9002056
:1028D00021E0461CF17FC269E309102900D1230AD7
:1028E00098180D4B1B68984207D1F27F0B4B102AAA
:1028F00009D1E4B264001B5B0BE00021FFF7BCFFD1
:102900000028F2D1E3E77F221440A4001B591B01E9
:102910001B092B60012070BD00000020D0010020A9
:10292000F7B5051C0C1C0192012932D9C36800209F
:10293000013399422ED86F1CFA7FEE69CB09102A19
:1029400000D10B0A9E19144B1B689E4208D1FA7FD6
:10295000124B102A0BD1E4B2019A64001A530BE017
:10296000301C0021FFF788FF0028F0D112E07F2201
:102970001440019AA4001A51094B01201A7802430D
:102980001A702B7E834205D9AB68F618054B1E6082
:1029900000E00020FEBDC04600000020D001002065
:1029A000D0030020C8010020F0B5156887B0061CD0
:1029B0000291171C002D03D000210135019106E082
:1029C000029B0568013B5A425341DBB20193F26816
:1029D0000023013203922C1C00930099F26891426B
:1029E00021D2039B9C4201D90224251C301C211CAE
:1029F00005AAFFF765FF002815D00599631C00297B
:102A000001D01D1C03E002995A1B8A4204D0009A8F
:102A10001C1C01320092E0E7301C211C134AFFF716
:102A20007FFF00280BD100201DE0631E301C191C05
:102A3000221C0093FFF774FF0028F4D0009CAC42E6
:102A4000F3D83968002906D101993D60002909D0E1
:102A50000135356006E0301C2A1CFFF761FF0028B5
:102A6000F2D1E0E7012007B0F0BDC046FFFFFF0F45
:102A700008B5044B1B68002B00D09847024B01227D
:102A80001A7208BDD403002000140040014B1868DE
:102A90007047C046D803002070B5041E08D0054B0F
:102AA0001D681E1C00F01AF833685B1BA342F9D3A3
:102AB00070BDC046D803002008B5034B1A68013228
:102AC0001A6000F05BFC08BDD803002008B502F0D6
:102AD00043F808BD08B502F049F808BD704700206A
:102AE0007047FEE708B5034B1B68002B00D09847E2
:102AF00008BDC046DC03002038B50F490F4CA14289
:102B000004D100F077F900F02BFA0BE00C4D8D4268
:102B1000F7D00023CA18E818A24204D20068043390
:102B20001060F7E7FEE79042EBD0064B064A93426F
:102B3000E7D2002204C3F9E70000002010010020C2
:102B4000F851000010010020240C002008B5FFF708
:102B5000C6FF002801D1FFF7AFFF08BD014B186089
:102B60007047C046DC0300203F20704713B5026861
:102B70006B46D97107335468191C0122A04716BD52
:102B800008B50069022101F025F808BD08B5006903
:102B9000032101F035F808BD38B50D1C041C131CC9
:102BA000006903212A1C01F01BF9002801D101232F
:102BB000636038BD10B5054C23685A1C04D1036806
:102BC0005B6998472060031C181C10BD540000204E
:102BD000074A08B51368591C04D001214942116005
:102BE000181C03E00069022101F0ECF808BDC046A2
:102BF0005400002008B503780349023303704222D1
:102C0000024801F097F908BD10000020FB0A0020DF
:102C100010B50178031C42780020A12908D1212A8F
:102C20002FD118481849072201F084F9012028E023
:102C3000212926D1202A05D113490722114801F064
:102C400025F804E0222A10D19A780F4BDA710E4B46
:102C500096221968D200914210D1DC7901231C40E0
:102C60000CD1FA2000F07CFB0AE0232A09D1DA78A3
:102C70009B7812021A43054B1A6002E000F076FBC3
:102C8000002010BDFB0A0020040000200C000020E2
:102C9000064BFA2189009960054900220831196024
:102CA00004495A6019611A767047C046E003002053
:102CB000784D0000FB0A002010B51824021C201CCF
:102CC0005043274B1818007A40B2013046D00329F0
:102CD00044D8081C211C01F0BFFE023311216243BD
:102CE00098569A18C3011F4852681B18991840310A
:102CF000022008700121914059602FE062439856EC
:102D000018499A185268C3015B1899184031062077
:102D1000087001219140596099611FE051435A5652
:102D2000104859184B68D2011118C81840300624B1
:102D300004700120984048600B49521850600DE023
:102D4000624398569A18C301064852681B1899188E
:102D500040310220087001219140996010BDC046A9
:102D6000A04D000000440041104400411823584386
:102D7000134AF0B5131808241C5701341FD082568B
:102D8000104ED2015D6801249019231C8668AB4067
:102D90001E420BD10E1C771EBE41401934404030FC
:102DA000A50004780426B4432C430470002903D101
:102DB00005495218536002E0024E92199361F0BD2A
:102DC000A04D00000044004110440041F7B58A18AE
:102DD000061C0D1C01920C1C019B671B9C4207D01A
:102DE000336821781B68301C984701340028F3D1E0
:102DF000381CFEBD70B5494A1E21536802208B4322
:102E00000343474953608B69082423438B61454C36
:102E1000454B9C829C8A20439882101CDA68940758
:102E2000FCD5424A012414701478E50704D53F4CC0
:102E3000647864B2002CF7DB01249460547864B2A7
:102E4000002CFBDB3A4D394C6560547864B2002CA1
:102E5000FBDB8225354CED016580547864B2002C93
:102E6000FBDB02249C84DC68E606FCD5314D2E4C4D
:102E7000E562DD682C4CEE06FBD5A58C2E4E354365
:102E8000A584DD68284CEE06FBD5A58C02263543CB
:102E9000A584DC682506FCD5234CE4686606F8D5D5
:102EA000DC68E506FCD500249460547864B2002CFC
:102EB000FBDB224D1D4C656055781C4C6DB2002D1E
:102EC000FADB1E6A1E4D35401D621D6A8026B54321
:102ED0001D620323A3601B4B636053785BB2002B1E
:102EE000FBDB00230B72184A4B728B72CB72174BB1
:102EF000FF211A60164B174A1B6812685C01D20E3C
:102F0000214011439A06520F12020B1C1343124A1E
:102F10001385436880221343436070BD0040004125
:102F2000000400400C06000000080040000C0040B7
:102F300001050100B905FF7D040A00000007030038
:102F4000FFFCFFFF03060100006CDC028400002090
:102F50002460800020608000004000427047000034
:102F600010B501F035FA01F0D1FDFFF7F7FF0120B0
:102F7000FFF792FD084C201C00F0E0FC201C00F044
:102F80003DFDFFF7C7F8FFF7C6F8044B002BFAD05A
:102F900000E000BFF7E7C046FB0A00200000000089
:102FA00001607047F7B508AC267804689D1E276855
:102FB0006C1EA541ECB2920705683A4327063A43D6
:102FC0002A600268072529405068B501002C00D00E
:102FD0005C03294301430C435460F7BD30B50368DB
:102FE000C0251C68AD0312052A402243C024A40258
:102FF000090421401143196003685A6814435C6056
:1030000030BD036801211A680A431A60026811681A
:1030100001231942FBD1D1691942F8D170470368E5
:1030200002211A680A431A600268D3699907FCD41E
:10303000704703681A7ED10702D41A7E9107FCD527
:103040007047036800225A8370470368187E400760
:10305000C00F70470368187EC0097047036880225C
:10306000197E52420A431A7670470368588B8007CC
:10307000C00F7047036802215A8B0A435A83704776
:103080000368187E0123184070470368188DC0B28A
:10309000704703681A7E01200242FBD019857047F1
:1030A000036801229A757047036801221A757047F8
:1030B00070B5036801268D07ED0F31401C686D0760
:1030C000090729432143196004685100034801F0AE
:1030D000CDFC0138C0B2207370BDC046006CDC026C
:1030E000036801211A680A431A6002681168012303
:1030F0001942FBD1D1691942F8D170470368022106
:103100001A680A431A600268D3699907FCD47047A9
:103110000368DA699107FCD41A6802218A431A60AD
:10312000704703689A6A520A52021143996203680F
:103130001A7E5107FCD5986AC0B270470368224ACC
:1031400030B5934211D0214A934211D0204A934284
:1031500011D0204A934211D01F4A934211D01F4AE6
:10316000934230D10E2319220DE0092314220AE0E4
:103170000A23152207E00B23162204E00C23172252
:1031800001E00D231822DCB2154901209B08A04064
:103190009B0008605B180320C021890004405D5833
:1031A000E000FF248440A5432C1CC0258540281C3A
:1031B000204358508023DB011A430A4B5A805A7827
:1031C00052B2002AFBDB30BD00080042000C004276
:1031D000001000420014004200180042001C00428F
:1031E00000E100E0000C0040F8B5041C151C0E1CAA
:1031F0001F1CFFF7A3FF201CFFF703FFB1001C22D9
:103200000A4069072368090C0A431A60226884236C
:103210009375012E1AD10821012D00D110210C4BDC
:1032200079431868C00001F021FC236807219A89BE
:103230000140D2044903D20C0A439A812368000456
:10324000C20C9889400B400310439881F8BDC046DA
:1032500084000020F7B5019308AB041C1F780D1CF7
:10326000161CFFF73DFF201CFFF768FFBF070C226D
:103270001743C022920336051640C02292022D0445
:1032800023683E4301991540354307221D600A40DB
:103290008021236889020A435A60F7BD18224243FD
:1032A000F8B52D4D0824AA181457031C621C50D0E1
:1032B000481C00240C284CD801F0CEFB071E1E1E13
:1032C0001E1E1E1E1E0A0A0A0A000124644240E055
:1032D000092902D1181C002103E00A2904D1181C75
:1032E0000221FFF7E9FC23E000240B2931D1181C4F
:1032F0000121FFF7E1FC2CE018225343EA18526841
:10330000EB560120141C04405508DB01002C11D0A1
:10331000124C1B195D1930352E780C010F213140EC
:1033200021439A18C9B2297040321378184310709B
:1033300000240EE0094E0F279B195D1930352E78B9
:103340009A18BE433143C9B22970403213781843EA
:103350001070201CF8BDC046A04D00000044004184
:10336000014B18607047C04658000020024B0122F4
:1033700052421A607047C04658000020154A136830
:10338000581C25D0013B1360002B21D172B6124A84
:10339000124B04329A4207D8BFF34F8F104A114B99
:1033A000DA60BFF34F8F11E00F4B197DC807FBD5D3
:1033B000188B2021FF319208520001431983DA61F2
:1033C0000A4A1A801A7DD107FCD5E5E7C046FDE719
:1033D0007047C04658000020002000000302000093
:1033E0000400FA0500ED00E00040004102A5FFFFE7
:1033F00008B5024801F0C6F908BDC046FC0300202C
:1034000013B512491248FFF7CBFD12491248FFF7D6
:10341000C7FD12491248FFF7C3FD12491248FFF7D2
:10342000BFFD12491248FFF7BBFD124C1249201C88
:10343000FFF7B6FD0323009301230193211C0D2206
:103440000E230E4801F0B6F813BDC0460008004236
:103450003C060020000C0042400600200010004204
:1034600044060020001400423806002000180042E4
:10347000480600204C060020001C0042FC030020EF
:1034800010B507230F220240141C00093034092A0A
:1034900000DD0734CC54013BF4D210BD10B5054B10
:1034A000041C0360806901F061FBA06A01F05EFB0F
:1034B000201C10BD0851000010B5041CFFF7EEFFE2
:1034C000201CFFF707FB201C10BD000070B58229EF
:1034D0001ED1C2B22A495301CB189D69294C8001E3
:1034E0002C40C025AD052C439C61274C0832201888
:1034F00058610B68520199180C7980204042204392
:103500000871D15C7020814330200143D15435E0F3
:10351000002933D1C2B21A495301CB189E68194D04
:10352000C0242E40A40526439E60184E80010968E1
:103530003018083258605201505C0726B04301260B
:10354000304350549E6935402C439C610E4C5C6165
:10355000505C7024A0431024204350549C680C48B5
:103560008A18204080246403204398609868402192
:10357000800B8003986053790B43537170BDC04634
:10358000000B0020FFFFFF8F5C0700201C090020BC
:10359000FF3F00F038B5041C08CC01211A78051C47
:1035A0000A431A708022201C0021520001F0F1FA17
:1035B0002B689A78D107FCD45C6238BD134BF0B508
:1035C0001B6899035A029B01C90ED20E5B0F1F297B
:1035D00000D105211F2A00D11D22072B00D1032372
:1035E00004688E01278D0A491F2539403143218502
:1035F00001682A400C8DAC4322430A8502681903F6
:10360000108D044B03400B431385F0BD24608000F4
:103610003FF8FFFFFF8FFFFFEFF3108303600123ED
:10362000436072B670470368002B02D162B6BFF3E5
:103630006F8F704737B50569041C6846002D12D19D
:10364000FFF7EAFF019B013B03D3621DD57FEDB27B
:10365000F9E768460193FFF7E6FF0020854217D09F
:10366000206AE36913E0FFF7D7FF019B0025013BC8
:1036700004D3221C34321578EDB2F8E76846019382
:10368000FFF7D1FF0020854202D0206BE36AC01A09
:103690003EBD0000436810B51A68037A01215B0142
:1036A000D318FF339A7A0A439A72037A42685B010D
:1036B000D318C2689C6891040B4A090922400A4346
:1036C0009A60037A42685B01D3189A684021920B92
:1036D00092039A6043681A68037A08335B01D3182F
:1036E0001A790A431A7110BDFF3F00F0F7B505695A
:1036F000041C0E1C171C6846002D1FD1FFF78CFF01
:10370000019B013B5A1C06D0621DD17F5A1E002925
:103710003AD0131CF6E768460193FFF784FF0025B3
:10372000E369BD4235D0226A934232D25A1CE2612B
:10373000A269D3181B7873550135F1E7FFF76CFFC9
:10374000019B013B5A1C08D0221C343215785A1EAA
:10375000EDB2002D18D0131CF4E768460193FFF773
:1037600062FF0025E36ABD4226D0226B934241D31B
:1037700022E0621D0021D17730321678581E8E4229
:1037800014D1031C5A1CF4D168460193FFF74BFF78
:1037900038E0226A934235D10023E361012323619B
:1037A0006846FFF739FF019B013BEBE71170201CD6
:1037B0000193FFF76FFFF6E7226B934222D10023BC
:1037C000E36223616846FFF727FF019B013B5A1C18
:1037D000DAD0221C34320021117001321678581EC2
:1037E0008E4201D1031CF2E71170201C0193FFF7F8
:1037F00051FFEAE75A1CE262A26AD3181B7873559C
:103800000135AFE7281CFEBD37B54368027A1B6857
:10381000083252019A18041CD0790123FF21184262
:1038200055D0D371A068656962680140002D1FD131
:103830004901521891688904890C2162216A002982
:1038400042D06361A36A68465360FFF7E5FE019BBF
:10385000013B5D1C34D0621D0120D0772F321178DE
:103860005D1EC9B21218002915D111702B1CF0E78A
:103870004B01D3189A689204920C2263226B002A9F
:1038800022D000226261A26968465A60FFF7C4FE36
:10389000019B013B12E0019310706846FFF7C3FEE5
:1038A00015E0221C343201201070621DD17F5D1E94
:1038B000C9B230320029EED111702B1C5D1CF0D141
:1038C00068460193FFF7AFFE201CFFF7E3FE37BD0C
:1038D00037B500236C46E3710734201C0D1CFFF73D
:1038E00089F92B681818286001F0A4F8211C01F050
:1038F0005BF82B681818286020783EBD03290BD18F
:103900000D4BB2221B685200985C80214942014352
:103910009954022168220CE001290CD1064B922215
:103920001B685200985C802149420143995402214E
:103930002822FF3299547047000B002038B5264BDF
:103940002021DA69051C0A43DA61244B01201A7828
:10395000062402431A70224B0F22197891431970E2
:103960001978214319701F490C7820430870197881
:103970000A401A701A7860210A431A701A4B1B4ABF
:103980005A805A78D209FCD11948FFF7E7F8194C48
:10399000201CFFF7FFFD201CFFF710FE23687F228D
:1039A00019780A401A701A7804210A431A701A8981
:1039B0000C218A431A81C1210F4A89005058000204
:1039C000000A5050802111601A7802210A431A70AF
:1039D00001232B7038BDC04600040040584400410C
:1039E0003C44004159440041000C004006400000A6
:1039F000B1430000000B002000E100E00078002847
:103A000010D0094B01211B681A898A431A811A8B2D
:103A100008210A431A831A8B04210A431A83034B91
:103A200000221A607047C046000B0020040C0020E2
:103A30000F4B9A69920B92039A611B680222FF3323
:103A40001A7298798022524202439A711A7A900728
:103A5000FCD5084B081C997A7F2210409143014302
:103A60009972997A802252420A439A727047C046EC
:103A7000000B00200050004110B50B790C1C002BEE
:103A80000BD1081CFFF7C4F8002804D1094B9A6930
:103A9000920B92039A6101200BE000F0CBFF211CF6
:103AA00000F0B6FF0028F6D1024B9A69920B920300
:103AB0009A6110BD000B0020F7B50D1C832A18D1A8
:103AC000CAB236495301CB189C693548AD01204034
:103AD000C024A405204398613248083245195D612D
:103AE0000B685201D15C7020814340200143D154C6
:103AF00053E0022A4DD12C4B8900C858019100286F
:103B000002D003681B6998473820FEF7DFFF274B78
:103B1000224F8026036076000023421D036203616A
:103B20004361C36147608560C660D3772F32041C50
:103B3000C36203631370301C537001F00DF8A06171
:103B4000301C01F009F8FF231D406D01A0627F19B0
:103B5000B968134A07250A40C02189050A43BA609B
:103B6000A16862681940126808314901885CA8435D
:103B7000032528438854A268616813405B01A26949
:103B8000CB185A60201CFFF785FD074B01995C504C
:103B900003E0081C111CFFF799FCF7BD000B002087
:103BA000FFFFFF8F5C070020DC0A002008510000A7
:103BB00038B5051C0124064BA200D258002A06D0B5
:103BC000211C281C0134FFF777FFE4B2F3E738BD6E
:103BD0005C00002008B5084B8A00D058002803D0AC
:103BE00003689B68984706E0C9B2044B490159181D
:103BF00088688004800C08BDDC0A0020000B0020CF
:103C000010B50C1CFFF7E6FF00280CD0064BE1B204
:103C10001B680831490159184A7980235B421343D4
:103C20004B710223CB7110BD000B002070B5CAB2DE
:103C3000134B1448540189015918031959609D68A0
:103C40001149083229408025AD02294399609968BD
:103C50004026890B890399600368510159180D7931
:103C600035430D715101591889794D06FAD5510125
:103C70005918C979CD07FAD50419A068C0B270BD2A
:103C80001C090020000B0020FF3F00F038B50C4B52
:103C9000141C1B680D1CFF335A7940210A435A71CA
:103CA0000021FFF7C3FFA04200D9201C0023A3423C
:103CB00004D0044A9A5CEA540133F8E738BDC046A0
:103CC000000B00201C09002010B5C9B20C484901A6
:103CD00043189A689204920C3F2A08D9141C9A68D7
:103CE000403CA404920BA40C9203224302E09A6885
:103CF000920B92039A6041188868C0B210BDC0460A
:103D0000000B0020F0B51C1C2A4B85B01B68061C5C
:103D10000D1C0292002B46D0274B8A00D058002859
:103D200005D0036802995B68221C98473FE0301C6D
:103D3000FFF750FFA04204D2301C291CFFF74AFFB6
:103D4000041C291C301CFFF7BFFF1C4FE9B24A01BD
:103D50000191396803928B18FF335A7A01210A4383
:103D600017495A72AB01C9180298221C00F008FFCB
:103D7000002C1BD0301C291CFFF72CFF002815D16C
:103D8000019B3A6808335B01D3181979402001433D
:103D900019710121D97103995318FF339A7A0121BE
:103DA0000A439A7202E00120404200E0201C05B064
:103DB000F0BDC046040C0020DC0A0020000B0020EF
:103DC0001C09002013B56C460734221C0123FFF7A1
:103DD00099FF012801D1207801E00120404216BD61
:103DE000F0B51C1C3A4B85B01B680E1C0292002BD0
:103DF00060D08023DB019C425CD800220092002C22
:103E000056D0344DF7B22B6801933B1C0833019A0E
:103E10005B01D3189B79DB091AD02F4B2F49186807
:103E200000F024FE2E4B1721584300F01FFE3B1CD0
:103E30000833019A5B01D318DB799A0708D4294B20
:103E40009A5D002A38D1421E002835D0101CEEE7BA
:103E5000244B00229A55251E3F2D00D93F25224A8A
:103E6000B301D318181C02992A1C039300F088FE92
:103E7000184A7B01D318039AA9045A619A69890CDC
:103E8000920B92030A439A613B1C019A08335B012F
:103E9000D3180222DA715979802252420A435A71A8
:103EA000009B029A5B1952190093641B0292A6E7C9
:103EB00000980BE0012008E001229A557B01ED18E3
:103EC000AB69101C9B0B9B03AB61404205B0F0BD7E
:103ED000040C0020000B00208400002040420F0052
:103EE00070110100540700205C07002070B50E4DD2
:103EF0001C1C8B01ED18281C0E1C111C221C00F030
:103F00003FFEF6B20949760189194D618A69084B6D
:103F1000201C13408B618B69A2049B0B920C9B03AA
:103F200013438B6170BDC0465C070020000B00206E
:103F3000FF3F00F0F7B5114B01901B780F1C141CCC
:103F4000002B19D10E4B1E78002E01D1151C08E054
:103F50000C4D0D482E888019361900F011FE2E8068
:103F60000AE0002D08D0BA192B1C01980021FFF798
:103F7000BDFF36182D1AF4E7201CFEBDFA0A0020FA
:103F8000F80A00205207002051060020F8B50E1C48
:103F900000AF151E012D28D9D31DDB08DB006A46B2
:103FA000D21A9546081C00F0ABFE01306C4640006A
:103FB0000323207063700222AA420ED23378002BB2
:103FC0000BD0511CC9B20136A354A94204D000231E
:103FD00002326354D2B2EFE72A1C0548211CFFF7D6
:103FE000A9FF431E9841C0B200E00020BD46F8BDC5
:103FF000FB0A002008B5044B00221A70034B044949
:104000001A88FFF797FF08BDF80A00205207002022
:1040100051060020F0B5204A87B001230026009108
:1040200002A91370051C0296FFF752FC03AC092786
:1040300001903A1C201C311C00F0ABFD0223637080
:10404000A023E371FA232372029B0122DB19638010
:10405000019B62712371104A009B27701670BB424E
:1040600005D1281C211C1A1CFFF764FF11E00B4B23
:1040700001221A700A4B211C3A1C281C1E80029631
:10408000FFF758FF281C02A9FFF722FC281CFFF7A6
:10409000B1FF012007B0F0BDFA0A0020F80A0020A5
:1040A0005207002070B5CE7892B0051C0C1C022E71
:1040B00008D1C9882D48FFF7ADFF031C581E834166
:1040C000D8B251E000F0B6FC211C00F082FC0028C0
:1040D00003D0C3171B1AD80F46E0012E04D1E28883
:1040E0002349112A3BD837E0032E3DD1A278002A7C
:1040F00005D12049E2880B7893422DD82FE0022A7F
:1041000003D1A279281C1C4904E0012A05D1A27917
:104110001A49281CFFF73AFF26E0032A24D1184B3E
:1041200001A91868FFF7ACF9164B03A91868FFF747
:10413000A7F9154B05A91868FFF7A2F9134B07A9B2
:104140001868FFF79DF900F075FC09A900F051FC13
:10415000A279281C01A9DDE7D2B2002A00D10A7891
:10416000281CFFF7E7FE012012B070BDFB0A0020FB
:10417000305100002C51000042510000205100003D
:104180000CA0800040A0800044A0800048A08000D7
:1041900073B5051C48780C1C0B2878D800F05CFC23
:1041A000081C7728773E4306474B686F00206FE076
:1041B000097801AA002903D111705170281C09E067
:1041C000002313705370334B1B78012B00D11370F5
:1041D000281C002102234FE08A780023012A04D101
:1041E00001AA137053702C4BEEE72A4A137049E072
:1041F0008E78012E07D1284B01AA00211E70117064
:10420000281C331C38E0002E08D1224A01231370E9
:10421000224A9169890B8903916138E0A178281CB1
:10422000FFF706FC33E0281CFFF73CFF30E0281CBA
:1042300000211B4A1FE00A780020D30628D1281C41
:10424000FFF7B6FCA2781549154B02241A600A68DC
:104250002A23FF33D05C2043D0544A20FF30145C23
:1042600001231C4314548A69920B92038A610EE065
:104270000C4A281C00210123FFF738FE07E08A784A
:10428000084B1A60054B9A69920B92039A610120C0
:1042900076BDC04650060020F90A0020000B002021
:1042A000040C0020FC0A0020F8B53B4B071C1C78CE
:1042B000002C70D1394D2868838B19070ED5201C2E
:1042C000211CFFF703F92B6810201A1CFF32917A8A
:1042D00001439172324A146008229A832B689A8BA8
:1042E000500701D504229A83FF331A7AD10626D5C6
:1042F00010221A725A7940210A432A495A710A78BF
:104300006023381C1A4202D1FFF742FF01E0FFF799
:10431000B3FB002806D02B688022FF3399795242E4
:104320000A4301E0204B20229A712B68FF331A7A4E
:10433000500604D540221A72597A0A435A722968E3
:10434000FE230E8C00241E40E1B2002E23D0321C2E
:10435000012322411A4216D0221C28680832520139
:104360008218D079184203D1D279DA401A4207D0A4
:104370000E4BA200D058002809D003681B6898474C
:104380000123A3409E430134092CDDD103E0381CF6
:10439000FFF7B4FAF4E7F8BDF80A0020000B00209C
:1043A000040C00201C090020FF500041DC0A002002
:1043B00008B50248FFF778FF08BDC046FB0A002099
:1043C000014A024B1A60704700500041000B002068
:1043D000314BFA21186810B5890000F047FB2F4BCC
:1043E0000138984224D82E4A2E4B5060186AC021BA
:1043F0000002000A090601431962002407219460A3
:104400001160196A80220902090A12060A431A6217
:10441000254BFC211A6A0A431A62196AFC2292018E
:104420000A431A62196AA022D2020A431A6200E001
:10443000FEE7201C00210134FEF73EFC0F2CF8D1D2
:104440001A4C63785BB2002BFADB194B6380194B73
:104450005A7ED209012AFAD0E422D2009A803F2261
:10446000DA70597E134AC9090129FAD0C0235B01C9
:1044700000201361907000F069FA63785BB2002B42
:10448000FBDB0D4A094B5A800C4BDA79D209012A21
:10449000FAD041225A7010BD84000020FFFFFF00B7
:1044A00010E000E000ED00E000040040000C0040DF
:1044B0001E40000000400042214000000048004231
:1044C0000120704708B50368014A1B6A984708BD78
:1044D00013040000031CFC33D9699A69914203D08C
:1044E000DB69C018007D01E001204042704710B533
:1044F000041C0069FEF785FD221C0023FC32936139
:10450000D36186229200A4186360A36010BD0000EE
:10451000F0B587B001930CAB1B78802602930DABEE
:104520001B78002503930EAB1B78760004930FAB2A
:104530001B78041C0593FA239B008360194B0F1C06
:104540000833009245600360291C321C143000F0CF
:1045500020FB231C8E22FC3352009D61A018DD61DC
:10456000321C291C00F015FB86229200A3185D6006
:10457000009A9D6089239B002761E254019A0A4BAF
:10458000201CE254029A094BE254039A084BE2546D
:10459000049A8A239B00E254059A8E239B00E254DE
:1045A00007B0F0BD585100002502000026020000AF
:1045B0002702000030B585B0041C08A8057809A8BA
:1045C000007800950190FF2002900390201CFFF7D7
:1045D0009FFF201C05B030BDF023081C1840303868
:1045E000434258417047F0231B01194080239B0030
:1045F00099420CD0C0239B00994206D080235B00D7
:104600000520994204D0002002E0072000E00620A7
:1046100070470F231940012905D002394B424B4105
:104620000220C01A00E0002070470000F0B5892386
:1046300085B003919B00041C1827C05C3B1C4343BE
:10464000324E0821F3185956151CFEF727FE304B41
:104650000821E05C3B1C4343F3185956FEF71EFE4D
:104660002C4BE25C022A0AD18E239B00E05CFF28DF
:1046700005D047430821F7197956FEF70FFE8A2720
:10468000BF00E05DFF281AD00121FEF715FBE35DB6
:1046900018225A43B3562049DB0158188B21890050
:1046A00060501E49B6185B188C21726889006350EF
:1046B000012191400A1C8D21890062501A6001215C
:1046C0000A1C039B2069FEF78FFD291C201CFFF7A5
:1046D0008AFF291C071C201CFFF79BFF291C061CB6
:1046E000201CFFF779FF391C0090331C2069012240
:1046F000FEF758FC074B2069E15C094BE25CFEF7D2
:104700006DFC2069FEF78BFC05B0F0BDA04D0000EC
:104710002502000027020000184400411444004113
:1047200026020000031CFC3358689B68C01A01D5A0
:104730000130FF30704710B5041C8E235B00E01879
:10474000FFF7F0FF0028F8D12069FEF772FC10BDDA
:1047500008B51430FFF7E6FF08BDFC3042688368F7
:104760009A4204DB43688068C01AFF3003E0826825
:104770004368D01A0138704708B51D30FF30FFF785
:10478000ECFF08BD38B5041C0069FEF76EFC00287C
:1047900005D02069FEF779FC2069FEF76BFC2069E3
:1047A000FEF753FC002820D02069FEF76EFC231C86
:1047B000FC339A69D9690132D2B28A4203D099692D
:1047C000611808759A618A239B00E35CFF2B0CD06B
:1047D000201C1430FFF7C1FF092806DC8B238D2233
:1047E0009B009200E358A2581A602069FEF748FC2B
:1047F00000281FD08E225200A518281CFFF792FF18
:10480000031C2069002B13D086229200A3189968FC
:104810005A68914206D09A68A95C9A680132D2B26D
:104820009A6001E001214942C9B2FEF732FC01E081
:10483000FEF73AFC2069FEF70DFC002805D0206940
:10484000FEF70CFC2069FEF7FCFB38BD70B5041CBC
:1048500000690D1CFEF714FC8E225200A6180028D9
:104860000ED0301CFFF75EFF00283DD008E0EFF3CC
:104870001083DA0722D41F4B5A68D205D20D0AD111
:1048800086229200A31858689A680130FF210840D8
:104890009042ECD01BE0103AD2B253B2002B08DAAF
:1048A0000F231A40083A144B92089200D21853680A
:1048B00004E09B08C033114A9B009B582069FEF717
:1048C000DFFB0028DCD0201CFFF75CFFD8E75A682C
:1048D00001320A4099688A4202D0596875545A6078
:1048E0002069FEF7DDFB03E02069291CFEF7D1FB00
:1048F000012070BD00ED00E018ED00E000E100E0F7
:1049000038B5031CFC33D9699A69041C914207D05D
:10491000DA698218157DDA690132D2B2DA6101E012
:1049200001256D428A239B00E35CFF2B0CD0201CE9
:104930001430FFF712FF0A2806DD8C238D229B001E
:104940009200E358A2581A60281C38BD00B5144ADA
:10495000517E131CC9090129F9D00138042813D844
:104960001969104A0A401A615A780F218A4300F0E7
:1049700073F8030509070300012102E0032100E0A9
:1049800002210A435A700AE01169F0231B050B4308
:10499000136153780F218B4302210B43537000BDE9
:1049A00000400042FFFFFFF070B544680E1C002578
:1049B000002C09D02368201C5B68311C9847002814
:1049C00004DB2D18E468F3E7281C01E001204042D5
:1049D00070BD38B544680D1C002C08D02368201C1D
:1049E0009B68291C9847002802D1E468F4E7201C42
:1049F00038BD38B544680D1C002C07D02368201C36
:104A0000291CDB689847E4682D18F5E72C7038BD41
:104A100038B544680D1C002C08D02368201C1B6886
:104A2000291C9847002803D1E468F4E7201C00E023
:104A3000012038BD064B0122196810B51140054808
:104A400005D1022404700424447041601A6010BD32
:104A5000100C0020080C002002B4714649084900DF
:104A6000095C49008E4402BC7047C046002934D01E
:104A70000123002210B488422CD301242407A14230
:104A800004D2814202D209011B01F8E7E400A142ED
:104A900004D2814202D249005B00F8E7884201D388
:104AA000401A1A434C08A04202D3001B5C08224360
:104AB0008C08A04202D3001B9C082243CC08A042D1
:104AC00002D3001BDC082243002803D01B0901D0BD
:104AD0000909E3E7101C10BC7047002801D0002032
:104AE000C04307B4024802A14018029003BDC0466B
:104AF000190000000029F0D003B5FFF7B9FF0EBC84
:104B00004243891A1847C0467047C04670B50E4BDD
:104B10000E4D0024ED1AAD101E1CAC4204D0A300B3
:104B2000F35898470134F8E700F00CF9084B094DA9
:104B30000024ED1AAD101E1CAC4204D0A300F358A3
:104B400098470134F8E770BDEC000020EC0000202D
:104B5000EC0000200801002008B5034B011C186878
:104B600000F068F808BDC046E800002008B5034B17
:104B7000011C186800F016F808BDC046E8000020C7
:104B800010B50023934203D0CC5CC4540133F9E741
:104B900010BD031C8218934202D019700133FAE74A
:104BA0007047000030B5002940D004390B68002B55
:104BB00000DAC9181E4A1368141C002B02D14B607E
:104BC000116033E099420FD208680A189A4205D161
:104BD00013685268C01808604A6000E04B602160AA
:104BE00024E08A4203D8131C5A68002AF9D11D68B0
:104BF0005C198C420BD109686918581819609042E9
:104C000014D114685268091919605A600EE08C4278
:104C100002D90C23036009E008680C18944203D100
:104C200014685268001908604A60596030BDC04677
:104C3000180C002070B50323CD1C9D430835061CBD
:104C40000C2D01D20C2501E0002D3FDB8D423DD320
:104C5000204B1C681A1C211C002913D00868431B18
:104C60000DD40B2B02D90B60CC181EE08C4202D164
:104C7000636813601AE0486860600C1C16E00C1C46
:104C80004968E9E7144C2068002803D1301C00F083
:104C900025F82060301C291C00F020F8431C15D09A
:104CA000C41C03239C4384420AD12560201C0B3082
:104CB0000722231D9043C31A0BD05A42E25008E04A
:104CC000211A301C00F00AF80130EED10C233360B9
:104CD000002070BD180C0020140C002038B5074CC3
:104CE0000023051C081C236000F012F8431C03D1AC
:104CF0002368002B00D02B6038BDC046200C00205C
:104D00000023C25C0133002AFBD1581E704700000B
:104D1000094A1368002B0CD018186946884202D83B
:104D20001060181C7047054B0C2201201A6040428D
:104D3000F8E7034B1360EFE71C0C0020200C002069
:104D4000240C0020F8B5C046F8BC08BC9E4670474D
:104D5000F8B5C046F8BC08BC9E467047000000008D
:104D6000000000000000000015250000CD2D00000F
:104D700011220000152200000000000000000000C9
:104D80006D2B0000992B0000692B00008D2B00007B
:104D9000812B0000D12B0000B52B0000000000008B
:104DA0000000000016000000080000001C000000C9
:104DB000FF000004000406000000000017000000CF
:104DC000080000001C000000FF00010401040700AF
:104DD000000000000A000000080000001C000000A5
:104DE000120000010001FF00000000000B000000A5
:104DF000080000001C000000130001010101FF0079
:104E0000010000000A000000080000001C00000073
:104E1000FF00000500050A00010000000B00000073
:104E2000080000001C000000FF00010501050B0048
:104E30000000000014000000080000002C0000002A
:104E4000FF00020002000400000000001500000046
:104E5000080000002C000000FF0003000300050014
:104E60000000000010000000020000001C00000014
:104E7000FF0000020002000000000000110000001E
:104E80000200000004000000FF00FFFFFFFF010020
:104E90000000000013000000020000001C000000E1
:104EA000FF0001030103FF000000000008000000F4
:104EB00002000000040000001000FFFFFFFF1000D0
:104EC00000000000090000000200000004000000D3
:104ED0001100FFFFFFFFFF000100000017000000AE
:104EE0000300000004000000FF00FFFFFFFFFF00C1
:104EF0000100000016000000030000000400000094
:104F0000FF00FFFFFFFFFF000000000002000000A5
:104F100001000000060000000000FFFFFFFFFF008F
:104F20000100000002000000010000000400000079
:104F30000A00FFFFFFFF0200010000000300000065
:104F400001000000040000000B00FFFFFFFF030052
:104F50000000000004000000010000001C00000030
:104F6000040000000000FF00000000000500000039
:104F7000010000001C000000050001000100FF000E
:104F80000000000006000000010000000400000016
:104F90000600FFFFFFFFFF00000000000700000009
:104FA00001000000040000000700FFFFFFFFFF00FA
:104FB00000000000180000000600000000000000D3
:104FC000FF00FFFFFFFFFF000000000019000000CE
:104FD0000600000000000000FF00FFFFFFFFFF00D1
:104FE00000000000120000000800000004000000A3
:104FF000FF00FFFFFFFFFF000000000003000000B4
:105000000800000004000000FF00FFFFFFFFFF009A
:10501000000000000C000000020000000000000082
:10502000FF00FFFFFFFFFF00000000000D00000079
:105030000200000000000000FF00FFFFFFFFFF0074
:10504000000000000E00000008000000000000004A
:10505000FF00FFFFFFFFFF00000000000F00000047
:105060000200000000000000FF00FFFFFFFFFF0044
:10507000000000001B00000008000000000000000D
:10508000FF00FFFFFFFFFF00000000001C0000000A
:105090000800000000000000FF00FFFFFFFFFF000E
:1050A00001000000080000000100000006000000F0
:1050B0000200FFFFFFFFFF000100000009000000E9
:1050C00001000000180000000300010401040900B1
:1050D00000000000000000000800000000000000C8
:1050E000FF00FFFFFFFFFF000000000001000000C5
:1050F0000800000000000000FF00FFFFFFFFFF00AE
:10510000000000000000000009380000ED3600003B
:10511000353600009D340000B93400000000000066
:1051200041726475696E6F204C4C4300040309049E
:1051300012010002EF0201404123508000010102F0
:10514000030141726475696E6F204D4B5220464FCA
:105150005820313230300000000000000000000014
:105160004D480000CD2D0000794700003747000072
:105170005147000001490000D5440000C54400002B
:105180002D460000EF440000C14400000000000074
:1051900043000000000000000000000000000000CC
:1051A00000000000000000000000000000000000FF
:1051B00000000000000000000000000000000000EF
:1051C00000000000000000000000000000000000DF
:1051D00000000000000000000000000000000000CF
:1051E00000000000000000000000000000000000BF
:0851F0000000000000000000B7
:1051F800FFFFFFFF00C2010000000800FFFFFFFFE4
:10520800080B00020202000009040000010202006B
:1052180000052400100104240206052406000105E7
:10522800240101010705810310001009040100028F
:105238000A0000000705020240000007058302403B
:1052480000000000FFFFFFFFFFFFFFFF000000005E
:10525800830000000200000082000000000000003F
:105268000000000000000000000000000000000036
:105278000000000040420F000000000094510000B0
:10528800B4510000D45100000000000000000000EC
:105298000000000000000000905100000000000025
:1052A80000000000000000000000000000000000F6
:1052B80000000000000000000000000000000000E6
:1052C80000000000000000000000000000000000D6
:1052D800000000000000000088000020DD20000021
:1052E800B9210000192200000D280000912C0000AF
:1052F80001340000C1430000B52000000000000098
:0400000300002AF9D6
:00000001FF
