:1020000000800020953F00007F3F00007F3F0000E0
:1020100000000000000000000000000000000000C0
:102020000000000000000000000000007F3F0000F2
:1020300000000000000000007F3F0000E93F0000BA
:102040007F3F00007F3F00007F3F00007F3F000098
:102050007F3F00007F3F00007F3F0000813F000086
:102060007F3F00007F3F00007F3F00007F3F000078
:102070007F3F00007F3F0000814C00007F3F000059
:102080007F3F00007F3F00007F3F00007F3F000058
:10209000000000007F3F00007F3F00007F3F000006
:1020A0007F3F00007F3F00007F3F00007F3F000038
:1020B0000000000010B5064C2378002B07D1054B1B
:1020C000002B02D0044800E000BF0123237010BDA4
:1020D0002001002000000000448E000008B5084BDD
:1020E000002B03D00748084900E000BF07480368F9
:1020F000002B03D0064B002B00D0984708BDC046EC
:1021000000000000448E0000240100201401002083
:102110000000000000207047704770B54B688C6865
:10212000CD6843600A1C031CC56084601033103204
:1021300070CA70C312781A70096A016270BD00001B
:10214000F0B5144E8DB001901349301C02F0CAF85E
:102150000B20012102F000F8104F0B21381C00F079
:1021600073FD0F4C051E05D1301C0E4902F0BAF864
:10217000257001E00123237003A8391C0A4A0123BA
:1021800000F0F8FD019803A93030FFF7C6FF0DB04D
:10219000F0BDC0460C0400200C8700008401002024
:1021A0003C0100202A8700004687000010B50C493A
:1021B000041C02F0CCFC201C0C3000F05BFC201C4A
:1021C000303000F057FC201C543000F053FC00234A
:1021D000201CA367E367FFF7B3FF201C10BDC046B8
:1021E0004888000038B5064C2368002B06D18020B3
:1021F00001F0BAFE051CFFF7D9FF2560206838BD45
:1022000040010020F0B5061C9BB0081C0D1C00F01E
:1022100000FB0290281C00F0E8FA0390281C00F054
:10222000DFFA0490281C00F0E5FA0590281C00F065
:10223000E3FA0690281C00F0E3FA0790281C00F04F
:10224000DDFA00210890281C00F0DEFA01210D9033
:10225000281C00F0D9FA02210E90281C00F0D4FAB4
:1022600003210F90281C00F0CFFA1090281C00F0DA
:10227000C9FA0990281C00F0CEFA0A90281C00F038
:10228000CCFA341C326817230B900C3411A8B949CE
:1022900000F070FD11A9201CFFF73FFF201C00F08B
:1022A00028FC061E00D15DE111A8291C00F0B7FA38
:1022B0000A221499201C02F078F8AF4E201C311C21
:1022C00001F0FEFF11A8291C00F0A9FA0A221599B5
:1022D000201C02F06AF8311C201C01F0F1FF11A84B
:1022E000291C00F09CFA0A221699201C02F05DF8C5
:1022F000A24E201C311C01F0E3FF11A8291C00F0A4
:102300008EFA0A221399201C02F04FF89C4F201CD1
:10231000391C01F0D5FF11A8291C00F080FA0A220F
:102320001299201C02F041F8391C201C01F0C8FF52
:1023300011A8291C00F073FA11990A22201C02F03E
:1023400034F8311C201C01F0BBFF0298002104F07E
:10235000F1F8002804D0201C8A4901F0B1FF0BE0FD
:10236000281C00F056FA05F0B9FF0B1C0221021CD4
:102370000091201C02F0D8F8311C201C01F0A0FFB5
:102380008148824901F0C2FF039B7C4E002B04D19F
:10239000201C7C4901F094FF07E0281C00F025FA7E
:1023A0000A22011C201C02F000F8311C201C01F044
:1023B00087FF049B714E002B04D1201C714901F052
:1023C0007FFF07E0281C00F00BFA0A22011C201CEA
:1023D00001F0EBFF311C201C01F072FF059B674EE2
:1023E000002B04D1201C674901F06AFF07E0281C7C
:1023F00000F000FA0A22011C201C01F0D6FF311C5B
:10240000201C01F05DFF069B5C4E002B04D1201CBC
:102410005C4901F055FF07E0281C00F0EDF90A22A5
:10242000011C201C01F0C1FF201C311C01F048FFE1
:10243000079B002B06D15349201C01F041FF201CB3
:10244000311C09E0281C00F0DBF90A22011C201CC9
:1024500001F0ABFF4949201C01F032FF089B002B23
:1024600004D1201C474901F02BFF07E0281C00F095
:10247000C5F90A22011C201C01F097FF201C311C09
:1024800001F01EFF099B002B04D1201C3D4901F0E7
:1024900017FF07E0281C00F0B5F90A22011C201CD8
:1024A00001F083FF311C201C01F00AFF00260DAB58
:1024B000F158002904D1201C324901F001FF0AE043
:1024C0000A2211A802F081FB201C11A901F0F0FEE4
:1024D00011A802F0F5FA201C2849043601F0F0FE9C
:1024E000102EE4D10A98002104F024F8234E00288D
:1024F00004D0201C234901F0E3FE0BE0281C00F06F
:102500008AF905F0EBFE0B1C0221021C0091201C35
:1025100002F00AF8311C201C01F0D2FE0B980021B9
:1025200004F008F8002808D0201C164901F0C8FE65
:10253000201C311C01F0EAFE0BE0281C00F06DF9B4
:1025400005F0CCFE0B1C0221021C0091201C01F0A6
:10255000F2FF201C00F0C0FA0B480D4901F0D6FE36
:10256000012004E008480B4901F0D0FE301C1BB0EC
:10257000F0BDC04684010020468700004887000067
:102580004A8700004C8700000C0400204E870000A2
:10259000628700006F870000F0B5061C8DB00F1C2D
:1025A0002248096800F02EFC214C0190002808D038
:1025B000201C204901F096FE301C391C02F0DAFA8A
:1025C00031E0351C0C3503A818493A68172300F090
:1025D000D1FB281C03A9FFF7A0FD281C00F089FAF5
:1025E00000281CD01449281C01F090FE281C00F083
:1025F0004FFA011C201C01F089FE281C00F06CFA27
:102600000E49201C01F082FE391C301C02F0B2FA87
:10261000201C311C01F070FE0123019303E0201CFB
:10262000074901F05FFE01980DB0F0BD8401002064
:102630000C040020828700009B870000E3870000D5
:10264000F587000010B5041C8AB00A6801230C3419
:1026500001A8104900F08EFB01A9201CFFF75DFDC9
:10266000201C00F046FA0023984210D0201C00F0F5
:102670001FFA002807D0201C00F0BEF9C1B206489E
:1026800001F0C2FCF2E7201C00F026FA0123181C1E
:102690000AB010BD840100200C040020F0B5962182
:1026A000FA2487B08901A4001C4801F03FFD201CDA
:1026B00001F040FCFFF796FD194D286000F080F80E
:1026C000184F3860184801F035FC184E2B68311C43
:1026D00003A8019302F05EFA03A90198FFF75CFFDB
:1026E00003A802F0EDF9201C01F024FC39682868E9
:1026F000FFF788FD201C01F01DFC2D68311C03A88C
:1027000002F048FA03A9281CFFF79CFF03A802F077
:10271000D7F9201C01F00EFC07B0F0BD0C0400201E
:10272000540100204401002010270000480100202F
:102730007047000010B5054C0549201C02F007FA4F
:10274000201C0449044A03F019FE10BD4801002072
:10275000CA880000C14A000000000020014B083375
:1027600003607047D888000010B5044B041C083380
:10277000036001F0FDFB201C10BDC046D88800009E
:102780000E4B00220833036042600023C2610262E4
:10279000426202644264021CC36603674367836744
:1027A000C36783608362C362036343638363C363FA
:1027B000813201231370013A13707047D8880000EA
:1027C00038B5064C2368002B06D1842001F0CCFBE1
:1027D000051CFFF7D5FF2560206838BD5801002093
:1027E00008B5006A03F0B2FF08BD08B5406A03F0FF
:1027F000ADFF08BDC06A7047006B7047806B7047C3
:10280000C06B70478068704702318900401840688B
:10281000704740687047006C7047406C704730B537
:10282000031C483134C934C334C934C334C934C334
:1028300030BD437A002B04D18372C372C36001237D
:102840004372704730B585B0041C02AD0068029138
:10285000039202F00DF86B79E179227A00932068F7
:10286000002302F0A7F829792068029A01F0D0FF2E
:10287000206801F0F3FF05B030BD000070B5041C06
:102880001826FFF7D6FF2079331C43430D4D08214E
:10289000EB18595602F0B2F8A079331C43430821D3
:1028A000EB18595602F0AAF8607908214643AD1991
:1028B000695602F0A3F8044B201C06CBFFF7C2FFB9
:1028C00070BDC046708900005C01002007B5837AA6
:1028D00000910192002B0DD09A0706D5EFF31083DB
:1028E0005A425341C37272B604E0DA0702D58289B4
:1028F000034B9A600099019AFFF7A4FF07BDC046F9
:1029000000180040837A002B0BD09A0704D5C37AB5
:10291000002B06D062B604E0DA0702D58289014BAB
:10292000DA6070470018004008B5006801F0A9FFA0
:1029300008BD00000F4B104A10491A6000225A715E
:102940001A710F4B0F4819600A21197109219971E9
:102950000821597103215A72DA7119720A4B1860F1
:102960001D2018711B2098711A205A725871DA7143
:10297000197270475C01002000093D006C060020C0
:1029800064010020700600207401002013B5026865
:102990006B46D97107335468191C0122A04716BD34
:1029A00038B5041C006A0025A84202D101236360E7
:1029B0000AE0456092B200F063FD236A5B68002B79
:1029C00002D001236360281C38BD006A08B50028C6
:1029D00001D000F0CFFB08BD13B56C460734211CB5
:1029E000012200F0EBFA012801D1207800E0014833
:1029F00000B216BDFFFF0000006A08B5002802D033
:102A0000FFF7EAFF01E00120404208BD38B5051C90
:102A1000006A00280AD0FFF7DFFF041C631C05D002
:102A2000286A0169013900F073FB201C38BD0000E1
:102A3000F8B5FA239B0083600D4B00250833041C76
:102A40004560036028200F1C161C05F0EDFC206279
:102A5000A8420AD0391C282205F009FD201C10309C
:102A6000311C0C2205F0E9FD2577201CF8BDC0467D
:102A7000E8880000FA2292008260044A00230832AB
:102A800043600260036203747047C046E888000038
:102A900010307047036A002B01D0186901E0012053
:102AA00040427047006A002800D0C06970470000AB
:102AB00038B5041C006A00280BD0201CFFF7F2FF79
:102AC000051C201CFFF7E6FF024B281A984200D98C
:102AD000181C38BDFF7F000010B5041C006A0028D8
:102AE00006D000F083FB206A05F0A8FC00232362D7
:102AF00010BD006A002803D0407A431E9841C0B23E
:102B00007047000010B50A1C0C498AB0041C002351
:102B1000009169464B720193211C6846012300F025
:102B200015FC041C601E8441E4B2002C02D06846EF
:102B300000F05CFB201C0AB010BDC04628890000D4
:102B400038B50122051C0C1C01F05AF9021C0120A9
:102B5000002A03D1281C211C01F052F938BDF0B520
:102B60000C68035D2F3B5D426B41E418271C0C375A
:102B7000231CC55C1E1B2F2D09D0002D07D001334F
:102B8000161BF618013E3570BB42F2D10C2600240C
:102B90009455C25C2F3A544262419B180B60C05C52
:102BA000431E9841C0B2F0BDF0B5A1B003902548D6
:102BB0000D1C049205930CAA002316A90D930C90EA
:102BC0005372179316904B7207932C1C009207A90F
:102BD00008AA0398FFF7C3FF0126021C7240019068
:102BE000D2B2201C08A9059B049FB847002807D132
:102BF000AC4201D1002023E0201C00F0F7FAF9E7F5
:102C0000019F002F11D0331C0098211C08AA00F04E
:102C10009DFB061CAC420FD0201C00F0E7FA002EF2
:102C2000E8D0231C009C0093D1E7AC4202D0201CCA
:102C300000F0DCFA301C03E00028DBD016ACF0E733
:102C400021B0F0BD2889000038B5031C41331B7842
:102C5000041C0D1C002B02D0383000F0C7FA201CD9
:102C600001212A1C00F0B8FD002801D100200FE04E
:102C7000251C1035281C211CFFF762FF0028F5D009
:102C8000201C3830291C00F06FF9431E9841C0B257
:102C900038BD00004B6843600A4B03600B7A037237
:102CA0004B7A4372CB68C3600B6903614B69436124
:102CB0000B7E0376CB69C3610B6A496A036241628A
:102CC0007047C04628890000F0B59DB008AE02925A
:102CD0000393274A002312AF051C73607B601031F9
:102CE000301C0892737212927B7200F03DF9029CC4
:102CF000201C2F2105F086FC00282ED023782F2BB6
:102D000001D10134F4E7001BC0B2031C0C2800D928
:102D10000C23DBB21A1C211C04A8019305F08DFCC6
:102D2000019A002304A9381C8B5400F05FFA381C68
:102D3000311C04AA012300F009FB002804D10C4B2C
:102D400068602B60687210E0019B301CE41800F092
:102D50004DFA331C3E1C1F1CCAE70299039A641AE1
:102D60001460281C311CFFF795FF281C1DB0F0BD16
:102D700028890000F0B5A1B0051C1F1C02A801ABFA
:102D8000161CFFF7A1FF019BF6183378002B07D123
:102D900002A916A8FFF77EFF281C16A9174A28E0EB
:102DA00000230CAC636063726B461133144A1B78CA
:102DB0000C92002B03D1281CFFF75CFE1BE0201CAB
:102DC00002A9321C3B1C00F0C1FA0028F3D002A873
:102DD00000F00CFA06231F409F4203D1201C1399D8
:102DE00000F096F9211C16A8FFF754FF281C16A91D
:102DF000321CFFF71DFE281C21B0F0BD46870000E5
:102E00002889000008B5031C081C191C3831024A27
:102E10000023FFF7C9FE08BD052B0000084B022167
:102E20001961191C002230310A7006495A719A71D1
:102E30009A721A73DA63996341331A707047C04605
:102E40008401002028890000021C10B50C32041CEB
:102E50000121406A00F04AFF00280AD0236A0120BD
:102E6000002B06D1E368227A236280235B4213435E
:102E7000237210BD70B5041CFFF7E6FF002801D1D6
:102E800000201BE0636AE6681A7C023E96405A699D
:102E90001D79B618002D08D0701E401900F072FE82
:102EA0000028EDD0013DEDB2F4E7636A01201A7C01
:102EB00080239B009340E269D318E36170BD00005A
:102EC00010B5041C406900F039FE002803D0207EB4
:102ED000014B4001C01810BD00020020F0B50023D6
:102EE00087B0071C0E1C2022F25401330B2BFAD1A1
:102EF0000721002501913C78002C2AD02E2C06D1E8
:102F0000019B0A2B2BD00A21082501911FE002A862
:102F10001449102205F0ABFA002302A9CA5C002A6A
:102F200003D00133A242F8D119E0019B9D4216D88B
:102F3000231C213B5D2B12D8221C6B1C613ADBB297
:102F40007519192A01D8203CE4B22C701D1C0137D8
:102F5000D1E730782038431E9841C0B200E000200D
:102F600007B0F0BD1089000038B5427A041C0D1C72
:102F7000002A01D000201FE04B1CDB7F102B06D164
:102F80000223437202624B8C5B01C3610CE0202B75
:102F9000F0D103234372496A221C01621C32281CAF
:102FA00000F03EFE0028E5D000230120656220727B
:102FB000E36023616361237638BD0000F0B5437A96
:102FC00085B0041C0E1C0392002B01D13A4811E07D
:102FD000037AD807FAD5E26920690399131A99424E
:102FE00001D99BB2039303990291029B002B04D158
:102FF000039988B200B205B0F0BD2369617ADF059C
:10300000FF0D5A0A606A022902D1416A51181BE079
:103010000579013D2A40D5B2002F0DD1002D0BD1ED
:10302000002B02D1226AE26006E0221CE1680C3229
:1030300000F0C6FD0028C9D0636AE1681A7C023935
:103040005B699140C91849198022029D9200D31BE7
:103050009D4200DD9DB2237A580601D4954218D1D5
:10306000164B1B68994214D0154B3A1C18680096F1
:103070002B1C00F06FFC0028A8D0761901E0DF1BA4
:10308000F6192169029A4B19551BADB223610295BD
:10309000ABE7081C002100F051FD002896D0094B39
:1030A000321CFF1879193B1C8B42E8D01878013389
:1030B00010700132F8E7C046FFFF00000400002056
:1030C000FC0100200002002073B5437A041C012B90
:1030D00001D8002016E003696D460735DE05291C7E
:1030E0000122360FFFF76AFF012801D12B7800E09B
:1030F000054B1BB20133ECD0236970011F332361F0
:10310000024BC01876BDC046FFFF00000002002041
:1031100070B5041C407A0D1C00282AD0E269914247
:1031200001D9002025E0022821D0002D01D1E56041
:103130001DE0626A2169137C681E09334A1ED8406B
:10314000DA40031E934201D3002902D1226AE260D1
:1031500000E0831A1E1C002E09D0221C606AE16860
:103160000C3200F02DFD013E0028F4D101E0256174
:10317000012070BD38B5051C407A002833D02B7A69
:103180007F2B2DD9281C0121FFF79AFE041E2AD07F
:103190006B7A012B07D82B7F03776B7F4377AB7F4D
:1031A0008377EB7FC3772B6A9AB21B0C23751B0ABC
:1031B00063750D4BA2761B68120AE276002B0BD0CA
:1031C000201C211C183016319847637E227E1B027A
:1031D0001343A3741B0AE3742A7A7F2313402B72D0
:1031E00000F082FCFFE738BDE801002010B5041CA8
:1031F000FFF7C0FF002802D000236372012010BD3A
:1032000073B5427A041C0D1C0020012A4BD1207A90
:103210000223184047D0E3690020994243D8101C8C
:10322000002B40D0201C291C2669FFF771FF0028C5
:1032300025D0606A002D06D1216A00F0BBFD002870
:103240001DD025621DE0E16801AA00F0B9FC00284C
:1032500015D0606A0199431CDB7F102B01D1124B02
:1032600000E0124B99420CD200F0A4FD002806D0D9
:10327000606AE1680E4A00F0F5FC002801D10020E8
:1032800011E0227A80235B421343E5612372201C04
:10329000FFF770FF0028F2D0291EB14200D9311C7F
:1032A000201CFFF735FF76BDF8FF0000F8FFFF0F89
:1032B000FFFFFF0F38B5234B151C4A01D318041C20
:1032C000D87A1122104204D04222154201D00020A7
:1032D00036E01D4A2176126862615A7D187DD97EDA
:1032E00012020243987E0902120401431143216233
:1032F000D87A182202400CD15A7F197F12020A4351
:10330000997FDB7F09040A431B061343E361012312
:1033100009E0102ADBD1221C606A1C3200F080FC1C
:103320000028D4D0042363720F2300212B40237282
:10333000E160216101206A0602D5201CFFF760FFD1
:1033400038BDC0460002002004000020F0B5457AD8
:1033500087B0041C0E1C0193002D00D086E0101CC9
:1033600003A9FFF7BBFD002800D180E0726A2F1C83
:103370006262F56035613369F269934226D2DB05FA
:103380001B0F301C0093FFF79FFE011E6FD00378C8
:10339000002B01D0E52B0BD1002F04D1009B23760D
:1033A000344B1B6863610B780127002BE3D10DE0E0
:1033B00003A80B2205F04CF80028DCD1019A302339
:1033C0001340302B53D0201C00994BE0019A12235C
:1033D0001340122B4BD1002F06D0201C0121FFF7E8
:1033E0006FFD061E0AD142E0737A022B3FD0301CDB
:1033F000FFF740FD00283AD01F4E277600212022FB
:10340000301C05F03DF8301C03A90B2205F02FF805
:103410001A4B1B68002B05D0301C311C10300E31AC
:10342000984706E021223274B3732822082372746D
:10343000F373737C327C1B021343FF221A401B0A76
:10344000F3747376F37BB2743276B27B1B02134350
:10345000B3751B0AF37500F047FB002807D0217EE7
:10346000019A201CFFF726FF051C00E00025281C00
:1034700007B0F0BD0400002000020020E801002099
:10348000F0B5437A87B0041C0D1C0392012B0DD1BB
:10349000037A99070AD55A070CD5E16922698A424D
:1034A00008D0201CFFF734FE002803D101236360FD
:1034B0000020AAE0039B01933BE0606A730A07794E
:1034C000F605013F1F40FFB2F60D002F36D08022D7
:1034D0009200921B019992B20B1C914200D9131CCD
:1034E0009BB20293636AE1681A7C023991405A697F
:1034F0008B18029ADF1980239B009A423FD1444BDC
:103500001968B94202D1012252421A60414B391C5A
:1035100018682A1C00F0A0FA0028C7D08022920068
:10352000AD180199029A8B1A21699BB201938B18ED
:103530002361019A2669002ABFD149E0002EC6D135
:10354000E168002903D1236A002B16D10FE005AAF8
:1035500000F036FB002858D0626A059B0132D27F0A
:10356000102A01D12C4A00E02C4A934205D3201C9A
:10357000FFF76AFC0028AAD198E7E360A7E7002ECE
:103580000FD12369E1698B420BD300F0ADFA00281B
:103590008CD01F4B01211F60214B1A780A431A70EF
:1035A00006E0381C012100F0C9FA002800D17DE7AF
:1035B0001C4B2A1CF618029BF118331C8B4204D0BA
:1035C0001078013218700133F8E79E1BAD19A8E797
:1035D000E169237A8E4201D9E66106E0124A126857
:1035E000002A06D0039A002A03D0802252421343B5
:1035F0002372237A190701D4039806E0201CFFF7F1
:10360000B9FD002800D151E7F6E707B0F0BDC0468C
:1036100004000020FC010020F8FF0000F8FFFF0F6D
:103620000004002000020020E801002007B56B46DE
:10363000D9710733191C0122FFF722FF0EBD0000CC
:1036400008B5011C0148FFF76FF908BD64010020AF
:1036500008B50248FF21FFF767F908BD64010020A3
:1036600008B50121007900F0D1FD054B1A78002A38
:1036700004D0002203481A70FFF744F908BDC04681
:10368000F40100206401002010B5084B041C1A78D6
:10369000002A06D101221A70054B064806CBFFF717
:1036A00015F92079002100F0B1FD10BDF4010020D2
:1036B000EC0100206401002010B58379041C002B6C
:1036C0000DD023895A1C2281054A934202D8FFF764
:1036D000BFFFF6E7201CFFF7C3FF0023A37110BD57
:1036E0000102000000B5062903D91623437100200A
:1036F0001CE00F4B052913D8081C002202F076FEAF
:10370000030507090B0D0B4908E00B4906E00B49BF
:1037100004E00B4902E00B4900E00B49196002E0AC
:103720000A4A1A6000221A715A71012000BDC0466F
:10373000EC010020001BB70000093D0080841E0042
:1037400040420F0020A1070090D0030048E801008C
:1037500038B50C1C00F0E8FB051CFFF779FFFF28CB
:1037600006D000F0E1FB401BA042F6D3002000E0B1
:10377000012038BDF8B5041C0E1C171CFFF79CFF78
:10378000201CFFF781FF96214900201CFFF7E0FF76
:1037900040203043FFF754FF1825381CE840C0B2E2
:1037A000083DFFF74DFF2B1C0833F6D19520002E66
:1037B00003D08720082E00D0FF20FFF741FF00250F
:1037C000FFF746FF43B2E072002B04DAFF2D02D070
:1037D0000135EDB2F4E7F8BDF7B5002502710573C8
:1037E000857285714571041C019100F09DFB0121DA
:1037F000071C207900F0B0FC0121207900F006FDC3
:10380000424E301CFFF73AF8414B42491D715D7141
:103810001960301C5A68FFF759F80A25013DFF204E
:10382000EDB2FFF70DFF002DF8D1301CFFF76AF85D
:10383000201CFFF729FF0021201C0A1CFFF79AFF1C
:10384000061CE072012808D000F06EFBFA23C01BB2
:10385000DB009842EFD901233BE0D522201C082150
:103860005200FFF787FF0423184201D026730BE0B4
:103870001E1CFFF7EDFE013EF6B2E072002EF8D1FD
:103880000223AA2825D12373267B023E73425E4180
:10389000B60737210022201CFFF76CFF321C201CCA
:1038A0002921FFF767FF021CE07208D000F03CFB03
:1038B000FA23C01BDB009842EBD9082309E0237BE5
:1038C000022B19D1201C3A21FFF754FF002805D004
:1038D00006236371201CFFF7C3FE15E0FFF7B8FE57
:1038E000C0231840984201D103232373FFF7B0FE91
:1038F000FFF7AEFEFFF7ACFE201CFFF7B1FE201C69
:103900000199FFF7EFFE051C281CFEBD6401002095
:10391000EC01002090D0030038B5041C00F004FB3B
:10392000051CFFF795FEE072FF2808D100F0FCFAB5
:103930009623401B5B009842F3D90F2302E0FE2838
:1039400006D00D23201C6371FFF78AFE002000E0E3
:10395000012038BDF8B5041C0F1C151C1E1E45D0D7
:103960009A1880239B009A4242DC8379002B05D071
:103970000268914202D10389AB4216D9237B2760AA
:10398000032B00D07F023A1C201C1121FFF7F2FE0E
:10399000071E02D0032363712AE0201CFFF7BCFF3F
:1039A000002825D001232781A3712389AB4205D2AA
:1039B000FFF74EFE238901332381F6E7069D069A21
:1039C000AB1A9BB2B34204D2FFF742FE2870013516
:1039D000F5E72389A27AF3189BB22381002A02D04B
:1039E000064A934202D9201CFFF766FE012003E03D
:1039F000201CFFF735FE0020F8BDC046FF01000087
:103A000007B5802300929B000022FFF7A3FF0EBDA5
:103A100070B5051C081C161CFFF712FE0024305D53
:103A2000FFF70EFE013480239B009C42F7D1FF205C
:103A3000FFF706FEFF20FFF703FEFFF709FE1F2337
:103A4000E87203400120052B05D01123281C6B715F
:103A5000FFF706FE002070BD70B50B1C041C161C81
:103A6000002901D1122328E0027B032A00D04B0257
:103A7000201C18211A1CFFF77DFE051E01D004230F
:103A80001BE0201CFE21321CFFF7C2FF002815D0CE
:103A90009621201C8900FFF75BFE002801D1152329
:103AA0000BE0201C0D212A1CFFF764FE002803D127
:103AB000FFF7CEFD002806D014236371201CFFF70A
:103AC000CFFD002003E0201CFFF7CAFD012070BDE0
:103AD000034B044A1A6000225A711A717047C0469B
:103AE000EC01002000093D00F8B50F4F01203B78A4
:103AF000002B18D00D4E0E4B0E4D196830682A1C45
:103B0000FFF7AAFF00280ED00B4C2168002907D030
:103B100030682A1CFFF7A0FF002804D00023236090
:103B200000233B700120F8BD00040020FC010020B0
:103B30000400002000020020F801002070B50D4DA7
:103B4000041C2B680E1C83420ED0FFF7CDFF00280B
:103B500001D100200DE0084B211C1868074AFFF72F
:103B60004FFF0028F5D02C60054B01201A78164332
:103B70001E7070BD04000020FC0100200002002027
:103B80000004002010B5041CFFF7AEFF00280FD082
:103B90000023084A00219954802201339200934265
:103BA000F7D1054B01201C60044B1A7802431A70B0
:103BB00010BDC046000200200400002000040020C8
:103BC000C36870B501330C1C151C994201D9002043
:103BD00021E0461CF17FC269E309102900D1230AC4
:103BE00098180D4B1B68984207D1F27F0B4B102A97
:103BF00009D1E4B264001B5B0BE00021FFF79EFFDC
:103C00000028F2D1E3E77F221440A4001B591B01D6
:103C10001B092B60012070BD040000200002002061
:103C200073B5051C0191161C0024281C019901AADA
:103C3000FFF7C6FF002810D02A7C80239B0093400A
:103C4000E4186B1CDB7F019A102B01D1034B00E0C1
:103C5000034B9A42E9D33460012076BDF8FF00009F
:103C6000F8FFFF0FF7B5051C0C1C0192012932D992
:103C7000C3680020013399422ED86F1CFA7FEE6989
:103C8000CB09102A00D10B0A9E19144B1B689E42C7
:103C900008D1FA7F124B102A0BD1E4B2019A6400CA
:103CA0001A530BE0301C0021FFF748FF0028F0D129
:103CB00012E07F221440019AA4001A51094B0120FE
:103CC0001A7802431A702B7E834205D9AB68F61826
:103CD000054B1E6000E00020FEBDC0460400002031
:103CE0000002002000040020F8010020F0B5156853
:103CF00087B0061C0291171C002D03D0002101354E
:103D0000019106E0029B0568013B5A425341DBB238
:103D10000193F2680023013203922C1C0093009956
:103D2000F268914221D2039B9C4201D90224251CB6
:103D3000301C211C05AAFFF743FF002815D0059968
:103D4000631C002901D01D1C03E002995A1B8A4202
:103D500004D0009A1C1C01320092E0E7301C211CA8
:103D6000134AFFF77FFF00280BD100201DE0631EE0
:103D7000301C191C221C0093FFF774FF0028F4D09C
:103D8000009CAC42F3D83968002906D101993D6006
:103D9000002909D00135356006E0301C2A1CFFF7E8
:103DA00061FF0028F2D1E0E7012007B0F0BDC04676
:103DB000FFFFFF0F022337B5051C0C1C0360281CF6
:103DC000211C01AAFFF7FCFE002812D0281C211C90
:103DD0000022FFF747FF00280BD06B1CDB7F019C04
:103DE000102B01D1044B00E0044B9C42E7D301208F
:103DF00000E000203EBDC046F8FF0000F8FFFF0FC6
:103E0000F8B5444B041C151C196029D0042A01D9AB
:103E100000207DE00020011CFFF790FE0028F7D075
:103E20002D013D4BA935FF355D19AA79AB1D500613
:103E3000EED1EA7CA97C12020A43297D09040A43D7
:103E4000697D09060A43632AE2D9AA7BED7B2D022C
:103E500015439A7ADB7A120415431B061D43D7D00B
:103E6000281C0021FFF76AFE0028D1D02A4B197BBD
:103E7000DA7A09021143802292009142C8D11A7C59
:103E8000002AC5D0D9890029C2D0597B0029BFD0CA
:103E90002276002221712274227C012090408142EE
:103EA00004D0501C2074072AF6D9B1E7D98A00291A
:103EB00000D1596AA160D8892818E0611F693E02C3
:103EC000360C6684B7B21E7C71430E181348790114
:103ED00009184912711866626161187DDE7C000262
:103EE000304300D1186A6D1A2818D040021CE060D7
:103EF0000B48611C824201D80C2307E0094882422A
:103F000001D8102302E0DB6A63622023CB77012013
:103F1000F8BDC046FC01002000020020FF010000A7
:103F2000F40F0000F4FF0000014B18687047C04612
:103F30000404002070B5041E08D0054B1D681E1C2B
:103F400000F01AF833685B1BA342F9D370BDC0467A
:103F50000404002008B5034B1A6801321A6000F00F
:103F600055FE08BD0404002008B504F05DFA08BD44
:103F700008B504F063FA08BD704700207047FEE7FB
:103F800008B5034B1B68002B00D0984708BDC046FE
:103F90000804002038B50F490F4CA14204D100F0AD
:103FA000D9FA00F08DFB0BE00C4D8D42F7D00023C9
:103FB000CA18E818A24204D2006804331060F7E778
:103FC000FEE79042EBD0064B064A9342E7D200222E
:103FD00004C3F9E70000002020010020488E000003
:103FE00020010020500C002008B5FFF7C6FF002874
:103FF00001D1FFF7AFFF08BD014B18607047C04605
:10400000080400203F20704713B502686B46D97141
:1040100007335468191C0122A04716BD08B5006972
:10402000022101F069FA08BD08B50069032101F019
:1040300079FA08BD38B50D1C041C131C0069032156
:104040002A1C01F05FFB002801D10123636038BD09
:1040500010B5054C23685A1C04D103685B69984766
:104060002060031C181C10BD58000020074A08B52A
:104070001368591C04D0012149421160181C03E047
:104080000069022101F030FB08BDC0465800002045
:1040900008B503780349023303704222024801F055
:1040A000DBFB08BD14000020270B002010B50178B1
:1040B000031C42780020A12908D1212A2FD11848B9
:1040C0001849072201F0C8FB012028E0212926D148
:1040D000202A05D113490722114801F069FA04E0AA
:1040E000222A10D19A780F4BDA710E4B962219685A
:1040F000D200914210D1DC7901231C400CD1FA206E
:1041000000F076FD0AE0232A09D1DA789B781202C2
:104110001A43054B1A6002E000F070FD002010BD4C
:10412000270B00200800002010000020704700002E
:10413000064BFA218900996005490022083119606F
:1041400004495A6019611A767047C0460C04002071
:1041500038890000270B002010B51824021C201CF1
:104160005043274B1818007A40B2013046D003293B
:1041700044D8081C211C02F039F902331121624392
:1041800098569A18C3011F4852681B189918403155
:10419000022008700121914059602FE06243985637
:1041A00018499A185268C3015B18991840310620C3
:1041B000087001219140596099611FE051435A569E
:1041C000104859184B68D2011118C81840300624FD
:1041D00004700120984048600B49521850600DE06F
:1041E000624398569A18C301064852681B189918DA
:1041F00040310220087001219140996010BDC046F5
:1042000070890000004400411044004118235843C5
:10421000134AF0B5131808241C5701341FD08256D6
:10422000104ED2015D6801249019231C8668AB40B2
:104230001E420BD10E1C771EBE4140193440403047
:10424000A50004780426B4432C430470002903D14C
:1042500005495218536002E0024E92199361F0BD75
:10426000708900000044004110440041F7B58A18ED
:10427000061C0D1C01920C1C019B671B9C4207D065
:10428000336821781B68301C984701340028F3D12B
:10429000381CFEBD38B5051C0C1C081E07D004F0E8
:1042A000C5F92B68021C5B68281C211C984738BD87
:1042B00010B504680B1C9A6809686368984710BDBC
:1042C00008B5FFF7E7FF08BD08B503681B68984706
:1042D00008BD000008B50249FFF7DCFF08BDC04675
:1042E0006089000038B5041CFFF7D4FF051C201CB2
:1042F000FFF7F0FF281838BD38B5041CFFF7D8FFCA
:10430000051C201CFFF7E6FF401938BD38B5041C1A
:10431000FFF7C0FF051C201CFFF7DCFF281838BD85
:10432000F0B58DB0161C0BAB002201900C1C1A705E
:10433000012E00D80A266D462B35201C311C02F0B8
:10434000A3F8201CCFB2311C02F05AF8291C041C1F
:10435000092F01D8303700E03737FFB22F70013D09
:10436000002CEAD10198FFF795FF0DB0F0BDF8B52C
:10437000041C0D1C161E04D10368C9B21B689847A3
:1043800012E00A2A0DD100290ADA2D21FFF79CFF3D
:104390006942071C321C201CFFF7C2FFC01903E052
:1043A00000E0D2B2FFF7BCFFF8BD08B5FFF7DFFFB2
:1043B00008BD000000000000F7B51C1C08AB1B780E
:1043C000071C211C101C151C009301F0DFFF0028A6
:1043D00002D1381C504907E0281C211C01F0D6FFEF
:1043E000012804D14D49381CFFF754FF7CE0281CFC
:1043F000211C404B3E4A02F07DF8002802D0381CB8
:104400004749F1E7281C211C3B4A3C4B02F05EF86F
:104410000028F4D1281C211C394A3A4B02F056F8E6
:10442000002808D02D21381CFFF74EFF80210906F7
:104430000190641800E001900026334A334B009944
:104440008E420AD0101C191C314A324B02F0BAFCC1
:104450000136021C0B1CF6B2F1E7281C211C02F0ED
:1044600095F90D1C041C02F093F8061C03F002FFE2
:104470000B1C021C291C201C03F09EFB0A22041C9E
:104480000D1C381C311CFFF74BFF019B0099C6180F
:10449000002904D0381C2E21FFF716FF3618009B88
:1044A000002B20D01A4A1B4B201C291C03F0F4F8C7
:1044B0000D1C041C02F06CF801900A220199381CB2
:1044C000FFF72EFF3618019803F0D4FE0B1C021CD8
:1044D000291C201C03F070FB009B041C013BDBB279
:1044E0000D1C0093DBE7301CFEBDC046C046C04635
:1044F000000000E0FFFFEF41000000E0FFFFEFC120
:104500000000000000000000000000000000E03F8C
:10451000000000000000244063890000678900005B
:104520006B890000C046C04613B5049CE1B20091FF
:10453000FFF742FF16BD37B5041C0698C1B20091C3
:10454000201CFFF739FF051C201CFFF7C3FE2818AD
:104550003EBD000070B5494A1E21536802208B43BE
:104560000343474953608B69082423438B61454CBF
:10457000454B9C829C8A20439882101CDA689407E1
:10458000FCD5424A012414701478E50704D53F4C49
:10459000647864B2002CF7DB01249460547864B230
:1045A000002CFBDB3A4D394C6560547864B2002C2A
:1045B000FBDB8225354CED016580547864B2002C1C
:1045C000FBDB02249C84DC68E606FCD5314D2E4CD6
:1045D000E562DD682C4CEE06FBD5A58C2E4E3543EE
:1045E000A584DD68284CEE06FBD5A58C0226354354
:1045F000A584DC682506FCD5234CE4686606F8D55E
:10460000DC68E506FCD500249460547864B2002C84
:10461000FBDB224D1D4C656055781C4C6DB2002DA6
:10462000FADB1E6A1E4D35401D621D6A8026B543A9
:104630001D620323A3601B4B636053785BB2002BA6
:10464000FBDB00230B72184A4B728B72CB72174B39
:10465000FF211A60164B174A1B6812685C01D20EC4
:10466000214011439A06520F12020B1C1343124AA7
:104670001385436880221343436070BD00400041AE
:10468000000400400C06000000080040000C004040
:1046900001050100B905FF7D040A000000070300C1
:1046A000FFFCFFFF03060100006CDC028800002015
:1046B00024608000206080000040004270470000BD
:1046C00010B501F017FB03F089FEFFF7F7FF01209B
:1046D000FFF730FC084C201C00F0C2FD201C00F04D
:1046E0001FFEFDF7DBFFFEF723F8044B002BFAD08B
:1046F00000E000BFF7E7C046270B002000000000E5
:1047000001607047F7B508AC267804689D1E2768DD
:104710006C1EA541ECB2920705683A4327063A435E
:104720002A600268072529405068B501002C00D096
:104730005C03294301430C435460F7BD30B5036863
:10474000C0251C68AD0312052A402243C024A402E0
:10475000090421401143196003685A6814435C60DE
:1047600030BD036801211A680A431A6002681168A3
:1047700001231942FBD1D1691942F8D1704703686E
:1047800002211A680A431A600268D3699907FCD4A7
:10479000704703681A7ED10702D41A7E9107FCD5B0
:1047A0007047036800225A8370470368187E4007E9
:1047B000C00F70470368187EC009704703688022E5
:1047C000197E52420A431A7670470368588B800755
:1047D000C00F7047036802215A8B0A435A837047FF
:1047E0000368187E0123184070470368188DC0B213
:1047F000704703681A7E01200242FBD0198570477A
:10480000036801229A757047036801221A75704780
:1048100070B5036801268D07ED0F31401C686D07E8
:10482000090729432143196004685100034801F036
:10483000E7FD0138C0B2207370BDC046006CDC02D9
:10484000036801211A680A431A600268116801238B
:104850001942FBD1D1691942F8D17047036802218E
:104860001A680A431A600268D3699907FCD4704732
:104870000368DA699107FCD41A6802218A431A6036
:10488000704703689A6A520A520211439962036898
:104890001A7E5107FCD5986AC0B270470368224A55
:1048A00030B5934211D0214A934211D0204A93420D
:1048B00011D0204A934211D01F4A934211D01F4A6F
:1048C000934230D10E2319220DE0092314220AE06D
:1048D0000A23152207E00B23162204E00C231722DB
:1048E00001E00D231822DCB2154901209B08A040ED
:1048F0009B0008605B180320C021890004405D58BC
:10490000E000FF248440A5432C1CC0258540281CC2
:10491000204358508023DB011A430A4B5A805A78AF
:1049200052B2002AFBDB30BD00080042000C0042FE
:10493000001000420014004200180042001C004217
:1049400000E100E0000C0040F8B5041C151C0E1C32
:104950001F1CFFF7A3FF201CFFF703FFB1001C2261
:104960000A4069072368090C0A431A6022688423F5
:104970009375012E1AD10821012D00D110210C4B65
:1049800079431868C00001F03BFD236807219A892C
:104990000140D2044903D20C0A439A8123680004DF
:1049A000C20C9889400B400310439881F8BDC04663
:1049B00088000020F7B5019308AB041C1F780D1C7C
:1049C000161CFFF73DFF201CFFF768FFBF070C22F6
:1049D0001743C022920336051640C02292022D04CE
:1049E00023683E4301991540354307221D600A4064
:1049F0008021236889020A435A60F7BD1822424386
:104A0000F8B52D4D0824AA181457031C621C50D069
:104A1000481C00240C284CD801F0E8FC071E1E1E80
:104A20001E1E1E1E1E0A0A0A0A000124644240E0DD
:104A3000092902D1181C002103E00A2904D1181CFD
:104A40000221FFF789FB23E000240B2931D1181C38
:104A50000121FFF781FB2CE018225343EA1852682A
:104A6000EB560120141C04405508DB01002C11D02A
:104A7000124C1B195D1930352E780C010F21314075
:104A800021439A18C9B22970403213781843107024
:104A900000240EE0094E0F279B195D1930352E7842
:104AA0009A18BE433143C9B2297040321378184373
:104AB0001070201CF8BDC046708900000044004101
:104AC00010B5041C006803F0B9FC201C10BD10B523
:104AD000041C0068002801D003F0B0FC0023236010
:104AE000A360636010BD38B5041C0D1C0068013163
:104AF00003F06AFD002801D021C4012038BD0368FD
:104B000010B5041C002B02D043688B4209D2201C34
:104B1000FFF7E9FF002805D0A368002B01D1226828
:104B20001370012010BD70B50E1C111C041C151C47
:104B3000FFF7E5FF002803D1201CFFF7C8FF04E0C2
:104B4000A5602068311C03F069FD201C70BD38B5DC
:104B50000023041C0D1C036043608360994207D04E
:104B6000081C03F063FD291C021C201CFFF7DBFF5F
:104B7000201C38BD10B50B1C041E8C4208D00968DF
:104B8000002903D09A68FFF7CEFF01E0FFF79FFFEF
:104B9000201C10BD10B50023041C0360436083601B
:104BA000FFF7E8FF201C10BD38B5041C0D1E08D00F
:104BB000081C03F03BFD291C021C201CFFF7B3FF5F
:104BC00001E0FFF784FF201C38BD10B500238AB038
:104BD000041C036043608360081C01A900F0DDF839
:104BE000201C01A9FFF7E0FF201C0AB010BD000047
:104BF000014B18607047C0465C000020024B012248
:104C000052421A607047C0465C000020154A136883
:104C1000581C25D0013B1360002B21D172B6124ADB
:104C2000124B04329A4207D8BFF34F8F104A114BF0
:104C3000DA60BFF34F8F11E00F4B197DC807FBD52A
:104C4000188B2021FF319208520001431983DA6149
:104C50000A4A1A801A7DD107FCD5E5E7C046FDE770
:104C60007047C0465C0000200020000003020000E6
:104C70000400FA0500ED00E00040004102A5FFFF3E
:104C800008B5024801F010FA08BDC046280400200B
:104C900013B512491248FFF733FD12491248FFF7C6
:104CA0002FFD12491248FFF72BFD12491248FFF75A
:104CB00027FD12491248FFF723FD124C1249201C10
:104CC000FFF71EFD0323009301230193211C0D22F6
:104CD0000E230E4801F000F913BDC0460008004243
:104CE00068060020000C00426C0600200010004204
:104CF00070060020001400426406002000180042E4
:104D00007406002078060020001C004228040020C1
:104D1000F0B58FB00D1C029235D0131C023B222B34
:104D200033D80A2A33D1002831DA012346420393CB
:104D300005AC0194002E12D0301C029901F0A4FBA6
:104D4000301C0F1C029901F05BFB631C061C092F31
:104D500001DC303700E0573727701C1CEAE7019A66
:104D60009442E9D0039A2B1C002A02D02D226B1CFE
:104D70002A70019A944204D9013C22781A700133B6
:104D8000F7E700221A70281C05E0002003E000224B
:104D9000061C0392CCE70FB0F0BD08B5FFF7B8FFD3
:104DA00008BD10B507230F220240141C000930343F
:104DB000092A00DD0734CC54013BF4D210BD0000B9
:104DC00010B5054B041C0360806903F037FBA06A33
:104DD00003F034FB201C10BDD88C000010B5041C5F
:104DE000FFF7EEFF201CFFF7C3F8201C10BD0000EA
:104DF00070B582291ED1C2B22A495301CB189D69D0
:104E0000294C80012C40C025AD052C439C61274CCA
:104E10000832201858610B68520199180C798020CB
:104E2000404220430871D15C70208143302001430F
:104E3000D15435E0002933D1C2B21A495301CB18FD
:104E40009E68194DC0242E40A40526439E60184E2E
:104E5000800109683018083258605201505C0726FA
:104E6000B0430126304350549E6935402C439C6129
:104E70000E4C5C61505C7024A043102420435054BD
:104E80009C680C488A182040802464032043986062
:104E900098684021800B8003986053790B435371CD
:104EA00070BDC0462C0B0020FFFFFF8F880700203D
:104EB00048090020FF3F00F038B5041C08CC012150
:104EC0001A78051C0A431A708022201C0021520007
:104ED00003F0D6FA2B689A78D107FCD45C6238BD0F
:104EE000134BF0B51B6899035A029B01C90ED20EF1
:104EF0005B0F1F2900D105211F2A00D11D22072B7E
:104F000000D1032304688E01278D0A491F253940EB
:104F10003143218501682A400C8DAC4322430A8528
:104F200002681903108D044B03400B431385F0BD39
:104F3000246080003FF8FFFFFF8FFFFFEFF3108337
:104F400003600123436072B670470368002B02D1EF
:104F500062B6BFF36F8F704737B50569041C6846AA
:104F6000002D12D1FFF7EAFF019B013B03D3621D25
:104F7000D57FEDB2F9E768460193FFF7E6FF002021
:104F8000854217D0206AE36913E0FFF7D7FF019B42
:104F90000025013B04D3221C34321578EDB2F8E72A
:104FA00068460193FFF7D1FF0020854202D0206BB5
:104FB000E36AC01A3EBD0000436810B51A68037A60
:104FC00001215B01D318FF339A7A0A439A72037A5C
:104FD00042685B01D318C2689C6891040B4A0909B6
:104FE00022400A439A60037A42685B01D3189A68A8
:104FF0004021920B92039A6043681A68037A08333F
:105000005B01D3181A790A431A7110BDFF3F00F0F3
:10501000F7B50569041C0E1C171C6846002D1FD12E
:10502000FFF78CFF019B013B5A1C06D0621DD17F0C
:105030005A1E00293AD0131CF6E768460193FFF781
:1050400084FF0025E369BD4235D0226A934232D203
:105050005A1CE261A269D3181B7873550135F1E738
:10506000FFF76CFF019B013B5A1C08D0221C343215
:1050700015785A1EEDB2002D18D0131CF4E76846BF
:105080000193FFF762FF0025E36ABD4226D0226B41
:10509000934241D322E0621D0021D177303216784D
:1050A000581E8E4214D1031C5A1CF4D16846019339
:1050B000FFF74BFF38E0226A934235D10023E361CA
:1050C000012323616846FFF739FF019B013BEBE7B2
:1050D0001170201C0193FFF76FFFF6E7226B9342DC
:1050E00022D10023E36223616846FFF727FF019B7B
:1050F000013B5A1CDAD0221C3432002111700132DB
:105100001678581E8E4201D1031CF2E71170201C44
:105110000193FFF751FFEAE75A1CE262A26AD31833
:105120001B7873550135AFE7281CFEBD37B54368C2
:10513000027A1B68083252019A18041CD0790123A4
:10514000FF21184255D0D371A0686569626801409B
:10515000002D1FD14901521891688904890C2162E0
:10516000216A002942D06361A36A68465360FFF751
:10517000E5FE019B013B5D1C34D0621D0120D07710
:105180002F3211785D1EC9B21218002915D1117085
:105190002B1CF0E74B01D3189A689204920C2263FF
:1051A000226B002A22D000226261A26968465A60FE
:1051B000FFF7C4FE019B013B12E0019310706846AB
:1051C000FFF7C3FE15E0221C343201201070621D6F
:1051D000D17F5D1EC9B230320029EED111702B1C77
:1051E0005D1CF0D168460193FFF7AFFE201CFFF76E
:1051F000E3FE37BD37B500236C46E3710734201C4E
:105200000D1CFEF745FF2B681818286001F0A4F864
:10521000211C01F05BF82B681818286020783EBD2F
:1052200003290BD10D4BB2221B685200985C8021E0
:10523000494201439954022168220CE001290CD112
:10524000064B92221B685200985C80214942014320
:10525000995402212822FF32995470472C0B0020C8
:1052600038B5264B2021DA69051C0A43DA61244B44
:1052700001201A78062402431A70224B0F22197853
:10528000914319701978214319701F490C782043F4
:10529000087019780A401A701A7860210A431A7047
:1052A0001A4B1B4A5A805A78D209FCD11948FEF78A
:1052B000A3FE194C201CFFF7FFFD201CFFF710FE7A
:1052C00023687F2219780A401A701A7804210A4349
:1052D0001A701A890C218A431A81C1210F4A890048
:1052E00050580002000A5050802111601A780221A3
:1052F0000A431A7001232B7038BDC04600040040D9
:10530000584400413C44004159440041000C0040D5
:1053100006400000D55C00002C0B002000E100E0FE
:105320000078002810D0094B01211B681A898A4394
:105330001A811A8B08210A431A831A8B04210A4303
:105340001A83034B00221A607047C0462C0B0020C2
:10535000300C00200F4B9A69920B92039A611B68E4
:105360000222FF331A7298798022524202439A71C4
:105370001A7A9007FCD5084B081C997A7F221040B6
:10538000914301439972997A802252420A439A7258
:105390007047C0462C0B00200050004110B50B791F
:1053A0000C1C002B0BD1081CFEF780FE002804D13A
:1053B000094B9A69920B92039A6101200BE000F06D
:1053C000CBFF211C00F0B6FF0028F6D1024B9A69F2
:1053D000920B92039A6110BD2C0B0020F7B50D1CA7
:1053E000832A18D1CAB236495301CB189C69354873
:1053F000AD012040C024A405204398613248083202
:1054000045195D610B685201D15C702081434020D9
:105410000143D15453E0022A4DD12C4B8900C85886
:105420000191002802D003681B6998473820FEF7D5
:105430009BFD274B224F8026036076000023421DF0
:10544000036203614361C36147608560C660D377CF
:105450002F32041CC36203631370301C537002F0BC
:10546000E3FFA061301C02F0DFFFFF231D406D0150
:10547000A0627F19B968134A07250A40C02189052F
:105480000A43BA60A168626819401268083149018C
:10549000885CA843032528438854A26861681340A8
:1054A0005B01A269CB185A60201CFFF785FD074BF2
:1054B00001995C5003E0081C111CFFF799FCF7BD33
:1054C0002C0B0020FFFFFF8F88070020080B002017
:1054D000D88C000038B5051C0124064BA200D25818
:1054E000002A06D0211C281C0134FFF777FFE4B204
:1054F000F3E738BD6000002008B5084B8A00D0589B
:10550000002803D003689B68984706E0C9B2044BA3
:105510004901591888688004800C08BD080B0020D8
:105520002C0B002010B50C1CFFF7E6FF00280CD058
:10553000064BE1B21B680831490159184A798023AA
:105540005B4213434B710223CB7110BD2C0B002027
:1055500070B5CAB2134B1448540189015918031984
:1055600059609D681149083229408025AD022943C0
:10557000996099684026890B8903996003685101F5
:1055800059180D7935430D715101591889794D0616
:10559000FAD551015918C979CD07FAD50419A0686F
:1055A000C0B270BD480900202C0B0020FF3F00F066
:1055B00038B50C4B141C1B680D1CFF335A79402165
:1055C0000A435A710021FFF7C3FFA04200D9201CF3
:1055D0000023A34204D0044A9A5CEA540133F8E75A
:1055E00038BDC0462C0B00204809002010B5C9B2B8
:1055F0000C48490143189A689204920C3F2A08D932
:10560000141C9A68403CA404920BA40C92032243FD
:1056100002E09A68920B92039A6041188868C0B2BF
:1056200010BDC0462C0B0020F0B51C1C2A4B85B0C9
:105630001B68061C0D1C0292002B46D0274B8A00CB
:10564000D058002805D0036802995B68221C98474F
:105650003FE0301CFFF750FFA04204D2301C291C51
:10566000FFF74AFF041C291C301CFFF7BFFF1C4F2B
:10567000E9B24A010191396803928B18FF335A7AD3
:1056800001210A4317495A72AB01C9180298221C1A
:1056900002F0EDFE002C1BD0301C291CFFF72CFF64
:1056A000002815D1019B3A6808335B01D31819799A
:1056B0004020014319710121D97103995318FF3317
:1056C0009A7A01210A439A7202E00120404200E0E6
:1056D000201C05B0F0BDC046300C0020080B002097
:1056E0002C0B00204809002013B56C460734221CFF
:1056F0000123FFF799FF012801D1207801E0012063
:10570000404216BDF0B51C1C3A4B85B01B680E1C00
:105710000292002B60D08023DB019C425CD80022E7
:105720000092002C56D0344DF7B22B6801933B1CED
:105730000833019A5B01D3189B79DB091AD02F4BF0
:105740002F49186800F05CFE2E4B1721584300F0DB
:1057500057FE3B1C0833019A5B01D318DB799A078B
:1057600008D4294B9A5D002A38D1421E002835D032
:10577000101CEEE7244B00229A55251E3F2D00D920
:105780003F25224AB301D318181C02992A1C0393FF
:1057900002F06DFE184A7B01D318039AA9045A61DE
:1057A0009A69890C920B92030A439A613B1C019AF5
:1057B00008335B01D3180222DA71597980225242F0
:1057C0000A435A71009B029A5B1952190093641B99
:1057D0000292A6E700980BE0012008E001229A550A
:1057E0007B01ED18AB69101C9B0B9B03AB61404226
:1057F00005B0F0BD300C00202C0B002088000020EC
:1058000040420F007011010080070020880700202F
:1058100070B50E4D1C1C8B01ED18281C0E1C111CA4
:10582000221C02F024FEF6B20949760189194D6165
:105830008A69084B201C13408B618B69A2049B0B67
:10584000920C9B0313438B6170BDC04688070020F8
:105850002C0B0020FF3F00F0F7B5114B01901B7897
:105860000F1C141C002B19D10E4B1E78002E01D1D9
:10587000151C08E00C4D0D482E888019361902F0D1
:10588000F6FD2E800AE0002D08D0BA192B1C0198D5
:105890000021FFF7BDFF36182D1AF4E7201CFEBDCE
:1058A000260B0020240B00207E0700207D06002010
:1058B000F8B50E1C00AF151E012D28D9D31DDB082D
:1058C000DB006A46D21A9546081C02F0AFFE013092
:1058D0006C4640000323207063700222AA420ED25D
:1058E0003378002B0BD0511CC9B20136A354A94206
:1058F00004D0002302326354D2B2EFE72A1C0548D9
:10590000211CFFF7A9FF431E9841C0B200E0002010
:10591000BD46F8BD270B002008B5044B00221A70C5
:10592000034B04491A88FFF797FF08BD240B00209A
:105930007E0700207D060020F0B5204A87B00123B5
:105940000026009102A91370051C0296FFF752FC75
:1059500003AC092701903A1C201C311C02F090FD79
:1059600002236370A023E371FA232372029B0122B6
:10597000DB196380019B62712371104A009B2770C1
:105980001670BB4205D1281C211C1A1CFFF764FFAE
:1059900011E00B4B01221A700A4B211C3A1C281CE7
:1059A0001E800296FFF758FF281C02A9FFF722FC71
:1059B000281CFFF7B1FF012007B0F0BD260B002027
:1059C000240B00207E07002070B5CE7892B0051C15
:1059D0000C1C022E08D1C9882D48FFF7ADFF031C0F
:1059E000581E8341D8B251E000F0B6FC211C00F0F3
:1059F00082FC002803D0C3171B1AD80F46E0012EE3
:105A000004D1E2882349112A3BD837E0032E3DD147
:105A1000A278002A05D12049E2880B7893422DD83C
:105A20002FE0022A03D1A279281C1C4904E0012A94
:105A300005D1A2791A49281CFFF73AFF26E0032A6C
:105A400024D1184B01A91868FFF7ABF9164B03A92D
:105A50001868FFF7A6F9154B05A91868FFF7A1F913
:105A6000134B07A91868FFF79CF900F075FC09A90A
:105A700000F051FCA279281C01A9DDE7D2B2002A6E
:105A800000D10A78281CFFF7E7FE012012B070BD94
:105A9000270B0020008D0000FC8C0000128D000000
:105AA000F08C00000CA0800040A0800044A080008A
:105AB00048A0800073B5051C48780C1C0B2878D8CA
:105AC00000F094FC081C7728773E4306474B686F2C
:105AD00000206FE0097801AA002903D111705170EC
:105AE000281C09E0002313705370334B1B78012BE3
:105AF00000D11370281C002102234FE08A78002374
:105B0000012A04D101AA137053702C4BEEE72A4AE4
:105B1000137049E08E78012E07D1284B01AA00218D
:105B20001E701170281C331C38E0002E08D1224A48
:105B300001231370224A9169890B8903916138E02E
:105B4000A178281CFFF706FC33E0281CFFF73CFF78
:105B500030E0281C00211B4A1FE00A780020D306F1
:105B600028D1281CFFF7B6FCA2781549154B022452
:105B70001A600A682A23FF33D05C2043D0544A209D
:105B8000FF30145C01231C4314548A69920B920366
:105B90008A610EE00C4A281C00210123FFF738FE21
:105BA00007E08A78084B1A60054B9A69920B9203BA
:105BB0009A61012076BDC0467C060020250B00209E
:105BC0002C0B0020300C0020280B0020F8B53B4B9C
:105BD000071C1C78002C70D1394D2868838B19075D
:105BE0000ED5201C211CFFF703F92B6810201A1C6E
:105BF000FF32917A01439172324A146008229A83EB
:105C00002B689A8B500701D504229A83FF331A7AA6
:105C1000D10626D510221A725A7940210A432A4900
:105C20005A710A786023381C1A4202D1FFF742FFEA
:105C300001E0FFF7B3FB002806D02B688022FF337A
:105C4000997952420A4301E0204B20229A712B6835
:105C5000FF331A7A500604D540221A72597A0A4341
:105C60005A722968FE230E8C00241E40E1B2002ED9
:105C700023D0321C012322411A4216D0221C28684C
:105C8000083252018218D079184203D1D279DA4011
:105C90001A4207D00E4BA200D058002809D0036842
:105CA0001B6898470123A3409E430134092CDDD192
:105CB00003E0381CFFF7B4FAF4E7F8BD240B00202A
:105CC0002C0B0020300C002048090020FF50004120
:105CD000080B002008B50248FFF778FF08BDC04652
:105CE000270B0020014A024B1A6070470050004108
:105CF0002C0B0020314BFA21186810B5890000F0F8
:105D00007FFB2F4B0138984224D82E4A2E4B5060EF
:105D1000186AC0210002000A090601431962002422
:105D2000072194601160196A80220902090A12068B
:105D30000A431A62254BFC211A6A0A431A62196A3D
:105D4000FC2292010A431A62196AA022D2020A4373
:105D50001A6200E0FEE7201C00210134FEF7FCF986
:105D60000F2CF8D11A4C63785BB2002BFADB194B7D
:105D70006380194B5A7ED209012AFAD0E422D2005C
:105D80009A803F22DA70597E134AC9090129FAD054
:105D9000C0235B0100201361907000F069FA637802
:105DA0005BB2002BFBDB0D4A094B5A800C4BDA79B6
:105DB000D209012AFAD041225A7010BD8800002071
:105DC000FFFFFF0010E000E000ED00E000040040F5
:105DD000000C00401E400000004000422140000036
:105DE000004800420120704708B50368014A1B6A59
:105DF000984708BD13040000031CFC33D9699A6955
:105E0000914203D0DB69C018007D01E001204042CF
:105E1000704710B5041C0069FEF7A3FC221C002388
:105E2000FC329361D36186229200A4186360A36060
:105E300010BD0000F0B587B001930CAB1B78802635
:105E400002930DAB1B78002503930EAB1B787600F5
:105E500004930FAB1B78041C0593FA239B0083600B
:105E6000194B0F1C0833009245600360291C321C3B
:105E7000143002F005FB231C8E22FC3352009D617E
:105E8000A018DD61321C291C02F0FAFA8622920069
:105E9000A3185D60009A9D6089239B002761E254EE
:105EA000019A0A4B201CE254029A094BE254039ACD
:105EB000084BE254049A8A239B00E254059A8E23ED
:105EC0009B00E25407B0F0BD288D000025020000C1
:105ED000260200002702000030B585B0041C08A887
:105EE000057809A8007800950190FF2002900390A2
:105EF000201CFFF79FFF201C05B030BDF023081CBD
:105F000018403038434258417047F0231B01194074
:105F100080239B0099420CD0C0239B00994206D05D
:105F200080235B000520994204D0002002E0072076
:105F300000E0062070470F231940012905D00239DF
:105F40004B424B410220C01A00E000207047000085
:105F5000F0B5892385B003919B00041C1827C05C11
:105F60003B1C4343324E0821F3185956151CFEF7CB
:105F700045FD304B0821E05C3B1C4343F318595668
:105F8000FEF73CFD2C4BE25C022A0AD18E239B00DB
:105F9000E05CFF2805D047430821F7197956FEF742
:105FA0002DFD8A27BF00E05DFF281AD00121FEF7F2
:105FB000D3F8E35D18225A43B3562049DB01581841
:105FC0008B21890060501E49B6185B188C217268BD
:105FD00089006350012191400A1C8D218900625083
:105FE0001A6001210A1C039B2069FEF7ADFC291CE5
:105FF000201CFFF78AFF291C071C201CFFF79BFFB2
:10600000291C061C201CFFF779FF391C0090331C4B
:1060100020690122FEF776FB074B2069E15C094B02
:10602000E25CFEF78BFB2069FEF7A9FB05B0F0BD33
:10603000708900002502000027020000184400417A
:106040001444004126020000031CFC3358689B687E
:10605000C01A01D50130FF30704710B5041C8E23E3
:106060005B00E018FFF7F0FF0028F8D12069FEF789
:1060700090FB10BD08B51430FFF7E6FF08BDFC30FB
:10608000426883689A4204DB43688068C01AFF3024
:1060900003E082684368D01A0138704708B51D30A4
:1060A000FF30FFF7ECFF08BD38B5041C0069FEF7B0
:1060B0008CFB002805D02069FEF797FB2069FEF7CE
:1060C00089FB2069FEF771FB002820D02069FEF7CC
:1060D0008CFB231CFC339A69D9690132D2B28A4203
:1060E00003D09969611808759A618A239B00E35C63
:1060F000FF2B0CD0201C1430FFF7C1FF092806DC51
:106100008B238D229B009200E358A2581A602069CD
:10611000FEF766FB00281FD08E225200A518281C0F
:10612000FFF792FF031C2069002B13D086229200F8
:10613000A31899685A68914206D09A68A95C9A682F
:106140000132D2B29A6001E001214942C9B2FEF7A0
:1061500050FB01E0FEF758FB2069FEF72BFB0028FF
:1061600005D02069FEF72AFB2069FEF71AFB38BD2F
:1061700070B5041C00690D1CFEF732FB8E22520024
:10618000A61800280ED0301CFFF75EFF00283DD077
:1061900008E0EFF31083DA0722D41F4B5A68D205C8
:1061A000D20D0AD186229200A31858689A6801304D
:1061B000FF2108409042ECD01BE0103AD2B253B21B
:1061C000002B08DA0F231A40083A144B9208920069
:1061D000D218536804E09B08C033114A9B009B58B7
:1061E0002069FEF7FDFA0028DCD0201CFFF75CFFD9
:1061F000D8E75A6801320A4099688A4202D0596841
:1062000075545A602069FEF7FBFA03E02069291CE7
:10621000FEF7EFFA012070BD00ED00E018ED00E0A0
:1062200000E100E038B5031CFC33D9699A69041C0D
:10623000914207D0DA698218157DDA690132D2B24B
:10624000DA6101E001256D428A239B00E35CFF2BAC
:106250000CD0201C1430FFF712FF0A2806DD8C2317
:106260008D229B009200E358A2581A60281C38BD6A
:1062700000B5144A517E131CC9090129F9D001380F
:10628000042813D81969104A0A401A615A780F2154
:106290008A4300F0ABF8030509070300012102E07F
:1062A000032100E002210A435A700AE01169F02339
:1062B0001B050B43136153780F218B4302210B43C2
:1062C000537000BD00400042FFFFFFF070B544680E
:1062D0000E1C0025002C09D02368201C5B68311C93
:1062E0009847002804DB2D18E468F3E7281C01E038
:1062F0000120404270BD38B544680D1C002C08D008
:106300002368201C9B68291C9847002802D1E46858
:10631000F4E7201C38BD38B544680D1C002C07D0AC
:106320002368201C291CDB689847E4682D18F5E7D2
:106330002C7038BD38B544680D1C002C08D023687B
:10634000201C1B68291C9847002803D1E468F4E747
:10635000201C00E0012038BD064B0122196810B551
:106360001140054805D102240470042444704160A2
:106370001A6010BD3C0C0020340C002008B5031C32
:10638000081C191C02F01AF808BD00000B1C011CA7
:10639000021C30B519430220002900D130BD8021F4
:1063A00009068B4216D00D4904205C180C498C421A
:1063B000F4D90C4D5C198C42F0D90B4C59004908AA
:1063C0000320A142EAD9074C0020A142E6D1504265
:1063D0005041E3E7002AE1D0EFE7C0460000F0FFBC
:1063E000FFFFDF7F0000F07FFFFF0F0002B4714668
:1063F00049084900095C49008E4402BC7047C04608
:10640000002934D00123002210B488422CD3012467
:106410002407A14204D2814202D209011B01F8E7FC
:10642000E400A14204D2814202D249005B00F8E7B5
:10643000884201D3401A1A434C08A04202D3001BE1
:106440005C0822438C08A04202D3001B9C08224314
:10645000CC08A04202D3001BDC082243002803D052
:106460001B0901D00909E3E7101C10BC7047002884
:1064700001D00020C04307B4024802A14018029096
:1064800003BDC046190000000029F0D003B5FFF796
:10649000B9FF0EBC4243891A1847C0467047C04630
:1064A0008446101C62468C46191C634600E0C046B8
:1064B0001FB501F073F8002801D40021C8421FBDA8
:1064C00010B500F0A3FF4042013010BD10B501F03F
:1064D00065F8002801DB002010BD012010BDC0467A
:1064E00010B501F05BF8002801DD002010BD01208F
:1064F00010BDC04610B500F0D3FF002801DC00201D
:1065000010BD012010BDC04610B500F0C9FF002825
:1065100001DA002010BD012010BDC0468446081CD1
:106520006146FFE71FB500F0C5F8002801D400213F
:10653000C8421FBD10B500F04BF84042013010BDFD
:1065400010B500F0B7F8002801DB002010BD0120D5
:1065500010BDC04610B500F0ADF8002801DD0020E8
:1065600010BD012010BDC04610B500F05BF800283A
:1065700001DC002010BD012010BDC04610B500F0A8
:1065800051F8002801DA002010BD012010BDC046DE
:1065900038B50E4B0C4A041C0D1CFFF7B5FF002844
:1065A00004D1201C291C01F031FE38BD074B064ADE
:1065B000201C291C01F000FB01F028FE80231B0693
:1065C000C018F2E7C046C046000000000000E041ED
:1065D0004A02430270B55C0A550A43004A001B0E8A
:1065E000C60F120EC90FFF2B05D0FF2A08D00120BD
:1065F00093420BD070BD0120002CFBD1FF2AF6D1B5
:106600000120002DF6D101209342F3D1AC42F1D10B
:106610008E4205D0002BEDD1201C441EA041E9E79D
:106620000020E7E74A024302F0B55C0A550A43003E
:106630004A001B0EC60F120EC90FFF2B31D0FF2AC6
:1066400034D0002B16D1604260418446002A14D019
:10665000002820D18E4217D1934215DC04DBAC42D6
:1066600012D80020AC4212D2704270414042012345
:1066700018430CE0002AEDD194466F426F4160460A
:10668000002805D1002FE5D0704201231843F0BD4A
:106690000020002FFBD148424841404201231843CB
:1066A000F5E7002CCBD002204042F0E7002DC8D007
:1066B000F9E7C0464A024302F0B55C0A550A4300B6
:1066C0004A001B0EC60F120EC90FFF2B27D0FF2A40
:1066D00029D0002B10D0002A15D194466F426F416B
:1066E0006046002815D00020002F04D148424841C0
:1066F000404201231843F0BD604260418446002AB5
:10670000ECD00028F2D18E4211D070420123184300
:10671000F1E7002FF7D0704201231843EBE7022086
:10672000002CE8D1D3E70220002DE4D1D1E7934239
:10673000EBDC04DBAC42E8D80020AC42DBD2704298
:106740007041404201231843D5E7C0464302590A2D
:106750004300C20F1B0E00207E2B0DDD9D2B0CDC99
:10676000802000040143952B0ADC9620C31AD940EF
:106770004842002A00D1081C7047034BD018FBE7A1
:10678000963B9940F4E7C046FFFFFF7FF8B55F46B0
:10679000564644464D46F0B40C034D00CE0F610AF8
:1067A000440F2143C400180380465800400D824620
:1067B000D80F84464046400A530F0343D0006D0D66
:1067C000371C83465246664500D19DE0AF1A002F24
:1067D00000DC03E1002A38D1184300D0E4E063076D
:1067E00009D00F232340042B05D0231DA342A4412D
:1067F000644209191C1C080200D478E0CE4B6A1CC4
:106800009A4200D105E1CD4BE408194048075205F2
:10681000490204430B0B520D371C002000211B03BF
:10682000201C1C0B0B0D1B05C54D234352055208A4
:106830001D4015436D006D08FF07291C39433CBC02
:1068400090469946A246AB46F8BDBB488542C6D0A5
:10685000802000040343382F00DDECE01F2F00DD13
:1068600020E12020C01B1A1C814682405846F84077
:106870000243944658464A469040421E9041FB408F
:10688000624602431F1CA21A9442A4416442C91BDF
:10689000091B141C0B02A2D549024F0A002F00D17C
:1068A000C4E0381C01F06CFD021C083A1F2A00DD10
:1068B000B7E02821091A201C9740C840074394409C
:1068C000954200DDA9E0551B691C1F2900DDD8E0B9
:1068D0001F22551B3B1C221CAB40CA40AC40651E0E
:1068E000AC411343CF401C43391C002577E74807D0
:1068F000E4086A05C908520D371C04438E4B9D42BB
:1069000048D009030B0B88E7AA1A9446002A00DC3A
:1069100098E05046002853D08748854200D15EE772
:106920008020000403436246382A00DDFDE01F2A70
:1069300000DD4BE120226046101A1A1C824082467C
:10694000914658466246D0404A46024390465846D1
:1069500052469040421E9041424602436046C34028
:106960001219A242A441644259180919141C0802C0
:1069700000D434E7704B01359D4200D124E16F4BC8
:1069800060081940012323401C1C0443CB071C430F
:10699000490824E70B1C234300D1C7E180231B03D4
:1069A0000B431B031B0B38E7013F002F64D15846F4
:1069B000221A9442A4416442C91A091B141C69E7B3
:1069C0005846184300D10AE70122524294446046D7
:1069D000002800D0C5E058460219C2E7002F72D146
:1069E000681C4005400D012800DCDEE05A46A21A72
:1069F0009442BF41C81A7F42C71B380200D488E0C6
:106A00005A46141BA3459241591A52428F1A6646A0
:106A100044E7371C00230024FFE64849AD1A3940FB
:106A2000DDE6271C28388740002449E7201C01F0B8
:106A3000A7FC203038E75A461A43531E9A41D2B277
:106A4000002720E7002A00D0DDE0681C4205520D37
:106A5000012A00DC8EE0384DA84200D1B3E05D464B
:106A60002A19A242A441644259180919CC075208B4
:106A700014434908051CB2E62F48854200D0EAE6D7
:106A8000ADE62B1C1F3B3A1CDA40131C20296DD0AD
:106A90003F22551BAF403C43601E84411C430021F4
:106AA00000259CE6381C20381A1CC240101C202FE0
:106AB0005ED04022D71BBB405A461A43531E9A4110
:106AC00002430027DFE6002D3CD01B4DAA4500D134
:106AD00094E080252D047F422943382F00DDADE06E
:106AE0001F2F00DD2CE12025ED1B081C261CA840D3
:106AF000FE40AC400643651EAC413443F9405D4660
:106B00002C1BA34592415B1A5242991A5546664680
:106B1000C0E6131C3B43141C002B00D0BEE600272C
:106B20000022002500210024E8E65A461A43531E9D
:106B30009A41D2B2002313E7FF070000FFFF7FFF57
:106B4000FFFF0F800D1C254358D0FF43002F51D16C
:106B5000041BA3459241591A5242891A554666466A
:106B600098E69648854200D0DDE638E6002792E7B1
:106B70000023A1E7081C2043002D00D0C0E000281E
:106B800000D1FBE05846184300D128E658460219C8
:106B9000A242A441644259180919141C0A0200D4E3
:106BA0001DE6874B0125194019E6081C2043002DDE
:106BB00039D100286DD15946194300D1BDE0191CC7
:106BC0005C4666460BE6051C2A1CABE7604620388F
:106BD0001A1CC24060469146202800D1ABE04022FA
:106BE000121A93405A461A43531E9A414B461A436F
:106BF0000023B5E6714DAA4500D06EE7191C5C462E
:106C000055466646EBE5002D1ED10D1C254373D07D
:106C1000D543002D6DD15C445C45924159185242D8
:106C200089185546A3E6002849D15946194300D191
:106C300096E0191C5C466646604DD0E50C43611E2B
:106C40008C41E4B200215AE75C4DAA4554D055422C
:106C5000802210040143382D00DD85E01F2D00DD6A
:106C600095E02022501B0A1C84468240201CE840EC
:106C70000243904662469440601E8441424614435B
:106C8000E9405C445C459241CB1852429918554604
:106C90006DE65846184300D1A1E55846271ABC4274
:106CA0009241C81A5242801A02026AD55846041B01
:106CB000A3459241591A5242891A66468FE55846B1
:106CC000184336D04807E40804438020C90800036D
:106CD000014208D0DD08054205D15946CA085C07C3
:106CE0001443291C6646630FC9001943E400334D61
:106CF00075E5324A9245AED1191C5C4655466EE5A3
:106D0000002837D05846184313D080254807E40898
:106D1000C9082D0304432942E5D0D8082842E2D10E
:106D20005D46EA085C071443011CDCE700230024ED
:106D300073E5224D53E5002354E700270022F1E6D6
:106D40003D1C203D0A1CEA40151C202F31D0402656
:106D5000F71BB9400C43611E8C412C430021CEE649
:106D6000164A0027151CDDE60C43611E8C41E4B277
:106D7000002186E7191C5C46104D30E5191C5C4665
:106D80002DE5031C3B43D8D0011C3C1C27E52020EB
:106D9000404240190A1CC2409046202D0BD0402092
:106DA000451BA9400C43611E8C4145462C430021E4
:106DB00067E70021CEE70021F4E7C046FF070000A7
:106DC000FFFF7FFFF0B5564644465F464D46F0B4A0
:106DD0001F1C0B031B0B98464B0087B0041C8146FD
:106DE0005B0DC80F161C9A460090002B51D06A4BC1
:106DF0009A4531D08022414652030A43630FD200A4
:106E00001A43664B90460025E20091469A440024BE
:106E100002953B031B0B9B46FD0F7B00311C5B0D5A
:106E2000019560D05C4A934254D080215846490372
:106E30000143720FC9001143584A8B469B18F10059
:106E40000020009A04436A4003920F2C00D9ADE061
:106E5000534EA4003459A746404604436ED1002146
:106E600002250824884689460295D2E7009C0298AC
:106E7000C34649460194022864D0032800D1ABE2FE
:106E8000012800D038E2019A002402400025A146E2
:106E900060E0434623434AD04046002800D1C0E189
:106EA00001F06EFA031E272B00DDB3E128210D1A35
:106EB000211C083B4246E9409A400D1C1543221C08
:106EC0009A40A8469146374B00251B1A9A46002443
:106ED00002959EE75A4616430320002EB1D1B346D1
:106EE00000210220ADE75A4632431BD05B46002BFF
:106EF00000D18AE1584601F043FA272800DD7DE100
:106F00002822171A011C321C08395B46FA408B40B4
:106F1000171C1F43331C8B40BB46191C214B1B1AEB
:106F200000208EE70027BB460021012089E70020D2
:106F3000012504248046814602956AE703250C2436
:106F4000029566E7019C0394039D01222A400024D8
:106F5000114DA146002000212403260B0C0D240511
:106F6000114B34432D0523402B435B005B08D207B4
:106F7000191C4846114307B03CBC90469946A246AE
:106F8000AB46F0BD0022802424039146024DE1E788
:106F900000240025A146DDE7FF07000001FCFFFFFC
:106FA000608D00000DFCFFFFFFFF0F805546ED1ABE
:106FB0000495D84500D953E100D14EE1049C002549
:106FC000013C4E4604944746A946584603020C0E1F
:106FD0001C430902250C23041B0C0091381C291C9E
:106FE0000193FFF70DFA019983464143381C8A4605
:106FF000291CFFF749FA330C090419438A450CD9B7
:107000005B460919013B8C4200D947E18A4500D80B
:1070100044E102225242934409195346CB1A181CE8
:10702000291C9846FFF7ECF9071C0198291C7843A6
:1070300082464046FFF728FA36040B04360C3343E9
:107040009A4509D91B197A1E9C4200D924E19A4518
:1070500000D821E1023F1B195E4632041743380C69
:10706000BB46009E009F51463F0C32045B1A5946B6
:10707000BA46120C0F043F0C904651467A434F43D8
:107080004146414356467043CF19160CBE19B142D2
:1070900002D980277F02C019310C12043604120C69
:1070A0004018B618834200D2C4E000D1BEE0191ADD
:1070B0004846861BB145BF417F42CF1BA74200D146
:1070C00013E1291C381CFFF79BF9019902904143F9
:1070D000381C8946291CFFF7D7F9330C09041943DA
:1070E00089450CD9029B0919013B8C4200D9FFE06C
:1070F000894500D8FCE0029F0919023F02974F46DC
:10710000CF1B381C291C0597FFF77AF9071C01983B
:10711000291C784381460598FFF7B6F9360409041F
:10712000360C0E43B14509D936197B1EB44200D93D
:10713000E0E0B14500D8DDE0023F3619029D494646
:10714000761A290439430B0457460A0C1B0C404697
:107150004546584355437B437A43EB18070CDB19EC
:107160009D4202D980256D0252191D0C00041B049A
:10717000000C52191B18964235D300D1FCE00123B4
:107180001943049E994FF519002D00DCA1E0480732
:1071900009D00F230B40042B05D00B1D8B428941D6
:1071A00049428B44191C5A46D20107D5904B5C4684
:1071B000049E80271C40FF00A346F5198D4B9D427D
:1071C0007ADD039C0122224000248B4DA146C1E6BA
:1071D00080242403474627424CD13C432403240BFC
:1071E000009A854DB6E63619481EB4425ED9011C98
:1071F0009642C4D1009E9E42C1D1C2E7031C283BE7
:10720000311C99408B46002188E6301C01F0B8F80B
:10721000203072E6283B211C994000228846914686
:1072200051E6201C01F0ACF820303BE60021B145CE
:1072300000D33DE7009F5A46B944B945BF417F425C
:107240003F19FB18013A9C421ED2984200D97EE0B9
:1072500000D1B5E0191A93462AE7894500D8ADE672
:107260004846464642467708D3074608C0071E43AD
:107270008146AAE65846204212D1044324032A1C20
:10728000240B89465C4D65E6A342E3D1009F4F4540
:10729000DBD9211A93460BE7171CDDE69B46BCE6BB
:1072A0003C432403240B009A534D53E6B24259D871
:1072B00000D18AE0011C62E75F46C9087B07039E94
:1072C0000B437C026D0501229946240B6D0D324063
:1072D00040E64A4B049FDB1B382B10DD039C012248
:1072E000224000240025A14634E60121494248E716
:1072F000029304E71F1C21E7019C039441E71F2B25
:1073000040DC3F48049F0C1C3A1858469140DC4032
:10731000904020430A1C511E8A41011C11435A46C9
:10732000DA40131C480709D00F220A40042A05D06E
:107330000A1D8A42894149425B18111C1A0234D540
:10734000039C0122224000240125A14602E6009F61
:1073500002214942B9448B44B9458941494209193E
:10736000CB18A4E6009D881E6900A942AD416D427C
:107370002C19361900913AE7002B00D033E700248E
:10738000009437E71F4A049C5D46121BD5402A1C17
:10739000202B1FD01C4E5F46A3199F403B1C194356
:1073A0004B1E994111430023BCE75A07C9080A4301
:1073B000039F91465B0201221C0B3A400025C9E560
:1073C0004E45C4D89346002172E6009F9F42C9D320
:1073D000011C0FE70023E2E7802424035F463C43BF
:1073E0002403240B019A8946034DB3E5FF030000F3
:1073F000FFFFFFFEFE070000FF07000002FCFFFF8B
:107400001E040000E2FBFFFF3E040000F0B55F46F3
:1074100056464D464446F0B40D1C041C8046E80F09
:10742000814618030F03000B3F0B83B084461B48B3
:10743000009749005E00DF0F490D9246760DBB466E
:1074400081420CD01548864210D00120B14215D09F
:1074500003B03CBC90469946A246AB46F0BD009FA7
:1074600001202743F4D10D488642EED16046024305
:107470000120002AECD10120B142E9D1009B6345F3
:10748000E6D1D045E4D1D94506D00029E0D11C434E
:10749000201C441EA041DBE70020D9E7FF070000C5
:1074A000F0B55F4656464D464446F0B4CD0FDE0F6C
:1074B000AC461D032D0BB146374E0F034C00AB46B7
:1074C0005D0080463F0B640D92466D0DB44232D094
:1074D000314EB54235D0002C0ED1384341424141A6
:1074E000081C002D0BD0002919D1CC452DD06546A4
:1074F00068420123184318E0002DF6D1281C594694
:107500000A4353425341002806D1002BEDD0634675
:1075100058420123184308E00020002B05D14A46B9
:10752000504250414042012318433CBC904699468A
:10753000A246AB46F0BD3E1C0643C9D002204042E5
:10754000F3E75E461643C6D0F8E7AC4207DC0BDA39
:10755000614648424841404201231843E5E76646F8
:10756000704201231843E0E75F450AD80ED000209F
:107570005F45DAD2654668426841404201231843BC
:10758000D3E76246504201231843CEE7D045F8D8EE
:107590000020D045EED3C8E7FF070000F0B55646FF
:1075A0004D4644465F46F0B40D1C83B0041C019068
:1075B000E80F814618030F03000B3F0B8446354844
:1075C000009749005E00DF0F490D9246760DB846E0
:1075D000814234D02F48864236D0002918D0002E60
:1075E0001FD1341C67463A4353425341002C1FD0ED
:1075F0000020002B05D14246504250414042012319
:10760000184303B03CBC90469946A246AB46F0BD39
:107610000098044360426041041C002EE2D0002820
:10762000E9D1C14515D04F46784201231843E8E718
:10763000002BF6D04B46584201231843E1E7009F48
:1076400002202743DDD1C5E7674602201743D8D182
:10765000C3E7B14204DD4A46504201231843D0E754
:10766000B14207DB00986045E4D80AD0009F0020B3
:107670006745C6D24F4678427841404201231843BD
:10768000BFE7019A5245D5D8019A00205245F1D35F
:10769000B7E7C046FF070000F0B5564644465F46D0
:1076A0004D46F0B41F1C0B031B0B9A464B0087B0D2
:1076B000041C80465B0DC80F161C02938146002BEC
:1076C00068D0694B0299994232D0802253465203C6
:1076D0001A43D200630F1A439246644AE0008918A5
:1076E00080460291002400253B031B0B9B4678003B
:1076F000FB0F321C400D039300D175E05A4B9842AA
:1077000069D08022594652030A43730FD2001A43AC
:10771000564B9346C018F200002303994E46714021
:107720001C430F2C00D9A9E0514EA4003459A746A0
:1077300053461C4300D087E00025AA46A8460824EB
:107740000225D1E74946022D6CD0032D00D117E266
:10775000012D00D058E10D40EDB20024A9460023D0
:10776000A0460020002125030A0D1C052D0B120543
:10777000404B2A43134023435B004C465B08E2071F
:10778000191C4046114307B03CBC90469946A2469E
:10779000AB46F0BD5346234350D05346002B00D197
:1077A00084E1504600F0ECFD031E272B00DD76E15E
:1077B00028210D1A211C083B5246E9409A400D1C15
:1077C0001543221C9A40AA4690462B4B00241B1AB4
:1077D0000293002588E75B461E430323002E9CD1BD
:1077E000B3460022022398E75B46334321D0584634
:1077F000002800D14EE100F0C3FD272800DD42E162
:1078000028210F1A021C311C083A5B46F9409340AC
:107810000F1C1F43331C9340BB461A1C164B181AEF
:1078200000237AE701230B4000249946A0460E4B23
:1078300097E70027BB46002201236EE700210424BE
:107840008A46884601254FE70C2403254CE700258E
:107850008024A9462403A846034B82E7DA469046D3
:1078600003991D1C6FE7C046FF07000001FCFFFFE6
:10787000A08D0000FFFF0F800DFCFFFF029F160C84
:10788000381804904046070C0004000C1204120C37
:10789000031C5343041C3D1C7443554398463B1C36
:1078A00073436419A44644460293230C63449D42E7
:1078B00004D9029D802464022D1902951D0C0395A4
:1078C00045462C041B04240C1C1905945C46230C0F
:1078D000051C58432404240C8446381C604365432B
:1078E0005F438146CC44280C6044BB46814502D9A5
:1078F00080277F02BB442D04070C2D0C0004401987
:107900005546BC462F04E3448446280C3D0C2F1CEE
:107910005743B8462F1C77434243B94647463F0C6E
:107920009144BA46D14446434A4502D98022520284
:10793000B6184F463A0CB6183A0447463F043F0C77
:10794000B8462F1C67435D43444358436519019073
:10795000380C2D184244B846AC4204D90198802313
:107960005B02C0180190039C029F201C6044C01958
:107970006045A44147466442A4462B043C04994612
:10798000240C4C44A046D8448018C246E24490429D
:107990009241574652429146F219E245BF417F4219
:1079A0004B46BC46D845BF41D4187F4263461F436F
:1079B0002D0C7F19B24292414C45AD4152426D426D
:1079C0001543019E7D19AB19E20D5B02059F134320
:1079D00042023A439A46531E9A41C30D101C184363
:1079E0006402204380465046C0010DD54546012221
:1079F0005646049C6B082A401A43F30701341A4385
:107A0000760804949046B246049E634FF319002B07
:107A100061DD404640070BD00F2244462240042A35
:107A200006D042460432424580414042824490465C
:107A30005546ED0107D5594B5646049F80201E4000
:107A4000C000B2463B18564A934200DDEAE644467F
:107A50005546E2086807104301226C025B050A40A4
:107A60008046240B5B0D91467BE6DA4690461D1C52
:107A700069E680242403574627421CD13C43240353
:107A8000240B484B6DE6031C283B311C99408B4668
:107A90000022C3E6301C00F073FC2030ADE6283B2A
:107AA000211C994000228A4690468EE6201C00F058
:107AB00067FC203078E65846204207D104430399FA
:107AC0002403240B89469046364B4AE63C43240364
:107AD000240B344B45E6344B049E9B1B382B06DDB0
