:1020000000800020612400004B2400004B240000CD
:1020100000000000000000000000000000000000C0
:102020000000000000000000000000004B24000041
:1020300000000000000000004B240000B524000058
:102040004B2400004B2400004B2400004B240000D4
:102050004B2400004B2400004B2400004D240000C2
:102060004B2400004B2400004B2400004B240000B4
:102070004B2400004B240000392B00004B240000AF
:102080004B2400004B2400004B2400004B24000094
:10209000000000004B2400004B2400004B240000F3
:1020A0004B2400004B2400004B2400004B24000074
:1020B0000000000010B5064C2378002B07D1054B1B
:1020C000002B02D0044800E000BF0123237010BDA4
:1020D0002001002000000000144C000008B5084B4F
:1020E000002B03D00748084900E000BF07480368F9
:1020F000002B03D0064B002B00D0984708BDC046EC
:1021000000000000144C0000240100201C010020ED
:102110000000000041608260C360704710B5041C7D
:10212000406800F00DFAA068002100F009FAE068AC
:10213000002100F005FA10BD38B5041C0D1C4068E4
:1021400000F0FEF9E90F4D196910A06800F0F8F9E8
:10215000E068002100F0F4F938BD38B5041C0D1C0E
:102160004068002100F0ECF9291CA06800F0E8F9B3
:10217000E068002100F0E4F938BD38B50D1C041CFE
:102180000021406800F0DCF9291CA06800F0D8F9B3
:10219000291CE06800F0D4F938BD38B5041C0D1CCA
:1021A0004068002100F0CCF9A068002100F0C8F9D7
:1021B000291CE06800F0C4F938BD38B5041C40683B
:1021C0000D1C00F0BDF9A068002100F0B9F9291C30
:1021D000E06800F0B5F938BD70B5161C041C406805
:1021E0001D1C00F0ADF9311CA06800F0A9F9291CF4
:1021F000E06800F0A5F970BD08B500210A1C0B1CB1
:10220000FFF7EAFF08BD08B5031C081C0138111CC4
:1022100005281BD802F066F903070B0F1317181CCB
:10222000FFF77CFF12E0181CFFF786FF0EE0181C7A
:10223000FFF793FF0AE0181CFFF79FFF06E0181C4A
:10224000FFF7ABFF02E0181CFFF7B7FF08BD7047B0
:1022500038B50025614C2A1C20680121FFF7D3FF07
:1022600001350A2000F0CCF8FE2DF3D1FF252068BF
:102270002A1C0121FFF7C7FF0A2000F0C1F8013D29
:10228000F5D2FA20800000F0BBF800252A1C206857
:102290000321FFF7B8FF01350A2000F0B1F8FE2D49
:1022A000F4D1FF2520682A1C0321FFF7ACFF0A2088
:1022B00000F0A6F8013DF5D2FA20800000F0A0F869
:1022C00000252A1C20680521FFF79DFF01350A2003
:1022D00000F096F8FF2DF4D120682A1C0521FFF7A5
:1022E00092FF0A2000F08CF8013DF5D2FA20800020
:1022F00000F086F800252A1C20680621FFF783FFDE
:1023000001350A2000F07CF8FF2DF4D120682A1C4A
:102310000621FFF778FF0A2000F072F8013DF5D2A0
:10232000FA20800000F06CF800252A1C20680421A7
:10233000FFF769FF01350A2000F062F8FF2DF4D1A4
:1023400020682A1C0421FFF75EFF0A2000F058F8DD
:10235000013DF5D2FA20800000F052F800252A1C39
:1023600020680221FFF74FFF01350A2000F048F8EE
:10237000FF2DF4D120682A1C0221FFF744FF0A2018
:1023800000F03EF8013DF5D2FA20800000F038F868
:102390000025291C2A1C2B1C2068FFF71DFF013576
:1023A0000A2000F02DF8FF2DF3D12068291C2A1CEB
:1023B0002B1CFFF711FF0A2000F022F8013DF4D298
:1023C000FA20800000F01CF8FF2120680A1C0B1C7A
:1023D000FFF702FF2068FFF70FFF38BD3C01002028
:1023E00010B5102000F026F8022103220423041C5B
:1023F000FFF790FE014B1C6010BDC0463C01002061
:1024000070B5041E08D0054B1D681E1C00F01AF89C
:1024100033685B1BA342F9D370BDC0464001002066
:1024200008B5034B1A6801321A6000F04BFB08BD77
:102430004001002008B502F0D5F808BD08B502F04B
:10244000DBF808BD704700207047FEE708B5034B76
:102450001B68002B00D0984708BDC04644010020EF
:1024600038B50F490F4CA14204D100F0E5F900F056
:1024700099FA0BE00C4D8D42F7D00023CA18E818EA
:10248000A24204D2006804331060F7E7FEE79042EE
:10249000EBD0064B064A9342E7D2002204C3F9E789
:1024A0000000002020010020184C00002001002026
:1024B0009409002008B5FFF7C6FF002801D1FFF7F7
:1024C000AFFF08BD014B18607047C04644010020B3
:1024D000914205D002D9891AC84001E0511A8840BA
:1024E0007047000000B5144A517E131CC909012928
:1024F000F9D00138042813D81969104A0A401A6122
:102500005A780F218A4301F0EDFF03050907030004
:10251000012102E0032100E002210A435A700AE08F
:102520001169F0231B050B43136153780F218B4373
:1025300002210B43537000BD00400042FFFFFFF03B
:1025400018234343F0B56E4A87B09B18DA68051C20
:1025500000921A7C5B8A0C1C0193009B9B0720D580
:10256000002A02D0142A00D0C8E0664B201C19684B
:102570000A22FFF7ADFF644BDA79D209012AFAD0BB
:102580008005800D1881D9795F4AC9090129FAD0DF
:102590001178022001431170DA79D209012AFBD0A7
:1025A000ACE0009F08221740564E00D195E03168FC
:1025B000201C1022FFF78CFF019B009A1CB2061C06
:1025C0002412DFB2281C0421D20600D4052100F019
:1025D00009FA4E4B1A5D002A5AD101221A5502A857
:1025E00010224B4902F012F863006A4608339B5AE6
:1025F0008022D2011A43474B5A805A78D209012AC5
:10260000FBD0454B022C1ED9A4001B5902211A886D
:102610008A431A80DA7BD209FCD11A8840210A4306
:102620001A80DA7BD209FCD10C37B6B27F00FE5299
:10263000DA7BD209FCD11A8802210A431A80DA7B9C
:10264000D209FCD15AE0A4001B5902211A688A431E
:102650001A609968314A1142FBD1D96B02200143BB
:10266000D96399681142FCD11037BF00DF197E6031
:1026700099681142FCD12A49196499681142FCD128
:10268000196802200143196099681142FCD135E0B4
:10269000214B022C09D9A4001B590C37B6B27F007C
:1026A000FE52DA7BD209FCD128E0A4001B5902219A
:1026B0005A790A435A719968184A1142FBD11C375A
:1026C000BF00FE5099681142FCD1197902200143E4
:1026D000197199681142FCD110E0012100F022F833
:1026E0003168201C0822FFF7F3FE7F2802D8281C3F
:1026F000391C01E0281C012100F06EF807B0F0BD84
:10270000F847000000000020004800424801002077
:10271000E8470000000C004008000020FF0F7F0089
:10272000FFFF000010B51824021C201C5043274B4B
:102730001818007A40B2013046D0032944D8081C4A
:10274000211C01F0CFFE02331121624398569A18E2
:10275000C3011F4852681B189918403102200870A5
:102760000121914059602FE06243985618499A1808
:102770005268C3015B189918403106200870012186
:102780009140596099611FE051435A5610485918B9
:102790004B68D2011118C81840300624047001207B
:1027A000984048600B49521850600DE062439856BB
:1027B0009A18C301064852681B1899184031022024
:1027C000087001219140996010BDC046F847000093
:1027D000004400411044004118235843134AF0B507
:1027E000131808241C5701341FD08256104ED201F2
:1027F0005D6801249019231C8668AB401E420BD1F2
:102800000E1C771EBE41401934404030A5000478AC
:102810000426B4432C430470002903D105495218FF
:10282000536002E0024E92199361F0BDF847000038
:10283000004400411044004170B5494A1E215368CC
:1028400002208B430343474953608B690824234389
:102850008B61454C454B9C829C8A20439882101C7E
:10286000DA689407FCD5424A012414701478E5070D
:1028700004D53F4C647864B2002CF7DB01249460EB
:10288000547864B2002CFBDB3A4D394C65605478C7
:1028900064B2002CFBDB8225354CED016580547859
:1028A00064B2002CFBDB02249C84DC68E606FCD5C9
:1028B000314D2E4CE562DD682C4CEE06FBD5A58C27
:1028C0002E4E3543A584DD68284CEE06FBD5A58C3D
:1028D00002263543A584DC682506FCD5234CE46834
:1028E0006606F8D5DC68E506FCD5002494605478CB
:1028F00064B2002CFBDB224D1D4C656055781C4CEE
:102900006DB2002DFADB1E6A1E4D35401D621D6A38
:102910008026B5431D620323A3601B4B636053787D
:102920005BB2002BFBDB00230B72184A4B728B72DD
:10293000CB72174BFF211A60164B174A1B6812689F
:102940005C01D20E214011439A06520F12020B1C59
:102950001343124A1385436880221343436070BDBA
:1029600000400041000400400C0600000008004048
:10297000000C004001050100B905FF7D040A0000BC
:1029800000070300FFFCFFFF03060100006CDC02F0
:102990009C000020246080002060800000400042F5
:1029A0007047000010B501F05FF901F0F5FDFFF789
:1029B000F7FF0120FFF724FD084C201C00F062FB0C
:1029C000201C00F0BFFBFFF742FCFFF741FC044B6B
:1029D000002BFAD000E000BFF7E7C0464F08002008
:1029E0000000000018224243F8B52D4D0824AA1813
:1029F0001457031C621C50D0481C00240C284CD8CF
:102A000001F070FD071E1E1E1E1E1E1E1E0A0A0A53
:102A10000A000124644240E0092902D1181C002167
:102A200003E00A2904D1181C0221FFF77BFE23E0F2
:102A300000240B2931D1181C0121FFF773FE2CE073
:102A400018225343EA185268EB560120141C044024
:102A50005508DB01002C11D0124C1B195D193035C3
:102A60002E780C010F21314021439A18C9B22970E8
:102A7000403213781843107000240EE0094E0F27DF
:102A80009B195D1930352E789A18BE433143C9B26F
:102A900029704032137818431070201CF8BDC046CE
:102AA000F847000000440041014B18607047C046E1
:102AB00004000020024B012252421A607047C046B7
:102AC00004000020154A1368581C25D0013B1360F0
:102AD000002B21D172B6124A124B04329A4207D807
:102AE000BFF34F8F104A114BDA60BFF34F8F11E0E5
:102AF0000F4B197DC807FBD5188B2021FF31920899
:102B0000520001431983DA610A4A1A801A7DD107FB
:102B1000FCD5E5E7C046FDE77047C046040000204D
:102B200000200000030200000400FA0500ED00E0B0
:102B30000040004102A5FFFF08B5024801F082FBFA
:102B400008BDC0465001002013B51249124801F0DB
:102B500003F91249124801F0FFF81249124801F036
:102B6000FBF81249124801F0F7F81249124801F037
:102B7000F3F8124C1249201C01F0EEF803230093E5
:102B800001230193211C0D220E230E4801F072FA3D
:102B900013BDC0460008004290030020000C004214
:102BA000940300200010004298030020001400420B
:102BB0008C030020001800429C030020A00300208A
:102BC000001C00425001002010B507230F220240D4
:102BD000141C00093034092A00DD0734CC54013BB1
:102BE000F4D210BD10B5054B041C0360806901F0E0
:102BF00003FDA06A01F000FD201C10BD604B000029
:102C000010B5041CFFF7EEFF201CFFF717FC201C7B
:102C100010BD000070B582291ED1C2B22A495301ED
:102C2000CB189D69294C80012C40C025AD052C4353
:102C30009C61274C0832201858610B685201991882
:102C40000C798020404220430871D15C7020814380
:102C500030200143D15435E0002933D1C2B21A49A2
:102C60005301CB189E68194DC0242E40A40526435D
:102C70009E60184E80010968301808325860520171
:102C8000505C0726B0430126304350549E693540BE
:102C90002C439C610E4C5C61505C7024A04310245A
:102CA000204350549C680C488A18204080246403B8
:102CB0002043986098684021800B80039860537986
:102CC0000B43537170BDC04654080020FFFFFF8FB7
:102CD000B004002070060020FF3F00F038B5041C4F
:102CE00008CC01211A78051C0A431A708022201C86
:102CF0000021520001F093FC2B689A78D107FCD494
:102D00005C6238BD134BF0B51B6899035A029B01F6
:102D1000C90ED20E5B0F1F2900D105211F2A00D139
:102D20001D22072B00D1032304688E01278D0A4939
:102D30001F2539403143218501682A400C8DAC4361
:102D400022430A8502681903108D044B03400B438C
:102D50001385F0BD246080003FF8FFFFFF8FFFFF69
:102D6000EFF3108303600123436072B6704703687A
:102D7000002B02D162B6BFF36F8F704737B505697C
:102D8000041C6846002D12D1FFF7EAFF019B013BAE
:102D900003D3621DD57FEDB2F9E768460193FFF7D3
:102DA000E6FF0020854217D0206AE36913E0FFF7B1
:102DB000D7FF019B0025013B04D3221C3432157838
:102DC000EDB2F8E768460193FFF7D1FF0020854296
:102DD00002D0206BE36AC01A3EBD0000436810B504
:102DE0001A68037A01215B01D318FF339A7A0A43E8
:102DF0009A72037A42685B01D318C2689C68910496
:102E00000B4A090922400A439A60037A42685B012F
:102E1000D3189A684021920B92039A6043681A680B
:102E2000037A08335B01D3181A790A431A7110BD6B
:102E3000FF3F00F0F7B50569041C0E1C171C68461F
:102E4000002D1FD1FFF78CFF019B013B5A1C06D0C0
:102E5000621DD17F5A1E00293AD0131CF6E768463E
:102E60000193FFF784FF0025E369BD4235D0226A54
:102E7000934232D25A1CE261A269D3181B7873556F
:102E80000135F1E7FFF76CFF019B013B5A1C08D0AD
:102E9000221C343215785A1EEDB2002D18D0131CA6
:102EA000F4E768460193FFF762FF0025E36ABD423D
:102EB00026D0226B934241D322E0621D0021D177BC
:102EC00030321678581E8E4214D1031C5A1CF4D18D
:102ED00068460193FFF74BFF38E0226A934235D1F1
:102EE0000023E361012323616846FFF739FF019B5B
:102EF000013BEBE71170201C0193FFF76FFFF6E732
:102F0000226B934222D10023E36223616846FFF7DC
:102F100027FF019B013B5A1CDAD0221C34320021CE
:102F2000117001321678581E8E4201D1031CF2E74F
:102F30001170201C0193FFF751FFEAE75A1CE2626F
:102F4000A26AD3181B7873550135AFE7281CFEBD64
:102F500037B54368027A1B68083252019A18041C7C
:102F6000D0790123FF21184255D0D371A06865693B
:102F700062680140002D1FD14901521891688904EF
:102F8000890C2162216A002942D06361A36A6846E4
:102F90005360FFF7E5FE019B013B5D1C34D0621DD1
:102FA0000120D0772F3211785D1EC9B21218002986
:102FB00015D111702B1CF0E74B01D3189A689204BD
:102FC000920C2263226B002A22D000226261A26945
:102FD00068465A60FFF7C4FE019B013B12E0019373
:102FE00010706846FFF7C3FE15E0221C3432012042
:102FF0001070621DD17F5D1EC9B230320029EED142
:1030000011702B1C5D1CF0D168460193FFF7AFFED9
:10301000201CFFF7E3FE37BD37B500236C46E37194
:103020000734201C0D1C00F0BDFD2B68181828600B
:1030300001F032FA211C01F0E9F92B681818286018
:1030400020783EBD03290BD10D4BB2221B685200E4
:10305000985C8021494201439954022168220CE086
:1030600001290CD1064B92221B685200985C8021EA
:1030700049420143995402212822FF329954704752
:103080005408002038B5264B2021DA69051C0A4374
:10309000DA61244B01201A78062402431A70224B6D
:1030A0000F221978914319701978214319701F491B
:1030B0000C782043087019780A401A701A78602139
:1030C0000A431A701A4B1B4A5A805A78D209FCD10B
:1030D0001948FFF7F7F9194C201CFFF7FFFD201CDA
:1030E000FFF710FE23687F2219780A401A701A78B9
:1030F00004210A431A701A890C218A431A81C121BA
:103100000F4A890050580002000A50508021116077
:103110001A7802210A431A7001232B7038BDC04669
:1031200000040040584400413C44004159440041DF
:10313000000C004006400000F93A0000540800204E
:1031400000E100E00078002810D0094B01211B6845
:103150001A898A431A811A8B08210A431A831A8B07
:1031600004210A431A83034B00221A607047C046A9
:1031700054080020580900200F4B9A69920B9203C3
:103180009A611B680222FF331A7298798022524298
:1031900002439A711A7A9007FCD5084B081C997A59
:1031A0007F221040914301439972997A80225242C2
:1031B0000A439A727047C0465408002000500041EC
:1031C00010B50B790C1C002B0BD1081C00F0F8FC7F
:1031D000002804D1094B9A69920B92039A6101204D
:1031E0000BE001F059F9211C01F044F90028F6D157
:1031F000024B9A69920B92039A6110BD5408002009
:10320000F7B50D1C832A18D1CAB236495301CB1821
:103210009C693548AD012040C024A4052043986135
:103220003248083245195D610B685201D15C70204B
:10323000814340200143D15453E0022A4DD12C4B0D
:103240008900C8580191002802D003681B6998477B
:103250003820FFF7EFF8274B224F802603607600D7
:103260000023421D036203614361C36147608560BF
:10327000C660D3772F32041CC36203631370301C03
:10328000537001F0AFF9A061301C01F0ABF9FF23DE
:103290001D406D01A0627F19B968134A07250A40D5
:1032A000C02189050A43BA60A168626819401268A2
:1032B00008314901885CA843032528438854A26843
:1032C000616813405B01A269CB185A60201CFFF7AC
:1032D00085FD074B01995C5003E0081C111CFFF7AA
:1032E00099FCF7BD54080020FFFFFF8FB0040020B9
:1032F00030080020604B000038B5051C0124064B47
:10330000A200D258002A06D0211C281C0134FFF745
:1033100077FFE4B2F3E738BD2000002008B5084B82
:103320008A00D058002803D003689B68984706E0BD
:10333000C9B2044B4901591888688004800C08BD43
:10334000300800205408002010B50C1CFFF7E6FFE1
:1033500000280CD0064BE1B21B680831490159180E
:103360004A7980235B4213434B710223CB7110BD1A
:103370005408002070B5CAB2134B14485401890197
:103380005918031959609D68114908322940802550
:10339000AD022943996099684026890B8903996099
:1033A0000368510159180D7935430D7151015918B0
:1033B00089794D06FAD551015918C979CD07FAD541
:1033C0000419A068C0B270BD700600205408002027
:1033D000FF3F00F038B50C4B141C1B680D1CFF336D
:1033E0005A7940210A435A710021FFF7C3FFA042D6
:1033F00000D9201C0023A34204D0044A9A5CEA545A
:103400000133F8E738BDC04654080020700600209C
:1034100010B5C9B20C48490143189A689204920C3D
:103420003F2A08D9141C9A68403CA404920BA40CAF
:103430009203224302E09A68920B92039A60411829
:103440008868C0B210BDC04654080020F0B51C1CEE
:103450002A4B85B01B68061C0D1C0292002B46D01F
:10346000274B8A00D058002805D0036802995B6872
:10347000221C98473FE0301CFFF750FFA04204D2C7
:10348000301C291CFFF74AFF041C291C301CFFF7C5
:10349000BFFF1C4FE9B24A010191396803928B18B2
:1034A000FF335A7A01210A4317495A72AB01C918EE
:1034B0000298221C01F0AAF8002C1BD0301C291CF9
:1034C000FFF72CFF002815D1019B3A6808335B01F8
:1034D000D31819794020014319710121D971039939
:1034E0005318FF339A7A01210A439A7202E00120AD
:1034F000404200E0201C05B0F0BDC0465809002045
:1035000030080020540800207006002013B56C46D7
:103510000734221C0123FFF799FF012801D12078ED
:1035200001E00120404216BDF0B51C1C3A4B85B0AD
:103530001B680E1C0292002B60D08023DB019C4292
:103540005CD800220092002C56D0344DF7B22B6884
:1035500001933B1C0833019A5B01D3189B79DB096B
:103560001AD02F4B2F49186800F0C6FF2E4B172199
:10357000584300F0C1FF3B1C0833019A5B01D3188C
:10358000DB799A0708D4294B9A5D002A38D1421E6C
:10359000002835D0101CEEE7244B00229A55251E3A
:1035A0003F2D00D93F25224AB301D318181C029998
:1035B0002A1C039301F02AF8184A7B01D318039AB6
:1035C000A9045A619A69890C920B92030A439A6181
:1035D0003B1C019A08335B01D3180222DA71597936
:1035E000802252420A435A71009B029A5B19521977
:1035F0000093641B0292A6E700980BE0012008E00C
:1036000001229A557B01ED18AB69101C9B0B9B03A3
:10361000AB61404205B0F0BD5809002054080020BD
:103620009C00002040420F0070110100A8040020FF
:10363000B004002070B50E4D1C1C8B01ED18281C29
:103640000E1C111C221C00F0E1FFF6B209497601A4
:1036500089194D618A69084B201C13408B618B6965
:10366000A2049B0B920C9B0313438B6170BDC0465D
:10367000B004002054080020FF3F00F0F7B5114BC4
:1036800001901B780F1C141C002B19D10E4B1E78B7
:10369000002E01D1151C08E00C4D0D482E88801914
:1036A000361900F0B3FF2E800AE0002D08D0BA19B9
:1036B0002B1C01980021FFF7BDFF36182D1AF4E7E7
:1036C000201CFEBD4E0800204C080020A60400204F
:1036D000A5030020F8B50E1C00AF151E012D28D93A
:1036E000D31DDB08DB006A46D21A9546081C01F0A0
:1036F0004DF801306C4640000323207063700222B5
:10370000AA420ED23378002B0BD0511CC9B201361D
:10371000A354A94204D0002302326354D2B2EFE78B
:103720002A1C0548211CFFF7A9FF431E9841C0B27F
:1037300000E00020BD46F8BD4F08002008B5044B4E
:1037400000221A70034B04491A88FFF797FF08BD3F
:103750004C080020A6040020A5030020F0B5204A54
:1037600087B001230026009102A91370051C029660
:10377000FFF752FC03AC092701903A1C201C311CB6
:1037800000F04DFF02236370A023E371FA2323723C
:10379000029B0122DB196380019B62712371104A35
:1037A000009B27701670BB4205D1281C211C1A1CD7
:1037B000FFF764FF11E00B4B01221A700A4B211C2A
:1037C0003A1C281C1E800296FFF758FF281C02A9ED
:1037D000FFF722FC281CFFF7B1FF012007B0F0BD66
:1037E0004E0800204C080020A604002070B5CE78BA
:1037F00092B0051C0C1C022E08D1C9882D48FFF779
:10380000ADFF031C581E8341D8B251E000F044FEC6
:10381000211C00F010FE002803D0C3171B1AD80F7C
:1038200046E0012E04D1E2882349112A3BD837E033
:10383000032E3DD1A278002A05D12049E2880B78D9
:1038400093422DD82FE0022A03D1A279281C1C49CB
:1038500004E0012A05D1A2791A49281CFFF73AFF92
:1038600026E0032A24D1184B01A91868FFF7ACF908
:10387000164B03A91868FFF7A7F9154B05A9186897
:10388000FFF7A2F9134B07A91868FFF79DF900F09D
:1038900003FE09A900F0DFFDA279281C01A9DDE7DC
:1038A000D2B2002A00D10A78281CFFF7E7FE0120D7
:1038B00012B070BD4F080020884B0000844B000000
:1038C0009A4B0000784B00000CA0800040A08000C4
:1038D00044A0800048A0800073B5051C48780C1CEB
:1038E0000B2878D800F0FEFD081C7728773E4306A9
:1038F000474B686F00206FE0097801AA002903D1C7
:1039000011705170281C09E0002313705370334B61
:103910001B78012B00D11370281C002102234FE0DB
:103920008A780023012A04D101AA137053702C4B0A
:10393000EEE72A4A137049E08E78012E07D1284B12
:1039400001AA00211E701170281C331C38E0002EC3
:1039500008D1224A01231370224A9169890B8903F5
:10396000916138E0A178281CFFF706FC33E0281CA1
:10397000FFF73CFF30E0281C00211B4A1FE00A78BB
:103980000020D30628D1281CFFF7B6FCA2781549E1
:10399000154B02241A600A682A23FF33D05C2043A7
:1039A000D0544A20FF30145C01231C4314548A690C
:1039B000920B92038A610EE00C4A281C002101231D
:1039C000FFF738FE07E08A78084B1A60054B9A69C2
:1039D000920B92039A61012076BDC046A403002099
:1039E0004D080020540800205809002050080020ED
:1039F000F8B53B4B071C1C78002C70D1394D28685A
:103A0000838B19070ED5201C211CFFF703F92B68A7
:103A100010201A1CFF32917A01439172324A1460CD
:103A200008229A832B689A8B500701D504229A8327
:103A3000FF331A7AD10626D510221A725A794021FC
:103A40000A432A495A710A786023381C1A4202D163
:103A5000FFF742FF01E0FFF7B3FB002806D02B6819
:103A60008022FF33997952420A4301E0204B202201
:103A70009A712B68FF331A7A500604D540221A72C5
:103A8000597A0A435A722968FE230E8C00241E407C
:103A9000E1B2002E23D0321C012322411A4216D05B
:103AA000221C2868083252018218D079184203D1AA
:103AB000D279DA401A4207D00E4BA200D058002823
:103AC00009D003681B6898470123A3409E43013433
:103AD000092CDDD103E0381CFFF7B4FAF4E7F8BD98
:103AE0004C080020540800205809002070060020CF
:103AF000FF5000413008002008B50248FFF778FF6A
:103B000008BDC0464F080020014A024B1A607047AA
:103B100000500041540800203F20704713B5026850
:103B20006B46D97107335468191C0122A04716BD92
:103B300008B500690221FFF7F1FB08BD08B500696F
:103B40000321FFF701FC08BD38B50D1C041C131C34
:103B5000006903212A1CFFF7E7FC002801D101239B
:103B6000636038BD10B5054C23685A1C04D1036846
:103B70005B6998472060031C181C10BD980000204A
:103B8000074A08B51368591C04D001214942116045
:103B9000181C03E000690221FFF7B8FC08BDC0460D
:103BA0009800002008B503780349023303704222CD
:103BB0000248FFF763FD08BD540000204F080020B5
:103BC00010B50178031C42780020A12908D1212AD0
:103BD0002FD1184818490722FFF750FD012028E08F
:103BE000212926D1202A05D1134907221148FFF7A0
:103BF000F1FB04E0222A10D19A780F4BDA710E4BB8
:103C000096221968D200914210D1DC7901231C4020
:103C10000CD1FA20FEF748FF0AE0232A09D1DA780E
:103C20009B7812021A43054B1A6002E0FEF742FF2E
:103C3000002010BD4F080020480000205000002048
:103C4000064BFA2189009960054900220831196064
:103C500004495A6019611A767047C0465C09002011
:103C6000B04B00004F080020314BFA21186810B506
:103C7000890000F041FC2F4B0138984224D82E4A8D
:103C80002E4B5060186AC0210002000A0906014349
:103C900019620024072194601160196A80220902C8
:103CA000090A12060A431A62254BFC211A6A0A43C2
:103CB0001A62196AFC2292010A431A62196AA02246
:103CC000D2020A431A6200E0FEE7201C0021013400
:103CD000FEF728FD0F2CF8D11A4C63785BB2002B4D
:103CE000FADB194B6380194B5A7ED209012AFAD0AC
:103CF000E422D2009A803F22DA70597E134AC90921
:103D00000129FAD0C0235B01002013619070FEF7F7
:103D1000E9FB63785BB2002BFBDB0D4A094B5A8051
:103D20000C4BDA79D209012AFAD041225A7010BD1F
:103D30009C000020FFFFFF0010E000E000ED00E02D
:103D400000040040000C00401E4000000040004203
:103D5000214000000048004201607047F7B508AC00
:103D6000267804689D1E27686C1EA541ECB2920758
:103D700005683A4327063A432A6002680725294026
:103D80005068B501002C00D05C03294301430C436B
:103D90005460F7BD30B50368C0251C68AD0312053B
:103DA0002A402243C024A40209042140114319607F
:103DB00003685A6814435C6030BD036801211A68C7
:103DC0000A431A600268116801231942FBD1D169C4
:103DD0001942F8D17047036802211A680A431A6031
:103DE0000268D3699907FCD4704703681A7ED1072B
:103DF00002D41A7E9107FCD57047036800225A83CB
:103E000070470368187E4007C00F70470368187E2C
:103E1000C009704703688022197E52420A431A760D
:103E200070470368588B8007C00F704703680221F2
:103E30005A8B0A435A8370470368187E012318403F
:103E400070470368188DC0B2704703681A7E01205E
:103E50000242FBD019857047036801229A757047AA
:103E6000036801221A7570470368224A30B59342ED
:103E700011D0214A934211D0204A934211D0204AB6
:103E8000934211D01F4A934211D01F4A934230D11E
:103E90000E2319220DE0092314220AE00A23152219
:103EA00007E00B23162204E00C23172201E00D2368
:103EB0001822DCB2154901209B08A0409B00086035
:103EC0005B180320C021890004405D58E000FF24F6
:103ED0008440A5432C1CC0258540281C20435850F5
:103EE0008023DB011A430A4B5A805A7852B2002AC7
:103EF000FBDB30BD00080042000C00420010004215
:103F00000014004200180042001C004200E100E0E2
:103F1000000C0040F8B5041C151C0E1C1F1CFFF7FC
:103F2000A3FF201CFFF749FFB1001C220A406907CC
:103F30002368090C0A431A60226884239375012EB2
:103F40001AD10821012D00D110210C4B794318689A
:103F5000C00000F0D1FA236807219A890140D204F9
:103F60004903D20C0A439A8123680004C20C988941
:103F7000400B400310439881F8BDC0469C000020D0
:103F80000120704708B50368014A1B6A984708BDBD
:103F900013040000031CFC33D9699A69914203D0D1
:103FA000DB69C018007D01E001204042704710B578
:103FB000041C0069FFF701FF221C0023FC329361FF
:103FC000D36186229200A4186360A36010BD000034
:103FD000F0B587B001930CAB1B78802602930DAB34
:103FE0001B78002503930EAB1B78760004930FAB70
:103FF0001B78041C0593FA239B008360194B0F1C4C
:104000000833009245600360291C321C143000F014
:1040100006FB231C8E22FC3352009D61A018DD613B
:10402000321C291C00F0FBFA86229200A3185D6066
:10403000009A9D6089239B002761E254019A0A4BF4
:10404000201CE254029A094BE254039A084BE254B2
:10405000049A8A239B00E254059A8E239B00E25423
:1040600007B0F0BDD84B000025020000260200007A
:104070002702000030B585B0041C08A8057809A8FF
:10408000007800950190FF2002900390201CFFF71C
:104090009FFF201C05B030BDF023081C18403038AD
:1040A000434258417047F0231B01194080239B0075
:1040B00099420CD0C0239B00994206D080235B001C
:1040C0000520994204D0002002E0072000E00620ED
:1040D00070470F231940012905D002394B424B414B
:1040E0000220C01A00E0002070470000F0B58923CC
:1040F00085B003919B00041C1827C05C3B1C434304
:10410000324E0821F3185956151CFEF76BFC304B44
:104110000821E05C3B1C4343F3185956FEF762FC50
:104120002C4BE25C022A0AD18E239B00E05CFF2824
:1041300005D047430821F7197956FEF753FC8A2723
:10414000BF00E05DFF281AD00121FEF7EBFAE35D26
:1041500018225A43B3562049DB0158188B21890095
:1041600060501E49B6185B188C2172688900635034
:10417000012191400A1C8D21890062501A600121A1
:104180000A1C039B2069FFF7C5FE291C201CFFF7B2
:104190008AFF291C071C201CFFF79BFF291C061CFB
:1041A000201CFFF779FF391C0090331C2069012285
:1041B000FFF7D4FD074B2069E15C094BE25CFFF798
:1041C000E9FD2069FFF707FE05B0F0BDF8470000E4
:1041D0002502000027020000184400411444004159
:1041E00026020000031CFC3358689B68C01A01D5E6
:1041F0000130FF30704710B5041C8E235B00E018BF
:10420000FFF7F0FF0028F8D12069FFF7EEFD10BDA1
:1042100008B51430FFF7E6FF08BDFC30426883683C
:104220009A4204DB43688068C01AFF3003E082686A
:104230004368D01A0138704708B51D30FF30FFF7CA
:10424000ECFF08BD38B5041C0069FFF7EAFD002843
:1042500005D02069FFF7F5FD2069FFF7E7FD20692C
:10426000FFF7CFFD002820D02069FFF7EAFD231CCF
:10427000FC339A69D9690132D2B28A4203D0996972
:10428000611808759A618A239B00E35CFF2B0CD0B0
:10429000201C1430FFF7C1FF092806DC8B238D2278
:1042A0009B009200E358A2581A602069FFF7C4FDF2
:1042B00000281FD08E225200A518281CFFF792FF5D
:1042C000031C2069002B13D086229200A318996842
:1042D0005A68914206D09A68A95C9A680132D2B2B3
:1042E0009A6001E001214942C9B2FFF7AEFD01E049
:1042F000FFF7B6FD2069FFF789FD002805D020698A
:10430000FFF788FD2069FFF778FD38BD70B5041C04
:1043100000690D1CFFF790FD8E225200A6180028A0
:104320000ED0301CFFF75EFF00283DD008E0EFF311
:104330001083DA0722D41F4B5A68D205D20D0AD156
:1043400086229200A31858689A680130FF2108401D
:104350009042ECD01BE0103AD2B253B2002B08DAF4
:104360000F231A40083A144B92089200D21853684F
:1043700004E09B08C033114A9B009B582069FFF75B
:104380005BFD0028DCD0201CFFF75CFFD8E75A68F3
:1043900001320A4099688A4202D0596875545A60BD
:1043A0002069FFF759FD03E02069291CFFF74DFD47
:1043B000012070BD00ED00E018ED00E000E100E03C
:1043C00038B5031CFC33D9699A69041C914207D0A3
:1043D000DA698218157DDA690132D2B2DA6101E058
:1043E00001256D428A239B00E35CFF2B0CD0201C2F
:1043F0001430FFF712FF0A2806DD8C238D229B0064
:104400009200E358A2581A60281C38BD70B5446861
:104410000E1C0025002C09D02368201C5B68311C71
:104420009847002804DB2D18E468F3E7281C01E016
:104430000120404270BD38B544680D1C002C08D0E6
:104440002368201C9B68291C9847002802D1E46837
:10445000F4E7201C38BD38B544680D1C002C07D08B
:104460002368201C291CDB689847E4682D18F5E7B1
:104470002C7038BD38B544680D1C002C08D023685A
:10448000201C1B68291C9847002803D1E468F4E726
:10449000201C00E0012038BD064B0122196810B530
:1044A0001140054805D10224047004244470416081
:1044B0001A6010BD8009002078090020F7B58A181D
:1044C000061C0D1C01920C1C019B671B9C4207D013
:1044D000336821781B68301C984701340028F3D1D9
:1044E000381CFEBD02B4714649084900095C490008
:1044F0008E4402BC7047C046002934D001230022FC
:1045000010B488422CD301242407A14204D2814252
:1045100002D209011B01F8E7E400A14204D2814262
:1045200002D249005B00F8E7884201D3401A1A43DF
:104530004C08A04202D3001B5C0822438C08A04216
:1045400002D3001B9C082243CC08A04202D3001BCC
:10455000DC082243002803D01B0901D00909E3E746
:10456000101C10BC7047002801D00020C04307B4C5
:10457000024802A14018029003BDC0461900000085
:104580000029F0D003B5FFF7B9FF0EBC4243891AEA
:104590001847C0467047C04670B50E4B0E4D0024FC
:1045A000ED1AAD101E1CAC4204D0A300F35898477E
:1045B0000134F8E700F00CF9084B094D0024ED1A1E
:1045C000AD101E1CAC4204D0A300F3589847013430
:1045D000F8E770BD04010020040100200401002060
:1045E0001801002008B5034B011C186800F068F89A
:1045F00008BDC0460001002008B5034B011C186827
:1046000000F016F808BDC0460001002010B50023D8
:10461000934203D0CC5CC4540133F9E710BD031CB2
:104620008218934202D019700133FAE770470000F4
:1046300030B5002940D004390B68002B00DAC918C6
:104640001E4A1368141C002B02D14B60116033E02A
:1046500099420FD208680A189A4205D11368526825
:10466000C01808604A6000E04B60216024E08A4284
:1046700003D8131C5A68002AF9D11D685C198C42B2
:104680000BD10968691858181960904214D1146840
:104690005268091919605A600EE08C4202D90C2345
:1046A000036009E008680C18944203D1146852684A
:1046B000001908604A60596030BDC0468809002072
:1046C00070B50323CD1C9D430835061C0C2D01D26B
:1046D0000C2501E0002D3FDB8D423DD3204B1C68B3
:1046E0001A1C211C002913D00868431B0DD40B2B66
:1046F00002D90B60CC181EE08C4202D163681360B3
:104700001AE0486860600C1C16E00C1C4968E9E778
:10471000144C2068002803D1301C00F025F82060DC
:10472000301C291C00F020F8431C15D0C41C0323A6
:104730009C4384420AD12560201C0B300722231D94
:104740009043C31A0BD05A42E25008E0211A301CA1
:1047500000F00AF80130EED10C233360002070BD68
:10476000880900208409002038B5074C0023051C67
:10477000081C236000F012F8431C03D12368002BAF
:1047800000D02B6038BDC046900900200023C25CD9
:104790000133002AFBD1581E70470000094A1368F4
:1047A000002B0CD018186946884202D81060181CDB
:1047B0007047054B0C2201201A604042F8E7034B7A
:1047C0001360EFE78C090020900900209409002075
:1047D000F8B5C046F8BC08BC9E467047F8B5C04660
:1047E000F8BC08BC9E4670471A001A001B001B004C
:1047F0001C001C001D001D00000000001600000031
:10480000080000001C000000FF0000040004060077
:104810000000000017000000080000001C0000005D
:10482000FF00010401040700000000000A0000006E
:10483000080000001C000000120000010001FF0041
:10484000000000000B000000080000001C00000039
:10485000130001010101FF00010000000A00000037
:10486000080000001C000000FF00000500050A0011
:10487000010000000B000000080000001C00000008
:10488000FF00010501050B000000000014000000FE
:10489000080000002C000000FF00020002000400DD
:1048A0000000000015000000080000002C000000BF
:1048B000FF000300030005000000000010000000DE
:1048C000020000001C000000FF00000200020000C7
:1048D00000000000110000000200000004000000C1
:1048E000FF00FFFFFFFF01000000000013000000B9
:1048F000020000001C000000FF0001030103FF0094
:104900000000000008000000020000000400000099
:104910001000FFFFFFFF1000000000000900000072
:1049200002000000040000001100FFFFFFFFFF0075
:104930000100000017000000030000000400000058
:10494000FF00FFFFFFFFFF00010000001600000056
:104950000300000004000000FF00FFFFFFFFFF0056
:10496000000000000200000001000000060000003E
:104970000000FFFFFFFFFF00010000000200000039
:1049800001000000040000000A00FFFFFFFF02001A
:10499000010000000300000001000000040000000E
:1049A0000B00FFFFFFFF03000000000004000000F9
:1049B000010000001C000000040000000000FF00D7
:1049C0000000000005000000010000001C000000C5
:1049D000050001000100FF000000000006000000CB
:1049E00001000000040000000600FFFFFFFFFF00C1
:1049F00000000000070000000100000004000000AB
:104A00000700FFFFFFFFFF0000000000180000008C
:104A10000600000000000000FF00FFFFFFFFFF0096
:104A20000000000019000000060000000000000067
:104A3000FF00FFFFFFFFFF0000000000120000006A
:104A40000800000004000000FF00FFFFFFFFFF0060
:104A50000000000003000000080000000400000047
:104A6000FF00FFFFFFFFFF00000000000C00000040
:104A70000200000000000000FF00FFFFFFFFFF003A
:104A8000000000000D000000020000000000000017
:104A9000FF00FFFFFFFFFF00000000000E0000000E
:104AA0000800000000000000FF00FFFFFFFFFF0004
:104AB000000000000F0000000200000000000000E5
:104AC000FF00FFFFFFFFFF00000000001B000000D1
:104AD0000800000000000000FF00FFFFFFFFFF00D4
:104AE000000000001C0000000800000000000000A2
:104AF000FF00FFFFFFFFFF000100000008000000B3
:104B000001000000060000000200FFFFFFFFFF00A1
:104B10000100000009000000010000001800000072
:104B2000030001040104090000000000000000006F
:104B30000800000000000000FF00FFFFFFFFFF0073
:104B4000000000000100000008000000000000005C
:104B5000FF00FFFFFFFFFF0000000000000000005B
:104B6000512F0000352E00007D2D0000E52B0000A8
:104B7000012C00000000000041726475696E6F2016
:104B80004C4C43000403090412010002EF020140EF
:104B90004123508000010102030141726475696E76
:104BA0006F204D4B5220464F58203132303000009C
:104BB00000000000000000001D3B0000493B000019
:104BC000193B00003D3B0000313B0000813B0000F1
:104BD000653B000000000000000000000000000035
:104BE0000D430000BD44000039420000F7410000C1
:104BF00011420000C1430000953F0000853F0000C6
:104C0000ED400000AF3F0000813F000000000000C9
:084C1000430000000000000059
:104C180008000000FFFFFFFF0020004200240042C0
:104C280000280042002C00420030004200340042BC
:104C38000000000083000000020000008200000065
:104C4800000000000000000000000000000000005C
:104C5800000000000000000000C201000000080081
:104C6800FFFFFFFF080B000202020000090400001A
:104C78000102020000052400100104240206052494
:104C88000600010524010101070581031000100930
:104C9800040100020A0000000705020240000007A4
:104CA8000583024000000000FFFFFFFF40420F00A5
:104CB80000000000000000000000000000000000EC
:104CC80000000000000000000000000000000000DC
:104CD800104C000000000000000000000000000070
:104CE80000000000000000000000000000000000BC
:104CF80000000000000000000000000000000000AC
:104D0800000000000000000000000000000000009B
:104D1800A0000020DD200000E1230000492B000056
:104D2800093B0000413C0000B520000000000000E5
:040000030000246174
:00000001FF
