:1020000000800020CD2B0000B72B0000B72B000074
:1020100000000000000000000000000000000000C0
:10202000000000000000000000000000B72B0000CE
:102030000000000000000000B72B0000212C000071
:10204000B72B0000B72B0000B72B0000B72B000008
:10205000B72B0000B72B0000B72B0000B92B0000F6
:10206000B72B0000B72B0000B72B0000B72B0000E8
:10207000B72B0000B72B0000F5360000B72B00008F
:10208000B72B0000B72B0000B72B0000692200001F
:1020900000000000B72B0000B72B0000B72B00009A
:1020A000B72B0000B72B0000B72B0000B72B0000A8
:1020B0000000000010B5064C2378002B07D1054B1B
:1020C000002B02D0044800E000BF0123237010BDA4
:1020D000400100200000000064A5000008B5084B86
:1020E000002B03D00748084900E000BF07480368F9
:1020F000002B03D0064B002B00D0984708BDC046EC
:102100000000000064A50000440100203C01002004
:102110000000000038B5021C041C12482C320023B9
:1021200013705370036860639621DB6989019847D7
:10213000502000F035FD616B051C00F09DF9256312
:10214000094800F013FD206B084900F09DF9206B51
:10215000074900F099F9206B064900F095F9201C19
:1021600038BDC0468802002088130000E49C0000AF
:10217000169D0000279D000038B5041C006B00F080
:1021800089F9002820D0256B281C00F089F9011C52
:10219000281C00F09DF9002817D0236B00209A69B5
:1021A0002260DA696260DA78E2611A79013AA26142
:1021B0005A7962611A7822615A78E2609B78A3604A
:1021C0002C340123237002E001E00120404238BD9D
:1021D00008B5006B00F0D2F808BD031C2C3318784A
:1021E000002801D000221A7070470000F7B500F0F7
:1021F000B7FC184F184D28603868FFF7BDFF3868E6
:10220000FFF7EBFF002823D03B68144C186805F05B
:102210008FFB0626021C0B1C0096201C00F0F0FE13
:102220000F49201C00F0DCFD3B68586805F080FB7E
:102230000096021C0B1C201C00F0E9FE00F090FC34
:10224000084B29681860411A0A22201C00F015FE6C
:10225000F7BDC0465C010020600100206C02002038
:10226000369D00006401002010B5074B01249A7BC5
:10227000224208D05B7B234205D0044B1868FFF74D
:10228000A7FF034B1C7010BD003000425C01002012
:102290000E3000428222194B52001A60184B5A78B5
:1022A000D209FBD11749184A11605A78D209FCD1DA
:1022B0001649174A11805A78D209FCD1154A164B93
:1022C0001A80164BDA7BD209FBD1154AC42189004A
:1022D00050580002000A5050802109031160114932
:1022E00001220878104308700F490A701A882221C9
:1022F0000A431A80DA7BD209FCD17047080C0040EF
:10230000000C004004070300040C00401C440000C3
:10231000020C00407FBBFFFF18300042003000423B
:1023200000E100E00E3000420D30004210B53820D0
:1023300000F036FC041CFFF7EDFE0B4BE1211C60A6
:102340000A4C4902201C00F00DFD96218901084825
:1023500000F044FFFFF79EFF064800F007FC201C3A
:10236000054900F04FFD10BD5C0100206C0200200B
:102370008802002088130000389D000070B5031CFF
:102380004A331D78041C002D01D000202FE0C06CC2
:1023900003681B6998470028F7D0E06C03685B6905
:1023A0009847C0B2124B134A0A2813D114681978FF
:1023B00061180D701668104D104C1149AE4202D1D3
:1023C00014600E6001E015600C60002119700D4969
:1023D00001240C7011681A78D2B2541CE4B28A1825
:1023E0001C7010701A78772A01D977221A7070BD84
:1023F0006C010020680100206D010020E501002033
:10240000600200205D020020154A00231370021CA8
:102410004A32C3641370134A13491370134A11608C
:10242000134A14491160021C3D321370013A1370B3
:10243000023A43710371C370837043700370013AB1
:1024400053701370013A1370D370C3800023436339
:102450000363C362836243620362C3608360704745
:102460005D0200206C0100206D0100206801002049
:1024700060020020E501002038B5041C0D1CFFF7A8
:10248000C3FFE564201C38BD08B5C06C00F0BAFC81
:1024900008BD0000014B1878C0B270475D020020F3
:1024A000024B00221A70024B186870475D02002030
:1024B0006002002000202F2909D9392901D830399C
:1024C00004E00B1C413B052B01D83739C8B27047DB
:1024D000F0B5041C87B0081C0D1C05F03BFD011F66
:1024E0006B5C01912A2B1BD12E18F31E1978201C2E
:1024F000FFF7E0FF023E071C3178201CFFF7DAFFF0
:102500003F013F18BFB20223019A934204D2EA5C12
:1025100001335740DBB2F7E7002F01D0002010E372
:10252000281CE14905F031FD0190002800D172E13D
:10253000281C2C2105F002FD451C281C05F0ECFB95
:1025400005F048FA071C02F073FED849061C02F099
:1025500081FDD6492070301C02F0C0FD081C6421AA
:1025600002F078FD64216070301C02F0B7FD381C69
:10257000A17005F0DDF9C94BC74A02F0A9FBC84AB2
:10258000C84B04F0B3FB02F06BFE2C21E080281C4A
:1025900005F0D4FC4378071C461C2C2B54D003AD0B
:1025A000311C0222281C05F0DCFC0023281CAB7027
:1025B00005F0BDFBBE4BF91C43430222281C0193CE
:1025C000BE1D05F0CEFC68460422311C0E3005F01D
:1025D000C8FC0021281CA97105F0A9FB322358432F
:1025E000032102F085FD019AB24913182361051CED
:1025F000101C02F07DFD03F097FB071C281C03F064
:1026000093FBAD4903F0D6F8011C381C02F048FEDC
:10261000AA49A060051C02F0A7FF03F065FB071C98
:102620006420784303F080FB011C281C03F0ECF9C4
:10263000A34902F099FF051C381C03F075FB011C2F
:10264000281C02F02DFEA061301C2C2105F076FC28
:10265000031C5A7801302C2A16D0532A04D1A569BC
:10266000802109066A18A2615B784E2B01D0532B9A
:1026700003D1221C3832137006E02C2B00D04DE71A
:10268000231C002238331A702C2105F057FC4378A4
:10269000071C461C2C2B54D003AD311C281C0322D4
:1026A00005F05FFC0022281CEA7005F040FB804B1F
:1026B000391D43430222281C0193FE1D05F051FCE5
:1026C00068460422311C0E3005F04BFC0023281C08
:1026D000AB7105F02CFB32235843032102F008FDB7
:1026E0000199051C0B186361081C724902F000FD7A
:1026F00003F01AFB071C281C03F016FB6E4903F0BD
:1027000059F8011C381C02F0CBFD6C49E060051C37
:1027100002F02AFF03F0E8FA071C6420784303F074
:1027200003FB011C281C03F06FF9654902F01CFF34
:10273000051C381C03F0F8FA011C281C02F0B0FD3F
:10274000E061301C2C2105F0F9FB031C5A780130A4
:102750002C2A16D0572A04D1E569802109066A1867
:10276000E2615B78572B01D0452B03D1221C393213
:10277000137006E02C2B00D0D0E6231C0022393346
:102780001A702C2105F0DAFB4378451C2C2B05D060
:10279000281C05F0C6FA231C3C331870281C2C2179
:1027A00005F0CCFB4378451C2C2B05D0281C05F0EC
:1027B000B8FA231C3D331870281C2C2105F0BEFBF1
:1027C0004378451C2C2B05D0281C05F0A5FA05F0F4
:1027D00001F96063281C2C2105F0B0FB4378451CEF
:1027E0002C2B05D0281C05F097FA05F0F3F8606251
:1027F0002C21281C05F0A2FB2C21013005F09EFBAA
:1028000043782C2B00D19BE1013005F085FA05F0CF
:10281000E1F8206294E1281C2A4905F0B6FB002863
:1028200000D17BE6281C2C2105F088FB461C301CBF
:1028300005F072FA05F0CEF8071C02F0F9FC1B490E
:10284000051C02F007FC19492070281C02F046FC08
:10285000081C642102F0FEFB64216070281C02F059
:102860003DFC381CA17005F063F80C4B0A4A02F0DD
:102870002FFA0B4A0B4B04F039FA02F0F1FC2C2131
:10288000E080301C05F05AFB4378412B1CD1231CFF
:1028900001223B331A701EE0000000000000F03FF0
:1028A0000000000000408F404E9D000010270000F7
:1028B00080969800A08601009C53C9360000C8424B
:1028C00000007042559D0000562B00D026E6231CC8
:1028D000019D3B331D7001302C2105F02FFB437807
:1028E000071C461C2C2B54D003AD311C0222281C83
:1028F00005F037FB0021281CA97005F018FA924B4F
:10290000F91C43430222281C0193BE1D05F029FB3C
:102910006846311C04220E3005F023FB0022281CDF
:10292000AA7105F004FA32235843032102F0E0FBB8
:102930000199051C0B182361081C844902F0D8FB7F
:1029400003F0F2F9071C281C03F0EEF9804902F0AD
:1029500031FF011C381C02F0A3FC7E49A060051C5D
:1029600002F002FE03F0C0F9071C6420784303F074
:10297000DBF9011C281C03F047F8774902F0F4FD4D
:10298000051C381C03F0D0F9011C281C02F088FC3F
:10299000A061301C2C2105F0D1FA031C5A780130BB
:1029A0002C2A16D0532A04D1A569802109066A1859
:1029B000A2615B784E2B01D0532B03D1221C3832FD
:1029C000137006E02C2B00D0A8E5231C002238331E
:1029D0001A702C2105F0B2FA4378071C461C2C2BE8
:1029E00054D003AD311C281C032205F0BAFA002292
:1029F000281CEA7005F09BF9534B391D4343022212
:102A0000281C0193FE1D05F0ACFA68460422311C17
:102A10000E3005F0A6FA0023281CAB7105F087F9EB
:102A200032235843032102F063FB0199051C0B1864
:102A30006361081C454902F05BFB03F075F9071C54
:102A4000281C03F071F9424902F0B4FE011C381C45
:102A500002F026FC3F49E060051C02F085FD03F012
:102A600043F9071C6420784303F05EF9011C281C1D
:102A700002F0CAFF384902F077FD051C381C03F04C
:102A800053F9011C281C02F00BFCE061301C2C21C6
:102A900005F054FA031C5A7801302C2A16D0572A14
:102AA00004D1E569802109066A18E2615B78572B39
:102AB00001D0452B03D1221C3932137006E02C2B98
:102AC00000D02BE5231C002239331A702C2105F08D
:102AD00035FA4378451C2C2B05D0281C05F01CF931
:102AE00004F078FFA062281C2C2105F027FA437817
:102AF000451C2C2B05D0281C05F00EF904F06AFFAC
:102B0000E062281C2C2105F019FA43782C2B17D0F1
:102B1000013005F001F902F0A3FB1049051C02F099
:102B200099FA0E496071281C02F0D8FA081C642139
:102B300002F090FA64212071281C02F0CFFAE170B3
:102B4000012007B0F0BDC04680969800A086010025
:102B50009C53C9360000C842000070421027000094
:102B6000014B18687047C0466402002070B5041E0F
:102B700008D0054B1D681E1C00F01AF833685B1B5B
:102B8000A342F9D370BDC0466402002008B5034BD0
:102B90001A6801321A6000F073FD08BD640200205B
:102BA00008B505F0F7F808BD08B505F0FDF808BD53
:102BB000704700207047FEE708B5034B1B68002BE9
:102BC00000D0984708BDC0466802002038B50F49BC
:102BD0000F4CA14204D100F029FA00F0DDFA0BE01D
:102BE0000C4D8D42F7D00023CA18E818A24204D237
:102BF000006804331060F7E7FEE79042EBD0064B25
:102C0000064A9342E7D2002204C3F9E700000020FD
:102C10004001002068A5000040010020B00A00200B
:102C200008B5FFF7C6FF002801D1FFF7AFFF08BDC9
:102C3000014B18607047C046680200203F20704773
:102C400013B502686B46D97107335468191C012209
:102C5000A04716BD08B50069022101F03DF908BD85
:102C600008B50069032101F04DF908BD38B50D1C08
:102C7000041C131C006903212A1C01F033FA0028EC
:102C800001D10123636038BD10B5054C23685A1C7F
:102C900004D103685B6998472060031C181C10BDB1
:102CA00050000020074A08B51368591C04D00121C0
:102CB00049421160181C03E00069022101F004FA86
:102CC00008BDC0465000002008B503780349023310
:102CD00003704222024801F0AFFA08BD0C00002048
:102CE0008709002010B50178031C42780020A12933
:102CF00008D1212A2FD118481849072201F09CFA3F
:102D0000012028E0212926D1202A05D113490722B4
:102D1000114801F03DF904E0222A10D19A780F4BB6
:102D2000DA710E4B96221968D200914210D1DC79EB
:102D300001231C400CD1FA2000F094FC0AE0232A65
:102D400009D1DA789B7812021A43054B1A6002E027
:102D500000F08EFC002010BD87090020000000203C
:102D60000800002070470000064BFA218900996096
:102D7000054900220831196004495A6019611A7620
:102D80007047C0466C020020C09D000087090020EB
:102D9000F7B58A18061C0D1C01920C1C019B671BC1
:102DA0009C4207D0336821781B68301C9847013457
:102DB0000028F3D1381CFEBD08B50368C9B21B68F2
:102DC000984708BD38B5051C0C1C081E07D005F037
:102DD000C1F82B68021C5B68281C211C984738BD71
:102DE00008B5FFF7EFFF08BD08B503681B689847F3
:102DF00008BD000008B50249FFF7E4FF08BDC04662
:102E0000E89D000038B5041CFFF7DCFF051C201C02
:102E1000FFF7F0FF281838BDF0B58DB0161C0BABCE
:102E2000002201900C1C1A70012E00D80A266D4653
:102E30002B35201C311C02F051F9201CCFB2311C63
:102E400002F008F9291C041C092F01D8303700E0D2
:102E50003737FFB22F70013D002CEAD10198FFF700
:102E6000B1FF0DB0F0BD08B5002A02D1FFF7A4FFF5
:102E700002E0D2B2FFF7D0FF08BD38B5041CFFF75F
:102E8000F2FF051C201CFFF7B5FF401938BD0000FC
:102E9000F7B51C1C08AB1B78071C211C101C151C4B
:102EA000009301F0E5FE002802D1381C504907E0EC
:102EB000281C211C01F0DCFE012804D14D49381CDE
:102EC000FFF780FF7CE0281C211C404B3E4A02F0AB
:102ED0009BF9002802D0381C4749F1E7281C211C27
:102EE0003B4A3C4B02F07CF90028F4D1281C211C01
:102EF000394A3A4B02F074F9002808D02D21381CC9
:102F0000FFF772FF802109060190641800E001902C
:102F10000026334A334B00998E420AD0101C191CEC
:102F2000314A324B03F078FA0136021C0B1CF6B220
:102F3000F1E7281C211C02F053FF0D1C041C02F0B9
:102F40008FF9061C04F0C0FC0B1C021C291C201C61
:102F500004F05CF90A22041C0D1C381C311CFFF71C
:102F60005BFF019B0099C618002904D0381C2E2154
:102F7000FFF73AFF3618009B002B20D01A4A1B4B54
:102F8000201C291C03F0B2FE0D1C041C02F068F981
:102F900001900A220199381CFFF73EFF361801986C
:102FA00004F092FC0B1C021C291C201C04F02EF9BE
:102FB000009B041C013BDBB20D1C0093DBE7301CC3
:102FC000FEBDC046C046C046000000E0FFFFEF4126
:102FD000000000E0FFFFEFC1000000000000000063
:102FE000000000000000E03F00000000000024405E
:102FF000EB9D0000EF9D0000F39D0000C046C04621
:1030000013B5049CE1B20091FFF742FF16BD37B53E
:10301000041C0698C1B20091201CFFF739FF051C63
:10302000201CFFF7E7FE28183EBD000070B5494A96
:103030001E21536802208B430343474953608B6929
:10304000082423438B61454C454B9C829C8A20433A
:103050009882101CDA689407FCD5424A0124147047
:103060001478E50704D53F4C647864B2002CF7DB94
:1030700001249460547864B2002CFBDB3A4D394C47
:103080006560547864B2002CFBDB8225354CED0181
:103090006580547864B2002CFBDB02249C84DC68DD
:1030A000E606FCD5314D2E4CE562DD682C4CEE0673
:1030B000FBD5A58C2E4E3543A584DD68284CEE0645
:1030C000FBD5A58C02263543A584DC682506FCD5F6
:1030D000234CE4686606F8D5DC68E506FCD50024D8
:1030E0009460547864B2002CFBDB224D1D4C65606B
:1030F00055781C4C6DB2002DFADB1E6A1E4D354012
:103100001D621D6A8026B5431D620323A3601B4B0D
:10311000636053785BB2002BFBDB00230B72184A11
:103120004B728B72CB72174BFF211A60164B174AEA
:103130001B6812685C01D20E214011439A06520F9F
:1031400012020B1C1343124A138543688022134357
:10315000436070BD00400041000400400C060000C8
:1031600000080040000C004001050100B905FF7D8A
:10317000040A000000070300FFFCFFFF0306010034
:10318000006CDC0280000020246080002060800051
:10319000004000427047000010B501F0F5FA04F05D
:1031A000D3FDFFF7F7FF0120FFF7E0FC084C201CE0
:1031B00000F046FD201C00F0A3FDFFF7B7F8FFF775
:1031C00015F8044B002BFAD000E000BFF7E7C0462B
:1031D00087090020000000000120704708B503683F
:1031E000014A1B6A984708BD13040000031CFC3306
:1031F000D9699A69914203D0DB69C018007D01E06A
:1032000001204042704710B5041C006901F065FBC5
:10321000221C0023FC329361D36186229200A41801
:103220006360A36010BD0000F0B587B001930CABE4
:103230001B78802602930DAB1B78002503930EAB01
:103240001B78760004930FAB1B78041C0593FA23BC
:103250009B008360194B0F1C08330092456003608C
:10326000291C321C143004F0B2FD231C8E22FC33C6
:1032700052009D61A018DD61321C291C04F0A7FDDD
:1032800086229200A3185D60009A9D6089239B00AE
:103290002761E254019A0A4B201CE254029A094B1E
:1032A000E254039A084BE254049A8A239B00E254A6
:1032B000059A8E239B00E25407B0F0BDF89D0000F4
:1032C00025020000260200002702000030B585B06C
:1032D000041C08A8057809A8007800950190FF2033
:1032E00002900390201CFFF79FFF201C05B030BD0B
:1032F000F023081C18403038434258417047F023EF
:103300001B01194080239B0099420CD0C0239B00D5
:10331000994206D080235B000520994204D000200A
:1033200002E0072000E0062070470F231940012922
:1033300005D002394B424B410220C01A00E0002068
:1033400070470000F0B5892385B003919B00041CF1
:103350001827C05C3B1C4343324E0821F3185956D2
:10336000151C01F09DFB304B0821E05C3B1C4343E6
:10337000F318595601F094FB2C4BE25C022A0AD157
:103380008E239B00E05CFF2805D047430821F719F6
:10339000795601F085FB8A27BF00E05DFF281AD02F
:1033A000012101F097F9E35D18225A43B3562049F1
:1033B000DB0158188B21890060501E49B6185B1834
:1033C0008C21726889006350012191400A1C8D2173
:1033D000890062501A6001210A1C039B206901F0D8
:1033E00029FB291C201CFFF78AFF291C071C201C15
:1033F000FFF79BFF291C061C201CFFF779FF391CD7
:103400000090331C2069012201F038FA074B206933
:10341000E15C094BE25C01F04DFA206901F06BFAC6
:1034200005B0F0BD309E000025020000270200001C
:10343000184400411444004126020000031CFC33E0
:1034400058689B68C01A01D50130FF30704710B52D
:10345000041C8E235B00E018FFF7F0FF0028F8D172
:10346000206901F052FA10BD08B51430FFF7E6FFED
:1034700008BDFC30426883689A4204DB4368806878
:10348000C01AFF3003E082684368D01A01387047E1
:1034900008B51D30FF30FFF7ECFF08BD38B5041C40
:1034A000006901F04EFA002805D0206901F059FAB0
:1034B000206901F04BFA206901F033FA002820D08E
:1034C000206901F04EFA231CFC339A69D969013254
:1034D000D2B28A4203D09969611808759A618A2329
:1034E0009B00E35CFF2B0CD0201C1430FFF7C1FFC6
:1034F000092806DC8B238D229B009200E358A258FA
:103500001A60206901F028FA00281FD08E2252008C
:10351000A518281CFFF792FF031C2069002B13D06D
:1035200086229200A31899685A68914206D09A6838
:10353000A95C9A680132D2B29A6001E00121494245
:10354000C9B201F012FA01E001F01AFA206901F0A3
:10355000EDF9002805D0206901F0ECF9206901F0AF
:10356000DCF938BD70B5041C00690D1C01F0F4F9DC
:103570008E225200A61800280ED0301CFFF75EFFE6
:1035800000283DD008E0EFF31083DA0722D41F4B68
:103590005A68D205D20D0AD186229200A318586823
:1035A0009A680130FF2108409042ECD01BE0103AAD
:1035B000D2B253B2002B08DA0F231A40083A144B48
:1035C00092089200D218536804E09B08C033114A55
:1035D0009B009B58206901F0BFF90028DCD0201C1B
:1035E000FFF75CFFD8E75A6801320A4099688A42BF
:1035F00002D0596875545A60206901F0BDF903E0A2
:103600002069291C01F0B1F9012070BD00ED00E036
:1036100018ED00E000E100E038B5031CFC33D96987
:103620009A69041C914207D0DA698218157DDA691B
:103630000132D2B2DA6101E001256D428A239B009A
:10364000E35CFF2B0CD0201C1430FFF712FF0A287C
:1036500006DD8C238D229B009200E358A2581A604D
:10366000281C38BD014B18607047C046540000202C
:10367000024B012252421A607047C046540000209B
:10368000154A1368581C25D0013B1360002B21D12B
:1036900072B6124A124B04329A4207D8BFF34F8FC8
:1036A000104A114BDA60BFF34F8F11E00F4B197DB9
:1036B000C807FBD5188B2021FF3192085200014327
:1036C0001983DA610A4A1A801A7DD107FCD5E5E729
:1036D000C046FDE77047C0465400002000200000AF
:1036E000030200000400FA0500ED00E00040004184
:1036F00002A5FFFF08B50248FFF7D0FE08BDC0468F
:103700008802002013B51249124801F0B5F8124999
:10371000124801F0B1F81249124801F0ADF812490F
:10372000124801F0A9F81249124801F0A5F8124C0C
:103730001249201C01F0A0F80323009301230193F8
:10374000211C0D220E230E48FFF7C0FD13BDC046FD
:1037500000080042C8040020000C0042CC040020F5
:1037600000100042D004002000140042C4040020D5
:1037700000180042D4040020D8040020001C00429D
:103780008802002010B507230F220240141C0009F4
:103790003034092A00DD0734CC54013BF4D210BD8B
:1037A00010B5054B041C0360806904F0FDFAA06AA3
:1037B00004F0FAFA201C10BD98A1000010B5041CFA
:1037C000FFF7EEFF201CFFF7EFF9201C10BD0000F3
:1037D00070B582291ED1C2B22A495301CB189D6906
:1037E000294C80012C40C025AD052C439C61274C01
:1037F0000832201858610B68520199180C79802002
:10380000404220430871D15C702081433020014345
:10381000D15435E0002933D1C2B21A495301CB1833
:103820009E68194DC0242E40A40526439E60184E64
:10383000800109683018083258605201505C072630
:10384000B0430126304350549E6935402C439C615F
:103850000E4C5C61505C7024A043102420435054F3
:103860009C680C488A182040802464032043986098
:1038700098684021800B8003986053790B43537103
:1038800070BDC0468C090020FFFFFF8FE8050020B7
:10389000A8070020FF3F00F038B5041C08CC012128
:1038A0001A78051C0A431A708022201C002152003D
:1038B00004F08DFA2B689A78D107FCD45C6238BD8D
:1038C000134BF0B51B6899035A029B01C90ED20E27
:1038D0005B0F1F2900D105211F2A00D11D22072BB4
:1038E00000D1032304688E01278D0A491F25394022
:1038F0003143218501682A400C8DAC4322430A855F
:1039000002681903108D044B03400B431385F0BD6F
:10391000246080003FF8FFFFFF8FFFFFEFF310836D
:1039200003600123436072B670470368002B02D125
:1039300062B6BFF36F8F704737B50569041C6846E0
:10394000002D12D1FFF7EAFF019B013B03D3621D5B
:10395000D57FEDB2F9E768460193FFF7E6FF002057
:10396000854217D0206AE36913E0FFF7D7FF019B78
:103970000025013B04D3221C34321578EDB2F8E760
:1039800068460193FFF7D1FF0020854202D0206BEB
:10399000E36AC01A3EBD0000436810B51A68037A96
:1039A00001215B01D318FF339A7A0A439A72037A92
:1039B00042685B01D318C2689C6891040B4A0909EC
:1039C00022400A439A60037A42685B01D3189A68DE
:1039D0004021920B92039A6043681A68037A083375
:1039E0005B01D3181A790A431A7110BDFF3F00F02A
:1039F000F7B50569041C0E1C171C6846002D1FD165
:103A0000FFF78CFF019B013B5A1C06D0621DD17F42
:103A10005A1E00293AD0131CF6E768460193FFF7B7
:103A200084FF0025E369BD4235D0226A934232D239
:103A30005A1CE261A269D3181B7873550135F1E76E
:103A4000FFF76CFF019B013B5A1C08D0221C34324B
:103A500015785A1EEDB2002D18D0131CF4E76846F5
:103A60000193FFF762FF0025E36ABD4226D0226B77
:103A7000934241D322E0621D0021D1773032167883
:103A8000581E8E4214D1031C5A1CF4D1684601936F
:103A9000FFF74BFF38E0226A934235D10023E36100
:103AA000012323616846FFF739FF019B013BEBE7E8
:103AB0001170201C0193FFF76FFFF6E7226B934212
:103AC00022D10023E36223616846FFF727FF019BB1
:103AD000013B5A1CDAD0221C343200211170013211
:103AE0001678581E8E4201D1031CF2E71170201C7B
:103AF0000193FFF751FFEAE75A1CE262A26AD3186A
:103B00001B7873550135AFE7281CFEBD37B54368F8
:103B1000027A1B68083252019A18041CD0790123DA
:103B2000FF21184255D0D371A068656962680140D1
:103B3000002D1FD14901521891688904890C216216
:103B4000216A002942D06361A36A68465360FFF787
:103B5000E5FE019B013B5D1C34D0621D0120D07746
:103B60002F3211785D1EC9B21218002915D11170BB
:103B70002B1CF0E74B01D3189A689204920C226335
:103B8000226B002A22D000226261A26968465A6034
:103B9000FFF7C4FE019B013B12E0019310706846E1
:103BA000FFF7C3FE15E0221C343201201070621DA5
:103BB000D17F5D1EC9B230320029EED111702B1CAD
:103BC0005D1CF0D168460193FFF7AFFE201CFFF7A4
:103BD000E3FE37BD37B500236C46E3710734201C84
:103BE0000D1CFFF771F82B681818286001F02EF8EB
:103BF000211C00F0E5FF2B681818286020783EBDD6
:103C000003290BD10D4BB2221B685200985C802116
:103C1000494201439954022168220CE001290CD148
:103C2000064B92221B685200985C80214942014356
:103C3000995402212822FF32995470478C090020A0
:103C400038B5264B2021DA69051C0A43DA61244B7A
:103C500001201A78062402431A70224B0F22197889
:103C6000914319701978214319701F490C7820432A
:103C7000087019780A401A701A7860210A431A707D
:103C80001A4B1B4A5A805A78D209FCD11948FEF7C0
:103C9000CFFF194C201CFFF7FFFD201CFFF710FE83
:103CA00023687F2219780A401A701A7804210A437F
:103CB0001A701A890C218A431A81C1210F4A89007E
:103CC00050580002000A5050802111601A780221D9
:103CD0000A431A7001232B7038BDC046000400400F
:103CE000584400413C44004159440041000C00400C
:103CF00006400000B54600008C09002000E100E00D
:103D00000078002810D0094B01211B681A898A43CA
:103D10001A811A8B08210A431A831A8B04210A4339
:103D20001A83034B00221A607047C0468C0900209A
:103D3000900A00200F4B9A69920B92039A611B68BC
:103D40000222FF331A7298798022524202439A71FA
:103D50001A7A9007FCD5084B081C997A7F221040EC
:103D6000914301439972997A802252420A439A728E
:103D70007047C0468C0900200050004110B50B79F7
:103D80000C1C002B0BD1081CFEF7ACFF002804D143
:103D9000094B9A69920B92039A6101200BE000F0A3
:103DA00055FF211C00F040FF0028F6D1024B9A6914
:103DB000920B92039A6110BD8C090020F7B50D1C7F
:103DC000832A18D1CAB236495301CB189C693548A9
:103DD000AD012040C024A405204398613248083238
:103DE00045195D610B685201D15C70208143402010
:103DF0000143D15453E0022A4DD12C4B8900C858BD
:103E00000191002802D003681B6998473820FEF70B
:103E1000C7FE274B224F8026036076000023421DF9
:103E2000036203614361C36147608560C660D37705
:103E30002F32041CC36203631370301C537003F0F1
:103E4000A9FFA061301C03F0A5FFFF231D406D01F9
:103E5000A0627F19B968134A07250A40C021890565
:103E60000A43BA60A16862681940126808314901C2
:103E7000885CA843032528438854A26861681340DE
:103E80005B01A269CB185A60201CFFF785FD074B28
:103E900001995C5003E0081C111CFFF799FCF7BD69
:103EA0008C090020FFFFFF8FE80500206809002033
:103EB00098A1000038B5051C0124064BA200D25879
:103EC000002A06D0211C281C0134FFF777FFE4B23A
:103ED000F3E738BD5800002008B5084B8A00D058D9
:103EE000002803D003689B68984706E0C9B2044BDA
:103EF0004901591888688004800C08BD68090020B1
:103F00008C09002010B50C1CFFF7E6FF00280CD030
:103F1000064BE1B21B680831490159184A798023E0
:103F20005B4213434B710223CB7110BD8C090020FF
:103F300070B5CAB2134B14485401890159180319BA
:103F400059609D681149083229408025AD022943F6
:103F5000996099684026890B89039960036851012B
:103F600059180D7935430D715101591889794D064C
:103F7000FAD551015918C979CD07FAD50419A068A5
:103F8000C0B270BDA80700208C090020FF3F00F0E0
:103F900038B50C4B141C1B680D1CFF335A7940219B
:103FA0000A435A710021FFF7C3FFA04200D9201C29
:103FB0000023A34204D0044A9A5CEA540133F8E790
:103FC00038BDC0468C090020A807002010B5C9B232
:103FD0000C48490143189A689204920C3F2A08D968
:103FE000141C9A68403CA404920BA40C9203224334
:103FF00002E09A68920B92039A6041188868C0B2F6
:1040000010BDC0468C090020F0B51C1C2A4B85B0A1
:104010001B68061C0D1C0292002B46D0274B8A0001
:10402000D058002805D0036802995B68221C984785
:104030003FE0301CFFF750FFA04204D2301C291C87
:10404000FFF74AFF041C291C301CFFF7BFFF1C4F61
:10405000E9B24A010191396803928B18FF335A7A09
:1040600001210A4317495A72AB01C9180298221C50
:1040700003F0A4FE002C1BD0301C291CFFF72CFFE2
:10408000002815D1019B3A6808335B01D3181979D0
:104090004020014319710121D97103995318FF334D
:1040A0009A7A01210A439A7202E00120404200E01C
:1040B000201C05B0F0BDC046900A00206809002011
:1040C0008C090020A807002013B56C460734221C79
:1040D0000123FFF799FF012801D1207801E0012099
:1040E000404216BDF0B51C1C3A4B85B01B680E1C37
:1040F0000292002B60D08023DB019C425CD800221E
:104100000092002C56D0344DF7B22B6801933B1C23
:104110000833019A5B01D3189B79DB091AD02F4B26
:104120002F49186800F096FF2E4B1721584300F0D6
:1041300091FF3B1C0833019A5B01D318DB799A0786
:1041400008D4294B9A5D002A38D1421E002835D068
:10415000101CEEE7244B00229A55251E3F2D00D956
:104160003F25224AB301D318181C02992A1C039335
:1041700003F024FE184A7B01D318039AA9045A615C
:104180009A69890C920B92030A439A613B1C019A2B
:1041900008335B01D3180222DA7159798022524226
:1041A0000A435A71009B029A5B1952190093641BCF
:1041B0000292A6E700980BE0012008E001229A5540
:1041C0007B01ED18AB69101C9B0B9B03AB6140425C
:1041D00005B0F0BD900A00208C090020800000206E
:1041E00040420F0070110100E0050020E8050020AA
:1041F00070B50E4D1C1C8B01ED18281C0E1C111CDB
:10420000221C03F0DBFDF6B20949760189194D61E4
:104210008A69084B201C13408B618B69A2049B0B9D
:10422000920C9B0313438B6170BDC046E8050020D0
:104230008C090020FF3F00F0F7B5114B01901B786F
:104240000F1C141C002B19D10E4B1E78002E01D10F
:10425000151C08E00C4D0D482E888019361903F006
:10426000ADFD2E800AE0002D08D0BA192B1C019854
:104270000021FFF7BDFF36182D1AF4E7201CFEBD04
:104280008609002084090020DE050020DD040020CE
:10429000F8B50E1C00AF151E012D28D9D31DDB0863
:1042A000DB006A46D21A9546081C03F053FE013023
:1042B0006C4640000323207063700222AA420ED293
:1042C0003378002B0BD0511CC9B20136A354A9423C
:1042D00004D0002302326354D2B2EFE72A1C05480F
:1042E000211CFFF7A9FF431E9841C0B200E0002047
:1042F000BD46F8BD8709002008B5044B00221A709E
:10430000034B04491A88FFF797FF08BD8409002072
:10431000DE050020DD040020F0B5204A87B001232F
:104320000026009102A91370051C0296FFF752FCAB
:1043300003AC092701903A1C201C311C03F047FDF7
:1043400002236370A023E371FA232372029B0122EC
:10435000DB196380019B62712371104A009B2770F7
:104360001670BB4205D1281C211C1A1CFFF764FFE4
:1043700011E00B4B01221A700A4B211C3A1C281C1D
:104380001E800296FFF758FF281C02A9FFF722FCA7
:10439000281CFFF7B1FF012007B0F0BD86090020FF
:1043A00084090020DE05002070B5CE7892B0051C8F
:1043B0000C1C022E08D1C9882D48FFF7ADFF031C45
:1043C000581E8341D8B251E000F040FC211C00F09F
:1043D0000CFC002803D0C3171B1AD80F46E0012E8F
:1043E00004D1E2882349112A3BD837E0032E3DD17E
:1043F000A278002A05D12049E2880B7893422DD873
:104400002FE0022A03D1A279281C1C4904E0012ACA
:1044100005D1A2791A49281CFFF73AFF26E0032AA2
:1044200024D1184B01A91868FFF7ACF9164B03A962
:104430001868FFF7A7F9154B05A91868FFF7A2F947
:10444000134B07A91868FFF79DF900F0FFFB09A9B6
:1044500000F0DBFBA279281C01A9DDE7D2B2002A1B
:1044600000D10A78281CFFF7E7FE012012B070BDCA
:1044700087090020C0A10000BCA10000D2A100005B
:10448000B0A100000CA0800040A0800044A08000EB
:1044900048A0800073B5051C48780C1C0B2878D800
:1044A00000F0CEFD081C7728773E4306474B686F27
:1044B00000206FE0097801AA002903D11170517022
:1044C000281C09E0002313705370334B1B78012B19
:1044D00000D11370281C002102234FE08A780023AA
:1044E000012A04D101AA137053702C4BEEE72A4A1B
:1044F000137049E08E78012E07D1284B01AA0021C4
:104500001E701170281C331C38E0002E08D1224A7E
:1045100001231370224A9169890B8903916138E064
:10452000A178281CFFF706FC33E0281CFFF73CFFAE
:1045300030E0281C00211B4A1FE00A780020D30627
:1045400028D1281CFFF7B6FCA2781549154B022488
:104550001A600A682A23FF33D05C2043D0544A20D3
:10456000FF30145C01231C4314548A69920B92039C
:104570008A610EE00C4A281C00210123FFF738FE57
:1045800007E08A78084B1A60054B9A69920B9203F0
:104590009A61012076BDC046DC0400208509002018
:1045A0008C090020900A002088090020F8B53B4BB8
:1045B000071C1C78002C70D1394D2868838B190793
:1045C0000ED5201C211CFFF703F92B6810201A1CA4
:1045D000FF32917A01439172324A146008229A8321
:1045E0002B689A8B500701D504229A83FF331A7ADD
:1045F000D10626D510221A725A7940210A432A4937
:104600005A710A786023381C1A4202D1FFF742FF20
:1046100001E0FFF7B3FB002806D02B688022FF33B0
:10462000997952420A4301E0204B20229A712B686B
:10463000FF331A7A500604D540221A72597A0A4377
:104640005A722968FE230E8C00241E40E1B2002E0F
:1046500023D0321C012322411A4216D0221C286882
:10466000083252018218D079184203D1D279DA4047
:104670001A4207D00E4BA200D058002809D0036878
:104680001B6898470123A3409E430134092CDDD1C8
:1046900003E0381CFFF7B4FAF4E7F8BD8409002002
:1046A0008C090020900A0020A8070020FF5000413C
:1046B0006809002008B50248FFF778FF08BDC0462A
:1046C00087090020014A024B1A60704700500041E0
:1046D0008C09002010B51824021C201C5043274BC5
:1046E0001818007A40B2013046D0032944D8081C7B
:1046F000211C00F0A5FC02331121624398569A1840
:10470000C3011F4852681B189918403102200870D5
:104710000121914059602FE06243985618499A1838
:104720005268C3015B1899184031062008700121B6
:104730009140596099611FE051435A5610485918E9
:104740004B68D2011118C8184030062404700120AB
:10475000984048600B49521850600DE062439856EB
:104760009A18C301064852681B1899184031022054
:10477000087001219140996010BDC046309E000034
:104780000044004110440041314BFA21186810B533
:10479000890000F05FFC2F4B0138984224D82E4A44
:1047A0002E4B5060186AC0210002000A090601431E
:1047B00019620024072194601160196A802209029D
:1047C000090A12060A431A62254BFC211A6A0A4397
:1047D0001A62196AFC2292010A431A62196AA0221B
:1047E000D2020A431A6200E0FEE7201C00210134D5
:1047F000FFF770FF0F2CF8D11A4C63785BB2002BD7
:10480000FADB194B6380194B5A7ED209012AFAD080
:10481000E422D2009A803F22DA70597E134AC909F5
:104820000129FAD0C0235B0100201361907000F0D1
:1048300099F963785BB2002BFBDB0D4A094B5A8078
:104840000C4BDA79D209012AFAD041225A7010BDF4
:1048500080000020FFFFFF0010E000E000ED00E01E
:1048600000040040000C00401E40000000400042D8
:10487000214000000048004201607047F7B508ACD5
:10488000267804689D1E27686C1EA541ECB292072D
:1048900005683A4327063A432A60026807252940FB
:1048A0005068B501002C00D05C03294301430C4340
:1048B0005460F7BD30B50368C0251C68AD03120510
:1048C0002A402243C024A402090421401143196054
:1048D00003685A6814435C6030BD036801211A689C
:1048E0000A431A600268116801231942FBD1D16999
:1048F0001942F8D17047036802211A680A431A6006
:104900000268D3699907FCD4704703681A7ED107FF
:1049100002D41A7E9107FCD57047036800225A839F
:1049200070470368187E4007C00F70470368187E01
:10493000C009704703688022197E52420A431A76E2
:1049400070470368588B8007C00F704703680221C7
:104950005A8B0A435A8370470368187E0123184014
:1049600070470368188DC0B2704703681A7E012033
:104970000242FBD019857047036801229A7570477F
:10498000036801221A7570470368224A30B59342C2
:1049900011D0214A934211D0204A934211D0204A8B
:1049A000934211D01F4A934211D01F4A934230D1F3
:1049B0000E2319220DE0092314220AE00A231522EE
:1049C00007E00B23162204E00C23172201E00D233D
:1049D0001822DCB2154901209B08A0409B0008600A
:1049E0005B180320C021890004405D58E000FF24CB
:1049F0008440A5432C1CC0258540281C20435850CA
:104A00008023DB011A430A4B5A805A7852B2002A9B
:104A1000FBDB30BD00080042000C004200100042E9
:104A20000014004200180042001C004200E100E0B7
:104A3000000C0040F8B5041C151C0E1C1F1CFFF7D1
:104A4000A3FF201CFFF749FFB1001C220A406907A1
:104A50002368090C0A431A60226884239375012E87
:104A60001AD10821012D00D110210C4B794318686F
:104A7000C00000F0EFFA236807219A890140D204B0
:104A80004903D20C0A439A8123680004C20C988916
:104A9000400B400310439881F8BDC04680000020C1
:104AA00018224243F8B52D4D0824AA181457031CA8
:104AB000621C50D0481C00240C284CD800F0C0FACE
:104AC000071E1E1E1E1E1E1E1E0A0A0A0A000124A2
:104AD000644240E0092902D1181C002103E00A29A0
:104AE00004D1181C0221FFF7F5FD23E000240B2957
:104AF00031D1181C0121FFF7EDFD2CE018225343A2
:104B0000EA185268EB560120141C04405508DB01DA
:104B1000002C11D0124C1B195D1930352E780C0168
:104B20000F21314021439A18C9B2297040321378BD
:104B30001843107000240EE0094E0F279B195D19D1
:104B400030352E789A18BE433143C9B229704032AD
:104B5000137818431070201CF8BDC046309E00002A
:104B60000044004100B5144A517E131CC9090129B3
:104B7000F9D00138042813D81969104A0A401A617B
:104B80005A780F218A4300F05BFA030509070300F6
:104B9000012102E0032100E002210A435A700AE0E9
:104BA0001169F0231B050B43136153780F218B43CD
:104BB00002210B43537000BD00400042FFFFFFF095
:104BC00070B544680E1C0025002C09D02368201CF9
:104BD0005B68311C9847002804DB2D18E468F3E774
:104BE000281C01E00120404270BD38B544680D1C0E
:104BF000002C08D02368201C9B68291C984700289B
:104C000002D1E468F4E7201C38BD38B544680D1CB7
:104C1000002C07D02368201C291CDB689847E46817
:104C20002D18F5E72C7038BD38B544680D1C002CE4
:104C300008D02368201C1B68291C9847002803D132
:104C4000E468F4E7201C00E0012038BD064B012297
:104C5000196810B51140054805D1022404700424D8
:104C6000447041601A6010BD9C0A0020940A002024
:104C70000B1C011C021C30B519430220002900D175
:104C800030BD802109068B4216D00D4904205C18E6
:104C90000C498C42F4D90C4D5C198C42F0D90B4C68
:104CA000590049080320A142EAD9074C0020A1423B
:104CB000E6D150425041E3E7002AE1D0EFE7C04699
:104CC0000000F0FFFFFFDF7F0000F07FFFFF0F001D
:104CD000F0B5474680B48CB0141C1D1C061C0F1C7C
:104CE00000F05EF82C4A0023D356904600900191C4
:104CF000013305D0201C291CFFF7BAFF002805D17D
:104D0000009801990CB004BC9046F0BD301C391CD1
:104D1000FFF7AEFF0028F3D0201C291C1D4B1C4AB6
:104D200000F058FA0028EBD0012302931B4B0694A5
:104D30000795039300230A9343461C78049605972E
:104D4000002C15D013491248021C0B1C01F064FB07
:104D500008900991022C0DD102F0F0FF212303608D
:104D60000A9C002C0CD1089B099C00930194C7E776
:104D70000896099702A800F061F90028F0D1EBE746
:104D800002F0DCFF0A9A0260EDE7C046C046C0466A
:104D9000000000000000000084000020E8A10000E6
:104DA000F0B556464D4644465F46F0B485B0029095
:104DB0000391029C5E0076080194B446141C1D1CED
:104DC0000092164330D0039F039EFF0FFF07B946A2
:104DD0007740B8468E4FB84526DC56421643F60F4C
:104DE00067463E43B3468B4EB3451DD8E04506DCCF
:104DF00020DB019A009B9A421CD300D1B4E0864B81
:104E000098451EDC4646002E00D0BEE00198029B6D
:104E1000824A002819DD009F061C013A5B00002B26
:104E2000FBDC0196009710E001F060FF021C0B1CF8
:104E300001F0F2FA05B03CBC90469946A246AB465A
:104E4000F0BD4346764E1A159219734B9C4511DC02
:104E50006746002F00D08FE00098231C6F49002880
:104E60000CDD019E071C01395B00002BFBDC019669
:104E7000009703E063466A4E19158919694B9A42F7
:104E800064DB47463B0380201B0B40031843654B04
:104E900099424CDB2B0380251B0B6D031D43019EA8
:104EA000009F521A002A15D0BE42A441431B6442FF
:104EB0001B1B09D4F61B181C304355D0F00F5B00A8
:104EC00018187600013AEDE7F40F4000001976005B
:104ED000013AE7E7BE429B41451B5B4201960097C2
:104EE000ED1A00D580E0F61B0196019B2B4373D091
:104EF000494A954208DC019EF30F6D00ED187600DB
:104F000001399542F8DD0196464B994259DA5B1A10
:104F1000142B6BDC444C019E2F1C0919DE408F4082
:104F20001D413E432B1C49461943301C82E75B1A46
:104F30001F2B3EDC3C4E67468D19261CEE40351C6F
:104F4000261C9F409E403D430096A8E79E1A1F2EB8
:104F500027DC354F4046D319029FB040DF40029B0B
:104F60003843B340019392E74C46E30F2F4ADB00EE
:104F7000D318186859685DE7FB022A49019E009F13
:104F800001395B00002BFBDC71E7F302254A002BA3
:104F900000DC5AE7019E009F013A5B00002BFBDC1E
:104FA0003FE72348029E801A86400023301C01936D
:104FB0006DE71F4D271C6D1AAF4000233D1C009369
:104FC0006DE71C4F1C4A4846ED1905438B181B051D
:104FD000291C194301982DE74E46F30F134ADB00B5
:104FE000D3181868596825E7051C7EE71F2B08DCD5
:104FF0000D4A01988E18B540D8402E1C06434B46EA
:1050000091E70B4E4B46711A2E1C0E418BE7C046A2
:10501000FFFFEF7F0000F07FFFFF0F00EDFBFFFFC2
:1050200001FCFFFF02FCFFFF1E040000F0A10000D6
:10503000E2FBFFFF0000F0FFFF03000000207047CD
:1050400002B4714649084900095C49008E4402BC1B
:105050007047C046002934D00123002210B4884292
:105060002CD301242407A14204D2814202D2090197
:105070001B01F8E7E400A14204D2814202D24900B8
:105080005B00F8E7884201D3401A1A434C08A0425B
:1050900002D3001B5C0822438C08A04202D3001BF1
:1050A0009C082243CC08A04202D3001BDC08224308
:1050B000002803D01B0901D00909E3E7101C10BC2C
:1050C0007047002801D00020C04307B4024802A165
:1050D0004018029003BDC046D90000000029F0D05E
:1050E00003B5FFF7B9FF0EBC4243891A1847C04603
:1050F000002941D010B4041C4C40A44601230022D6
:10510000002900D54942002800D5404288422CD3CE
:1051100001242407A14204D2814202D209011B01C9
:10512000F8E7E400A14204D2814202D249005B00C8
:10513000F8E7884201D3401A1A434C08A04202D330
:10514000001B5C0822438C08A04202D3001B9C0871
:105150002243CC08A04202D3001BDC0822430028D3
:1051600003D01B0901D00909E3E7101C6446002C99
:1051700000D5404210BC7047002806D003DB002059
:10518000C043400801E08020000607B4024802A1A5
:105190004018029003BDC046190000000029EBD062
:1051A00003B5FFF7A7FF0EBC4243891A1847C04654
:1051B0007047C0468446101C62468C46191C6346E4
:1051C00000E0C0461FB501F013FD002801D4002106
:1051D000C8421FBD10B501F043FC4042013010BD74
:1051E00010B501F005FD002801DB002010BD0120F5
:1051F00010BDC04610B501F0FBFC002801DD002009
:1052000010BD012010BDC04610B501F073FC002890
:1052100001DC002010BD012010BDC04610B501F01A
:1052200069FC002801DA002010BD012010BDC04635
:105230009E2110B5C905041C02F088FC002803D18A
:10524000201C00F051FD10BD9E21C905201C00F05E
:10525000DBFB00F049FD80231B06C018F3E7C046C6
:1052600038B50E4B0C4A041C0D1CFFF7D7FF002865
:1052700004D1201C291C02F0F3FA38BD074B064A62
:10528000201C291C01F0C2FF02F0EAFA80231B0651
:10529000C018F2E7C046C046000000000000E04130
:1052A000F8B543024400C50F4E024800240E2A1CE4
:1052B0009B09000EC90FB6098D4256D0221A002A4A
:1052C00000DC83E000281AD1002E00D06FE05807E0
:1052D00004D00F221A40042A00D00433590137D5D4
:1052E0000134FF2C00D17DE09B015B0AE0B22A1C57
:1052F0005B02C405580AD20720431043F8BDFF2CB7
:10530000E5D08021C9040E431B2A00DD27E1311CB2
:105310002020D140821A9640721E96410E439B1B5C
:105320005801D4D59B019F09381C02F019FC421F7B
:10533000974094425ADC141B1F231B1B3A1C9F40AE
:10534000611C3B1CCA405F1EBB4113430024BEE7E7
:10535000DB08E0B22A1CFF2C04D1002B79D080217D
:10536000C9030B435B025B0AC2E7211A002941DD36
:10537000002822D0FF2CAAD08020C00406431B297D
:1053800000DDEAE0301C2027C840791A8E40711EEB
:105390008E4106439B19590199D50134FF2C57D0F2
:1053A000704901221A400B405B0813438FE7013A12
:1053B000002AB4D0FF2CA7D189E7002E00D186E7C0
:1053C00001390029E6D0FF2CD9D180E7002A1DD170
:1053D000621CD2B2012A4DDD9F1B7A0125D5F71A36
:1053E0000D1CA1E72A1CFF20002381E75D4BA41AB6
:1053F0003B406CE7002946D1611CC8B201282ADD78
:10540000FF2925D0F3185B080C1C60E7002C13D093
:10541000FF2818D08024E404524223431B2A4DDD88
:105420000123F31A041C0D1C7AE7002F00D07BE740
:1054300000220020002395E7002B3BD0D243002A16
:10544000EFD0FF28EAD1331CFF240D1C3FE70022D8
:10545000FF2000234CE7002C5AD1002B77D0002EE0
:1054600000D134E79B19580100D430E73D4A0124AC
:1054700013402CE7002C15D1002B2FD1002ED7D0B4
:10548000331C0D1C23E7002C21D1002B53D0C94322
:10549000002904D0FF284BD01B294FDD01239B1985
:1054A000041C78E7002B22D1002ED0D0331C0D1C19
:1054B000FF240CE7331C041C0D1C08E71C1C2025D2
:1054C000D440AA1A93405A1E93412343A9E7FF28C8
:1054D0002ED08024E40449422343DDE7002E00D18E
:1054E000F5E69A1B500134D5F31A0D1CEFE6FF24A4
:1054F000002E00D1EBE68022DB08D203134204D059
:10550000F608164201D1331C0D1CDB00FF24DEE639
:10551000002B0DD0FF24002E00D1D8E68022DB081E
:10552000D2031342F1D0F6081642EED1331CECE759
:10553000331CFF24CBE6331C041CC8E61C1C2027AC
:10554000CC40791A8B40591E8B412343A7E7331C6B
:10555000BDE6131E00D0BAE66AE701261AE7012667
:10556000DDE6C046FFFFFFFBF0B55F4656464D4601
:105570004446F0B446024500C00F85B00F1C760AC1
:105580002D0E804641D0FF2D26D0802424040021FA
:105590002643F6007F3D89468B46F90F7C02780052
:1055A000640A000E00918A463CD0FF2834D0802344
:1055B0001B041C430023E4007F380193009F4346F3
:1055C000019A7B4049469C4611430F2900D971E05E
:1055D000764F89007F58BF46002E3ED10822022315
:1055E00091469B46D9E75A46341CC246019201991E
:1055F000022937D0032900D1CFE0012900D0ABE048
:1056000053460B400022002632E0002E19D104211F
:10561000012289469346C0E7221C531E9A4102325A
:105620000192CBE701270197002CC7D0201C02F084
:1056300097FA431F9C4076235B420021181A019180
:10564000BCE7301C02F08CFA7625431F9E406D4269
:1056500000232D1A99469B469FE70C230321994668
:105660008B469AE7D446012367463B40FF2200263B
:105670007602D205700ADB071043184305B03CBC24
:1056800090469946A246AB46F0BD80260023F6031D
:10569000FF22EDE700220026EAE78020C003064251
:1056A0003BD0044239D1061C26437602760A009B81
:1056B000FF22DDE7281A039076016401A64239D360
:1056C000361B1A2201230120311C5B0076000029C1
:1056D00001DBB44201D8361B0343013A002AF3DC54
:1056E000741EA641341C1C43039A7F32002A27DD16
:1056F000630704D00F232340042B00D00434270178
:1057000003D52B4B039A1C408032FE2A0BDD01236C
:1057100061460B40FF220026AAE706437602760A7E
:105720004346FF22A4E7A40101236746660AD2B2DA
:105730003B409DE7039F1B22013F03970023C2E7E5
:105740007E23039F5B42DB1B1B2B07DD012361468E
:105750000B40002200268BE7D446C5E7221CDA4026
:10576000039B9E339C40231C5C1EA34113435A079A
:1057700004D00F221A40042A00D004335F0105D55B
:10578000012361460B400122002671E79E0162461B
:1057900001231340760A00226AE78026F603264397
:1057A0007602760A5346FF2262E7C04600A2000056
:1057B000FFFFFFF7F0B55F4656464D464446F0B44E
:1057C0004402460083B00F1C640A360EC50F002E3B
:1057D00041D0FF2E22D080231B0400201C43E40074
:1057E0007F3E82468046391C4B007F02C90F7F0AEC
:1057F0001B0E8B463BD0FF2B34D080221204174364
:10580000FF007F3B00215A466A40019252460A43FC
:105810000F2A63D87A48920082589746002C3FD1CD
:105820000822022392469846DDE701954046022869
:105830002AD1019A01251540FF2300246402DB05CB
:10584000600AED071843284303B03CBC90469946D4
:10585000A246AB46F0BD002C27D10420012282468F
:105860009046C0E7391C4A1E91410231CBE7012125
:10587000002FC8D0381C02F073F9431F9F407623D5
:105880005B421B1A0021BEE7032800D1AEE00128CD
:105890004FD1019842461040C5B200230024CDE705
:1058A0000C2303209A4680469DE7201C02F058F9FD
:1058B0007626431F9C4076420023361A9A46984625
:1058C00091E780240025E403FF23B7E75B463C1CF7
:1058D00001938846AAE73C1C8846A7E7250C2404C8
:1058E0003A0C240C3F04F6183F0C211C231C79436E
:1058F00053436F435543FB180A0C9B18B1469F4214
:1059000002D980225202AD1809041A04090C521857
:1059100094011B0C611E8C41920EED181443AD01D5
:105920002C43230105D50122630801201440814442
:105930001C434B467F33002B2DDD600704D00F2224
:105940002240042A00D00434220103D52D4B1C40F0
:105950004B468033FE2B17DD019B01251D400024A3
:10596000FF236BE78020C003044208D0074206D122
:10597000041C3C436402640A5D46FF235EE7044363
:105980006402640AFF2359E70198A4010125640A0F
:10599000DBB2054052E77E235B424A469B1A1B2B33
:1059A00005DD019B01251D400024002346E7221C44
:1059B000DA404B469E339C40231C5C1EA34113439C
:1059C000580704D00F221A40042A00D004335A0189
:1059D00005D5019B01251D40002401232EE70198D8
:1059E0009C010125640A0540002327E78027FF0367
:1059F000019B3C43640201251D40640AFF231DE70F
:105A000040A20000FFFFFFF7F8B5C20F43024400B9
:105A10004D024800240E161C9B09000EC90FAD094B
:105A2000FF2800D17EE0012779408A4258D0221A0F
:105A3000002A00DC89E000281BD1002D00D075E091
:105A4000580704D00F221A40042A00D00433590109
:105A500038D50134FF2C00D183E09B0101225B0A81
:105A6000E0B232405B02C405580AD207204310431B
:105A7000F8BDFF2CE4D08021C9040D431B2A00DDB2
:105A80002DE1291C2020D140821A95406A1E9541A3
:105A90000D435B1B5801D3D59B019F09381C02F0B5
:105AA0005FF8421F9740944260DC141B1F231B1BAE
:105AB0003A1C9F40611C3B1CCA405F1EBB41134304
:105AC0000024BDE70122DB08E0B23240FF2C04D104
:105AD000002B7ED08021C9030B435B025B0AC1E728
:105AE000211A002946DD002826D0FF2CA8D08020CE
:105AF000C00405431B2900DDEFE0281C2027C84017
:105B0000791A8D40691E8D4105435B19590197D55E
:105B10000134FF2C5CD0734901221A400B405B0812
:105B200013438DE7002D00D07FE77CE7013A002A80
:105B3000AFD0FF2CA2D183E7002D00D180E701393F
:105B40000029E2D0FF2CD5D17AE7002A1ED1621CB1
:105B5000D2B2012A4EDD5F1B7A0126D5EF1A0E1C48
:105B60009CE701223240FF2000237BE75D4BA41A13
:105B70003B4065E7002946D1611CC8B201282ADDF7
:105B8000FF2925D0EB185B080C1C59E7002C13D01B
:105B9000FF2818D08024E404524223431B2A4DDD01
:105BA0000123EB1A041C0E1C74E7002F00D075E7CC
:105BB00000220020002390E7002B3BD0D243002A94
:105BC000EFD0FF28EAD12B1CFF240E1C38E700225F
:105BD000FF20002346E7002C5AD1002B77D0002D60
:105BE00000D12DE75B19580100D429E73D4A012473
:105BF000134025E7002C15D1002B2FD1002DD7D035
:105C00002B1C0E1C1CE7002C21D1002B53D0C943A8
:105C1000002904D0FF284BD01B294FDD01235B193D
:105C2000041C73E7002B22D1002DD0D02B1C0E1C9E
:105C3000FF2405E72B1C041C0E1C01E71C1C20265E
:105C4000D440B21A93405A1E93412343A9E7FF2838
:105C50002ED08024E40449422343DDE7002D00D107
:105C6000EEE65A1B500134D5EB1A0E1CE8E6FF2471
:105C7000002D00D1E4E68022DB08D203134204D0D9
:105C8000ED08154201D12B1C0E1CDB00FF24D7E6CA
:105C9000002B0DD0FF24002D00D1D1E68022DB089F
:105CA000D2031342F1D0ED081542EED12B1CECE7E4
:105CB0002B1CFF24C4E62B1C041CC1E61C1C202743
:105CC000CC40791A8B40591E8B412343A7E72B1CEC
:105CD000B6E6131E00D0B3E66AE7012515E70125F5
:105CE000D7E6C046FFFFFFFB4302590A4300C20F3D
:105CF0001B0E00207E2B0DDD9D2B0CDC8020000474
:105D00000143952B0ADC9620C31AD9404842002A49
:105D100000D1081C7047034BD018FBE7963B994015
:105D2000F4E7C046FFFFFF7F70B5041E3CD0C60FEE
:105D300000D04442201C01F013FF9E23251C1B1A97
:105D4000962B0CDC083884406402640ADBB2321CF7
:105D50006402DB05600AD2071843104370BD992B1B
:105D60000ADD0522121A211CD1400A1C011C1B311C
:105D70008D40691E8D411543052801DD421F954068
:105D8000164C2C406A0704D00F221540042D00D079
:105D9000043461010CD59F23181AFF281AD0A401DE
:105DA000640AC3B2321CD3E7002200230024CFE7E9
:105DB000E408FF2B04D06402640ADBB2321CC7E79C
:105DC000002C04D08020C00304436402640A321C07
:105DD000FF23BDE7321CFF230024B9E7FFFFFFFBD1
:105DE000F8B55F46564644464D46F0B40C034D00A8
:105DF000CE0F610A440F2143C400180380465800A7
:105E0000400D8246D80F84464046400A530F034354
:105E1000D0006D0D371C83465246664500D19DE08B
:105E2000AF1A002F00DC03E1002A38D1184300D05C
:105E3000E4E0630709D00F232340042B05D0231D82
:105E4000A342A441644209191C1C080200D478E052
:105E5000CE4B6A1C9A4200D105E1CD4BE4081940B3
:105E600048075205490204430B0B520D371C002012
:105E700000211B03201C1C0B0B0D1B05C54D2343D0
:105E8000520552081D4015436D006D08FF07291C7F
:105E900039433CBC90469946A246AB46F8BDBB4848
:105EA0008542C6D0802000040343382F00DDECE09B
:105EB0001F2F00DD20E12020C01B1A1C81468240DC
:105EC0005846F8400243944658464A469040421E7F
:105ED0009041FB40624602431F1CA21A9442A44117
:105EE0006442C91B091B141C0B02A2D549024F0AAC
:105EF000002F00D1C4E0381C01F032FE021C083A29
:105F00001F2A00DDB7E02821091A201C9740C8404D
:105F100007439440954200DDA9E0551B691C1F29E9
:105F200000DDD8E01F22551B3B1C221CAB40CA40A1
:105F3000AC40651EAC411343CF401C43391C0025C7
:105F400077E74807E4086A05C908520D371C04437F
:105F50008E4B9D4248D009030B0B88E7AA1A944642
:105F6000002A00DC98E05046002853D0874885423C
:105F700000D15EE78020000403436246382A00DD3A
:105F8000FDE01F2A00DD4BE120226046101A1A1C9A
:105F900082408246914658466246D0404A46024375
:105FA0009046584652469040421E90414246024317
:105FB0006046C3401219A242A4416442591809190B
:105FC000141C080200D434E7704B01359D4200D107
:105FD00024E16F4B60081940012323401C1C04433B
:105FE000CB071C43490824E70B1C234300D1C7E11E
:105FF00080231B030B431B031B0B38E7013F002FC0
:1060000064D15846221A9442A4416442C91A091B19
:10601000141C69E75846184300D10AE7012252428E
:1060200094446046002800D0C5E058460219C2E7F3
:10603000002F72D1681C4005400D012800DCDEE015
:106040005A46A21A9442BF41C81A7F42C71B38025F
:1060500000D488E05A46141BA3459241591A524273
:106060008F1A664644E7371C00230024FFE64849A0
:10607000AD1A3940DDE6271C28388740002449E75F
:10608000201C01F06DFD203038E75A461A43531E9C
:106090009A41D2B2002720E7002A00D0DDE0681C38
:1060A0004205520D012A00DC8EE0384DA84200D195
:1060B000B3E05D462A19A242A44164425918091965
:1060C000CC07520814434908051CB2E62F48854204
:1060D00000D0EAE6ADE62B1C1F3B3A1CDA40131C4D
:1060E00020296DD03F22551BAF403C43601E8441A8
:1060F0001C43002100259CE6381C20381A1CC24095
:10610000101C202F5ED04022D71BBB405A461A439A
:10611000531E9A4102430027DFE6002D3CD01B4D61
:10612000AA4500D194E080252D047F422943382FD1
:1061300000DDADE01F2F00DD2CE12025ED1B081C4C
:10614000261CA840FE40AC400643651EAC413443CB
:10615000F9405D462C1BA34592415B1A5242991AA5
:1061600055466646C0E6131C3B43141C002B00D06A
:10617000BEE600270022002500210024E8E65A465A
:106180001A43531E9A41D2B2002313E7FF070000BF
:10619000FFFF7FFFFFFF0F800D1C254358D0FF43FB
:1061A000002F51D1041BA3459241591A5242891A1A
:1061B0005546664698E69648854200D0DDE638E6C4
:1061C000002792E70023A1E7081C2043002D00D000
:1061D000C0E0002800D1FBE05846184300D128E673
:1061E00058460219A242A441644259180919141CC4
:1061F0000A0200D41DE6874B0125194019E6081C48
:106200002043002D39D100286DD15946194300D1C2
:10621000BDE0191C5C4666460BE6051C2A1CABE774
:10622000604620381A1CC24060469146202800D1A2
:10623000ABE04022121A93405A461A43531E9A4129
:106240004B461A430023B5E6714DAA4500D06EE7D0
:10625000191C5C4655466646EBE5002D1ED10D1C0B
:10626000254373D0D543002D6DD15C445C459241EC
:106270005918524289185546A3E6002849D1594673
:10628000194300D196E0191C5C466646604DD0E586
:106290000C43611E8C41E4B200215AE75C4DAA45D3
:1062A00054D05542802210040143382D00DD85E092
:1062B0001F2D00DD95E02022501B0A1C84468240E1
:1062C000201CE8400243904662469440601E844190
:1062D00042461443E9405C445C459241CB1852422B
:1062E000991855466DE65846184300D1A1E5584621
:1062F000271ABC429241C81A5242801A02026AD539
:106300005846041BA3459241591A5242891A6646BF
:106310008FE55846184336D04807E40804438020E8
:10632000C9080003014208D0DD08054205D15946DD
:10633000CA085C071443291C6646630FC900194349
:10634000E400334D75E5324A9245AED1191C5C46E6
:1063500055466EE5002837D05846184313D080259F
:106360004807E408C9082D0304432942E5D0D808AA
:106370002842E2D15D46EA085C071443011CDCE7D1
:106380000023002473E5224D53E5002354E7002742
:106390000022F1E63D1C203D0A1CEA40151C202F7E
:1063A00031D04026F71BB9400C43611E8C412C4371
:1063B0000021CEE6164A0027151CDDE60C43611EBF
:1063C0008C41E4B2002186E7191C5C46104D30E593
:1063D000191C5C462DE5031C3B43D8D0011C3C1C1A
:1063E00027E52020404240190A1CC2409046202D3B
:1063F0000BD04020451BA9400C43611E8C414546F3
:106400002C43002167E70021CEE70021F4E7C046D6
:10641000FF070000FFFF7FFFF0B5564644465F468A
:106420004D46F0B41F1C0B031B0B98464B0087B066
:10643000041C81465B0DC80F161C9A460090002B69
:1064400051D06A4B9A4531D08022414652030A43CB
:10645000630FD2001A43664B90460025E200914636
:106460009A44002402953B031B0B9B46FD0F7B00C7
:10647000311C5B0D019560D05C4A934254D0802161
:10648000584649030143720FC9001143584A8B46CD
:106490009B18F1000020009A04436A4003920F2CDD
:1064A00000D9ADE0534EA4003459A74640460443FA
:1064B0006ED1002102250824884689460295D2E73C
:1064C000009C0298C34649460194022864D00328E0
:1064D00000D1ABE2012800D038E2019A002402404A
:1064E0000025A14660E0434623434AD040460028A9
:1064F00000D1C0E101F034FB031E272B00DDB3E126
:1065000028210D1A211C083B4246E9409A400D1CE7
:106510001543221C9A40A8469146374B00251B1A6A
:106520009A46002402959EE75A4616430320002E01
:10653000B1D1B34600210220ADE75A4632431BD009
:106540005B46002B00D18AE1584601F009FB272861
:1065500000DD7DE12822171A011C321C08395B4638
:10656000FA408B40171C1F43331C8B40BB46191C41
:10657000214B1B1A00208EE70027BB46002101207B
:1065800089E70020012504248046814602956AE7B8
:1065900003250C24029566E7019C0394039D0122C8
:1065A0002A400024114DA146002000212403260B7F
:1065B0000C0D2405114B34432D0523402B435B0068
:1065C0005B08D207191C4846114307B03CBC9046F3
:1065D0009946A246AB46F0BD002280242403914692
:1065E000024DE1E700240025A146DDE7FF0700009A
:1065F00001FCFFFF80A200000DFCFFFFFFFF0F80EA
:106600005546ED1A0495D84500D953E100D14EE125
:10661000049C0025013C4E4604944746A946584632
:1066200003020C0E1C430902250C23041B0C0091D1
:10663000381C291C0193FEF70DFD01998346414347
:10664000381C8A46291CFEF749FD330C09041943FE
:106650008A450CD95B460919013B8C4200D947E1B8
:106660008A4500D844E10222524293440919534614
:10667000CB1A181C291C9846FEF7ECFC071C019845
:10668000291C784382464046FEF728FD36040B0459
:10669000360C33439A4509D91B197A1E9C4200D9FE
:1066A00024E19A4500D821E1023F1B195E463204DD
:1066B0001743380CBB46009E009F51463F0C3204E6
:1066C0005B1A5946BA46120C0F043F0C90465146CD
:1066D0007A434F434146414356467043CF19160C07
:1066E000BE19B14202D980277F02C019310C1204B1
:1066F0003604120C4018B618834200D2C4E000D110
:10670000BEE0191A4846861BB145BF417F42CF1BE8
:10671000A74200D113E1291C381CFEF79BFC01990C
:1067200002904143381C8946291CFEF7D7FC330CE4
:106730000904194389450CD9029B0919013B8C4274
:1067400000D9FFE0894500D8FCE0029F0919023F0B
:1067500002974F46CF1B381C291C0597FEF77AFC81
:10676000071C0198291C784381460598FEF7B6FC62
:1067700036040904360C0E43B14509D936197B1E7F
:10678000B44200D9E0E0B14500D8DDE0023F36195F
:10679000029D4946761A290439430B0457460A0CD0
:1067A0001B0C40464546584355437B437A43EB1800
:1067B000070CDB199D4202D980256D0252191D0C70
:1067C00000041B04000C52191B18964235D300D14B
:1067D000FCE001231943049E994FF519002D00DCBC
:1067E000A1E0480709D00F230B40042B05D00B1D57
:1067F0008B42894149428B44191C5A46D20107D524
:10680000904B5C46049E80271C40FF00A346F51970
:106810008D4B9D427ADD039C0122224000248B4D4A
:10682000A146C1E680242403474627424CD13C437D
:106830002403240B009A854DB6E63619481EB4424F
:106840005ED9011C9642C4D1009E9E42C1D1C2E7CE
:10685000031C283B311C99408B46002188E6301CE4
:1068600001F07EF9203072E6283B211C994000227D
:106870008846914651E6201C01F072F920303BE633
:106880000021B14500D33DE7009F5A46B944B945C0
:10689000BF417F423F19FB18013A9C421ED29842E9
:1068A00000D97EE000D1B5E0191A93462AE7894560
:1068B00000D8ADE64846464642467708D307460824
:1068C000C0071E438146AAE65846204212D104431F
:1068D00024032A1C240B89465C4D65E6A342E3D1C0
:1068E000009F4F45DBD9211A93460BE7171CDDE6C5
:1068F0009B46BCE63C432403240B009A534D53E6CD
:10690000B24259D800D18AE0011C62E75F46C9084B
:106910007B07039E0B437C026D0501229946240BE5
:106920006D0D324040E64A4B049FDB1B382B10DDD7
:10693000039C0122224000240025A14634E60121C7
:10694000494248E7029304E71F1C21E7019C039496
:1069500041E71F2B40DC3F48049F0C1C3A18584667
:106960009140DC40904020430A1C511E8A41011C8A
:1069700011435A46DA40131C480709D00F220A4037
:10698000042A05D00A1D8A42894149425B18111C1C
:106990001A0234D5039C0122224000240125A1467D
:1069A00002E6009F02214942B9448B44B94589411E
:1069B00049420919CB18A4E6009D881E6900A94226
:1069C000AD416D422C19361900913AE7002B00D0E9
:1069D00033E70024009437E71F4A049C5D46121BEE
:1069E000D5402A1C202B1FD01C4E5F46A3199F4068
:1069F0003B1C19434B1E994111430023BCE75A0726
:106A0000C9080A43039F91465B0201221C0B3A40CE
:106A10000025C9E54E45C4D89346002172E6009F83
:106A20009F42C9D3011C0FE70023E2E7802424031F
:106A30005F463C432403240B019A8946034DB3E58A
:106A4000FF030000FFFFFFFEFE070000FF0700003E
:106A500002FCFFFF1E040000E2FBFFFF3E040000FB
:106A6000F0B55F4656464D464446F0B40D1C041C36
:106A70008046E80F814618030F03000B3F0B83B0DD
:106A800084461B48009749005E00DF0F490D92467F
:106A9000760DBB4681420CD01548864210D00120AD
:106AA000B14215D003B03CBC90469946A246AB46D5
:106AB000F0BD009F01202743F4D10D488642EED15E
:106AC000604602430120002AECD10120B142E9D105
:106AD000009B6345E6D1D045E4D1D94506D00029D5
:106AE000E0D11C43201C441EA041DBE70020D9E775
:106AF000FF070000F0B55F4656464D464446F0B4E9
:106B0000CD0FDE0FAC461D032D0BB146374E0F03E4
:106B10004C00AB465D0080463F0B640D92466D0D08
:106B2000B44232D0314EB54235D0002C0ED138436C
:106B300041424141081C002D0BD0002919D1CC4500
:106B40002DD0654668420123184318E0002DF6D188
:106B5000281C59460A4353425341002806D1002BB2
:106B6000EDD0634658420123184308E00020002B73
:106B700005D14A46504250414042012318433CBC93
:106B800090469946A246AB46F0BD3E1C0643C9D08E
:106B900002204042F3E75E461643C6D0F8E7AC4217
:106BA00007DC0BDA61464842484140420123184362
:106BB000E5E76646704201231843E0E75F450AD8DF
:106BC0000ED000205F45DAD26546684268414042F7
:106BD00001231843D3E76246504201231843CEE70E
:106BE000D045F8D80020D045EED3C8E7FF07000015
:106BF000F0B556464D4644465F46F0B40D1C83B092
:106C0000041C0190E80F814618030F03000B3F0B93
:106C100084463548009749005E00DF0F490D9246D3
:106C2000760DB846814234D02F48864236D00029AE
:106C300018D0002E1FD1341C67463A4353425341AB
:106C4000002C1FD00020002B05D14246504250415D
:106C500040420123184303B03CBC90469946A246EB
:106C6000AB46F0BD0098044360426041041C002E16
:106C7000E2D00028E9D1C14515D04F467842012322
:106C80001843E8E7002BF6D04B465842012318433F
:106C9000E1E7009F02202743DDD1C5E767460220D8
:106CA0001743D8D1C3E7B14204DD4A46504201231D
:106CB0001843D0E7B14207DB00986045E4D80AD01A
:106CC000009F00206745C6D24F4678427841404237
:106CD00001231843BFE7019A5245D5D8019A0020F5
:106CE0005245F1D3B7E7C046FF070000F0B556465E
:106CF00044465F464D46F0B41F1C0B031B0B9A46DF
:106D00004B0087B0041C80465B0DC80F161C029315
:106D10008146002B68D0694B0299994232D080227B
:106D2000534652031A43D200630F1A439246644AF1
:106D3000E000891880460291002400253B031B0BCC
:106D40009B467800FB0F321C400D039300D175E089
:106D50005A4B984269D08022594652030A43730F16
:106D6000D2001A43564B9346C018F20000230399F1
:106D70004E4671401C430F2C00D9A9E0514EA4008F
:106D80003459A74653461C4300D087E00025AA4645
:106D9000A84608240225D1E74946022D6CD0032DD0
:106DA00000D117E2012D00D058E10D40EDB20024D2
:106DB000A9460023A0460020002125030A0D1C053A
:106DC0002D0B1205404B2A43134023435B004C46D6
:106DD0005B08E207191C4046114307B03CBC9046D3
:106DE0009946A246AB46F0BD5346234350D0534686
:106DF000002B00D184E1504600F0B2FE031E272B89
:106E000000DD76E128210D1A211C083B5246E9409D
:106E10009A400D1C1543221C9A40AA4690462B4BC3
:106E200000241B1A0293002588E75B461E430323B8
:106E3000002E9CD1B3460022022398E75B463343E1
:106E400021D05846002800D14EE100F089FE2728C5
:106E500000DD42E128210F1A021C311C083A5B4672
:106E6000F94093400F1C1F43331C9340BB461A1C30
:106E7000164B181A00237AE701230B400024994689
:106E8000A0460E4B97E70027BB46002201236EE782
:106E9000002104248A46884601254FE70C24032557
:106EA0004CE700258024A9462403A846034B82E72B
:106EB000DA46904603991D1C6FE7C046FF070000A5
:106EC00001FCFFFFC0A20000FFFF0F800DFCFFFFD1
:106ED000029F160C381804904046070C0004000C62
:106EE0001204120C031C5343041C3D1C74435543F1
:106EF00098463B1C73436419A44644460293230CF2
:106F000063449D4204D9029D802464022D19029598
:106F10001D0C039545462C041B04240C1C190594D8
:106F20005C46230C051C58432404240C8446381C5E
:106F3000604365435F438146CC44280C6044BB46B4
:106F4000814502D980277F02BB442D04070C2D0CFC
:106F5000000440195546BC462F04E3448446280CDF
:106F60003D0C2F1C5743B8462F1C77434243B9466C
:106F700047463F0C9144BA46D14446434A4502D95C
:106F800080225202B6184F463A0CB6183A044746C9
:106F90003F043F0CB8462F1C67435D4344435843AE
:106FA00065190190380C2D184244B846AC4204D9FA
:106FB000019880235B02C0180190039C029F201C53
:106FC0006044C0196045A44147466442A4462B046E
:106FD0003C049946240C4C44A046D8448018C24630
:106FE000E24490429241574652429146F219E2459C
:106FF000BF417F424B46BC46D845BF41D4187F4273
:1070000063461F432D0C7F19B24292414C45AD415E
:1070100052426D421543019E7D19AB19E20D5B0290
:10702000059F134342023A439A46531E9A41C30DA9
:10703000101C18436402204380465046C0010DD501
:10704000454601225646049C6B082A401A43F30722
:1070500001341A43760804949046B246049E634F66
:10706000F319002B61DD404640070BD00F22444648
:107070002240042A06D04246043242458041404222
:10708000824490465546ED0107D5594B5646049F1C
:1070900080201E40C000B2463B18564A934200DD95
:1070A000EAE644465546E2086807104301226C02AE
:1070B0005B050A408046240B5B0D91467BE6DA4671
:1070C00090461D1C69E680242403574627421CD1A4
:1070D0003C432403240B484B6DE6031C283B311C26
:1070E00099408B460022C3E6301C00F039FD203069
:1070F000ADE6283B211C994000228A4690468EE648
:10710000201C00F02DFD203078E65846204207D1A3
:10711000044303992403240B89469046364B4AE6E0
:107120003C432403240B344B45E6344B049E9B1B09
:10713000382B06DD01230B4000249946A04600238E
:1071400039E61F2B25DC049C2D4D4646601952461E
:1071500044468640DC4082405746301C2243DF4094
:10716000441EA04102433B1C540709D00F2010408D
:10717000042805D0101D9042924152429B18021CD7
:107180001D021AD501230B4000249946A046012375
:1071900011E61C48049C5546001BC540281C202BAA
:1071A00016D0194E5746A21997403A1C43461A4327
:1071B000531E9A4102430023D6E758075B02D208C8
:1071C0001C0B01230B401043994680460023F2E537
:1071D0000022EBE780242403504601230443194096
:1071E0002403240B8946044BE5E5C046FF03000059
:1071F000FFFFFFFEFE070000FF07000002FCFFFF8D
:107200001E040000E2FBFFFF3E040000F8B55F46ED
:10721000564644464D46F0B40C034D00CF0F610A6C
:10722000440F2143C4001803DE0F8046B44646468F
:107230005800760A530F3343D600C94A6D0DBA463B
:10724000400DB346904200D1EBE062460126724009
:107250009446674500D1A1E02F1A002F00DC08E119
:1072600000283BD15846184300D0E8E0600709D019
:107270000F232340042B05D0231DA342A4416442C5
:1072800009191C1C0A0200D479E0B54B6A1C9A4209
:1072900000D109E1B34BE40819404807044349020F
:1072A0005205012750460B0B520D074000200021CC
:1072B0001B03201C1C0B0B0D1B05AB4D2343520560
:1072C00052081D4015436D006D08FF07291C394306
:1072D0003CBC90469946A246AB46F8BDA0488542C4
:1072E000C4D0802000040343382F00DDF0E01F2FBE
:1072F00000DD24E12020C01B1A1C5E468240FE40B7
:10730000324394465A468240101C421E9041FB4034
:10731000624602431F1CA21A9442A4416442C91B44
:10732000091B141C0A02A1D549024F0A002F00D1E3
:10733000C9E0381C00F014FC021C083A1F2A00DDCA
:10734000BCE02821231C091A9740CB401F439440DE
:10735000954200DDAEE0551B691C1F2900DDDDE014
:107360001F22551B3B1C221CAB40CA40AC40651E73
:10737000AC411343CF401C43391C002576E7480736
:10738000E4086A0501275646C908520D37400443F0
:10739000734B9D4249D009030B0B87E72A1A944689
:1073A000002A00DC9BE0002855D06D48854200D1C2
:1073B0005CE78020000403436046382800DD09E1D3
:1073C0001F2800DD50E162462020801A1E1C8640E6
:1073D000B1465E46D6404A4632435E4686409046B7
:1073E000301C421E9041424602436046C34012197F
:1073F000A242A441644259180919141C080200D47D
:1074000034E7574B01359D4200D142E1554B6008AE
:107410001940012323401C1C0443CB071C4349088B
:1074200024E71E4300D014E70FE70B1C234300D1D1
:10743000CFE180231B030B431B031B0B36E7013FEC
:10744000002F66D15E46A21B9442A4416442C91A31
:10745000091B141C66E75846184300D106E70126AD
:107460007642B4446046002800D0CAE05E46321935
:10747000BEE7002F7AD1681C4005400D012800DCD2
:10748000E3E05A46A21A9442BF41C81A7F42C71B82
:107490003E0200D492E05846041BA3459241591A7B
:1074A00052428F1AE24641E7534601271F4000240B
:1074B0000023FBE62B49AD1A3940D7E6271C2838B4
:1074C0008740002444E7201C00F04AFB203033E7CB
:1074D0005A461A43531E9A41D2B200271BE7002A8C
:1074E00000D0E1E0681C4605760D012E00DC91E03D
:1074F0001B4DA84200D1F7E05E463219A242A441DA
:10750000644259180919CC07520814434908051C4C
:10751000ACE61348854200D0E6E6A7E62B1C1F3BED
:107520003E1CDE40331C202970D03F22551BAF404B
:107530003C43601E84411C430021002596E6381C14
:1075400020381E1CC640301C202F61D04022D71B83
:10755000BB405A461A43531E9A4102430027DAE6BB
:10756000FF070000FFFF7FFFFFFF0F80002D38D0D7
:10757000B94DA84200D192E080252D047F422943D5
:10758000382F00DDAAE01F2F00DD2CE12025ED1BA8
:107590000E1CAE40B046261CFE404246AC40164390
:1075A000651EAC413443F9405A46141BA345924131
:1075B0005B1A5242991A051CE246B3E6131C3B4380
:1075C000141C002B00D0B1E600270022002500216A
:1075D0000024DDE65A461A43531E9A41D2B20023D4
:1075E00005E70D1C25435AD0FF43002F53D15A46BF
:1075F000141BA3459241591A5242891A051CE246AE
:1076000090E69548854200D0D6E62FE600278FE722
:1076100000239EE7081C2043002D00D0C3E0002873
:1076200000D1F6E05846184300D11FE6584602192B
:10763000A242A441644259180919141C0A0200D438
:1076400014E6864B0125194010E6081C2043002D46
:107650003AD1002800D089E05946194300D1BFE053
:10766000191C5C46E24601E6604620381A1CC240FE
:107670006646101C202E00D1B0E04022921B9340A1
:107680005A461A43531E9A4102430023AFE6724DF5
:1076900000272A1C9BE7704DA84200D070E7191CF8
:1076A0005C46051CE246E1E5002D20D10D1C25437A
:1076B00075D0D543002D6FD15C445C45924159187B
:1076C00052428918051C99E6002835D159461943BC
:1076D000DDD0191C5C46E2465F4DC7E50C43611ED8
:1076E0008C41E4B200215FE7051C021C6FE75A4D94
:1076F000A84254D05542802216043143382D00DD73
:1077000081E01F2D00DD91E02022561B0A1CB446AB
:10771000B240261CEE403243904662469440661EBC
:10772000B44142461443E9405C445C459241CB1865
:1077300052429918051C61E6584618434CD0480738
:10774000E40804438020C9080003014208D0DD0892
:10775000054205D15946CA085C071443291CE24674
:10776000630FC9001943E4003B4D7FE558461843B9
:1077700000D17BE55E46A71BBC429241C81A52422B
:10778000801A06024CD55846041BA3459241591A4B
:107790005242891AE24669E52F4A9042AED1191C3D
:1077A0005C46051C62E5002836D05846184313D0C5
:1077B00080254807E408C9082D0304432942CFD097
:1077C000D8082842CCD15D46EA085C071443011C66
:1077D000C6E70023002469E51F4D47E500234FE776
:1077E00000270022F3E63D1C203D0E1CEE40351C18
:1077F000202F2DD04026F71BB9400C43611E8C4131
:107800002C430021D0E60C43611E8C41E4B20021E0
:107810008AE7191C5C4629E5191C5C460E4D25E5D6
:10782000031C3B43DCD0011C3C1C1FE52026764298
:1078300076190A1CF2409046202D0BD04026751B6D
:10784000A9400C43611E8C4145462C4300216BE747
:107850000021D2E70021F4E7FF070000FFFF7FFFD0
:1078600070B50B1C124C09030E0B5900021C490D7C
:10787000DD0F0020A14211DD0E4881420FDC802087
:10788000400306430C48401A1F280BDD0B4A521ACE
:10789000D640321C5042002D00D1101C70BD084B48
:1078A000E818FBE7074BC240C9188E403243F1E7A6
:1078B000FE0300001D040000330400001304000058
:1078C000FFFFFF7FEDFBFFFF10B5041E28D000F087
:1078D00047F9154A121A0A2815DD0B38844024038B
:1078E0005205240B520D0023002000212403181CF4
:1078F0000B0D240B1B0523430C4C12051C40144399
:107900006400610810BD031C1533211C99400B1C39
:107910000B21081AC44024035205240B520DE3E73F
:10792000002200240023DFE71E040000FFFF0F8079
:1079300043001B0E5A1C4102D2B270B54C0AC50F4F
:10794000012A17DDE02292006407090B9818002233
:1079500000231E0D221C34050C431B494005400822
:107960002140014349004908ED070B1C2B43101C23
:10797000191C70BD002B15D1002C1CD0201C00F050
:10798000EFF80A281ADC0B21091A231CCB40191C1A
:10799000031C15339C400D4B0903181A4005090BB5
:1079A000400DD4E7002C03D06407090B0848CEE74C
:1079B00007480021CBE700200021C8E7011C0B3954
:1079C0008C40211C0024E6E7FFFF0F8089030000A4
:1079D000FF070000F0B54B000D03420F5B0D6D0A71
:1079E00015435A1C5205CC0FC600520D012A27DD43
:1079F000394FDA19FE2A1ADC002A35DD8001ED0044
:107A0000431E98412843760F3043430704D00F2389
:107A10000340042B00D004308021C904014027D04A
:107A20000132FF2A1DD083015B0AD1B201E0FF21A0
:107A300000235802C905400AE40708432043F0BD6B
:107A4000002B06D1354311D10021002043025B0AEF
:107A5000EFE72E43EBD08020ED0080042843FF2287
:107A6000D3E7FF210023E4E717320DDA05200022D7
:107A7000C008D1B2FF2AE9D10028D9D08023DB0386
:107A800003435B025B0AD4E78022144912041543C6
:107A9000C91A1F290DDC124A371C9B18281C9F404D
:107AA00098403B1C5A1E93411843CE40304300225D
:107AB000ABE70C4F2A1CFF1AFA40171C202909D0EB
:107AC000094A98188540281C3043461EB041384367
:107AD00000229AE70020F7E780FCFFFF9E030000EA
