:100000000C945D000C9485000C9485000C94850084
:100010000C9485000C9485000C9485000C9485004C
:100020000C9485000C9485000C9485000C9485003C
:100030000C9485000C9485000C9485000C9485002C
:100040000C9446020C9485000C9485000C94850059
:100050000C9485000C9485000C9485000C9485000C
:100060000C9485000C9485000000000024002700FB
:100070002A0000000000250028002B0004040404CE
:100080000404040402020202020203030303030342
:10009000010204081020408001020408102001021F
:1000A00004081020000000080002010000030407FB
:1000B0000000000000000000020411241FBECFEF6A
:1000C000D8E0DEBFCDBF21E0A6E0B1E001C01D92C7
:1000D000A531B207E1F711E0A0E0B1E0E2E8FAE013
:1000E00002C005900D92A630B107D9F710E0CDE51A
:1000F000D0E004C02197FE010E941804CC35D1073E
:10010000C9F70E9490020C943F050C9400003FB781
:10011000F89480910B0190910C01A0910D01B09188
:100120000E0126B5A89B05C02F3F19F00196A11D11
:10013000B11D3FBFBA2FA92F982F8827820F911D7D
:10014000A11DB11DBC01CD0142E0660F771F881FC4
:10015000991F4A95D1F708958F929F92AF92BF92BF
:10016000CF92DF92EF92FF926B017C010E94870099
:100170004B015C01C114D104E104F104F1F00E94CF
:100180008700DC01CB0188199909AA09BB09883EBF
:100190009340A105B10570F321E0C21AD108E1082E
:1001A000F10888EE880E83E0981EA11CB11CC114D2
:1001B000D104E104F10419F7DDCFFF90EF90DF9057
:1001C000CF90BF90AF909F908F90089590E0FC01EA
:1001D000EC55FF4F2491FC01E057FF4F3491FC0197
:1001E000E458FF4FE491EE2309F43CC0222339F197
:1001F000233091F038F42130A9F0223001F584B594
:100200008F7D12C0273091F02830A1F02430B9F44E
:10021000809180008F7D03C0809180008F778093D4
:1002200080000DC084B58F7784BD09C08091B00077
:100230008F7703C08091B0008F7D8093B000F0E095
:10024000EE0FFF1FEE58FF4FA591B4919FB7F894A2
:10025000611104C08C913095382302C0EC913E2B83
:100260003C939FBF0895482F50E0FA01E057FF4F9D
:100270009491FA01E458FF4F2491222399F030E041
:10028000220F331FF901E859FF4FA591B491F901ED
:10029000EE58FF4F259134912FB7F894EC91E92B4C
:1002A000EC932FBF6115710511F460E004C06F3F3E
:1002B000710519F461E00C94E600FA01EC55FF4F6A
:1002C000E491E330F9F048F4E130B9F0E230A1F51F
:1002D00084B5806284BD68BD0895E730E9F0E830F8
:1002E00019F1E43049F580918000806280938000AC
:1002F00070938B0060938A00089584B5806884BDF4
:1003000067BD08958091800080688093800070931D
:1003100089006093880008958091B0008068809380
:10032000B0006093B30008958091B0008062809324
:10033000B0006093B4000895603871050CF0BACF36
:10034000B4CFEF92FF920F931F93CF93DF93EC0103
:100350007A0189018A810E943301B7018C810E9450
:100360003301B8018E81DF91CF911F910F91FF90E2
:10037000EF900C9433010F931F93CF93DF93EC0115
:100380008B018A810E94330160E070E08C810E94C1
:100390003301B8018E81DF91CF911F910F910C94A1
:1003A00033010F931F93CF93DF93EC018B0160E038
:1003B00070E08A810E94330160E070E08C810E94CD
:1003C0003301B8018E81DF91CF911F910F910C9471
:1003D00033010F931F93CF93DF93EC018B0160E008
:1003E00070E08A810E943301B8018C810E94330140
:1003F000B8018E81DF91CF911F910F910C94330141
:100400000F931F93CF93DF93EC018B0160E070E0BB
:100410008A810E943301B8018C810E94330160E01F
:1004200070E08E81DF91CF911F910F910C94330179
:100430000F931F93CF93DF93EC018B018A810E946E
:100440003301B80117FF02C06F5F7F4F7595679545
:100450008C810E94330160E070E08E81DF91CF914A
:100460001F910F910C943301CF93DF93EC018A819C
:100470000E94330160E070E08C810E94330160E0F3
:1004800070E08E81DF91CF910C9433011F920F9217
:100490000FB60F9211242F933F938F939F93AF9397
:1004A000BF938091070190910801A0910901B0913B
:1004B0000A013091060123E0230F2D3720F4019625
:1004C000A11DB11D05C026E8230F0296A11DB11D77
:1004D000209306018093070190930801A0930901DE
:1004E000B0930A0180910B0190910C01A0910D0134
:1004F000B0910E010196A11DB11D80930B01909347
:100500000C01A0930D01B0930E01BF91AF919F918B
:100510008F913F912F910F900FBE0F901F901895C4
:10052000789484B5826084BD84B5816084BD85B5CE
:10053000826085BD85B5816085BD80916E008160DA
:1005400080936E0010928100809181008260809380
:100550008100809181008160809381008091800082
:100560008160809380008091B10084608093B100AD
:100570008091B00081608093B00080917A008460A7
:1005800080937A0080917A00826080937A008091D3
:100590007A00816080937A0080917A0080688093ED
:1005A0007A001092C10080E0E82E80E0F82E00E092
:1005B00010E0C0910F01D0911001B801CE010E944E
:1005C00034026AE070E080E090E00E94AC000F5FCF
:1005D0001F4F0E3F110569F70FEF10E0B801CE0174
:1005E0000E9434026AE070E080E090E00E94AC007B
:1005F0000150110998F768EE73E080E090E00E94E6
:10060000AC0000E010E0B801CE010E9400026AE0F8
:1006100070E080E090E00E94AC000F5F1F4F0E3F43
:10062000110589F70FEF10E0B801CE010E9400021A
:100630006AE070E080E090E00E94AC000150110997
:1006400098F768EE73E080E090E00E94AC0000E074
:1006500010E0B801CE010E94D1016AE070E080E0B4
:1006600090E00E94AC000F5F1F4F0F3F110589F70C
:100670000FEF10E0B801CE010E94D1016AE070E0F6
:1006800080E090E00E94AC000150110998F768EEFC
:1006900073E080E090E00E94AC0000E010E0B80160
:1006A000CE010E94BB016AE070E080E090E00E9411
:1006B000AC000F5F1F4F0F3F110589F70FEF10E0E0
:1006C000B801CE010E94BB016AE070E080E090E0DA
:1006D0000E94AC000150110998F768EE73E080E0C9
:1006E00090E00E94AC0000E010E0B801CE010E9452
:1006F000E9016AE070E080E090E00E94AC000F5FEA
:100700001F4F0F3F110589F70FEF10E0B801CE0121
:100710000E94E9016AE070E080E090E00E94AC0095
:100720000150110998F768EE73E080E090E00E94B4
:10073000AC0000E010E0B801CE010E9418026AE0AF
:1007400070E080E090E00E94AC000F5F1F4F0F3F11
:10075000110589F70FEF10E0B801CE010E941802D1
:100760006AE070E080E090E00E94AC000150110966
:1007700098F768EE73E080E090E00E94AC0000E043
:1007800010E09801A801B801CE010E94A1016AE021
:1007900070E080E090E00E94AC000F5F1F4F0F3FC1
:1007A000110579F70FEF10E09801A801B801CE010B
:1007B0000E94A1016AE070E080E090E00E94AC003D
:1007C0000150110988F768EE73E080E090E00E9424
:1007D000AC002FEF30E04FEF50E06FEF70E0CE0154
:1007E0000E94A10120E030E040E050E060E070E0D5
:1007F000CE010E94A101E114F10409F4D8CE0E94B7
:100800000000D5CE88E090E00E941E04FC0182E04A
:1008100090E09383828383E090E09583848384E0F7
:1008200090E097838683F0931001E0930F01089581
:10083000EE0FFF1F0590F491E02D09940F931F9385
:10084000CF93DF938230910510F482E090E0E09145
:100850001301F091140120E030E0A0E0B0E0309707
:1008600019F1408151810281138148175907C8F05D
:100870008417950769F4109731F012960C9312972C
:1008800013961C9327C0009313011093140122C0E8
:100890002115310519F04217530718F49A01BD01CB
:1008A000EF01DF01F801DBCF21153105F9F0281B3D
:1008B000390B2430310580F48A819B8161157105E3
:1008C00021F0FB019383828304C0909314018093F1
:1008D0001301FE01329644C0FE01E20FF31F819323
:1008E000919322503109398328833AC02091110114
:1008F00030911201232B41F4209102013091030128
:1009000030931201209311012091000130910101D7
:100910002115310541F42DB73EB7409104015091A6
:100920000501241B350BE0911101F0911201E21732
:10093000F307A0F42E1B3F0B2817390778F0AC0102
:100940004E5F5F4F2417350748F04E0F5F1F5093DF
:100950001201409311018193919302C0E0E0F0E015
:10096000CF01DF91CF911F910F910895CF93DF9326
:10097000009709F481C0FC01329713821282A09182
:100980001301B0911401109781F420813181820FFD
:10099000931F20911101309112012817390751F549
:1009A000F0931201E093110167C0ED0120E030E007
:1009B000CE17DF0740F44A815B819E014115510546
:1009C000F1F0EA01F5CFD383C28340815181840FD6
:1009D000951FC817D90759F488819981840F951FED
:1009E0000296918380838A819B81938382832115E0
:1009F000310529F4F0931401E09313013DC0E9019E
:100A0000FB83EA8349915991C40FD51FEC17FD0769
:100A100061F480819181840F951F0296E901998389
:100A20008883828193819B838A83E0E0F0E0129641
:100A30008D919C911397009719F0FD01DC01F7CF80
:100A40008D919C9111979D012E5F3F4F820F931FB7
:100A500020911101309112012817390769F430975C
:100A600029F4109214011092130102C01382128211
:100A7000B0931201A0931101DF91CF910895F894E2
:020A8000FFCFA6
:060A8200000015018000D8
:00000001FF
