:1020000000800020853B00006D3B00006D3B000020
:1020100000000000000000000000000000000000C0
:102020000000000000000000000000006D3B000008
:1020300000000000000000006D3B0000D93B0000E4
:102040006D3B00006D3B00006D3B00006D3B0000F0
:102050006D3B00006D3B00006D3B0000713B0000DC
:102060006D3B00006D3B00006D3B00006D3B0000D0
:102070006D3B00006D3B0000DD3A00006D3B000051
:102080006D3B00006D3B00006D3B00006D3B0000B0
:10209000000000006D3B00006D3B00006D3B000048
:1020A0006D3B00006D3B00006D3B00006D3B000090
:1020B0000000000010B5064C2378002B07D1054B1B
:1020C000002B02D0044800E000BF0123237010BDA4
:1020D000A0000020000000004459000008B5084B93
:1020E000002B03D00748084900E000BF07480368F9
:1020F000002B03D0064B002B00D0984708BDC046EC
:102100000000000044590000A40000209C000020B2
:1021100000000000F0B5334CA54401F03DFE02F094
:1021200075FD012001F066FD2F4D0421281C00F0F3
:10213000E7F9002844D02D4E281C311C00F0BEFACF
:1021400000283DD0291C01A8321C012300F06EFAA2
:1021500001A800F000F98021041CC90188422DD992
:1021600001A800F0E6F8224AC021A7182148C901B9
:102170003A1C01F0F5FBC024E40180220AA9920078
:1021800001A800F0CFF88023211C0AAA9B0019485F
:1021900001F08EFB80229200A318174AA418BC42BB
:1021A00001D21C1CE9E7012401A800F0EDF8002C85
:1021B00006D0281C311C00F08DFA01E00024F3E762
:1021C000C023DB011B6883F308880C4BC022D201BB
:1021D0009A600B4B1B68184700208B239B009D4483
:1021E000F0BDC046D4FDFFFFD4000020A84E000083
:1021F00000C0FFFFBC00002000A2FFFF00ED00E0D8
:102200000460000008B5002102480A1C01F038FBF8
:1022100008BDC046BC00002000207047704713B5C1
:1022200002686B46D97107335468191C0122A04714
:1022300016BD38B5041C006A0025A84202D101234E
:1022400063600AE0456092B201F004F8236A5B68BB
:10225000002B02D001236360281C38BD006A08B53A
:10226000002801D000F042FE08BD000013B56C4606
:102270000734211C012200F05DFD012801D12078E6
:1022800000E0014800B216BDFFFF0000006A08B57B
:10229000002802D0FFF7EAFF01E00120404208BD1C
:1022A00038B5051C006A00280AD0FFF7DFFF041CC0
:1022B000631C05D0286A0169013900F0E5FD201C86
:1022C00038BD0000F8B5FA239B0083600D4B002554
:1022D0000833041C4560036028200F1C161C02F004
:1022E000BBFC2062A8420AD0391C282202F0D7FC8D
:1022F000201C1030311C0C2202F09CFD2577201C84
:10230000F8BDC046B84E0000FA2292008260044A2E
:102310000023083243600260036203747047C046C2
:10232000B84E0000006A08B5002801D000F002FD98
:1023300008BD006A08B5002804D000F0A5FD431EC2
:102340009841C0B208BD036A002B01D0186901E0B2
:10235000012040427047006A002800D0C0697047E1
:1023600038B5041C006A00280BD0201CFFF7F3FFCF
:10237000051C201CFFF7E7FF024B281A984200D9E2
:10238000181C38BDFF7F000010B5041C006A00282F
:1023900006D000F0E7FD206A02F068FC002323620B
:1023A00010BD000010B50A1C0C498AB0041C0023A3
:1023B000009169464B720193211C6846012300F08D
:1023C00081FE041C601E8441E4B2002C02D06846E9
:1023D00000F0C8FD201C0AB010BDC046004F000030
:1023E00008B50123002A05D000F01AFF031C581E6F
:1023F0008341DBB2181C08BD38B50122051C0C1C3A
:1024000001F094F9021C0120002A03D1281C211C90
:1024100001F08CF938BDF0B50C68035D2F3B5D42CF
:102420006B41E418271C0C37231CC55C1E1B2F2D89
:1024300009D0002D07D00133161BF618013E357068
:10244000BB42F2D10C2600249455C25C2F3A544270
:1024500062419B180B60C05C431E9841C0B2F0BD46
:10246000F0B5A1B0039025480D1C049205930CAA69
:10247000002316A90D930C905372179316904B726C
:1024800007932C1C009207A908AA0398FFF7C3FF23
:102490000126021C72400190D2B2201C08A9059BA3
:1024A000049FB847002807D1AC4201D1002023E0A7
:1024B000201C00F057FDF9E7019F002F11D0331CBD
:1024C0000098211C08AA00F0FDFD061CAC420FD0AC
:1024D000201C00F047FD002EE8D0231C009C009338
:1024E000D1E7AC4202D0201C00F03CFD301C03E0E0
:1024F0000028DBD016ACF0E721B0F0BD004F0000A3
:1025000038B5031C41331B78041C0D1C002B02D072
:10251000383000F027FD201C01212A1C00F0C8F9EA
:10252000002801D100200FE0251C1035281C211C9B
:10253000FFF762FF0028F5D0201C3830291C00F07E
:10254000CFFB431E9841C0B238BD00004B684360CA
:102550000A4B03600B7A03724B7A4372CB68C360F9
:102560000B6903614B6943610B7E0376CB69C361E1
:102570000B6A496A036241627047C046004F00001F
:10258000F0B59DB008AE02920393274A002312AF24
:10259000051C73607B601031301C089273721292BC
:1025A0007B7200F09DFB029C201C2F2102F036FC68
:1025B00000282ED023782F2B01D10134F4E7001B03
:1025C000C0B2031C0C2800D90C23DBB21A1C211C3E
:1025D00004A8019302F02EFC019A002304A9381CE0
:1025E0008B5400F0BFFC381C311C04AA012300F0FE
:1025F00069FD002804D10C4B68602B60687210E004
:10260000019B301CE41800F0ADFC331C3E1C1F1C69
:10261000CAE70299039A641A1460281C311CFFF758
:1026200095FF281C1DB0F0BD004F0000F0B5A1B013
:10263000051C1F1C02A801AB161CFFF7A1FF019B84
:10264000F6183378002B07D102A916A8FFF77EFFF2
:10265000281C16A9174A28E000230CAC636063729B
:102660006B461133144A1B780C92002B03D1281CA3
:10267000FFF74AFE1BE0201C02A9321C3B1C00F0A5
:1026800021FD0028F3D002A800F06CFC06231F40B7
:102690009F4203D1201C139900F0F6FB211C16A8C1
:1026A000FFF754FF281C16A9321CFFF70BFE281C4D
:1026B00021B0F0BDE04E0000004F000008B5031C43
:1026C000081C191C3831024A0023FFF7C9FE08BD57
:1026D000A523000008B5031C081C191C3831024A48
:1026E0000023FFF7BDFE08BDE1230000084B0221D7
:1026F0001961191C002230310A7006495A719A7109
:102700009A721A73DA63996341331A707047C0463C
:10271000D4000020004F000008B5011C014801F062
:10272000ABF908BD7807002008B50248FF2101F089
:10273000A3F908BD7807002008B50121007901F050
:102740002BFC054B1A78002A04D0002203481A708B
:1027500001F080F908BDC046400100207807002044
:1027600010B5084B041C1A78002A06D101221A70F1
:10277000054B064806CB01F051F92079002101F004
:102780000BFC10BD4001002038010020780700201C
:1027900010B58379041C002B0DD023895A1C22818B
:1027A000054A934202D8FFF7BFFFF6E7201CFFF768
:1027B000C3FF0023A37110BD0102000000B506296C
:1027C00003D91623437100201CE00F4B052913D8B1
:1027D000081C002202F0C0F9030507090B0D0B4984
:1027E00008E00B4906E00B4904E00B4902E00B4905
:1027F00000E00B49196002E00A4A1A6000221A71CF
:102800005A71012000BDC04638010020001BB700EE
:1028100000093D0080841E0040420F0020A10700F7
:1028200090D0030048E8010038B50C1C01F0DCF939
:10283000051CFFF779FFFF2806D001F0D5F9401BF2
:10284000A042F6D3002000E0012038BDF8B5041CFA
:102850000E1C171CFFF79CFF201CFFF781FF962121
:102860004900201CFFF7E0FF40203043FFF754FFF2
:102870001825381CE840C0B2083DFFF74DFF2B1C5F
:102880000833F6D19520002E03D08720082E00D0E3
:10289000FF20FFF741FF0025FFF746FF43B2E0723C
:1028A000002B04DAFF2D02D00135EDB2F4E7F8BDBC
:1028B000F7B5002502710573857285714571041C99
:1028C000019101F091F90121071C207901F00AFB27
:1028D0000121207901F060FB424E301C01F076F8B6
:1028E000414B42491D715D711960301C5A6801F0FD
:1028F00095F80A25013DFF20EDB2FFF70DFF002DF1
:10290000F8D1301C01F0A6F8201CFFF729FF0021A8
:10291000201C0A1CFFF79AFF061CE072012808D051
:1029200001F062F9FA23C01BDB009842EFD90123C2
:102930003BE0D522201C08215200FFF787FF04232B
:10294000184201D026730BE01E1CFFF7EDFE013E7E
:10295000F6B2E072002EF8D10223AA2825D1237303
:10296000267B023E73425E41B60737210022201CBF
:10297000FFF76CFF321C201C2921FFF767FF021CA8
:10298000E07208D001F030F9FA23C01BDB00984256
:10299000EBD9082309E0237B022B19D1201C3A2113
:1029A000FFF754FF002805D006236371201CFFF7B2
:1029B000C3FE15E0FFF7B8FEC0231840984201D1CE
:1029C00003232373FFF7B0FEFFF7AEFEFFF7ACFE65
:1029D000201CFFF7B1FE201C0199FFF7EFFE051C3C
:1029E000281CFEBD780700203801002090D003008D
:1029F00038B5041C01F0F8F8051CFFF795FEE072ED
:102A0000FF2808D101F0F0F89623401B5B009842A4
:102A1000F3D90F2302E0FE2806D00D23201C63719A
:102A2000FFF78AFE002000E0012038BDF8B5041C45
:102A30000F1C151C1E1E45D09A1880239B009A421D
:102A400042DC8379002B05D00268914202D10389D0
:102A5000AB4216D9237B2760032B00D07F023A1CA0
:102A6000201C1121FFF7F2FE071E02D00323637121
:102A70002AE0201CFFF7BCFF002825D00123278176
:102A8000A3712389AB4205D2FFF74EFE23890133A0
:102A90002381F6E7069D069AAB1A9BB2B34204D295
:102AA000FFF742FE28700135F5E72389A27AF31873
:102AB0009BB22381002A02D0064A934202D9201CED
:102AC000FFF766FE012003E0201CFFF735FE002023
:102AD000F8BDC046FF01000007B5802300929B00AF
:102AE0000022FFF7A3FF0EBD70B5051C081C161CC5
:102AF000FFF712FE0024305DFFF70EFE0134802345
:102B00009B009C42F7D1FF20FFF706FEFF20FFF756
:102B100003FEFFF709FE1F23E87203400120052B87
:102B200005D01123281C6B71FFF706FE002070BD35
:102B300070B50B1C041C161C002901D1122328E0BF
:102B4000027B032A00D04B02201C18211A1CFFF71D
:102B50007DFE051E01D004231BE0201CFE21321C3B
:102B6000FFF7C2FF002815D09621201C8900FFF72F
:102B70005BFE002801D115230BE0201C0D212A1C2F
:102B8000FFF764FE002803D1FFF7CEFD002806D032
:102B900014236371201CFFF7CFFD002003E0201CED
:102BA000FFF7CAFD012070BD034B044A1A600022E2
:102BB0005A711A717047C0463801002000093D0063
:102BC000021C10B50C32041C0121406A00F024FDE7
:102BD00000280AD0236A0120002B06D1E368227A5C
:102BE000236280235B421343237210BD70B5041C23
:102BF000FFF7E6FF002801D100201BE0636AE668CA
:102C00001A7C023E96405A691D79B618002D08D0EC
:102C1000701E401900F04CFC0028EDD0013DEDB2D3
:102C2000F4E7636A01201A7C80239B009340E269E9
:102C3000D318E36170BD000010B5041C406900F0BA
:102C400013FC002803D0207E014B4001C01810BDAA
:102C500050010020F0B5002387B0071C0E1C202275
:102C6000F25401330B2BFAD10721002501913C7856
:102C7000002C2AD02E2C06D1019B0A2B2BD00A2106
:102C8000082501911FE002A81449102202F007F85C
:102C9000002302A9CA5C002A03D00133A242F8D162
:102CA00019E0019B9D4216D8231C213B5D2B12D8B5
:102CB000221C6B1C613ADBB27519192A01D8203C21
:102CC000E4B22C701D1C0137D1E730782038431E48
:102CD0009841C0B200E0002007B0F0BDE24E000015
:102CE00038B5427A041C0D1C002A01D000201FE0D8
:102CF0004B1CDB7F102B06D10223437202624B8CEC
:102D00005B01C3610CE0202BF0D103234372496ABD
:102D1000221C01621C32281C00F018FC0028E5D09F
:102D20000023012065622072E360236163612376E2
:102D300038BD0000F0B5437A85B0041C0E1C039228
:102D4000002B01D13A4811E0037AD807FAD5E2699D
:102D500020690399131A994201D99BB203930399ED
:102D60000291029B002B04D1039988B200B205B0F6
:102D7000F0BD2369617ADF05FF0D5A0A606A0229F6
:102D800002D1416A51181BE00579013D2A40D5B2B4
:102D9000002F0DD1002D0BD1002B02D1226AE26051
:102DA00006E0221CE1680C3200F0A0FB0028C9D02C
:102DB000636AE1681A7C02395B699140C918491954
:102DC0008022029D9200D31B9D4200DD9DB2237A9A
:102DD000580601D4954218D1164B1B68994214D05D
:102DE000154B3A1C186800962B1CFFF71FFE002895
:102DF000A8D0761901E0DF1BF6192169029A4B1958
:102E0000551BADB223610295ABE7081C002100F011
:102E10002BFB002896D0094B321CFF1879193B1C5C
:102E20008B42E8D01878013310700132F8E7C046C1
:102E3000FFFF0000000000204C0100205001002096
:102E400073B5437A041C012B01D8002016E00369F6
:102E50006D460735DE05291C0122360FFFF76AFF94
:102E6000012801D12B7800E0054B1BB20133ECD0D7
:102E7000236970011F332361024BC01876BDC04621
:102E8000FFFF00005001002070B5041C407A0D1CAB
:102E900000282AD0E269914201D9002025E00228C9
:102EA00021D0002D01D1E5601DE0626A2169137C0B
:102EB000681E09334A1ED840DA40031E934201D3EC
:102EC000002902D1226AE26000E0831A1E1C002E53
:102ED00009D0221C606AE1680C3200F007FB013E59
:102EE0000028F4D101E02561012070BD38B5051C32
:102EF000407A002833D02B7A7F2B2DD9281C012132
:102F0000FFF79AFE041E2AD06B7A012B07D82B7F7D
:102F100003776B7F4377AB7F8377EB7FC3772B6A36
:102F20009AB21B0C23751B0A63750D4BA2761B68A6
:102F3000120AE276002B0BD0201C211C183016310F
:102F40009847637E227E1B021343A3741B0AE3741B
:102F50002A7A7F2313402B7200F05CFAFFE738BD1A
:102F60004401002010B5041CFFF7C0FF002802D068
:102F700000236372012010BD73B5427A041C0D1C3E
:102F80000020012A4BD1207A0223184047D0E36960
:102F90000020994243D8101C002B40D0201C291C33
:102FA0002669FFF771FF002825D0606A002D06D141
:102FB000216A00F095FB00281DD025621DE0E16824
:102FC00001AA00F093FA002815D0606A0199431C09
:102FD000DB7F102B01D1124B00E0124B99420CD237
:102FE00000F07EFB002806D0606AE1680E4A00F01F
:102FF000CFFA002801D1002011E0227A80235B4221
:103000001343E5612372201CFFF770FF0028F2D004
:10301000291EB14200D9311C201CFFF735FF76BDB7
:10302000F8FF0000F8FFFF0FFFFFFF0F38B5234B3D
:10303000151C4A01D318041CD87A1122104204D05E
:103040004222154201D0002036E01D4A2176126846
:1030500062615A7D187DD97E12020243987E090270
:103060001204014311432162D87A182202400CD184
:103070005A7F197F12020A43997FDB7F09040A43B2
:103080001B061343E361012309E0102ADBD1221C54
:10309000606A1C3200F05AFA0028D4D0042363720C
:1030A0000F2300212B402372E160216101206A0679
:1030B00002D5201CFFF760FF38BDC046500100203C
:1030C00000000020F0B5457A87B0041C0E1C019367
:1030D000002D00D086E0101C03A9FFF7BBFD0028DF
:1030E00000D180E0726A2F1C6262F560356133693D
:1030F000F269934226D2DB051B0F301C0093FFF7C9
:103100009FFE011E6FD00378002B01D0E52B0BD161
:10311000002F04D1009B2376344B1B6863610B782E
:103120000127002BE3D10DE003A80B2201F0A8FD3D
:103130000028DCD1019A30231340302B53D0201CBF
:1031400000994BE0019A12231340122B4BD1002F10
:1031500006D0201C0121FFF76FFD061E0AD142E0B8
:10316000737A022B3FD0301CFFF740FD00283AD085
:103170001F4E277600212022301C01F099FD301CC3
:1031800003A90B2201F08BFD1A4B1B68002B05D005
:10319000301C311C10300E31984706E02122327469
:1031A000B373282208237274F373737C327C1B027E
:1031B0001343FF221A401B0AF3747376F37BB27435
:1031C0003276B27B1B021343B3751B0AF37500F012
:1031D00021F9002807D0217E019A201CFFF726FF45
:1031E000051C00E00025281C07B0F0BD00000020F1
:1031F000500100204401002010B50021041CFFF7FD
:10320000BBFE00280BD0201C0121FFF715FD002874
:1032100005D0E52303700023637200F0FBF810BDB6
:1032200010B50A1C0A498AB008310023041C009119
:1032300069464B7201936846211C0223FFF742FF47
:10324000002802D06846FFF7D7FF0AB010BDC0467D
:10325000F84E0000F0B5437A87B0041C0D1C0392B1
:10326000012B0DD1037A99070AD55A070CD5E169CC
:1032700022698A4208D0201CFFF706FE002803D1ED
:10328000012363600020AAE0039B01933BE0606A96
:10329000730A0779F605013F1F40FFB2F60D002FB4
:1032A00036D080229200921B019992B20B1C91425F
:1032B00000D9131C9BB20293636AE1681A7C02393D
:1032C00091405A698B18029ADF1980239B009A4219
:1032D0003FD1444B1968B94202D1012252421A60CF
:1032E000414B391C18682A1CFFF722FC0028C7D064
:1032F00080229200AD180199029A8B1A21699BB223
:1033000001938B182361019A2669002ABFD149E0F5
:10331000002EC6D1E168002903D1236A002B16D103
:103320000FE005AA00F0E2F8002858D0626A059B79
:103330000132D27F102A01D12C4A00E02C4A93425C
:1033400005D3201CFFF73CFC0028AAD198E7E360D6
:10335000A7E7002E0FD12369E1698B420BD300F060
:1033600059F800288CD01F4B01211F60214B1A787F
:103370000A431A7006E0381C012100F075F8002895
:1033800000D17DE71C4B2A1CF618029BF118331C58
:103390008B4204D01078013218700133F8E79E1B7D
:1033A000AD19A8E7E169237A8E4201D9E66106E00A
:1033B000124A1268002A06D0039A002A03D08022FB
:1033C000524213432372237A190701D4039806E06B
:1033D000201CFFF78BFD002800D151E7F6E707B06E
:1033E000F0BDC046000000204C010020F8FF0000A6
:1033F000F8FFFF0F5003002050010020440100207F
:1034000007B56B46D9710733191C0122FFF722FF5C
:103410000EBD0000F8B50F4F01203B78002B18D0EF
:103420000D4E0E4B0E4D196830682A1CFFF780FBBD
:1034300000280ED00B4C2168002907D030682A1CC8
:10344000FFF776FB002804D00023236000233B70A5
:103450000120F8BD500300204C0100200000002096
:10346000500100204801002070B50D4D041C2B6850
:103470000E1C83420ED0FFF7CDFF002801D10020A3
:103480000DE0084B211C1868074AFFF725FB0028B0
:10349000F5D02C60054B01201A7816431E7070BDC4
:1034A000000000204C0100205001002050030020AB
:1034B00010B5041CFFF7AEFF00280FD00023084A08
:1034C000002199548022013392009342F7D1054B99
:1034D00001201C60044B1A7802431A7010BDC046CC
:1034E000500100200000002050030020C36870B588
:1034F00001330C1C151C994201D9002021E0461C07
:10350000F17FC269E309102900D1230A98180D4BF5
:103510001B68984207D1F27F0B4B102A09D1E4B205
:1035200064001B5B0BE00021FFF79EFF0028F2D137
:10353000E3E77F221440A4001B591B011B092B60E9
:10354000012070BD000000205001002073B5051C53
:103550000191161C0024281C019901AAFFF7C6FF3F
:10356000002810D02A7C80239B009340E4186B1C19
:10357000DB7F019A102B01D1034B00E0034B9A42F1
:10358000E9D33460012076BDF8FF0000F8FFFF0F9B
:10359000F7B5051C0C1C0192012932D9C368002023
:1035A000013399422ED86F1CFA7FEE69CB09102A9D
:1035B00000D10B0A9E19144B1B689E4208D1FA7F5A
:1035C000124B102A0BD1E4B2019A64001A530BE09B
:1035D000301C0021FFF748FF0028F0D112E07F22C5
:1035E0001440019AA4001A51094B01201A78024391
:1035F0001A702B7E834205D9AB68F618054B1E6006
:1036000000E00020FEBDC046000000205001002068
:103610005003002048010020F0B5156887B0061C53
:103620000291171C002D03D000210135019106E005
:10363000029B0568013B5A425341DBB20193F26899
:103640000023013203922C1C00930099F2689142EE
:1036500021D2039B9C4201D90224251C301C211C31
:1036600005AAFFF743FF002815D00599631C002920
:1036700001D01D1C03E002995A1B8A4204D0009A13
:103680001C1C01320092E0E7301C211C134AFFF79A
:103690007FFF00280BD100201DE0631E301C191C89
:1036A000221C0093FFF774FF0028F4D0009CAC426A
:1036B000F3D83968002906D101993D60002909D065
:1036C0000135356006E0301C2A1CFFF761FF002839
:1036D000F2D1E0E7012007B0F0BDC046FFFFFF0FC9
:1036E000022337B5051C0C1C0360281C211C01AAF1
:1036F000FFF7FCFE002812D0281C211C0022FFF737
:1037000047FF00280BD06B1CDB7F019C102B01D1E5
:10371000044B00E0044B9C42E7D3012000E0002072
:103720003EBDC046F8FF0000F8FFFF0FF8B5444B60
:10373000041C151C196029D0042A01D900207DE041
:103740000020011CFFF790FE0028F7D02D013D4B13
:10375000A935FF355D19AA79AB1D5006EED1EA7C7B
:10376000A97C12020A43297D09040A43697D0906DE
:103770000A43632AE2D9AA7BED7B2D0215439A7A8C
:10378000DB7A120415431B061D43D7D0281C0021E9
:10379000FFF76AFE0028D1D02A4B197BDA7A09029A
:1037A0001143802292009142C8D11A7C002AC5D0D0
:1037B000D9890029C2D0597B0029BFD022760022A6
:1037C00021712274227C01209040814204D0501C3F
:1037D0002074072AF6D9B1E7D98A002900D1596A9D
:1037E000A160D8892818E0611F693E02360C668402
:1037F000B7B21E7C71430E1813487901091849129B
:10380000711866626161187DDE7C0002304300D170
:10381000186A6D1A2818D040021CE0600B48611C21
:10382000824201D80C2307E00948824201D81023C4
:1038300002E0DB6A63622023CB770120F8BDC0463B
:103840004C01002050010020FF010000F40F000097
:10385000F4FF000008B50549054A064800F010F8D5
:10386000054B064900221A705A5408BD005000004A
:1038700001040000540300206C0300200204000037
:1038800030B5094C094BA5686D036D0FAD00EB58C1
:103890000360A4680161A4B244605C439B0084603F
:1038A000C360426130BDC046004000410055000089
:1038B000F7B51F4E8027756803333D439B0875603D
:1038C000002B34D01B4D3580357DEF07FCD51D1CFA
:1038D0005F1B01970768BF08BC46019F67451FD261
:1038E000002D1DD01778013D0197FF27BC43019F94
:1038F0003C4357783F0201970F4F3C40019F3C43A8
:1039000097783F04BC460D4F3C40D778A4B23F06A1
:10391000009767463C43009F04323C4310C1D7E701
:10392000074B3380337DDF07FCD52B1CC8E7F7BD81
:103930000040004144A5FFFFFF00FFFFFFFF00FF25
:1039400004A5FFFF044B054A4908D9611A801A7D76
:10395000D107FCD57047C0460040004102A5FFFFDB
:1039600070B5051C0C1C161CEB68281C211C9E4203
:1039700005D9FFF7E7FFEB68E418F61AF4E7FFF75D
:10398000E1FF70BD437A002B04D18372C372C36020
:1039900001234372704730B585B0041C02AD006846
:1039A0000291039200F088FC6B79E179227A00930E
:1039B0002068002300F022FD29792068029A00F097
:1039C0004BFC206800F06EFC05B030BD70B5041CE7
:1039D0001826FFF7D7FF2079331C43430D4D0821EC
:1039E000EB18595600F008FBA079331C434308211B
:1039F000EB18595600F000FB607908214643AD19D9
:103A0000695600F0F9FA044B201C06CBFFF7C3FF00
:103A100070BDC046205500007007002007B5837AAE
:103A200000910192002B0DD09A0706D5EFF3108379
:103A30005A425341C37272B604E0DA0702D5828952
:103A4000034B9A600099019AFFF7A5FF07BDC04696
:103A500000180040837A002B0BD09A0704D5C37A54
:103A6000002B06D062B604E0DA0702D58289014B4A
:103A7000DA6070470018004008B5006800F025FCC7
:103A800008BD00000F4B104A10491A6000225A71FD
:103A90001A710F4B0F4819600A2119710921997188
:103AA0000821597103215A72DA7119720A4B186090
:103AB0001D2018711B2098711A205A725871DA71E2
:103AC000197270477007002000093D005C08002053
:103AD00078070020600800208807002008B5024809
:103AE00000F066FD08BDC0469807002013B51249D6
:103AF000124800F031FB1249124800F02DFB124928
:103B0000124800F029FB1249124800F025FB124927
:103B1000124800F021FB124C1249201C00F01CFB43
:103B20000323009301230193211C0D220E230E4831
:103B300000F02CFD13BDC0460008004258080020CC
:103B4000000C00425C0800200010004260080020C9
:103B500000140042540800200018004264080020AD
:103B600068080020001C004298070020FEE70000C3
:103B700008B5034B1B68002B00D0984708BDC04612
:103B80006C08002038B50F490F4CA14204D100F059
:103B90004FF8FEF7BFFA0BE00C4D8D42F7D0002333
:103BA000CA18E818A24204D2006804331060F7E78C
:103BB000FEE79042EBD0064B064A9342E7D2002242
:103BC00004C3F9E700000020A000002048590000CD
:103BD000A0000020500D002008B500F026F80028B5
:103BE00001D100F017F808BD014B18687047C046B6
:103BF0007008002070B5041E08D0054B1D681E1CFF
:103C000000F012F833685B1BA342F9D370BDC046C5
:103C10007008002008B5034B1A6801321A6000F0E2
:103C200061FA08BD7008002070470020704700004E
:103C300070B5494A1E21536802208B43034347490C
:103C400053608B69082423438B61454C454B9C8210
:103C50009C8A20439882101CDA689407FCD5424A5B
:103C6000012414701478E50704D53F4C647864B2DD
:103C7000002CF7DB01249460547864B2002CFBDB49
:103C80003A4D394C6560547864B2002CFBDB8225D8
:103C9000354CED016580547864B2002CFBDB0224C6
:103CA0009C84DC68E606FCD5314D2E4CE562DD686F
:103CB0002C4CEE06FBD5A58C2E4E3543A584DD6835
:103CC000284CEE06FBD5A58C02263543A584DC687E
:103CD0002506FCD5234CE4686606F8D5DC68E506C5
:103CE000FCD500249460547864B2002CFBDB224D98
:103CF0001D4C656055781C4C6DB2002DFADB1E6AB8
:103D00001E4D35401D621D6A8026B5431D6203238A
:103D1000A3601B4B636053785BB2002BFBDB00237B
:103D20000B72184A4B728B72CB72174BFF211A60C1
:103D3000164B174A1B6812685C01D20E21401143D2
:103D40009A06520F12020B1C1343124A1385436842
:103D500080221343436070BD0040004100040040D6
:103D60000C06000000080040000C004001050100A6
:103D7000B905FF7D040A000000070300FFFCFFFFF8
:103D800003060100006CDC020400002024608000B7
:103D90002060800000400042314BFA21186810B5C5
:103DA000890000F0E3FE2F4B0138984224D82E4AB8
:103DB0002E4B5060186AC0210002000A0906014318
:103DC00019620024072194601160196A8022090297
:103DD000090A12060A431A62254BFC211A6A0A4391
:103DE0001A62196AFC2292010A431A62196AA02215
:103DF000D2020A431A6200E0FEE7201C00210134CF
:103E000000F070F80F2CF8D11A4C63785BB2002BDD
:103E1000FADB194B6380194B5A7ED209012AFAD07A
:103E2000E422D2009A803F22DA70597E134AC909EF
:103E30000129FAD0C0235B0100201361907000F0CB
:103E400023F863785BB2002BFBDB0D4A094B5A80E9
:103E50000C4BDA79D209012AFAD041225A7010BDEE
:103E600004000020FFFFFF0010E000E000ED00E094
:103E700000040040000C00401E40000000400042D2
:103E8000214000000048004200B5144A517E131C36
:103E9000C9090129F9D00138042813D81969104A31
:103EA0000A401A615A780F218A4300F055FE030533
:103EB00009070300012102E0032100E002210A4377
:103EC0005A700AE01169F0231B050B431361537804
:103ED0000F218B4302210B43537000BD0040004271
:103EE000FFFFFFF010B51824021C201C5043274B85
:103EF0001818007A40B2013046D0032944D8081C73
:103F0000211C00F029FE02331121624398569A18B1
:103F1000C3011F4852681B189918403102200870CD
:103F20000121914059602FE06243985618499A1830
:103F30005268C3015B1899184031062008700121AE
:103F40009140596099611FE051435A5610485918E1
:103F50004B68D2011118C8184030062404700120A3
:103F6000984048600B49521850600DE062439856E3
:103F70009A18C301064852681B189918403102204C
:103F8000087001219140996010BDC0462055000085
:103F9000004400411044004118235843134AF0B52F
:103FA000131808241C5701341FD08256104ED2011A
:103FB0005D6801249019231C8668AB401E420BD11A
:103FC0000E1C771EBE41401934404030A5000478D5
:103FD0000426B4432C430470002903D10549521828
:103FE000536002E0024E92199361F0BD205500002B
:103FF000004400411044004118224243F8B52D4DC1
:104000000824AA181457031C621C50D0481C002412
:104010000C284CD800F0A0FD071E1E1E1E1E1E1EE2
:104020001E0A0A0A0A000124644240E0092902D15A
:10403000181C002103E00A2904D1181C0221FFF7F3
:1040400051FF23E000240B2931D1181C0121FFF777
:1040500049FF2CE018225343EA185268EB5601201E
:10406000141C04405508DB01002C11D0124C1B1904
:104070005D1930352E780C010F21314021439A18FB
:10408000C9B22970403213781843107000240EE032
:10409000094E0F279B195D1930352E789A18BE43AB
:1040A0003143C9B229704032137818431070201C74
:1040B000F8BDC0462055000000440041F7B58A18FD
:1040C000061C0D1C01920C1C019B671B9C4207D017
:1040D000336821781B68301C984701340028F3D1DD
:1040E000381CFEBD154A1368581C25D0013B1360CF
:1040F000002B21D172B6124A124B04329A4207D8D1
:10410000BFF34F8F104A114BDA60BFF34F8F11E0AE
:104110000F4B197DC807FBD5188B2021FF31920862
:10412000520001431983DA610A4A1A801A7DD107C5
:10413000FCD5E5E7C046FDE77047C0460800002013
:1041400000200000030200000400FA0500ED00E07A
:104150000040004102A5FFFF01607047F7B508ACC1
:10416000267804689D1E27686C1EA541ECB2920754
:1041700005683A4327063A432A6002680725294022
:104180005068B501002C00D05C03294301430C4367
:104190005460F7BD30B50368C0251C68AD03120537
:1041A0002A402243C024A40209042140114319607B
:1041B00003685A6814435C6030BD036801211A68C3
:1041C0000A431A600268116801231942FBD1D169C0
:1041D0001942F8D17047036802211A680A431A602D
:1041E0000268D3699907FCD4704703681A7ED10727
:1041F00002D41A7E9107FCD57047036800225A83C7
:1042000070470368187E4007C00F70470368187E28
:10421000C009704703688022197E52420A431A7609
:1042200070470368187E0123184070470368188D93
:10423000C0B2704703681A7E01200242FBD0198584
:104240007047036801219A7D0A439A757047036895
:1042500001221A757047000070B5036801268D07AA
:10426000ED0F31401C686D07090729432143196090
:1042700004685100034800F079FC0138C0B2207393
:1042800070BDC046006CDC02036801211A680A4355
:104290001A600268116801231942FBD1D1691942E1
:1042A000F8D17047036802211A680A431A6002684D
:1042B000D3699907FCD470470368DA699107FCD485
:1042C0001A6802218A431A60704703689A6A520A80
:1042D00052021143996203681A7E5107FCD5986A0D
:1042E000C0B270470368224A30B5934211D0214AC8
:1042F000934211D0204A934211D0204A934211D0C8
:104300001F4A934211D01F4A934230D10E231922E3
:104310000DE0092314220AE00A23152207E00B23EB
:10432000162204E00C23172201E00D231822DCB230
:10433000154901209B08A0409B0008605B180320E2
:10434000C021890004405D58E000FF248440A5435B
:104350002C1CC0258540281C204358508023DB019D
:104360001A430A4B5A805A7852B2002AFBDB30BDFE
:1043700000080042000C00420010004200140042FD
:1043800000180042001C004200E100E0000C004068
:10439000F8B5041C151C0E1C1F1CFFF7A3FF201CE6
:1043A000FFF70BFFB1001C220A4069072368090CC4
:1043B0000A431A60226884239375012E1AD10821BA
:1043C000012D00D110210C4B79431868C00000F07A
:1043D000CDFB236807219A890140D2044903D20CFE
:1043E0000A439A8123680004C20C9889400B400359
:1043F00010439881F8BDC04604000020F7B5019332
:1044000008AB041C1F780D1C161CFFF73DFF201C79
:10441000FFF768FFBF070C221743C022920336053F
:104420001640C02292022D0423683E430199154094
:10443000354307221D600A408021236889020A4310
:104440005A60F7BD0120704708B50368014A1B6A2E
:10445000984708BD1304000010B5041C0069FFF75D
:10446000ACFE201C143000F041FB201C5C3000F03E
:104470003DFB10BD08B5143000F04AFB08BD10B577
:10448000041C201C5C3000F043FB0028F9D120699B
:10449000FFF7ABFE10BD08B55C3000F03FFB08BD78
:1044A00070B5051C1435041C281C00F023FB231CCC
:1044B000A8331B78061CFF2B0AD0281C00F02EFB0B
:1044C0000A2805DD231CB033B4341B6822681A6047
:1044D000301C70BD08B5143000F02AFB08BD70B563
:1044E000041C00690E1CFFF79CFE251C5C3500288F
:1044F00004D0281C00F00CFB00280CD0281C00F075
:1045000020FB0028FAD1281C311C00F0E4FA2069B5
:10451000FFF797FE03E02069311CFFF78BFE0120B7
:1045200070BD0000F0B585B01D1C0AAB1B78041CE3
:1045300000930BAB1B78161C01930CAB1B780F1C64
:1045400002930DAB1B78039300234360FA239B0077
:1045500083600D4B08330360143000F0B1FA201C67
:104560005C3000F0ADFA009A231CA43327619A70E6
:10457000019A201CDA70029A1E701A71039A5D70FB
:104580001A7505B0F0BDC0468058000030B585B042
:10459000041C08A8057809A8007800950190FF2060
:1045A00002900390201CFFF7BDFF201C05B030BD1A
:1045B00038B5041C0069FFF724FE002819D02069D3
:1045C000FFF734FE251C1435011C281C00F083FA6B
:1045D000231CA8331B78FF2B0BD0281C00F09EFA5D
:1045E000092806DC231C221CAC33B4321B68126879
:1045F0001A602069FFF715FE002811D0251C5C35D4
:10460000281C00F085FA002807D0281C00F072FA58
:10461000C1B22069FFF70EFE02E02069FFF717FE26
:104620002069FFF7F3FD002805D02069FFF7F2FDB0
:104630002069FFF7E2FD38BDF023081C1840303830
:10464000434258417047F0231B01194080239B00CF
:1046500099420CD0C0239B00994206D080235B0076
:104660000520994204D0002002E0072000E0062047
:1046700070470F231940012905D002394B424B41A5
:104680000220C01A00E0002070470000F0B5031CB3
:1046900085B00391A433041C182718783B1C4343AE
:1046A000344E0821F3185956151CFFF7A5FC231C9E
:1046B000A53318783B1C43430821F3185956FFF7DC
:1046C0009BFC231CA7331B78022B0AD1231CB83375
:1046D0001878FF2805D047430821F7197956FFF7C6
:1046E0008BFC271CA8373878FF281AD00121FFF748
:1046F000F9FB3B7818225A43B3561F4FDB01211CAC
:10470000AC31D81908601D49B6185B18211C7268B5
:10471000B0310B60012191400A1C211CB4310A60A8
:104720001A6001210A1C039B2069FFF731FE291C36
:10473000201CFFF788FF291C071C201CFFF799FF8E
:10474000291C061C201CFFF777FF391C0090331C26
:1047500020690122FFF702FD231CA7331978013BD2
:104760001A782069FFF716FD2069FFF734FD05B0C0
:10477000F0BDC046205500001844004114440041DB
:104780003F20704713B502686B46D97107335468F0
:10479000191C0122A04716BD08B50069022100F0CE
:1047A00049F808BD08B50069032100F059F808BDB3
:1047B00038B50D1C041C131C006903212A1C00F0D1
:1047C000F1F8002801D10123636038BD10B5054C14
:1047D00023685A1C04D103685B6998472060031C56
:1047E000181C10BD0C000020074A08B51368591C9E
:1047F00004D0012149421160181C03E00069022124
:1048000000F0C2F808BDC0460C000020064BFA219B
:1048100089009960054900220831196004495A60ED
:1048200019611A767047C04674080020B858000015
:10483000340C002008B5084B8A00D058002803D05B
:1048400003689B68984706E0C9B2044B49015918B0
:1048500088688004800C08BD180C0020380C0020EB
:1048600010B50C1CFFF7E6FF00280CD0064BE1B298
:104870001B680831490159184A7980235B42134368
:104880004B710223CB7110BD380C002010B5C9B29A
:104890000C48490143189A689204920C3F2A08D99F
:1048A000141C9A68403CA404920BA40C920322436B
:1048B00002E09A68920B92039A6041188868C0B22D
:1048C00010BDC046380C0020F0B51C1C2A4B85B02A
:1048D0001B68061C0D1C0292002B46D0274B8A0039
:1048E000D058002805D0036802995B68221C9847BD
:1048F0003FE0301CFFF79EFFA04204D2301C291C71
:10490000FFF798FF041C291C301CFFF7BFFF1C4F4A
:10491000E9B24A010191396803928B18FF335A7A40
:1049200001210A4317495A72AB01C9180298221C87
:1049300000F0B5F9002C1BD0301C291CFFF77AFFC2
:10494000002815D1019B3A6808335B01D318197907
:104950004020014319710121D97103995318FF3384
:104960009A7A01210A439A7202E00120404200E053
:10497000201C05B0F0BDC0463C0D0020180C0020E6
:10498000380C0020580A002013B56C460734221C4E
:104990000123FFF799FF012801D1207801E00120D0
:1049A000404216BDF0B51C1C3A4B85B01B680E1C6E
:1049B0000292002B60D08023DB019C425CD8002255
:1049C0000092002C56D0344DF7B22B6801933B1C5B
:1049D0000833019A5B01D3189B79DB091AD02F4B5E
:1049E0002F49186800F0C2F82E4B1721584300F0E9
:1049F000BDF83B1C0833019A5B01D318DB799A0799
:104A000008D4294B9A5D002A38D1421E002835D09F
:104A1000101CEEE7244B00229A55251E3F2D00D98D
:104A20003F25224AB301D318181C02992A1C03936C
:104A300000F035F9184A7B01D318039AA9045A618A
:104A40009A69890C920B92030A439A613B1C019A62
:104A500008335B01D3180222DA715979802252425D
:104A60000A435A71009B029A5B1952190093641B06
:104A70000292A6E700980BE0012008E001229A5577
:104A80007B01ED18AB69101C9B0B9B03AB61404293
:104A900005B0F0BD3C0D0020380C002004000020C3
:104AA00040420F007011010090080020980800207B
:104AB000014A024B1A60704700500041380C002038
:104AC00010B500214022041C00F0F2F80023201C45
:104AD0002364636410BD026C10B53F23541C234053
:104AE000446CA34201D08154036410BD00230364CD
:104AF00043647047436C026C934206D0C25C3F2112
:104B000001330B404364101C01E001204042704718
:104B1000026C436CD01A00D540307047036C406C77
:104B2000834202DBC01A3F3001E0C01A01387047EF
:104B3000436C026C934201D0C05C01E00120404212
:104B40007047026C3F2301321A40436CD01A434233
:104B50005841C0B27047000002B47146490849008C
:104B6000095C49008E4402BC7047C046002934D01D
:104B70000123002210B488422CD301242407A1422F
:104B800004D2814202D209011B01F8E7E400A142EC
:104B900004D2814202D249005B00F8E7884201D387
:104BA000401A1A434C08A04202D3001B5C0822435F
:104BB0008C08A04202D3001B9C082243CC08A042D0
:104BC00002D3001BDC082243002803D01B0901D0BC
:104BD0000909E3E7101C10BC7047002801D0002031
:104BE000C04307B4024802A14018029003BDC0466A
:104BF000190000000029F0D003B5FFF7B9FF0EBC83
:104C00004243891A1847C0467047C04670B50E4BDC
:104C10000E4D0024ED1AAD101E1CAC4204D0A300B2
:104C2000F35898470134F8E700F032F9084B094D82
:104C30000024ED1AAD101E1CAC4204D0A300F358A2
:104C400098470134F8E770BD74000020740000201C
:104C5000740000209800002008B5034B011C186860
:104C600000F076F808BDC0467000002008B5034B80
:104C7000011C186800F024F808BDC0467000002030
:104C800030B50023934208D0C55C0133CC18013CF9
:104C90002478A542F6D0281B00E0002030BD10B5D6
:104CA0000023934203D0CC5CC4540133F9E710BD18
:104CB000031C8218934202D019700133FAE770473F
:104CC00030B5002940D004390B68002B00DAC91830
:104CD0001E4A1368141C002B02D14B60116033E094
:104CE00099420FD208680A189A4205D1136852688F
:104CF000C01808604A6000E04B60216024E08A42EE
:104D000003D8131C5A68002AF9D11D685C198C421B
:104D10000BD10968691858181960904214D11468A9
:104D20005268091919605A600EE08C4202D90C23AE
:104D3000036009E008680C18944203D114685268B3
:104D4000001908604A60596030BDC046440D00201B
:104D500070B50323CD1C9D430835061C0C2D01D2D4
:104D60000C2501E0002D3FDB8D423DD3204B1C681C
:104D70001A1C211C002913D00868431B0DD40B2BCF
:104D800002D90B60CC181EE08C4202D1636813601C
:104D90001AE0486860600C1C16E00C1C4968E9E7E2
:104DA000144C2068002803D1301C00F025F8206046
:104DB000301C291C00F020F8431C15D0C41C032310
:104DC0009C4384420AD12560201C0B300722231DFE
:104DD0009043C31A0BD05A42E25008E0211A301C0B
:104DE00000F00AF80130EED10C233360002070BDD2
:104DF000440D0020400D002038B5074C0023051C51
:104E0000081C236000F02AF8431C03D12368002B00
:104E100000D02B6038BDC0464C0D0020C9B20378CD
:104E2000002B03D08B4204D00130F8E7002900D0DA
:104E3000181C704730B5031C002A07D00C780133CA
:104E40005D1E013A2C700131002CF5D19A18934265
:104E500003D0002119700133F9E730BD094A136806
:104E6000002B0CD018186946884202D81060181C14
:104E70007047054B0C2201201A604042F8E7034BB3
:104E80001360EFE7480D00204C0D0020500D00206E
:104E9000F8B5C046F8BC08BC9E467047F8B5C04699
:104EA000F8BC08BC9E4670475550444154452E42BC
:104EB000494E00000000000000000000000000005B
:104EC0001F22000033220000192200005D22000092
:104ED000612300008D220000A122000000000000DC
:104EE0002F007C3C3E5E2B3D3F2F5B5D3B2C2A22FE
:104EF0005C00000000000000000000000000000056
:104F000001340000BD400000192200001D220000F5
:104F10000000000000000000000000000000000091
:104F20000000000000000000000000000000000081
:104F30000000000000000000000000000000000071
:104F40000000000000000000000000000000000061
:105500000800000010000000200000004000000023
:105510008000000000010000000200000004000004
:105520000000000016000000080000001C00000041
:10553000FF00000400040600000000001700000047
:10554000080000001C000000FF0001040104070027
:10555000000000000A000000080000001C0000001D
:10556000120000010001FF00000000000B0000001D
:10557000080000001C000000130001010101FF00F1
:10558000010000000A000000080000001C000000EC
:10559000FF00000500050A00010000000B000000EC
:1055A000080000001C000000FF00010501050B00C1
:1055B0000000000014000000080000002C000000A3
:1055C000FF000200020004000000000015000000BF
:1055D000080000002C000000FF000300030005008D
:1055E0000000000010000000020000001C0000008D
:1055F000FF00000200020000000000001100000097
:105600000200000004000000FF00FFFFFFFF010098
:105610000000000013000000020000001C00000059
:10562000FF0001030103FF0000000000080000006C
:1056300002000000040000001000FFFFFFFF100048
:10564000000000000900000002000000040000004B
:105650001100FFFFFFFFFF00010000001700000026
:105660000300000004000000FF00FFFFFFFFFF0039
:10567000010000001600000003000000040000000C
:10568000FF00FFFFFFFFFF0000000000020000001E
:1056900001000000060000000000FFFFFFFFFF0008
:1056A00001000000020000000100000004000000F2
:1056B0000A00FFFFFFFF02000100000003000000DE
:1056C00001000000040000000B00FFFFFFFF0300CB
:1056D0000000000004000000010000001C000000A9
:1056E000040000000000FF000000000005000000B2
:1056F000010000001C000000050001000100FF0087
:10570000000000000600000001000000040000008E
:105710000600FFFFFFFFFF00000000000700000081
:1057200001000000040000000700FFFFFFFFFF0072
:10573000000000001800000006000000000000004B
:10574000FF00FFFFFFFFFF00000000001900000046
:105750000600000000000000FF00FFFFFFFFFF0049
:10576000000000001200000008000000040000001B
:10577000FF00FFFFFFFFFF0000000000030000002C
:105780000800000004000000FF00FFFFFFFFFF0013
:10579000000000000C0000000200000000000000FB
:1057A000FF00FFFFFFFFFF00000000000D000000F2
:1057B0000200000000000000FF00FFFFFFFFFF00ED
:1057C000000000000E0000000800000000000000C3
:1057D000FF00FFFFFFFFFF00000000000F000000C0
:1057E0000200000000000000FF00FFFFFFFFFF00BD
:1057F000000000001B000000080000000000000086
:10580000FF00FFFFFFFFFF00000000001C00000082
:105810000800000000000000FF00FFFFFFFFFF0086
:105820000100000008000000010000000600000068
:105830000200FFFFFFFFFF00010000000900000061
:105840000100000018000000030001040104090029
:105850000000000000000000080000000000000040
:10586000FF00FFFFFFFFFF0000000000010000003D
:105870000800000000000000FF00FFFFFFFFFF0026
:105880000000000000000000DF440000BD400000F8
:10589000974400007F44000075440000A1440000CC
:1058A000D5440000494400008D46000059440000E2
:1058B000454400000000000000000000000000005F
:1058C00085470000B147000081470000A547000060
:1058D00099470000E9470000CD47000000000000A4
:1058E0004300000000000000000000000000000075
:1058F00000000000000000000000000000000000A8
:105900000000000000000000000000000000000097
:105910000000000000000000000000000000000087
:105920000000000000000000000000000000000077
:105930000000000000000000000000000000000067
:105940000000000000000000FFFFFFFF40420F00CA
:10595000FFFFFFFFFFFFFFFF00000000E458000013
:10596000045900002459000000000000000000005D
:105970000000000000000000E058000000000000EF
:105980000000000000000000000000000000000017
:105990000000000000000000000000000000000007
:1059A00000000000000000000000000000000000F7
:1059B000000000000000000010000020DD200000BA
:1059C00005220000ED260000A92B0000553800003C
:1059D000853A0000ED3A00000D480000B14A000091
:1059E000B5200000000000000000000000000000E2
:1059F00000000000000000000000000000000000A7
:105A00000000000000000000000000000000000096
:105A10000000000000000000000000000000000086
:105A20000000000000000000000000000000000076
:106000000080002019A5000003A5000003A50000E2
:106010000000000000000000000000000000000080
:1060200000000000000000000000000003A50000C8
:10603000000000000000000003A500006DA50000A6
:1060400003A5000003A5000003A5000009A10000AE
:106050002DBE000003A50000D574000005A50000BA
:1060600003A500003591000003A5000003A5000072
:1060700003A5000003A500009DCA000003A50000C1
:1060800003A5000003A5000003A50000B163000004
:106090000000000003A5000003A5000003A5000008
:1060A00003A5000003A5000003A5000003A5000050
:1060B0000000000010B5064C2378002B07D1054BDB
:1060C000002B02D0044800E000BF0123237010BD64
:1060D000B001002000000000EC4D010008B5084BA5
:1060E000002B03D00748084900E000BF07480368B9
:1060F000002B03D0064B002B00D0984708BDC046AC
:1061000000000000EC4D0100B4010020A4010020BB
:1061100000000000F0B51C4C91B0201C1B4905F09C
:10612000A5FC1B4E306800F07BFC002826D03068B0
:1061300000F044FC3368174D1968286800F0E7FB4D
:1061400037682868796800F0E4FB3368286807AD91
:106150000C332A1CC2CBC2C2C2CBC2C2C2CBC2C287
:106160000AAB6A46C2CBC2C2C2CBC2C20799089A66
:10617000099B00F0D4FB201C074901E00749201CC3
:1061800005F074FC11B0F0BDDC1200204C3F0100A2
:10619000CC010020E0010020633F0100743F0100BA
:1061A000094B10B51868094C094B02211A68231CC9
:1061B00000F003FE074B211C186800F033FE06496F
:1061C000064805F053FC10BDFC010020D001002062
:1061D000E0010020E8010020873F0100DC120020E0
:1061E000074B10B51868074C074B04211A68231C8D
:1061F00000F0E3FD054B211C186800F013FE10BDF4
:10620000FC010020D0010020E0010020E801002076
:10621000F8B5544C5449201C05F028FC04F046F90C
:10622000524A534E106031680A22201C05F085FC4A
:10623000504D0A222968201C05F07FFC4E4F38681B
:1062400000F0BCFBFFF766FF3B680A229969201C3F
:1062500005F05BFC4949201C05F0E2FB3B680A2283
:10626000D969201C05F051FC4449201C05F0D8FBDD
:106270003B680A22196A201C05F047FC4049201C93
:1062800005F0CEFB3B680A225969201C05F03DFC55
:106290003C49201C05F0C4FB3B680A221969201CFC
:1062A00005F033FC3749201C05F0BAFB3B680A2295
:1062B000D968201C05F02DFC334B1868334B196846
:1062C00000F0F4F93268324B9A4214D9314F201C55
:1062D000391C05F0CBFB391C201C05F0C7FB391C11
:1062E000201C05F0C3FBFFF75BFF201C2A4905F0CB
:1062F000BDFB00233360294B2A689A4210D9284FEE
:10630000201C391C05F0B2FB391C201C05F0AEFB2B
:10631000391C201C05F0AAFBFFF762FF00232B604D
:10632000124B1F6804F0C2F832681E4BBF18FF18EA
:106330000E4A381A3060166804F0B8F82B68194A0B
:10634000F618B618094B301A28601D6804F0AEF82C
:10635000154AAD18281A04F0AFF8201C134905F0AF
:1063600085FBF8BDDC120020AB3F0100F0010020EE
:10637000E4010020F8010020CC010020C03F010012
:1063800028410100C23F0100EC010020E001002093
:106390000F270000C43F0100A7440100A7610000CF
:1063A000FA3F010089130000881300001E4001001D
:1063B00010B5074B01249A7B224208D05B7B234215
:1063C00005D0044B186800F026FB034B1C7010BD71
:1063D00000300042CC0100200E3000428222194BD6
:1063E00052001A60184B5A78D209FBD11749184A43
:1063F00011605A78D209FCD11649174A11805A788F
:10640000D209FCD1154A164B1A80164BDA7BD209F9
:10641000FBD1154AC421890050580002000A50508F
:106420008021090311601149012208781043087086
:106430000F490A701A8822210A431A80DA7BD2098E
:10644000FCD17047080C0040000C0040040703001A
:10645000040C00401C440000020C00407FBBFFFF06
:10646000183000420030004200E100E00E300042EF
:106470000D300042F0B5E121274C91B04902274888
:1064800005F05AF9201C04F017F8012004F02EF84A
:10649000234B186000F0DEFA224D286000F0B4FCB7
:1064A000214B01211860002000F082F81F4B18607A
:1064B00000F074FA1E4E3060FFF790FF306800F075
:1064C0007DFAFA20400003F0F7FF3368286807AD33
:1064D0002A1C0C33C2CBC2C2C2CBC2C2C2CBC2C204
:1064E0000AAB6A46C2CBC2C2C2CBC2C20799089AE3
:1064F000099B00F09DFA842003F0F8FF051C00F0D2
:10650000C7F90C4B1D6000F0C1F80B4B1860201C44
:1065100003F0D2FF11B0F0BD10270000DC12002004
:10652000FC010020F4010020E8010020DC01002033
:10653000CC010020E0010020EC010020F0B585B086
:10654000041C02910C301849039206F092F9029B48
:106550008F206360039B8000A36003F0C7FF0326C6
:10656000012507220623071C009601950F4905F017
:106570006DFF311C2760062005F08CFE311C0720C2
:1065800005F088FE0298291C05F000F90398291CE3
:1065900005F0FCF82068962103680902DB6998473A
:1065A000201C05B0F0BDC04626410100C4150020E6
:1065B000F8B5084C071C23680E1C002B08D11820C6
:1065C00003F094FF391C051C321CFFF7B7FF256050
:1065D0002068F8BD0002002000207047704770B5A9
:1065E0004B688C68CD6843600A1C031CC5608460DE
:1065F0001033103270CA70C312781A70096A0162BF
:1066000070BD0000F0B51B498BB0041C251C06F0C2
:1066100030F9201C0C30303501F0B6FA281C01F09E
:10662000B3FA201C543001F0AFFA134E0023A367D5
:10663000E3671249301C05F005FA0B20012105F033
:10664000A5F80F4F0B21381C01F0F2FA002803D1F6
:10665000301C0C4905F0F6F901A8391C0A4A01233F
:1066600001F07CFB281C01A9FFF7B9FF201C0BB02F
:10667000F0BDC04626410100DC120020E9400100C7
:10668000B806002007410100C03F010038B5064CA4
:106690002368002B06D1802003F028FF051CFFF79C
:1066A000B1FF2560206838BD04020020F0B5051C4C
:1066B000A7B0026817230C351DA80C1C644901F013
:1066C0004DFB1DA9281CFFF78AFF281C01F099FA31
:1066D0000023984200D1B8E0201C00F016F90222F5
:1066E000011C02A806F015F902A905A806F0E4F8B5
:1066F000092105A806F06AF9061C201C00F0F1F833
:106700000A22011C08A806F0F2F8301C08A906F0BD
:106710003CF9504906F047F9061C201C00F0DCF853
:106720000A22011C0BA806F0E2F8301C0BA906F0A7
:106730002CF9494E311C06F036F9071C201C00F0DC
:10674000D5F80A22011C0EA806F0D1F8381C0EA9B3
:1067500006F01BF9414F391C06F025F90190201C69
:1067600000F0C6F80A22011C11A806F0C0F811A911
:10677000019806F00AF9391C06F015F9071C201CCF
:1067800000F0BAF80A22011C14A806F0B0F8381C70
:1067900014A906F0FAF8311C06F005F9071C201CB4
:1067A00000F0A8F80A22011C17A806F0A0F8381C6F
:1067B00017A906F0EAF82A4906F0F5F8071C201C8C
:1067C00000F0A9F80222011C1AA806F0A2F81AA9E2
:1067D000381C06F0DAF8311C06F0E5F8061C201C1F
:1067E00000F09BF80222011C1DA806F092F81DA9DA
:1067F000301C06F0CAF8011C281C05F02DF91DA854
:1068000005F0F0FF1AA805F0EDFF17A805F0EAFF64
:1068100014A805F0E7FF11A805F0E4FF0EA805F0A5
:10682000E1FF0BA805F0DEFF08A805F0DBFF05A8D7
:1068300005F0D8FF02A805F0D5FF281C01F0D4F917
:106840000848094905F012F90123181C27B0F0BDCA
:10685000B806002025410100244101002341010028
:1068600027410100DC1200202A410100014B0833BE
:10687000036070478842010010B5044B041C0833C4
:10688000036003F037FE201C10BDC04688420100A3
:106890000F4B104A083303600023C3660367436746
:1068A0008367C3678362C362036343638363C363B2
:1068B000031C42600121002281338160C2610262B7
:1068C000426202644264013B597019707047C046CD
:1068D000884201000000C84208B5006A07F0C2FA09
:1068E00008BD08B5406A07F0BDFA08BDC06A704728
:1068F000006B7047806B7047C06B70478068704753
:106900000231890040184068704740687047016450
:10691000704741647047006C7047406C704784B0AA
:1069200001910292039304B0704781300078704760
:10693000803000787047000038B5021C041C1248F3
:1069400030320023137053700368A0639621DB6913
:1069500089019847502003F0C9FDA16B051C02F086
:1069600025FD6563094803F0A7FD606B084902F047
:1069700025FD606B074902F021FD606B064902F0BE
:106980001DFD201C38BDC046881300208813000060
:1069900098420100CA420100DB42010038B5064CB2
:1069A0002368002B06D13C2003F0A0FD051CFFF757
:1069B000C3FF2560206838BD0802002070B5041CA4
:1069C000406B02F001FD0025A84222D0666B301C0E
:1069D00002F000FD011C301C02F016FDA84216D08A
:1069E000636B9A692260DA6962609A6AA260DA78F7
:1069F00022621A79E2615A79A2611A7862615A7840
:106A000022619B78E36030340123237001E001258B
:106A10006D42281C70BD08B5406B02F049FC08BDF2
:106A2000031C30331878002801D000221A707047F8
:106A300084B070B505AC069207930591031C221C27
:106A400062CA62C313CA13C361CA61C370BC08BC03
:106A500004B0184710B5054C2368002B03D124203F
:106A600003F044FD2060206810BDC0460C020020E9
:106A700070B5081C151C0C1CFFF75AFF061C701E75
:106A80008641201CFFF751FF76000643F6B22E70B8
:106A9000201CFFF733FF76B2B600431E9841304307
:106AA000C0B22B4B28701B7840B2000118432870ED
:106AB000201CFFF72AFF274906F056FD06F0B6FB1B
:106AC0006870201CFFF721FF07F0CCF9224906F07F
:106AD00029FB081C642106F0CFFAA870201CFFF7E0
:106AE00014FF07F0BFF9642106F01CFB201CE970BD
:106AF0000021FFF705FF0121061C201CFFF700FF06
:106B0000360106432E71201C0221FFF7F9FE0321F6
:106B1000061C201CFFF7F4FE360106436E71201C94
:106B2000FFF7E6FEA871201CFFF7E0FEE871201CCD
:106B3000FFF7E2FE2872201CFFF7DCFE6872201CC3
:106B4000FFF7CFFEA872201CFFF7C6FEE87270BDEB
:106B50001002002000401C461027000070B5081CE1
:106B6000141C0D1CFFF7E4FE061C701E8641281C39
:106B7000FFF7DBFE7600064376B20223B6011E4322
:106B80002670281CFFF7C1FE114906F0EDFC06F047
:106B90004DFB6070281CFFF7B8FE07F063F90D4944
:106BA00006F0C0FA081C642106F066FAA070281CE2
:106BB000FFF7ABFE07F056F9642106F0B3FA0423A1
:106BC000E1700022E25401330C2BFAD170BDC046B3
:106BD00000401C4610270000F7B5081C141C0D1CB3
:106BE000FFF7A6FE061C701E8641281CFFF79DFEBF
:106BF00076000643F6B22670281CFFF77FFE76B2B9
:106C0000B300061C701E86411E4376B20423360173
:106C10001E432670281CFFF778FE534906F0A4FC9B
:106C200006F004FB6070281CFFF76FFE07F01AF9EE
:106C30004E4906F077FA081C642106F01DFAA07090
:106C4000281CFFF762FE07F00DF9642106F06AFACE
:106C5000281CE170FFF75FFE08F066FF3F4B3E4ADD
:106C60000F1C01900E1C06F07FFA002804D0802330
:106C70001B06FE18012700E0071C394A394B311C5E
:106C8000019808F0F1F808F0A9FE3949061C06F051
:106C9000F3F937492071301C06F044FA081C3349D7
:106CA00006F0EAF931496071301C06F03BFA081C25
:106CB000642106F0E1F96421A071301C06F032FA7B
:106CC000C9B2E1710123002F01D0194300E09943BB
:106CD000E171281CFFF721FE08F026FF1F4B1E4A1A
:106CE0000E1C071C0D1C06F03FFA002804D0802360
:106CF0001B06F518012600E0061C194A194B291C31
:106D0000381C08F0B1F808F069FE1949051C06F0B6
:106D1000B3F917492072281C06F004FA081C13491D
:106D200006F0AAF911496072281C06F0FBF9081C4C
:106D3000642106F0A1F96421A072281C06F0F2F982
:106D4000C9B2E1720123002E01D0194300E099433A
:106D5000E172F7BDC046C046000000000000000020
:106D60000000000080842E4100401C4610270000D7
:106D700040420F00C046C04610B5141CFFF72CFF60
:106D800023780F22934303221343237010BD10B5C1
:106D9000141CFFF7E3FE23780F22934307221343CB
:106DA000237010BD10B5141CFFF7D8FE23780F22F6
:106DB000934306221343237010BD10B5041C081C16
:106DC0000138111C1A1C06281CD806F0FDF804080E
:106DD0000C101B181400201CFFF74AFE12E0201CA8
:106DE000FFF7BCFE0EE0201CFFF7C6FF0AE0201CE8
:106DF000FFF7F2FE06E0201CFFF7C9FF02E0201CAF
:106E0000FFF7D0FF10BD000010B5054C2368002B24
:106E100003D1012003F06AFB2060206810BDC0464A
:106E20001402002038B5154C0D1C201C03F0B8F8D6
:106E3000012003F041FB201C02F070FE0C22291CF3
:106E4000201C02F052FE0E4D0E49281C04F00EFECE
:106E5000201C002103F054F80A22011C281C04F015
:106E600058FE281C084904F001FE201C03F0FEF81F
:106E7000281C064904F0FAFD002038BD6C0C0020E7
:106E8000DC120020CA430100EA43010089400100EE
:106E9000437A002B04D18372C372C360012343720F
:106EA000704730B585B0041C02AD006802910392B2
:106EB00005F092F86B79E179227A0093206800233B
:106EC00005F0C4F929792068029A05F055F8206880
:106ED00005F078F805B030BD70B5041C1826FFF732
:106EE000D7FF2079331C43430D4D0821EB18595629
:106EF00005F0D0F9A079331C43430821EB1859560B
:106F000005F0C8F9607908214643AD19695605F0C6
:106F1000C1F9044B201C06CBFFF7C3FF70BDC04670
:106F2000984501001802002007B5837A009101926C
:106F3000002B0DD09A0706D5EFF310835A42534128
:106F4000C37272B604E0DA0702D58289034B9A60F5
:106F50000099019AFFF7A5FF07BDC0460018004041
:106F6000837A002B0BD09A0704D5C37A002B06D066
:106F700062B604E0DA0702D58289014BDA60704715
:106F80000018004008B50068002901D1012100E087
:106F9000002105F02BF808BD08B5031C032912D801
:106FA000081C1B6806F010F8050B0208181C0021CD
:106FB00007E0181C012104E0181C022101E0181C44
:106FC000032105F027F808BD08B5006805F040F872
:106FD00008BD70B5061C0C1C8D18AC4206D021787B
:106FE000301CFFF7F1FF20700134F6E770BD0000A0
:106FF0000F4B104A10491A6000225A711A710F4B38
:107000000F4819600A2119710921997108215971D4
:1070100003215A72DA7119720A4B18601D20187117
:107020001B2098711A205A725871DA7119727047C0
:107030001802002000093D00CC150020200200208D
:10704000D015002030020020014B08330360704748
:10705000F042010010B5044B041C0833036003F038
:1070600049FA201C10BDC046F0420100064A002328
:107070008350064A83508122D2008350044A8350B1
:107080008222D200835070471404000004040000E0
:107090000C04000010B5044B041C08330360FFF718
:1070A000E5FF201C10BDC046F0420100084BC2584D
:1070B0000332FF32920082185268C3580133FF3303
:1070C0009B00C0184368D01A80239B00C0187047EB
:1070D00014040000F8B5041C0F1C161CFFF7E6FF93
:1070E000051EB54200D9351C002D16D00C4E2A1CA9
:1070F000A059A35940020133FF339B00E3185B689A
:10710000391C18182018043008F093FEA3599B006E
:10711000E418044BE258AA18E250281CF8BDC046F7
:10712000140400000404000070B5164E041CA3599A
:10713000081C0133FF339B00E3185D68A359033338
:10714000FF339B00E3185B68ED1A954200D9151CCC
:10715000002D14D0A159A35949020333FF339B00DA
:10716000E3185B682A1C59186118043108F061FEA5
:10717000A3599B00E418044BE258AA18E250281CBB
:1071800070BDC046140400000C04000038B5134D57
:10719000031C40590130FF308000181844685859CA
:1071A0000330FF30800018184068241A944200D938
:1071B000141C002C0FD05A59585952020330FF307A
:1071C00080001818406882189B180433081C221C81
:1071D000191C08F02EFE201C38BDC0461404000007
:1071E000024BC3585B02C0180430704714040000FF
:1071F000074BC2580132FF32920082185268C358BE
:107200000333FF339B00C0184368D01A7047C04651
:10721000140400000A4BC258002A01D1012200E0E8
:107220000022C250C2580132FF32920082185160CF
:10723000C3580333FF339B00C018002343607047DB
:1072400014040000014B0833036070470043010041
:1072500010B5044B041C0833036003F04BF9201CE9
:1072600010BDC04600430100104B70B50833002527
:107270000426041C03604560291C321C083008F0F9
:10728000FAFD201C291C321C0C3008F0F4FD1026DD
:10729000201C291C321C103008F0EDFD201C291C7C
:1072A000321C203008F0E7FD201C70BD00430100B7
:1072B00030B50F480F2405782140A54329430170BC
:1072C0000C4B3F210A4010025C6C0B4A22400243E7
:1072D0005A64586C094A000A084205D0596C0A40A1
:1072E000802109040A4301E0596C0A405A6430BD08
:1072F0003F48004100480041FFC0FFFFFFFF3FFF44
:1073000001310A4B0901102A04D0202A07D00A5A59
:10731000134009E00A5A13408022520003E00A5A3F
:1073200013408022920013430B527047FFFCFFFF73
:10733000013109010A5A80235B0113430B520A5A97
:107340008023DB0013430B52704700000131090119
:107350000A5A044B13400B520A5A80231B01134351
:107360000B527047FFEFFFFFF0B585B09C460AABAC
:107370001B88019102930B1C01331B01195A012533
:10738000041C281C29425FD13049019F0E780F2030
:10739000074086433E430E70195B06208143195314
:1073A000195B1820814319531B5B9B059B0FAB4254
:1073B00004D00421022B02D0291C00E00221019FED
:1073C000019801373E01335B0001DB04DB0C3353D2
:1073D000A5192318039060466A6098611A1C00235F
:1073E000D361029805F048FE80B26880335B59058E
:1073F00003D56B68029AD3186B603B011B5B1805C1
:1074000005D50399029863189A6982189A613F0119
:107410003B5B01210B433B530D4B0E4A187808434D
:1074200018701C78022004431C700B4B1C782043FE
:107430001870536C00209B049B0E834204D1019C66
:107440001369A1401943116105B0F0BD3F480041E7
:107450004D48004100480041404800410231890048
:107460000A50704770B5184B0F221C8C174B1440F4
:107470001978174E91430A1C22431A70621C12019C
:10748000115A0123994311523278051C1A420AD02D
:10749000327813433370A31C9B00C3185B68002B26
:1074A00001D0201C98473278094B91070AD51A78E9
:1074B00002210A431A7063188B405B59002B01D0DC
:1074C000201C984770BDC046004800413F4800411D
:1074D0004E48004108B50248FFF7C4FF08BDC0464A
:1074E0004002002010B5054C201CFFF7BDFE201CFB
:1074F0000349044A05F078FB10BDC0464002002055
:107500004572000000000020704773B5051CEFF3C2
:1075100010860023019372B6EB6901ACDA17520FA3
:10752000D318DA102430211CFFF730FEF30700D403
:1075300062B6EB69202B01D1019808E0102B02D133
:107540000023E05E03E00020082B00D1207876BD08
:107550000368002905D11A8B5107FCD41A7804213D
:1075600004E01A8B1107FCD41A7808210A431A7018
:1075700070470368002905D11A8BD106FCD41A780C
:10758000102104E01A8B9106FCD41A7820210A43BA
:107590001A707047F8B5041CFA2706A80678BF00D1
:1075A00007A8A760A37400780D4F01235B42002554
:1075B0002075A3610837631C201C65602760E67492
:1075C0006575E561217462742430DD77FFF762FD33
:1075D000044B201CE5508823DB00E550F8BDC04675
:1075E000104301003C040000F8B51C4D027C2B68E0
:1075F00008329200D1580327041CB94301200143EB
:10760000D150217C281CFFF7A3FF217C281CFFF709
:10761000B0FF134EA169301CFFF78AFE301CA16930
:10762000104AFFF71BFF227C2B68101C08308000DB
:10763000C358A1691F40531E9A41012F01D12B321B
:1076400000E02932301CFFF733FE301CA169E269EB
:10765000FFF756FE01236375F8BDC046B40600204F
:1076600040020020357A000038B5437D041C012B10
:1076700001D0FFF7B9FFEFF3108572B6201C24305C
:10768000FFF714FDEB0700D462B638BD38B5437D73
:10769000041C0D1C012B01D0FFF7A6FF124B227C0E
:1076A0001B680120998A002A01D1090A00E0490AD1
:1076B0000140F6D0002A03D1198BC805FCD402E0A2
:1076C000198B8805FCD40C329200D550227C998A03
:1076D000002A02D18022520001E0802292000A4357
:1076E00001209A8238BDC046B406002008B5FFF7D5
:1076F000CDFF08BDF0B5437D87B0041C0F1C161CE0
:10770000012B01D0FFF770FFEFF3108201231A4025
:10771000029272B6251C2435391C321C281CFFF736
:10772000D9FC671C0390FE7FF6B2002E04D1281C02
:10773000FFF75EFD002804D1029B002B1FD162B62B
:107740001DE00123FB77A369281C0493FFF748FD84
:107750000590247C0B4B0C341B68281CA4001C19BE
:10776000FFF746FD80B200900499059A231C064855
:10777000FFF7FAFD281C311CFFF74CFDDCE70398EE
:1077800007B0F0BDB40600204002002008B5FFF7A6
:10779000B1FF08BDF8B51B4D027C2B680832920082
:1077A000D1580327B943D150041C017C281CFFF792
:1077B000CFFE217C281CFFF7DCFE134EA169301C94
:1077C000FFF7C4FD301CA169104AFFF747FE227C79
:1077D0002B68101C08308000C358A1691F40531E3D
:1077E0009A41012F01D12B3200E02932301CFFF7E2
:1077F0005FFD301CA169E269FFF782FD022363751A
:10780000F8BDC046B406002040020020357A0000D2
:10781000F0B5437D87B0041C022B01D0FFF7BAFFFF
:10782000EFF3108201231A40029272B6251C243510
:10783000281CFFF7DDFC671C0390FB7F002B04D1A5
:10784000281CFFF7D5FC061E04D0029B002B20D17C
:1078500062B61EE00123FB77A3690F4A0493237CE1
:1078600012680C339B00D218281C0592FFF7B8FC55
:10787000041C281CFFF71AFC80B200900499059A9A
:10788000231C0648FFF770FD281C311CFFF7C2FCC3
:10789000DBE7039807B0F0BDB406002040020020EB
:1078A000F0B5437D87B0041C0F1C161C022B01D0C1
:1078B000FFF770FFEFF3108201231A40029272B6B5
:1078C000251C2435391C281C321CFFF72DFC671C95
:1078D0000390FB7F002B04D1281CFFF789FC061EB8
:1078E00004D0029B002B20D162B61EE00123FB775F
:1078F000A3690F4A0493237C12680C339B00D218AF
:10790000281C0592FFF76CFC041C281CFFF7CEFB1B
:1079100080B200900499059A231C0648FFF724FDC5
:10792000281C311CFFF776FCDBE7039807B0F0BD9D
:10793000B40600204002002073B5C36901ACDA1719
:10794000520FD318051CDA100026211C0196FFF7F0
:10795000A7FFEB69202B01D1019808E0102B02D181
:107960000023E05E03E0301C082B00D1207876BDB8
:10797000F0B5051C437D2435041C85B0281C012B63
:1079800023D1FFF735FC00281BD0281CA769FFF77F
:1079900027FC237C244A0C3312689B00D218061C57
:1079A000281C0392FFF724FC80B20090391C321C83
:1079B000039B1E48FFF7D8FC281C0021FFF72AFC78
:1079C00001E0631CD8771A4B27E0FFF711FC002871
:1079D0001ED1237C144A0C3312689B00D218281C39
:1079E0000392A769FFF7FCFB061C281CFFF75EFB50
:1079F00080B2391C0090039A331C0C48FFF7B4FC8A
:107A0000281CFFF753FB011C281CFFF703FC02E0B6
:107A1000631C0022DA778823DB00E358002B00D0B8
:107A2000984705B0F0BDC046B406002040020020D3
:107A30003C04000008B5044B9A69824202D1181C2C
:107A4000FFF796FF08BDC0467002002013B5094B32
:107A5000094A0A4C1A60032202230093019215235B
:107A6000201C0021FFF796FD201C0549054A05F062
:107A7000BBF813BDB4060020005000427002002085
:107A8000897A00000000002010B5044B041C083364
:107A900003602430FFF7D8FA201C10BD104301000A
:107AA00013B502686B46D97107335468191C01225B
:107AB000A04716BD38B5041C006A0025A84202D1B3
:107AC000012363600AE0456092B200F0C1FC236AC2
:107AD0005B68002B02D001236360281C38BD006A5C
:107AE00008B5002801D000F02DFB08BD13B56C4689
:107AF0000734211C012200F049FA012801D1207825
:107B000000E0014800B216BDFFFF0000006A08B5A2
:107B1000002802D0FFF7EAFF01E00120404208BD43
:107B200038B5051C006A00280AD0FFF7DFFF041CE7
:107B3000631C05D0286A0169013900F0D1FA201CC4
:107B400038BD0000F8B5FA239B0083600D4B00257B
:107B50000833041C4560036028200F1C161C08F025
:107B600045F92062A8420AD0391C282208F061F9A0
:107B7000201C1030311C0C2208F00BFF2577201C34
:107B8000F8BDC04638430100FA2292008260044AE0
:107B90000023083243600260036203747047C046EA
:107BA00038430100036A002B01D0186901E001206D
:107BB00040427047006A002800D0C069704700004A
:107BC00038B5041C006A00280BD0201CFFF7F2FF18
:107BD000051C201CFFF7E6FF024B281A984200D92B
:107BE000181C38BDFF7F000010B5041C006A002877
:107BF00006D000F0E3FA206A08F002F900232362BD
:107C000010BD006A002803D0407A431E9841C0B2DC
:107C1000704738B50122051C0C1C01F0D9F8021C74
:107C20000120002A03D1281C211C01F0D1F838BD05
:107C300038B5031C41331B78041C0D1C002B02D0EB
:107C4000383000F0BBFA201C01212A1C00F0ACFDEA
:107C5000002801D100200FE0251C1035281C211C14
:107C6000FFF7D7FF0028F5D0201C3830291C00F082
:107C700063F9431E9841C0B238BD00004B684360B1
:107C80000A4B03600B7A03724B7A4372CB68C36072
:107C90000B6903614B6943610B7E0376CB69C3615A
:107CA0000B6A496A036241627047C046784301002B
:107CB000F0B59DB008AE02920393274A002312AF9D
:107CC000051C73607B601031301C08927372129235
:107CD0007B7200F031F9029C201C2F2108F01EFE5F
:107CE00000282ED023782F2B01D10134F4E7001B7C
:107CF000C0B2031C0C2800D90C23DBB21A1C211CB7
:107D000004A8019308F045FE019A002304A9381C39
:107D10008B5400F053FA381C311C04AA012300F0E4
:107D2000FDFA002804D10C4B68602B60687210E0EB
:107D3000019B301CE41800F041FA331C3E1C1F1C50
:107D4000CAE70299039A641A1460281C311CFFF7D1
:107D500095FF281C1DB0F0BD78430100F0B5A1B01F
:107D6000051C1F1C02A801AB161CFFF7A1FF019BFD
:107D7000F6183378002B07D102A916A8FFF77EFF6B
:107D8000281C16A9174A28E000230CAC6360637214
:107D90006B461133144A1B780C92002B03D1281C1C
:107DA000FFF7F2FE1BE0201C02A9321C3B1C00F076
:107DB000B5FA0028F3D002A800F000FA06231F400D
:107DC0009F4203D1201C139900F08AF9211C16A8A8
:107DD000FFF754FF281C16A9321CFFF7B3FE281C1E
:107DE00021B0F0BDC03F010078430100084B0221E3
:107DF0001961191C002230310A7006495A719A71B2
:107E00009A721A73DA63996341331A707047C046E5
:107E1000B806002078430100021C10B50C32041C87
:107E20000121406A00F04AFF00280AD0236A01209D
:107E3000002B06D1E368227A236280235B4213433E
:107E4000237210BD70B5041CFFF7E6FF002801D1B6
:107E500000201BE0636AE6681A7C023E96405A697D
:107E60001D79B618002D08D0701E401900F072FE62
:107E70000028EDD0013DEDB2F4E7636A01201A7CE1
:107E800080239B009340E269D318E36170BD00003A
:107E900010B5041C406900F039FE002803D0207E94
:107EA000014B4001C01810BD34070020F0B500237D
:107EB00087B0071C0E1C2022F25401330B2BFAD181
:107EC0000721002501913C78002C2AD02E2C06D1C8
:107ED000019B0A2B2BD00A21082501911FE002A843
:107EE0001449102207F0A5FF002302A9CA5C002A4A
:107EF00003D00133A242F8D119E0019B9D4216D86C
:107F0000231C213B5D2B12D8221C6B1C613ADBB277
:107F10007519192A01D8203CE4B22C701D1C0137B8
:107F2000D1E730782038431E9841C0B200E00020ED
:107F300007B0F0BD6043010038B5427A041C0D1C47
:107F4000002A01D000201FE04B1CDB7F102B06D144
:107F50000223437202624B8C5B01C3610CE0202B55
:107F6000F0D103234372496A221C01621C32281C8F
:107F700000F03EFE0028E5D000230120656220725B
:107F8000E36023616361237638BD0000F0B5437A76
:107F900085B0041C0E1C0392002B01D13A4811E05D
:107FA000037AD807FAD5E26920690399131A99422E
:107FB00001D99BB2039303990291029B002B04D138
:107FC000039988B200B205B0F0BD2369617ADF057C
:107FD000FF0D5A0A606A022902D1416A51181BE05A
:107FE0000579013D2A40D5B2002F0DD1002D0BD1CE
:107FF000002B02D1226AE26006E0221CE1680C320A
:1080000000F0C6FD0028C9D0636AE1681A7C023915
:108010005B699140C91849198022029D9200D31BC7
:108020009D4200DD9DB2237A580601D4954218D1B5
:10803000164B1B68994214D0154B3A1C18680096D1
:108040002B1C00F06FFC0028A8D0761901E0DF1B84
:10805000F6192169029A4B19551BADB2236102959D
:10806000ABE7081C002100F051FD002896D0094B19
:10807000321CFF1879193B1C8B42E8D01878013369
:1080800010700132F8E7C046FFFF00000400002036
:10809000300700203407002073B5437A041C012BFD
:1080A00001D8002016E003696D460735DE05291C5E
:1080B0000122360FFFF76AFF012801D12B7800E07B
:1080C000054B1BB20133ECD0236970011F332361D0
:1080D000024BC01876BDC046FFFF000034070020E9
:1080E00070B5041C407A0D1C00282AD0E269914228
:1080F00001D9002025E0022821D0002D01D1E56022
:108100001DE0626A2169137C681E09334A1ED8404B
:10811000DA40031E934201D3002902D1226AE260B1
:1081200000E0831A1E1C002E09D0221C606AE16840
:108130000C3200F02DFD013E0028F4D101E0256154
:10814000012070BD38B5051C407A002833D02B7A49
:108150007F2B2DD9281C0121FFF79AFE041E2AD05F
:108160006B7A012B07D82B7F03776B7F4377AB7F2D
:108170008377EB7FC3772B6A9AB21B0C23751B0A9C
:1081800063750D4BA2761B68120AE276002B0BD0AA
:10819000201C211C183016319847637E227E1B025A
:1081A0001343A3741B0AE3742A7A7F2313402B72B0
:1081B00000F082FCFFE738BD1C07002010B5041C4E
:1081C000FFF7C0FF002802D000236372012010BD1A
:1081D00073B5427A041C0D1C0020012A4BD1207A71
:1081E0000223184047D0E3690020994243D8101C6D
:1081F000002B40D0201C291C2669FFF771FF0028A6
:1082000025D0606A002D06D1216A00F0BBFD002850
:108210001DD025621DE0E16801AA00F0B9FC00282C
:1082200015D0606A0199431CDB7F102B01D1124BE2
:1082300000E0124B99420CD200F0A4FD002806D0B9
:10824000606AE1680E4A00F0F5FC002801D10020C8
:1082500011E0227A80235B421343E5612372201CE4
:10826000FFF770FF0028F2D0291EB14200D9311C5F
:10827000201CFFF735FF76BDF8FF0000F8FFFF0F69
:10828000FFFFFF0F38B5234B151C4A01D318041C00
:10829000D87A1122104204D04222154201D0002087
:1082A00036E01D4A2176126862615A7D187DD97EBA
:1082B00012020243987E0902120401431143216213
:1082C000D87A182202400CD15A7F197F12020A4331
:1082D000997FDB7F09040A431B061343E3610123F3
:1082E00009E0102ADBD1221C606A1C3200F080FCFD
:1082F0000028D4D0042363720F2300212B40237263
:10830000E160216101206A0602D5201CFFF760FFB1
:1083100038BDC0463407002004000020F0B5457A7F
:1083200087B0041C0E1C0193002D00D086E0101CA9
:1083300003A9FFF7BBFD002800D180E0726A2F1C63
:108340006262F56035613369F269934226D2DB05DA
:108350001B0F301C0093FFF79FFE011E6FD00378A8
:10836000002B01D0E52B0BD1002F04D1009B2376ED
:10837000344B1B6863610B780127002BE3D10DE0C0
:1083800003A80B2207F046FD0028DCD1019A302318
:108390001340302B53D0201C00994BE0019A12233C
:1083A0001340122B4BD1002F06D0201C0121FFF7C8
:1083B0006FFD061E0AD142E0737A022B3FD0301CBB
:1083C000FFF740FD00283AD01F4E277600212022DB
:1083D000301C07F050FD301C03A90B2207F029FDCB
:1083E0001A4B1B68002B05D0301C311C10300E318D
:1083F000984706E021223274B3732822082372744E
:10840000F373737C327C1B021343FF221A401B0A56
:10841000F3747376F37BB2743276B27B1B02134330
:10842000B3751B0AF37500F047FB002807D0217EC7
:10843000019A201CFFF726FF051C00E00025281CE0
:1084400007B0F0BD04000020340700201C07002006
:10845000F0B5437A87B0041C0D1C0392012B0DD19B
:10846000037A99070AD55A070CD5E16922698A422D
:1084700008D0201CFFF734FE002803D101236360DD
:108480000020AAE0039B01933BE0606A730A07792E
:10849000F605013F1F40FFB2F60D002F36D08022B7
:1084A0009200921B019992B20B1C914200D9131CAD
:1084B0009BB20293636AE1681A7C023991405A695F
:1084C0008B18029ADF1980239B009A423FD1444BBC
:1084D0001968B94202D1012252421A60414B391C3B
:1084E00018682A1C00F0A0FA0028C7D08022920049
:1084F000AD180199029A8B1A21699BB201938B18CE
:108500002361019A2669002ABFD149E0002EC6D115
:10851000E168002903D1236A002B16D10FE005AAD8
:1085200000F036FB002858D0626A059B0132D27FEA
:10853000102A01D12C4A00E02C4A934205D3201C7A
:10854000FFF76AFC0028AAD198E7E360A7E7002EAE
:108550000FD12369E1698B420BD300F0ADFA0028FB
:108560008CD01F4B01211F60214B1A780A431A70CF
:1085700006E0381C012100F0C9FA002800D17DE78F
:108580001C4B2A1CF618029BF118331C8B4204D09A
:108590001078013218700133F8E79E1BAD19A8E777
:1085A000E169237A8E4201D9E66106E0124A126837
:1085B000002A06D0039A002A03D080225242134395
:1085C0002372237A190701D4039806E0201CFFF7D1
:1085D000B9FD002800D151E7F6E707B0F0BDC0466D
:1085E0000400002030070020F8FF0000F8FFFF0F14
:1085F00034090020340700201C07002007B56B4613
:10860000D9710733191C0122FFF722FF0EBD0000AC
:1086100008B5011C0148FEF7D7FC08BD2002002068
:1086200008B50248FF21FEF7CFFC08BD200200205C
:1086300008B50121007903F003F9054B1A78002AE7
:1086400004D0002203481A70FEF78AFC08BDC04619
:10865000280700202002002010B5084B041C1A78BF
