:1020000000800020853B00006D3B00006D3B000020
:1020100000000000000000000000000000000000C0
:102020000000000000000000000000006D3B000008
:1020300000000000000000006D3B0000D93B0000E4
:102040006D3B00006D3B00006D3B00006D3B0000F0
:102050006D3B00006D3B00006D3B0000713B0000DC
:102060006D3B00006D3B00006D3B00006D3B0000D0
:102070006D3B00006D3B0000DD3A00006D3B000051
:102080006D3B00006D3B00006D3B00006D3B0000B0
:10209000000000006D3B00006D3B00006D3B000048
:1020A0006D3B00006D3B00006D3B00006D3B000090
:1020B0000000000010B5064C2378002B07D1054B1B
:1020C000002B02D0044800E000BF0123237010BDA4
:1020D000A0000020000000004459000008B5084B93
:1020E000002B03D00748084900E000BF07480368F9
:1020F000002B03D0064B002B00D0984708BDC046EC
:102100000000000044590000A40000209C000020B2
:1021100000000000F0B5334CA54401F03DFE02F094
:1021200075FD012001F066FD2F4D0421281C00F0F3
:10213000E7F9002844D02D4E281C311C00F0BEFACF
:1021400000283DD0291C01A8321C012300F06EFAA2
:1021500001A800F000F98021041CC90188422DD992
:1021600001A800F0E6F8224AC021A7182148C901B9
:102170003A1C01F0F5FBC024E40180220AA9920078
:1021800001A800F0CFF88023211C0AAA9B0019485F
:1021900001F08EFB80229200A318174AA418BC42BB
:1021A00001D21C1CE9E7012401A800F0EDF8002C85
:1021B00006D0281C311C00F08DFA01E00024F3E762
:1021C000C023DB011B6883F308880C4BC022D201BB
:1021D0009A600B4B1B68184700208B239B009D4483
:1021E000F0BDC046D4FDFFFFD4000020A84E000083
:1021F00000C0FFFFBC00002000A2FFFF00ED00E0D8
:102200000460000008B5002102480A1C01F038FBF8
:1022100008BDC046BC00002000207047704713B5C1
:1022200002686B46D97107335468191C0122A04714
:1022300016BD38B5041C006A0025A84202D101234E
:1022400063600AE0456092B201F004F8236A5B68BB
:10225000002B02D001236360281C38BD006A08B53A
:10226000002801D000F042FE08BD000013B56C4606
:102270000734211C012200F05DFD012801D12078E6
:1022800000E0014800B216BDFFFF0000006A08B57B
:10229000002802D0FFF7EAFF01E00120404208BD1C
:1022A00038B5051C006A00280AD0FFF7DFFF041CC0
:1022B000631C05D0286A0169013900F0E5FD201C86
:1022C00038BD0000F8B5FA239B0083600D4B002554
:1022D0000833041C4560036028200F1C161C02F004
:1022E000BBFC2062A8420AD0391C282202F0D7FC8D
:1022F000201C1030311C0C2202F09CFD2577201C84
:10230000F8BDC046B84E0000FA2292008260044A2E
:102310000023083243600260036203747047C046C2
:10232000B84E0000006A08B5002801D000F002FD98
:1023300008BD006A08B5002804D000F0A5FD431EC2
:102340009841C0B208BD036A002B01D0186901E0B2
:10235000012040427047006A002800D0C0697047E1
:1023600038B5041C006A00280BD0201CFFF7F3FFCF
:10237000051C201CFFF7E7FF024B281A984200D9E2
:10238000181C38BDFF7F000010B5041C006A00282F
:1023900006D000F0E7FD206A02F068FC002323620B
:1023A00010BD000010B50A1C0C498AB0041C0023A3
:1023B000009169464B720193211C6846012300F08D
:1023C00081FE041C601E8441E4B2002C02D06846E9
:1023D00000F0C8FD201C0AB010BDC046004F000030
:1023E00008B50123002A05D000F01AFF031C581E6F
:1023F0008341DBB2181C08BD38B50122051C0C1C3A
:1024000001F094F9021C0120002A03D1281C211C90
:1024100001F08CF938BDF0B50C68035D2F3B5D42CF
:102420006B41E418271C0C37231CC55C1E1B2F2D89
:1024300009D0002D07D00133161BF618013E357068
:10244000BB42F2D10C2600249455C25C2F3A544270
:1024500062419B180B60C05C431E9841C0B2F0BD46
:10246000F0B5A1B0039025480D1C049205930CAA69
:10247000002316A90D930C905372179316904B726C
:1024800007932C1C009207A908AA0398FFF7C3FF23
:102490000126021C72400190D2B2201C08A9059BA3
:1024A000049FB847002807D1AC4201D1002023E0A7
:1024B000201C00F057FDF9E7019F002F11D0331CBD
:1024C0000098211C08AA00F0FDFD061CAC420FD0AC
:1024D000201C00F047FD002EE8D0231C009C009338
:1024E000D1E7AC4202D0201C00F03CFD301C03E0E0
:1024F0000028DBD016ACF0E721B0F0BD004F0000A3
:1025000038B5031C41331B78041C0D1C002B02D072
:10251000383000F027FD201C01212A1C00F0C8F9EA
:10252000002801D100200FE0251C1035281C211C9B
:10253000FFF762FF0028F5D0201C3830291C00F07E
:10254000CFFB431E9841C0B238BD00004B684360CA
:102550000A4B03600B7A03724B7A4372CB68C360F9
:102560000B6903614B6943610B7E0376CB69C361E1
:102570000B6A496A036241627047C046004F00001F
:10258000F0B59DB008AE02920393274A002312AF24
:10259000051C73607B601031301C089273721292BC
:1025A0007B7200F09DFB029C201C2F2102F036FC68
:1025B00000282ED023782F2B01D10134F4E7001B03
:1025C000C0B2031C0C2800D90C23DBB21A1C211C3E
:1025D00004A8019302F02EFC019A002304A9381CE0
:1025E0008B5400F0BFFC381C311C04AA012300F0FE
:1025F00069FD002804D10C4B68602B60687210E004
:10260000019B301CE41800F0ADFC331C3E1C1F1C69
:10261000CAE70299039A641A1460281C311CFFF758
:1026200095FF281C1DB0F0BD004F0000F0B5A1B013
:10263000051C1F1C02A801AB161CFFF7A1FF019B84
:10264000F6183378002B07D102A916A8FFF77EFFF2
:10265000281C16A9174A28E000230CAC636063729B
:102660006B461133144A1B780C92002B03D1281CA3
:10267000FFF74AFE1BE0201C02A9321C3B1C00F0A5
:1026800021FD0028F3D002A800F06CFC06231F40B7
:102690009F4203D1201C139900F0F6FB211C16A8C1
:1026A000FFF754FF281C16A9321CFFF70BFE281C4D
:1026B00021B0F0BDE04E0000004F000008B5031C43
:1026C000081C191C3831024A0023FFF7C9FE08BD57
:1026D000A523000008B5031C081C191C3831024A48
:1026E0000023FFF7BDFE08BDE1230000084B0221D7
:1026F0001961191C002230310A7006495A719A7109
:102700009A721A73DA63996341331A707047C0463C
:10271000D4000020004F000008B5011C014801F062
:10272000ABF908BD7807002008B50248FF2101F089
:10273000A3F908BD7807002008B50121007901F050
:102740002BFC054B1A78002A04D0002203481A708B
:1027500001F080F908BDC046400100207807002044
:1027600010B5084B041C1A78002A06D101221A70F1
:10277000054B064806CB01F051F92079002101F004
:102780000BFC10BD4001002038010020780700201C
:1027900010B58379041C002B0DD023895A1C22818B
:1027A000054A934202D8FFF7BFFFF6E7201CFFF768
:1027B000C3FF0023A37110BD0102000000B506296C
:1027C00003D91623437100201CE00F4B052913D8B1
:1027D000081C002202F0C0F9030507090B0D0B4984
:1027E00008E00B4906E00B4904E00B4902E00B4905
:1027F00000E00B49196002E00A4A1A6000221A71CF
:102800005A71012000BDC04638010020001BB700EE
:1028100000093D0080841E0040420F0020A10700F7
:1028200090D0030048E8010038B50C1C01F0DCF939
:10283000051CFFF779FFFF2806D001F0D5F9401BF2
:10284000A042F6D3002000E0012038BDF8B5041CFA
:102850000E1C171CFFF79CFF201CFFF781FF962121
:102860004900201CFFF7E0FF40203043FFF754FFF2
:102870001825381CE840C0B2083DFFF74DFF2B1C5F
:102880000833F6D19520002E03D08720082E00D0E3
:10289000FF20FFF741FF0025FFF746FF43B2E0723C
:1028A000002B04DAFF2D02D00135EDB2F4E7F8BDBC
:1028B000F7B5002502710573857285714571041C99
:1028C000019101F091F90121071C207901F00AFB27
:1028D0000121207901F060FB424E301C01F076F8B6
:1028E000414B42491D715D711960301C5A6801F0FD
:1028F00095F80A25013DFF20EDB2FFF70DFF002DF1
:10290000F8D1301C01F0A6F8201CFFF729FF0021A8
:10291000201C0A1CFFF79AFF061CE072012808D051
:1029200001F062F9FA23C01BDB009842EFD90123C2
:102930003BE0D522201C08215200FFF787FF04232B
:10294000184201D026730BE01E1CFFF7EDFE013E7E
:10295000F6B2E072002EF8D10223AA2825D1237303
:10296000267B023E73425E41B60737210022201CBF
:10297000FFF76CFF321C201C2921FFF767FF021CA8
:10298000E07208D001F030F9FA23C01BDB00984256
:10299000EBD9082309E0237B022B19D1201C3A2113
:1029A000FFF754FF002805D006236371201CFFF7B2
:1029B000C3FE15E0FFF7B8FEC0231840984201D1CE
:1029C00003232373FFF7B0FEFFF7AEFEFFF7ACFE65
:1029D000201CFFF7B1FE201C0199FFF7EFFE051C3C
:1029E000281CFEBD780700203801002090D003008D
:1029F00038B5041C01F0F8F8051CFFF795FEE072ED
:102A0000FF2808D101F0F0F89623401B5B009842A4
:102A1000F3D90F2302E0FE2806D00D23201C63719A
:102A2000FFF78AFE002000E0012038BDF8B5041C45
:102A30000F1C151C1E1E45D09A1880239B009A421D
:102A400042DC8379002B05D00268914202D10389D0
:102A5000AB4216D9237B2760032B00D07F023A1CA0
:102A6000201C1121FFF7F2FE071E02D00323637121
:102A70002AE0201CFFF7BCFF002825D00123278176
:102A8000A3712389AB4205D2FFF74EFE23890133A0
:102A90002381F6E7069D069AAB1A9BB2B34204D295
:102AA000FFF742FE28700135F5E72389A27AF31873
:102AB0009BB22381002A02D0064A934202D9201CED
:102AC000FFF766FE012003E0201CFFF735FE002023
:102AD000F8BDC046FF01000007B5802300929B00AF
:102AE0000022FFF7A3FF0EBD70B5051C081C161CC5
:102AF000FFF712FE0024305DFFF70EFE0134802345
:102B00009B009C42F7D1FF20FFF706FEFF20FFF756
:102B100003FEFFF709FE1F23E87203400120052B87
:102B200005D01123281C6B71FFF706FE002070BD35
:102B300070B50B1C041C161C002901D1122328E0BF
:102B4000027B032A00D04B02201C18211A1CFFF71D
:102B50007DFE051E01D004231BE0201CFE21321C3B
:102B6000FFF7C2FF002815D09621201C8900FFF72F
:102B70005BFE002801D115230BE0201C0D212A1C2F
:102B8000FFF764FE002803D1FFF7CEFD002806D032
:102B900014236371201CFFF7CFFD002003E0201CED
:102BA000FFF7CAFD012070BD034B044A1A600022E2
:102BB0005A711A717047C0463801002000093D0063
:102BC000021C10B50C32041C0121406A00F024FDE7
:102BD00000280AD0236A0120002B06D1E368227A5C
:102BE000236280235B421343237210BD70B5041C23
:102BF000FFF7E6FF002801D100201BE0636AE668CA
:102C00001A7C023E96405A691D79B618002D08D0EC
:102C1000701E401900F04CFC0028EDD0013DEDB2D3
:102C2000F4E7636A01201A7C80239B009340E269E9
:102C3000D318E36170BD000010B5041C406900F0BA
:102C400013FC002803D0207E014B4001C01810BDAA
:102C500050010020F0B5002387B0071C0E1C202275
:102C6000F25401330B2BFAD10721002501913C7856
:102C7000002C2AD02E2C06D1019B0A2B2BD00A2106
:102C8000082501911FE002A81449102202F007F85C
:102C9000002302A9CA5C002A03D00133A242F8D162
:102CA00019E0019B9D4216D8231C213B5D2B12D8B5
:102CB000221C6B1C613ADBB27519192A01D8203C21
:102CC000E4B22C701D1C0137D1E730782038431E48
:102CD0009841C0B200E0002007B0F0BDE24E000015
:102CE00038B5427A041C0D1C002A01D000201FE0D8
:102CF0004B1CDB7F102B06D10223437202624B8CEC
:102D00005B01C3610CE0202BF0D103234372496ABD
:102D1000221C01621C32281C00F018FC0028E5D09F
:102D20000023012065622072E360236163612376E2
:102D300038BD0000F0B5437A85B0041C0E1C039228
:102D4000002B01D13A4811E0037AD807FAD5E2699D
:102D500020690399131A994201D99BB203930399ED
:102D60000291029B002B04D1039988B200B205B0F6
:102D7000F0BD2369617ADF05FF0D5A0A606A0229F6
:102D800002D1416A51181BE00579013D2A40D5B2B4
:102D9000002F0DD1002D0BD1002B02D1226AE26051
:102DA00006E0221CE1680C3200F0A0FB0028C9D02C
:102DB000636AE1681A7C02395B699140C918491954
:102DC0008022029D9200D31B9D4200DD9DB2237A9A
:102DD000580601D4954218D1164B1B68994214D05D
:102DE000154B3A1C186800962B1CFFF71FFE002895
:102DF000A8D0761901E0DF1BF6192169029A4B1958
:102E0000551BADB223610295ABE7081C002100F011
:102E10002BFB002896D0094B321CFF1879193B1C5C
:102E20008B42E8D01878013310700132F8E7C046C1
:102E3000FFFF0000000000204C0100205001002096
:102E400073B5437A041C012B01D8002016E00369F6
:102E50006D460735DE05291C0122360FFFF76AFF94
:102E6000012801D12B7800E0054B1BB20133ECD0D7
:102E7000236970011F332361024BC01876BDC04621
:102E8000FFFF00005001002070B5041C407A0D1CAB
:102E900000282AD0E269914201D9002025E00228C9
:102EA00021D0002D01D1E5601DE0626A2169137C0B
:102EB000681E09334A1ED840DA40031E934201D3EC
:102EC000002902D1226AE26000E0831A1E1C002E53
:102ED00009D0221C606AE1680C3200F007FB013E59
:102EE0000028F4D101E02561012070BD38B5051C32
:102EF000407A002833D02B7A7F2B2DD9281C012132
:102F0000FFF79AFE041E2AD06B7A012B07D82B7F7D
:102F100003776B7F4377AB7F8377EB7FC3772B6A36
:102F20009AB21B0C23751B0A63750D4BA2761B68A6
:102F3000120AE276002B0BD0201C211C183016310F
:102F40009847637E227E1B021343A3741B0AE3741B
:102F50002A7A7F2313402B7200F05CFAFFE738BD1A
:102F60004401002010B5041CFFF7C0FF002802D068
:102F700000236372012010BD73B5427A041C0D1C3E
:102F80000020012A4BD1207A0223184047D0E36960
:102F90000020994243D8101C002B40D0201C291C33
:102FA0002669FFF771FF002825D0606A002D06D141
:102FB000216A00F095FB00281DD025621DE0E16824
:102FC00001AA00F093FA002815D0606A0199431C09
:102FD000DB7F102B01D1124B00E0124B99420CD237
:102FE00000F07EFB002806D0606AE1680E4A00F01F
:102FF000CFFA002801D1002011E0227A80235B4221
:103000001343E5612372201CFFF770FF0028F2D004
:10301000291EB14200D9311C201CFFF735FF76BDB7
:10302000F8FF0000F8FFFF0FFFFFFF0F38B5234B3D
:10303000151C4A01D318041CD87A1122104204D05E
:103040004222154201D0002036E01D4A2176126846
:1030500062615A7D187DD97E12020243987E090270
:103060001204014311432162D87A182202400CD184
:103070005A7F197F12020A43997FDB7F09040A43B2
:103080001B061343E361012309E0102ADBD1221C54
:10309000606A1C3200F05AFA0028D4D0042363720C
:1030A0000F2300212B402372E160216101206A0679
:1030B00002D5201CFFF760FF38BDC046500100203C
:1030C00000000020F0B5457A87B0041C0E1C019367
:1030D000002D00D086E0101C03A9FFF7BBFD0028DF
:1030E00000D180E0726A2F1C6262F560356133693D
:1030F000F269934226D2DB051B0F301C0093FFF7C9
:103100009FFE011E6FD00378002B01D0E52B0BD161
:10311000002F04D1009B2376344B1B6863610B782E
:103120000127002BE3D10DE003A80B2201F0A8FD3D
:103130000028DCD1019A30231340302B53D0201CBF
:1031400000994BE0019A12231340122B4BD1002F10
:1031500006D0201C0121FFF76FFD061E0AD142E0B8
:10316000737A022B3FD0301CFFF740FD00283AD085
:103170001F4E277600212022301C01F099FD301CC3
:1031800003A90B2201F08BFD1A4B1B68002B05D005
:10319000301C311C10300E31984706E02122327469
:1031A000B373282208237274F373737C327C1B027E
:1031B0001343FF221A401B0AF3747376F37BB27435
:1031C0003276B27B1B021343B3751B0AF37500F012
:1031D00021F9002807D0217E019A201CFFF726FF45
:1031E000051C00E00025281C07B0F0BD00000020F1
:1031F000500100204401002010B50021041CFFF7FD
:10320000BBFE00280BD0201C0121FFF715FD002874
:1032100005D0E52303700023637200F0FBF810BDB6
:1032200010B50A1C0A498AB008310023041C009119
:1032300069464B7201936846211C0223FFF742FF47
:10324000002802D06846FFF7D7FF0AB010BDC0467D
:10325000F84E0000F0B5437A87B0041C0D1C0392B1
:10326000012B0DD1037A99070AD55A070CD5E169CC
:1032700022698A4208D0201CFFF706FE002803D1ED
:10328000012363600020AAE0039B01933BE0606A96
:10329000730A0779F605013F1F40FFB2F60D002FB4
:1032A00036D080229200921B019992B20B1C91425F
:1032B00000D9131C9BB20293636AE1681A7C02393D
:1032C00091405A698B18029ADF1980239B009A4219
:1032D0003FD1444B1968B94202D1012252421A60CF
:1032E000414B391C18682A1CFFF722FC0028C7D064
:1032F00080229200AD180199029A8B1A21699BB223
:1033000001938B182361019A2669002ABFD149E0F5
:10331000002EC6D1E168002903D1236A002B16D103
:103320000FE005AA00F0E2F8002858D0626A059B79
:103330000132D27F102A01D12C4A00E02C4A93425C
:1033400005D3201CFFF73CFC0028AAD198E7E360D6
:10335000A7E7002E0FD12369E1698B420BD300F060
:1033600059F800288CD01F4B01211F60214B1A787F
:103370000A431A7006E0381C012100F075F8002895
:1033800000D17DE71C4B2A1CF618029BF118331C58
:103390008B4204D01078013218700133F8E79E1B7D
:1033A000AD19A8E7E169237A8E4201D9E66106E00A
:1033B000124A1268002A06D0039A002A03D08022FB
:1033C000524213432372237A190701D4039806E06B
:1033D000201CFFF78BFD002800D151E7F6E707B06E
:1033E000F0BDC046000000204C010020F8FF0000A6
:1033F000F8FFFF0F5003002050010020440100207F
:1034000007B56B46D9710733191C0122FFF722FF5C
:103410000EBD0000F8B50F4F01203B78002B18D0EF
:103420000D4E0E4B0E4D196830682A1CFFF780FBBD
:1034300000280ED00B4C2168002907D030682A1CC8
:10344000FFF776FB002804D00023236000233B70A5
:103450000120F8BD500300204C0100200000002096
:10346000500100204801002070B50D4D041C2B6850
:103470000E1C83420ED0FFF7CDFF002801D10020A3
:103480000DE0084B211C1868074AFFF725FB0028B0
:10349000F5D02C60054B01201A7816431E7070BDC4
:1034A000000000204C0100205001002050030020AB
:1034B00010B5041CFFF7AEFF00280FD00023084A08
:1034C000002199548022013392009342F7D1054B99
:1034D00001201C60044B1A7802431A7010BDC046CC
:1034E000500100200000002050030020C36870B588
:1034F00001330C1C151C994201D9002021E0461C07
:10350000F17FC269E309102900D1230A98180D4BF5
:103510001B68984207D1F27F0B4B102A09D1E4B205
:1035200064001B5B0BE00021FFF79EFF0028F2D137
:10353000E3E77F221440A4001B591B011B092B60E9
:10354000012070BD000000205001002073B5051C53
:103550000191161C0024281C019901AAFFF7C6FF3F
:10356000002810D02A7C80239B009340E4186B1C19
:10357000DB7F019A102B01D1034B00E0034B9A42F1
:10358000E9D33460012076BDF8FF0000F8FFFF0F9B
:10359000F7B5051C0C1C0192012932D9C368002023
:1035A000013399422ED86F1CFA7FEE69CB09102A9D
:1035B00000D10B0A9E19144B1B689E4208D1FA7F5A
:1035C000124B102A0BD1E4B2019A64001A530BE09B
:1035D000301C0021FFF748FF0028F0D112E07F22C5
:1035E0001440019AA4001A51094B01201A78024391
:1035F0001A702B7E834205D9AB68F618054B1E6006
:1036000000E00020FEBDC046000000205001002068
:103610005003002048010020F0B5156887B0061C53
:103620000291171C002D03D000210135019106E005
:10363000029B0568013B5A425341DBB20193F26899
:103640000023013203922C1C00930099F2689142EE
:1036500021D2039B9C4201D90224251C301C211C31
:1036600005AAFFF743FF002815D00599631C002920
:1036700001D01D1C03E002995A1B8A4204D0009A13
:103680001C1C01320092E0E7301C211C134AFFF79A
:103690007FFF00280BD100201DE0631E301C191C89
:1036A000221C0093FFF774FF0028F4D0009CAC426A
:1036B000F3D83968002906D101993D60002909D065
:1036C0000135356006E0301C2A1CFFF761FF002839
:1036D000F2D1E0E7012007B0F0BDC046FFFFFF0FC9
:1036E000022337B5051C0C1C0360281C211C01AAF1
:1036F000FFF7FCFE002812D0281C211C0022FFF737
:1037000047FF00280BD06B1CDB7F019C102B01D1E5
:10371000044B00E0044B9C42E7D3012000E0002072
:103720003EBDC046F8FF0000F8FFFF0FF8B5444B60
:10373000041C151C196029D0042A01D900207DE041
:103740000020011CFFF790FE0028F7D02D013D4B13
:10375000A935FF355D19AA79AB1D5006EED1EA7C7B
:10376000A97C12020A43297D09040A43697D0906DE
:103770000A43632AE2D9AA7BED7B2D0215439A7A8C
:10378000DB7A120415431B061D43D7D0281C0021E9
:10379000FFF76AFE0028D1D02A4B197BDA7A09029A
:1037A0001143802292009142C8D11A7C002AC5D0D0
:1037B000D9890029C2D0597B0029BFD022760022A6
:1037C00021712274227C01209040814204D0501C3F
:1037D0002074072AF6D9B1E7D98A002900D1596A9D
:1037E000A160D8892818E0611F693E02360C668402
:1037F000B7B21E7C71430E1813487901091849129B
:10380000711866626161187DDE7C0002304300D170
:10381000186A6D1A2818D040021CE0600B48611C21
:10382000824201D80C2307E00948824201D81023C4
:1038300002E0DB6A63622023CB770120F8BDC0463B
:103840004C01002050010020FF010000F40F000097
:10385000F4FF000008B50549054A064800F010F8D5
:10386000054B064900221A705A5408BD005000004A
:1038700001040000540300206C0300200204000037
:1038800030B5094C094BA5686D036D0FAD00EB58C1
:103890000360A4680161A4B244605C439B0084603F
:1038A000C360426130BDC046004000410055000089
:1038B000F7B51F4E8027756803333D439B0875603D
:1038C000002B34D01B4D3580357DEF07FCD51D1CFA
:1038D0005F1B01970768BF08BC46019F67451FD261
:1038E000002D1DD01778013D0197FF27BC43019F94
:1038F0003C4357783F0201970F4F3C40019F3C43A8
:1039000097783F04BC460D4F3C40D778A4B23F06A1
:10391000009767463C43009F04323C4310C1D7E701
:10392000074B3380337DDF07FCD52B1CC8E7F7BD81
:103930000040004144A5FFFFFF00FFFFFFFF00FF25
:1039400004A5FFFF044B054A4908D9611A801A7D76
:10395000D107FCD57047C0460040004102A5FFFFDB
:1039600070B5051C0C1C161CEB68281C211C9E4203
:1039700005D9FFF7E7FFEB68E418F61AF4E7FFF75D
:10398000E1FF70BD437A002B04D18372C372C36020
:1039900001234372704730B585B0041C02AD006846
:1039A0000291039200F088FC6B79E179227A00930E
:1039B0002068002300F022FD29792068029A00F097
:1039C0004BFC206800F06EFC05B030BD70B5041CE7
:1039D0001826FFF7D7FF2079331C43430D4D0821EC
:1039E000EB18595600F008FBA079331C434308211B
:1039F000EB18595600F000FB607908214643AD19D9
:103A0000695600F0F9FA044B201C06CBFFF7C3FF00
:103A100070BDC046205500007007002007B5837AAE
:103A200000910192002B0DD09A0706D5EFF3108379
:103A30005A425341C37272B604E0DA0702D5828952
:103A4000034B9A600099019AFFF7A5FF07BDC04696
:103A500000180040837A002B0BD09A0704D5C37A54
:103A6000002B06D062B604E0DA0702D58289014B4A
:103A7000DA6070470018004008B5006800F025FCC7
:103A800008BD00000F4B104A10491A6000225A71FD
:103A90001A710F4B0F4819600A2119710921997188
:103AA0000821597103215A72DA7119720A4B186090
:103AB0001D2018711B2098711A205A725871DA71E2
:103AC000197270477007002000093D005C08002053
:103AD00078070020600800208807002008B5024809
:103AE00000F066FD08BDC0469807002013B51249D6
:103AF000124800F031FB1249124800F02DFB124928
:103B0000124800F029FB1249124800F025FB124927
:103B1000124800F021FB124C1249201C00F01CFB43
:103B20000323009301230193211C0D220E230E4831
:103B300000F02CFD13BDC0460008004258080020CC
:103B4000000C00425C0800200010004260080020C9
:103B500000140042540800200018004264080020AD
:103B600068080020001C004298070020FEE70000C3
:103B700008B5034B1B68002B00D0984708BDC04612
:103B80006C08002038B50F490F4CA14204D100F059
:103B90004FF8FEF7BFFA0BE00C4D8D42F7D0002333
:103BA000CA18E818A24204D2006804331060F7E78C
:103BB000FEE79042EBD0064B064A9342E7D2002242
:103BC00004C3F9E700000020A000002048590000CD
:103BD000A0000020500D002008B500F026F80028B5
:103BE00001D100F017F808BD014B18687047C046B6
:103BF0007008002070B5041E08D0054B1D681E1CFF
:103C000000F012F833685B1BA342F9D370BDC046C5
:103C10007008002008B5034B1A6801321A6000F0E2
:103C200061FA08BD7008002070470020704700004E
:103C300070B5494A1E21536802208B43034347490C
:103C400053608B69082423438B61454C454B9C8210
:103C50009C8A20439882101CDA689407FCD5424A5B
:103C6000012414701478E50704D53F4C647864B2DD
:103C7000002CF7DB01249460547864B2002CFBDB49
:103C80003A4D394C6560547864B2002CFBDB8225D8
:103C9000354CED016580547864B2002CFBDB0224C6
:103CA0009C84DC68E606FCD5314D2E4CE562DD686F
:103CB0002C4CEE06FBD5A58C2E4E3543A584DD6835
:103CC000284CEE06FBD5A58C02263543A584DC687E
:103CD0002506FCD5234CE4686606F8D5DC68E506C5
:103CE000FCD500249460547864B2002CFBDB224D98
:103CF0001D4C656055781C4C6DB2002DFADB1E6AB8
:103D00001E4D35401D621D6A8026B5431D6203238A
:103D1000A3601B4B636053785BB2002BFBDB00237B
:103D20000B72184A4B728B72CB72174BFF211A60C1
:103D3000164B174A1B6812685C01D20E21401143D2
:103D40009A06520F12020B1C1343124A1385436842
:103D500080221343436070BD0040004100040040D6
:103D60000C06000000080040000C004001050100A6
:103D7000B905FF7D040A000000070300FFFCFFFFF8
:103D800003060100006CDC020400002024608000B7
:103D90002060800000400042314BFA21186810B5C5
:103DA000890000F0E3FE2F4B0138984224D82E4AB8
:103DB0002E4B5060186AC0210002000A0906014318
:103DC00019620024072194601160196A8022090297
:103DD000090A12060A431A62254BFC211A6A0A4391
:103DE0001A62196AFC2292010A431A62196AA02215
:103DF000D2020A431A6200E0FEE7201C00210134CF
:103E000000F070F80F2CF8D11A4C63785BB2002BDD
:103E1000FADB194B6380194B5A7ED209012AFAD07A
:103E2000E422D2009A803F22DA70597E134AC909EF
:103E30000129FAD0C0235B0100201361907000F0CB
:103E400023F863785BB2002BFBDB0D4A094B5A80E9
:103E50000C4BDA79D209012AFAD041225A7010BDEE
:103E600004000020FFFFFF0010E000E000ED00E094
:103E700000040040000C00401E40000000400042D2
:103E8000214000000048004200B5144A517E131C36
:103E9000C9090129F9D00138042813D81969104A31
:103EA0000A401A615A780F218A4300F055FE030533
:103EB00009070300012102E0032100E002210A4377
:103EC0005A700AE01169F0231B050B431361537804
:103ED0000F218B4302210B43537000BD0040004271
:103EE000FFFFFFF010B51824021C201C5043274B85
:103EF0001818007A40B2013046D0032944D8081C73
:103F0000211C00F029FE02331121624398569A18B1
:103F1000C3011F4852681B189918403102200870CD
:103F20000121914059602FE06243985618499A1830
:103F30005268C3015B1899184031062008700121AE
:103F40009140596099611FE051435A5610485918E1
:103F50004B68D2011118C8184030062404700120A3
:103F6000984048600B49521850600DE062439856E3
:103F70009A18C301064852681B189918403102204C
:103F8000087001219140996010BDC0462055000085
:103F9000004400411044004118235843134AF0B52F
:103FA000131808241C5701341FD08256104ED2011A
:103FB0005D6801249019231C8668AB401E420BD11A
:103FC0000E1C771EBE41401934404030A5000478D5
:103FD0000426B4432C430470002903D10549521828
:103FE000536002E0024E92199361F0BD205500002B
:103FF000004400411044004118224243F8B52D4DC1
:104000000824AA181457031C621C50D0481C002412
:104010000C284CD800F0A0FD071E1E1E1E1E1E1EE2
:104020001E0A0A0A0A000124644240E0092902D15A
:10403000181C002103E00A2904D1181C0221FFF7F3
:1040400051FF23E000240B2931D1181C0121FFF777
:1040500049FF2CE018225343EA185268EB5601201E
:10406000141C04405508DB01002C11D0124C1B1904
:104070005D1930352E780C010F21314021439A18FB
:10408000C9B22970403213781843107000240EE032
:10409000094E0F279B195D1930352E789A18BE43AB
:1040A0003143C9B229704032137818431070201C74
:1040B000F8BDC0462055000000440041F7B58A18FD
:1040C000061C0D1C01920C1C019B671B9C4207D017
:1040D000336821781B68301C984701340028F3D1DD
:1040E000381CFEBD154A1368581C25D0013B1360CF
:1040F000002B21D172B6124A124B04329A4207D8D1
:10410000BFF34F8F104A114BDA60BFF34F8F11E0AE
:104110000F4B197DC807FBD5188B2021FF31920862
:10412000520001431983DA610A4A1A801A7DD107C5
:10413000FCD5E5E7C046FDE77047C0460800002013
:1041400000200000030200000400FA0500ED00E07A
:104150000040004102A5FFFF01607047F7B508ACC1
:10416000267804689D1E27686C1EA541ECB2920754
:1041700005683A4327063A432A6002680725294022
:104180005068B501002C00D05C03294301430C4367
:104190005460F7BD30B50368C0251C68AD03120537
:1041A0002A402243C024A40209042140114319607B
:1041B00003685A6814435C6030BD036801211A68C3
:1041C0000A431A600268116801231942FBD1D169C0
:1041D0001942F8D17047036802211A680A431A602D
:1041E0000268D3699907FCD4704703681A7ED10727
:1041F00002D41A7E9107FCD57047036800225A83C7
:1042000070470368187E4007C00F70470368187E28
:10421000C009704703688022197E52420A431A7609
:1042200070470368187E0123184070470368188D93
:10423000C0B2704703681A7E01200242FBD0198584
:104240007047036801219A7D0A439A757047036895
:1042500001221A757047000070B5036801268D07AA
:10426000ED0F31401C686D07090729432143196090
:1042700004685100034800F079FC0138C0B2207393
:1042800070BDC046006CDC02036801211A680A4355
:104290001A600268116801231942FBD1D1691942E1
:1042A000F8D17047036802211A680A431A6002684D
:1042B000D3699907FCD470470368DA699107FCD485
:1042C0001A6802218A431A60704703689A6A520A80
:1042D00052021143996203681A7E5107FCD5986A0D
:1042E000C0B270470368224A30B5934211D0214AC8
:1042F000934211D0204A934211D0204A934211D0C8
:104300001F4A934211D01F4A934230D10E231922E3
:104310000DE0092314220AE00A23152207E00B23EB
:10432000162204E00C23172201E00D231822DCB230
:10433000154901209B08A0409B0008605B180320E2
:10434000C021890004405D58E000FF248440A5435B
:104350002C1CC0258540281C204358508023DB019D
:104360001A430A4B5A805A7852B2002AFBDB30BDFE
:1043700000080042000C00420010004200140042FD
:1043800000180042001C004200E100E0000C004068
:10439000F8B5041C151C0E1C1F1CFFF7A3FF201CE6
:1043A000FFF70BFFB1001C220A4069072368090CC4
:1043B0000A431A60226884239375012E1AD10821BA
:1043C000012D00D110210C4B79431868C00000F07A
:1043D000CDFB236807219A890140D2044903D20CFE
:1043E0000A439A8123680004C20C9889400B400359
:1043F00010439881F8BDC04604000020F7B5019332
:1044000008AB041C1F780D1C161CFFF73DFF201C79
:10441000FFF768FFBF070C221743C022920336053F
:104420001640C02292022D0423683E430199154094
:10443000354307221D600A408021236889020A4310
:104440005A60F7BD0120704708B50368014A1B6A2E
:10445000984708BD1304000010B5041C0069FFF75D
:10446000ACFE201C143000F041FB201C5C3000F03E
:104470003DFB10BD08B5143000F04AFB08BD10B577
:10448000041C201C5C3000F043FB0028F9D120699B
:10449000FFF7ABFE10BD08B55C3000F03FFB08BD78
:1044A00070B5051C1435041C281C00F023FB231CCC
:1044B000A8331B78061CFF2B0AD0281C00F02EFB0B
:1044C0000A2805DD231CB033B4341B6822681A6047
:1044D000301C70BD08B5143000F02AFB08BD70B563
:1044E000041C00690E1CFFF79CFE251C5C3500288F
:1044F00004D0281C00F00CFB00280CD0281C00F075
:1045000020FB0028FAD1281C311C00F0E4FA2069B5
:10451000FFF797FE03E02069311CFFF78BFE0120B7
:1045200070BD0000F0B585B01D1C0AAB1B78041CE3
:1045300000930BAB1B78161C01930CAB1B780F1C64
:1045400002930DAB1B78039300234360FA239B0077
:1045500083600D4B08330360143000F0B1FA201C67
:104560005C3000F0ADFA009A231CA43327619A70E6
:10457000019A201CDA70029A1E701A71039A5D70FB
:104580001A7505B0F0BDC0468058000030B585B042
:10459000041C08A8057809A8007800950190FF2060
:1045A00002900390201CFFF7BDFF201C05B030BD1A
:1045B00038B5041C0069FFF724FE002819D02069D3
:1045C000FFF734FE251C1435011C281C00F083FA6B
:1045D000231CA8331B78FF2B0BD0281C00F09EFA5D
:1045E000092806DC231C221CAC33B4321B68126879
:1045F0001A602069FFF715FE002811D0251C5C35D4
:10460000281C00F085FA002807D0281C00F072FA58
:10461000C1B22069FFF70EFE02E02069FFF717FE26
:104620002069FFF7F3FD002805D02069FFF7F2FDB0
:104630002069FFF7E2FD38BDF023081C1840303830
:10464000434258417047F0231B01194080239B00CF
:1046500099420CD0C0239B00994206D080235B0076
:104660000520994204D0002002E0072000E0062047
:1046700070470F231940012905D002394B424B41A5
:104680000220C01A00E0002070470000F0B5031CB3
:1046900085B00391A433041C182718783B1C4343AE
:1046A000344E0821F3185956151CFFF7A5FC231C9E
:1046B000A53318783B1C43430821F3185956FFF7DC
:1046C0009BFC231CA7331B78022B0AD1231CB83375
:1046D0001878FF2805D047430821F7197956FFF7C6
:1046E0008BFC271CA8373878FF281AD00121FFF748
:1046F000F9FB3B7818225A43B3561F4FDB01211CAC
:10470000AC31D81908601D49B6185B18211C7268B5
:10471000B0310B60012191400A1C211CB4310A60A8
:104720001A6001210A1C039B2069FFF731FE291C36
:10473000201CFFF788FF291C071C201CFFF799FF8E
:10474000291C061C201CFFF777FF391C0090331C26
:1047500020690122FFF702FD231CA7331978013BD2
:104760001A782069FFF716FD2069FFF734FD05B0C0
:10477000F0BDC046205500001844004114440041DB
:104780003F20704713B502686B46D97107335468F0
:10479000191C0122A04716BD08B50069022100F0CE
:1047A00049F808BD08B50069032100F059F808BDB3
:1047B00038B50D1C041C131C006903212A1C00F0D1
:1047C000F1F8002801D10123636038BD10B5054C14
:1047D00023685A1C04D103685B6998472060031C56
:1047E000181C10BD0C000020074A08B51368591C9E
:1047F00004D0012149421160181C03E00069022124
:1048000000F0C2F808BDC0460C000020064BFA219B
:1048100089009960054900220831196004495A60ED
:1048200019611A767047C04674080020B858000015
:10483000340C002008B5084B8A00D058002803D05B
:1048400003689B68984706E0C9B2044B49015918B0
:1048500088688004800C08BD180C0020380C0020EB
:1048600010B50C1CFFF7E6FF00280CD0064BE1B298
:104870001B680831490159184A7980235B42134368
:104880004B710223CB7110BD380C002010B5C9B29A
:104890000C48490143189A689204920C3F2A08D99F
:1048A000141C9A68403CA404920BA40C920322436B
:1048B00002E09A68920B92039A6041188868C0B22D
:1048C00010BDC046380C0020F0B51C1C2A4B85B02A
:1048D0001B68061C0D1C0292002B46D0274B8A0039
:1048E000D058002805D0036802995B68221C9847BD
:1048F0003FE0301CFFF79EFFA04204D2301C291C71
:10490000FFF798FF041C291C301CFFF7BFFF1C4F4A
:10491000E9B24A010191396803928B18FF335A7A40
:1049200001210A4317495A72AB01C9180298221C87
:1049300000F0B5F9002C1BD0301C291CFFF77AFFC2
:10494000002815D1019B3A6808335B01D318197907
:104950004020014319710121D97103995318FF3384
:104960009A7A01210A439A7202E00120404200E053
:10497000201C05B0F0BDC0463C0D0020180C0020E6
:10498000380C0020580A002013B56C460734221C4E
:104990000123FFF799FF012801D1207801E00120D0
:1049A000404216BDF0B51C1C3A4B85B01B680E1C6E
:1049B0000292002B60D08023DB019C425CD8002255
:1049C0000092002C56D0344DF7B22B6801933B1C5B
:1049D0000833019A5B01D3189B79DB091AD02F4B5E
:1049E0002F49186800F0C2F82E4B1721584300F0E9
:1049F000BDF83B1C0833019A5B01D318DB799A0799
:104A000008D4294B9A5D002A38D1421E002835D09F
:104A1000101CEEE7244B00229A55251E3F2D00D98D
:104A20003F25224AB301D318181C02992A1C03936C
:104A300000F035F9184A7B01D318039AA9045A618A
:104A40009A69890C920B92030A439A613B1C019A62
:104A500008335B01D3180222DA715979802252425D
:104A60000A435A71009B029A5B1952190093641B06
:104A70000292A6E700980BE0012008E001229A5577
:104A80007B01ED18AB69101C9B0B9B03AB61404293
:104A900005B0F0BD3C0D0020380C002004000020C3
:104AA00040420F007011010090080020980800207B
:104AB000014A024B1A60704700500041380C002038
:104AC00010B500214022041C00F0F2F80023201C45
:104AD0002364636410BD026C10B53F23541C234053
:104AE000446CA34201D08154036410BD00230364CD
:104AF00043647047436C026C934206D0C25C3F2112
:104B000001330B404364101C01E001204042704718
:104B1000026C436CD01A00D540307047036C406C77
:104B2000834202DBC01A3F3001E0C01A01387047EF
:104B3000436C026C934201D0C05C01E00120404212
:104B40007047026C3F2301321A40436CD01A434233
:104B50005841C0B27047000002B47146490849008C
:104B6000095C49008E4402BC7047C046002934D01D
:104B70000123002210B488422CD301242407A1422F
:104B800004D2814202D209011B01F8E7E400A142EC
:104B900004D2814202D249005B00F8E7884201D387
:104BA000401A1A434C08A04202D3001B5C0822435F
:104BB0008C08A04202D3001B9C082243CC08A042D0
:104BC00002D3001BDC082243002803D01B0901D0BC
:104BD0000909E3E7101C10BC7047002801D0002031
:104BE000C04307B4024802A14018029003BDC0466A
:104BF000190000000029F0D003B5FFF7B9FF0EBC83
:104C00004243891A1847C0467047C04670B50E4BDC
:104C10000E4D0024ED1AAD101E1CAC4204D0A300B2
:104C2000F35898470134F8E700F032F9084B094D82
:104C30000024ED1AAD101E1CAC4204D0A300F358A2
:104C400098470134F8E770BD74000020740000201C
:104C5000740000209800002008B5034B011C186860
:104C600000F076F808BDC0467000002008B5034B80
:104C7000011C186800F024F808BDC0467000002030
:104C800030B50023934208D0C55C0133CC18013CF9
:104C90002478A542F6D0281B00E0002030BD10B5D6
:104CA0000023934203D0CC5CC4540133F9E710BD18
:104CB000031C8218934202D019700133FAE770473F
:104CC00030B5002940D004390B68002B00DAC91830
:104CD0001E4A1368141C002B02D14B60116033E094
:104CE00099420FD208680A189A4205D1136852688F
:104CF000C01808604A6000E04B60216024E08A42EE
:104D000003D8131C5A68002AF9D11D685C198C421B
:104D10000BD10968691858181960904214D11468A9
:104D20005268091919605A600EE08C4202D90C23AE
:104D3000036009E008680C18944203D114685268B3
:104D4000001908604A60596030BDC046440D00201B
:104D500070B50323CD1C9D430835061C0C2D01D2D4
:104D60000C2501E0002D3FDB8D423DD3204B1C681C
:104D70001A1C211C002913D00868431B0DD40B2BCF
:104D800002D90B60CC181EE08C4202D1636813601C
:104D90001AE0486860600C1C16E00C1C4968E9E7E2
:104DA000144C2068002803D1301C00F025F8206046
:104DB000301C291C00F020F8431C15D0C41C032310
:104DC0009C4384420AD12560201C0B300722231DFE
:104DD0009043C31A0BD05A42E25008E0211A301C0B
:104DE00000F00AF80130EED10C233360002070BDD2
:104DF000440D0020400D002038B5074C0023051C51
:104E0000081C236000F02AF8431C03D12368002B00
:104E100000D02B6038BDC0464C0D0020C9B20378CD
:104E2000002B03D08B4204D00130F8E7002900D0DA
:104E3000181C704730B5031C002A07D00C780133CA
:104E40005D1E013A2C700131002CF5D19A18934265
:104E500003D0002119700133F9E730BD094A136806
:104E6000002B0CD018186946884202D81060181C14
:104E70007047054B0C2201201A604042F8E7034BB3
:104E80001360EFE7480D00204C0D0020500D00206E
:104E9000F8B5C046F8BC08BC9E467047F8B5C04699
:104EA000F8BC08BC9E4670475550444154452E42BC
:104EB000494E00000000000000000000000000005B
:104EC0001F22000033220000192200005D22000092
:104ED000612300008D220000A122000000000000DC
:104EE0002F007C3C3E5E2B3D3F2F5B5D3B2C2A22FE
:104EF0005C00000000000000000000000000000056
:104F000001340000BD400000192200001D220000F5
:104F10000000000000000000000000000000000091
:104F20000000000000000000000000000000000081
:104F30000000000000000000000000000000000071
:104F40000000000000000000000000000000000061
:105500000800000010000000200000004000000023
:105510008000000000010000000200000004000004
:105520000000000016000000080000001C00000041
:10553000FF00000400040600000000001700000047
:10554000080000001C000000FF0001040104070027
:10555000000000000A000000080000001C0000001D
:10556000120000010001FF00000000000B0000001D
:10557000080000001C000000130001010101FF00F1
:10558000010000000A000000080000001C000000EC
:10559000FF00000500050A00010000000B000000EC
:1055A000080000001C000000FF00010501050B00C1
:1055B0000000000014000000080000002C000000A3
:1055C000FF000200020004000000000015000000BF
:1055D000080000002C000000FF000300030005008D
:1055E0000000000010000000020000001C0000008D
:1055F000FF00000200020000000000001100000097
:105600000200000004000000FF00FFFFFFFF010098
:105610000000000013000000020000001C00000059
:10562000FF0001030103FF0000000000080000006C
:1056300002000000040000001000FFFFFFFF100048
:10564000000000000900000002000000040000004B
:105650001100FFFFFFFFFF00010000001700000026
:105660000300000004000000FF00FFFFFFFFFF0039
:10567000010000001600000003000000040000000C
:10568000FF00FFFFFFFFFF0000000000020000001E
:1056900001000000060000000000FFFFFFFFFF0008
:1056A00001000000020000000100000004000000F2
:1056B0000A00FFFFFFFF02000100000003000000DE
:1056C00001000000040000000B00FFFFFFFF0300CB
:1056D0000000000004000000010000001C000000A9
:1056E000040000000000FF000000000005000000B2
:1056F000010000001C000000050001000100FF0087
:10570000000000000600000001000000040000008E
:105710000600FFFFFFFFFF00000000000700000081
:1057200001000000040000000700FFFFFFFFFF0072
:10573000000000001800000006000000000000004B
:10574000FF00FFFFFFFFFF00000000001900000046
:105750000600000000000000FF00FFFFFFFFFF0049
:10576000000000001200000008000000040000001B
:10577000FF00FFFFFFFFFF0000000000030000002C
:105780000800000004000000FF00FFFFFFFFFF0013
:10579000000000000C0000000200000000000000FB
:1057A000FF00FFFFFFFFFF00000000000D000000F2
:1057B0000200000000000000FF00FFFFFFFFFF00ED
:1057C000000000000E0000000800000000000000C3
:1057D000FF00FFFFFFFFFF00000000000F000000C0
:1057E0000200000000000000FF00FFFFFFFFFF00BD
:1057F000000000001B000000080000000000000086
:10580000FF00FFFFFFFFFF00000000001C00000082
:105810000800000000000000FF00FFFFFFFFFF0086
:105820000100000008000000010000000600000068
:105830000200FFFFFFFFFF00010000000900000061
:105840000100000018000000030001040104090029
:105850000000000000000000080000000000000040
:10586000FF00FFFFFFFFFF0000000000010000003D
:105870000800000000000000FF00FFFFFFFFFF0026
:105880000000000000000000DF440000BD400000F8
:10589000974400007F44000075440000A1440000CC
:1058A000D5440000494400008D46000059440000E2
:1058B000454400000000000000000000000000005F
:1058C00085470000B147000081470000A547000060
:1058D00099470000E9470000CD47000000000000A4
:1058E0004300000000000000000000000000000075
:1058F00000000000000000000000000000000000A8
:105900000000000000000000000000000000000097
:105910000000000000000000000000000000000087
:105920000000000000000000000000000000000077
:105930000000000000000000000000000000000067
:105940000000000000000000FFFFFFFF40420F00CA
:10595000FFFFFFFFFFFFFFFF00000000E458000013
:10596000045900002459000000000000000000005D
:105970000000000000000000E058000000000000EF
:105980000000000000000000000000000000000017
:105990000000000000000000000000000000000007
:1059A00000000000000000000000000000000000F7
:1059B000000000000000000010000020DD200000BA
:1059C00005220000ED260000A92B0000553800003C
:1059D000853A0000ED3A00000D480000B14A000091
:1059E000B5200000000000000000000000000000E2
:1059F00000000000000000000000000000000000A7
:105A00000000000000000000000000000000000096
:105A10000000000000000000000000000000000086
:105A20000000000000000000000000000000000076
:10600000008000207DB2000067B2000067B200008F
:106010000000000000000000000000000000000080
:1060200000000000000000000000000067B2000057
:10603000000000000000000067B20000D1B20000C4
:1060400067B2000067B2000067B2000011AE000046
:10605000E9CC000067B200000D82000069B20000C8
:1060600067B20000419E000067B2000067B2000006
:10607000E565000067B20000A9D9000067B2000022
:1060800067B2000067B2000067B20000F965000067
:106090000000000067B2000067B2000067B20000B5
:1060A00067B2000067B2000067B2000067B200008C
:1060B0000000000010B5064C2378002B07D1054BDB
:1060C000002B02D0044800E000BF0123237010BD64
:1060D000B0010020000000005C5D010008B5084B25
:1060E000002B03D00748084900E000BF07480368B9
:1060F000002B03D0064B002B00D0984708BDC046AC
:10610000000000005C5D0100B4010020A40100203B
:1061100000000000F0B5684C9DB0206801F004FD5F
:10612000664D002843D020682E6801F0E7FB011C73
:10613000301C00F02AFFFA2005F042F820682E6893
:1061400001F0E2FB011C301C00F048FFFA2005F0D2
:1061500037F85B4B2868197800F056FFFA2005F0F5
:106160002FF820682E6801F0DFFC011C301C00F0C5
:1061700096FF20682E6801F0D7FC011C301C00F04F
:1061800088FF20682E6801F0D2FC011C301C00F052
:1061900089FFFA2005F014F820682E6801F050FC01
:1061A000011C301C00F004FFFA2005F009F8454CF2
:1061B0004549201C06F0E0FA286800F0D7FE0A22C4
:1061C000011C201C06F051FB4049201C06F0D4FAAB
:1061D000286800F015FF08F06DFD0A22011C201C44
:1061E00006F043FB3A49201C06F0C6FA286800F086
:1061F000C3FE0A22011C201C06F037FB3549201C77
:1062000006F0BAFA286800F0A1FE0AF0B5FB0B1CF4
:106210000221021C0091201C06F0EAFB2E4E306881
:1062200000F084FF306800F0B3FF00283ED03068F3
:106230000168286800F010FF33682868596800F08A
:106240000DFF33682F680AA80990021C0C33BC4666
:10625000A2CBA2C223CB23C283CB83C20CAB6A46A0
:1062600083CB83C283CB83C21B6813AD61461360AB
:10627000281C0A9A0B9B00F0F7FE184B2A1C186882
:1062800033680C33C2CBC2C2C2CBC2C2C2CBC2C201
:1062900016AB6A46C2CBC2C2C2CBC2C213996A68ED
:1062A000AB6800F07DFF201C0D4901E00D49201C6A
:1062B00006F088FA1DB0F0BDF4010020E4010020D2
:1062C000EC010020EC1200205C4D0100664D010045
:1062D000714D01007B4D0100CC010020FC0100202C
:1062E000894D01009A4D0100F8B5154D1549281C3E
:1062F00006F068FA144B186801F016FC134F144EA0
:10630000144C002807D01449281C06F05BFA3868A2
:106310003268012106E01149281C06F053FA38685A
:1063200032680221231C01F000F90D4B211C186872
:1063300001F012FC281C0B4906F044FAF8BDC046D7
:10634000EC120020AD4D0100F401002004020020F9
:10635000E4010020D0010020C94D0100DA4D010008
:10636000F0010020EB4D010038B50C4C0C49201C0D
:1063700006F028FA0B4B0C4D18680C4B04211A68D8
:106380002B1C01F0D2F80A4B291C186801F0E4FB21
:10639000201C084906F016FA38BDC046EC12002051
:1063A000044E010004020020D0010020E40100207E
:1063B000F00100201D4E010070B51E4D1E4C2B68D3
:1063C0000A229969201C06F04CFA1C4E201C311C34
:1063D00006F0D2F92B680A22D969201C06F041FA8E
:1063E000311C201C06F0C8F92B680A22196A201CEF
:1063F00006F037FA201C124906F0BEF92B680A2273
:106400005969201C06F02DFA0E4E201C311C06F096
:10641000B3F92B680A221969201C06F022FA311CF4
:10642000201C06F0A9F92B68201CD9680A2206F066
:106430001CFA70BDCC010020EC1200204C4E010073
:10644000B05A01006F4D0100F8B504F0B3FE524F91
:10645000524E002232703860FFF75CFE504C5149BA
:10646000201C06F0AFF9FFF7A7FF4F49201C06F0EC
:1064700083F94E4D286800F079FD0A22011C201C8A
:1064800006F0F3F94A49201C06F076F9286800F076
:10649000B7FD08F00FFC0A22011C201C06F0E5F9EC
:1064A0004449201C06F068F9286800F065FD0A22BE
:1064B000011C201C06F0D9F93F4D404B2A68404C86
:1064C0009A4217D923683F4A934213D83E4E344824
:1064D000311C06F077F9311C314806F073F9311C94
:1064E0002F4806F06FF9FFF7FFFE00232B4A2B60C1
:1064F00001231370324E334A3368934212D9334921
:10650000274806F05FF93149254806F05BF92F4925
:10651000234806F057F9FFF727FF00231F4A33608F
:10652000012313701D4A3E681378002B16D004F027
:1065300041FE2B68264AF618B618301A28603D68C6
:1065400004F038FE2368224AED18AD18281A20609E
:106550003C6804F02FFE1F4BE41815E004F02AFEFF
:106560002A681D4BB618F618301A28603D6804F0EA
:1065700021FE2268184BAD18ED18281A20603C68DF
:1065800004F018FE154AA418201A04F019FE144944
:10659000034806F017F9F8BDF8010020EC010020CF
:1065A000EC1200204E4E01005C4D0100E401002081
:1065B000664D0100714D0100E8010020BFD40100CB
:1065C000000200207F3801005E4E01008C4E010069
:1065D000B9880000B8880000891300008813000003
:1065E000BA4E010008B5034B186800F0ADF906F08B
:1065F00073FF08BDE001002010B5074B01249A7B12
:10660000224208D05B7B234205D0044B186800F07F
:10661000BAFD034B1C7010BD00300042CC010020BD
:106620000E3000428222194B52001A60184B5A78E1
:10663000D209FBD11749184A11605A78D209FCD106
:106640001649174A11805A78D209FCD1154A164BBF
:106650001A80164BDA7BD209FBD1154AC421890076
:1066600050580002000A505080210903116011495E
:1066700001220878104308700F490A701A882221F5
:106680000A431A80DA7BD209FCD17047080C00401B
:10669000000C004004070300040C00401C440000F0
:1066A000020C00407FBBFFFF183000420030004268
:1066B00000E100E00E3000420D300042F0B5424EE5
:1066C000E12193B0301C490205F0E8FE96218901D2
:1066D0003E4806F0A1FD3E4804F072FD012004F0A2
:1066E000B7FD3C4B09AC186000F06CFD3A4F3860C8
:1066F00001F024FA394B01211860002000F0BAF8AB
:10670000374D38492860301C06F05CF82968201C99
:106710000791354907F00CF8211C079800F00CFB95
:10672000201C06F0BEFFFA20C00004F049FD2868D6
:1067300000F0CEF80A22011C301C06F096F82868FA
:1067400001F06EF8294B186000F0E0FC284D28603D
:10675000FFF768FF286800F0E9FCFA20400004F029
:106760002FFD2B68221C0C33386862CB62C262CBCF
:1067700062C262CB62C20CAB6A4662CB62C262CBBF
:1067800062C26268A368099900F00AFD882004F0DB
:106790005FFD041C00F0B8FB164B1C6000F092FB80
:1067A000154C2060FA20800004F00AFD134B1B7882
:1067B000002B03D1206800F033FBF7E7044804F016
:1067C000FFFC13B0F0BDC046EC120020981300206F
:1067D0001027000004020020FC010020F00100202E
:1067E000E0010020F24E0100234F0100F4010020DF
:1067F000CC010020E4010020DC0100200C0200207C
:10680000F0B585B0041C02910C301849039206F0D3
:106810008FFF029B8F206360039B8000A36004F0C6
:1068200017FD0326012507220623071C0096019564
:106830000F4906F069FD311C2760062006F088FC30
:10684000311C072006F084FC0298291C05F050FE3C
:106850000398291C05F04CFE206896210368090264
:10686000DB699847201C05B0F0BDC046E35001002D
:10687000D4150020F8B5084C071C23680E1C002B0B
:1068800008D1182004F0E4FC391C051C321CFFF769
:10689000B7FF25602068F8BD0802002010B5041C71
:1068A000002902D18068012103E0012903D1806819
:1068B000002105F077FE642004F082FC606801216D
:1068C00005F070FE014804F07BFC10BDB80B000021
:1068D00010B586B0041C1849684606F029FF174910
:1068E000206805F06FFF642004F06AFC144804F08F
:1068F00067FC3E22216803A804F092FC03A96846C5
:1069000006F06AFF03A806F0CCFE0323002203A8CA
:10691000694606F0DBFF0B4903A806F0C1FF041C23
:1069200003A806F0BEFE684606F0BBFE631E9C414F
:10693000E0B206B010BDC046E3500100314F010087
:1069400088130000354F01000068704710B586B00D
:10695000041C1549684606F0EBFE2068134905F053
:1069600031FF642004F02CFC206803681B69984701
:106970000028F9DD0A22216803A804F051FC03A9CC
:10698000684606F029FF03A806F08BFE0849684612
:1069900006F086FF041C684606F083FE201C441E99
:1069A000A04106B010BDC046E3500100414F0100B8
:1069B0000750010010B586B0041C1549684606F062
:1069C000B7FE2068134905F0FDFE642004F0F8FBD3
:1069D000206803681B6998470028F9DD0A222168AE
:1069E00003A804F01DFC03A9684606F0F5FE03A801
:1069F00006F057FE0849684606F052FF041C601E68
:106A00008441684606F04DFE6400201C06B010BDAF
:106A1000E35001004B4F01000750010010B586B054
:106A2000041C1449684606F083FE2068124905F0EC
:106A3000C9FE206803681B6998470028F9DD0A220F
:106A4000216803A804F0ECFB03A9684606F0C4FE25
:106A500003A806F026FE0949684606F021FF041C3B
:106A6000601E8441684606F01CFEA400201C06B08F
:106A700010BDC046E3500100564F01000750010011
:106A800010B586B0041C1549684606F051FE206812
:106A9000134905F097FEC82004F092FB20680368B4
:106AA0001B6998470028F9DD0A22216803A804F031
:106AB000B7FB03A9684606F08FFE03A806F0F1FDB8
:106AC0000849684606F0ECFE041C601E84416846D6
:106AD00006F0E7FDE400201C06B010BDE350010005
:106AE000634F010007500100F0B587B0041C0F1C74
:106AF0006846214906F01CFE204D2149281C05F05E
:106B000061FE204903A8266806F012FE391C03A87E
:106B100006F0A5FE1C4906F0B0FE011C301C05F075
:106B200047FE03A806F0BDFD642004F049FB206881
:106B30000268126990470028F9DD0A22216803A83B
:106B400004F06EFB03A9684606F046FE03A806F0B3
:106B5000A8FD6946281C05F02BFE0C49684606F086
:106B60009FFE041C601E8441684606F09AFD2401C5
:106B7000201C07B0F0BDC046E3500100EC1200201D
:106B80006B4F0100754F01007E4F0100075001005F
:106B9000F0B587B0041C0F1C68461F4906F0C8FDFD
:106BA0001E4D1F49281C05F00DFE1E4903A826682E
:106BB00006F0BEFD391C03A806F051FE011C301C76
:106BC00005F0F6FD03A806F06CFD174804F0F8FA8E
:106BD00020680268126990470028F9DD0A222168BE
:106BE00003A804F01DFB03A9684606F0F5FD03A801
:106BF00006F057FD6946281C05F0DAFD0B4968468A
:106C000006F04EFE041C601E8441684606F049FDF5
:106C10006401201C07B0F0BDE3500100EC1200201D
:106C2000824F0100874F01008813000007500100C8
:106C300010B586B0041C1549684606F079FD206839
:106C4000134905F0BFFD642004F0BAFA2068036818
:106C50001B6998470028F9DD0A22216803A804F07F
:106C6000DFFA03A9684606F0B7FD03A806F019FD90
:106C70000849684606F014FE041C601E84416846FC
:106C800006F00FFDA401201C06B010BDE35001006A
:106C9000904F010007500100F0B587B0041C0F1C95
:106CA00068461F4906F044FD1E4D1F49281C05F08B
:106CB00089FD1E4903A8266806F03AFD391C03A881
:106CC00006F0CDFD011C301C05F072FD03A806F096
:106CD000E8FC174804F074FA2068026812699047CB
:106CE0000028F9DD0A22216803A804F099FA03A913
:106CF000684606F071FD03A806F0D3FC6946281C1F
:106D000005F056FD0B49684606F0CAFD041C601EDE
:106D10008441684606F0C5FCE401201C07B0F0BDC4
:106D2000E3500100EC1200209B4F0100A04F010036
:106D300010270000075001007FB5051C0C35041C0E
:106D4000281C06F02FFD201CFFF7C2FD061C0120A9
:106D5000002E48D12549264805F034FD311C201C61
:106D6000FFF79CFD20680368DB689847FA208000E5
:106D700004F026FA201CFFF7E9FD061C201CFFF793
:106D800019FE3618201CFFF749FE3618201CFFF7A5
:106D900077FE291C361801A806F014FD01A9201C55
:106DA000FFF7A2FE361801A806F07BFC291C01A8FB
:106DB00006F008FD01A9201CFFF7EAFE361801A81D
:106DC00006F06FFC201CFFF733FF291C361801A8C2
:106DD00006F0F8FC201C01A9FFF75EFF341801A89B
:106DE00006F05FFC201C04B070BDC046A94F010036
:106DF000EC12002000207047704770B54B688C681B
:106E0000CD6843600A1C031CC560846010331032D7
:106E100070CA70C312781A70096A016270BD0000EE
:106E2000F0B5144E8DB001901349301C05F0B6FC3E
:106E30000B20012105F05CFB104F0B21381C01F0E9
:106E40007EFD0F4C051E05D1301C0E4905F0A6FC39
:106E5000257001E00123237003A8391C0A4A01238D
:106E600001F002FE019803A93030FFF7C6FF0DB014
:106E7000F0BDC046EC120020C14F0100C806002042
:106E80000C020020DF4F01004C4E010010B50C49F0
:106E9000041C06F04DFC201C0C3001F011FD201CE0
:106EA000303001F00DFD201C543001F009FD0023AD
:106EB000201CA367E367FFF7B3FF201C10BDC0468B
:106EC000E350010038B5064C2368002B06D1802022
:106ED00004F0BEF9051CFFF7D9FF2560206838BD16
:106EE00010020020014B0833036070476851010015
:106EF00010B5044B041C0833036004F0ADF9201CEA
:106F000010BDC046685101000F4B021D08330360DD
:106F10000023036743678367C367D3670022426028
:106F2000C2610262426202644264021C8360836244
:106F3000C362036343638363C363853201231370B6
:106F4000013A13707047C04668510100C06970472C
:106F500008B5006A07F0AEFE08BD08B5406A07F044
:106F6000A9FE08BDC06A7047006B7047806A704711
:106F7000806B7047C06B7047406B7047806870478C
:106F800002318900401840687047026B10B5041C3C
:106F90008162914200DD0163A36FE06F58434018A6
:106FA000591CA16706F090FFE067E06210BD000089
:106FB00038B5041C806A0D1C07F09CFE011CFE20E5
:106FC000800507F0F9F9291C07F0DAFB024907F000
:106FD000D7FBE06138BDC0460000C842C26B10B5A7
:106FE000041C4163914200DDC163236F606F58430D
:106FF0004018591C216706F067FF6067A06310BD49
:107000004068704700000000F8B5061C876A4068B9
:10701000002905D009F0B0FC041C0D1C052004E07B
:1070200009F0AAFC041C0D1C0A20784309F032FC6C
:10703000084B074A08F0D6F9021C0B1C201C291C1F
:1070400007F0B4FE09F0EAFC7060F8BDC046C04627
:10705000CDCCCCCCCCCC0C400164704741647047A3
:10706000006C7047406C704782B030B54831049373
:10707000039203AB041C25CB25C125CB25C125CB11
:1070800025C1201C30BC08BC02B0184785300078F0
:1070900070478530017070478430007870478430C5
:1070A00001707047C166704738B5021C041C124855
:1070B00030320023137053700368A0639621DB699C
:1070C00089019847502004F0C3F8A16B051C02F019
:1070D000F3FF6563094804F073F8606B084902F038
:1070E000F3FF606B074902F0EFFF606B064902F0A7
:1070F000EBFF201C38BDC046981300208813000009
:1071000078510100AA510100BB51010038B5064C6D
:107110002368002B06D13C2004F09AF8051CFFF7E9
:10712000C3FF2560206838BD1402002070B5041C20
:10713000406B02F0CFFF0025A84222D0666B301CC6
:1071400002F0CEFF011C301C02F0E2FFA84216D074
:10715000636B9A692260DA6962609A6AA260DA787F
:1071600022621A79E2615A79A2611A7862615A78C8
:1071700022619B78E36030340123237001E0012514
:107180006D42281C70BD08B5406B02F017FF08BDAA
:10719000031C30331878002801D000221A70704781
:1071A00084B070B505AC069207930591031C221CB0
:1071B00062CA62C313CA13C361CA61C370BC08BC8C
:1071C00004B0184710B5054C2368002B03D12420C8
:1071D00004F03EF82060206810BDC0461802002070
:1071E00070B5081C151C0C1CFFF756FF061C701E02
:1071F0008641201CFFF74AFF76000643F6B22E7048
:10720000201CFFF7BBFE76B2B600431E9841304308
:10721000C0B22B4B28701B7840B200011843287075
:10722000201CFFF7EDFE274907F0C6F806F026FF01
:107230006870201CFFF7E4FE07F03CFD224906F0D1
:1072400099FE081C642106F03FFEA870201CFFF781
:10725000D7FE07F02FFD642106F08CFE201CE9709C
:107260000021FFF78DFE0121061C201CFFF788FE80
:10727000360106432E71201C0221FFF781FE0321F7
:10728000061C201CFFF77CFE360106436E71201C95
:10729000FFF76AFEA871201CFFF764FEE871201C4E
:1072A000FFF768FE2872201CFFF762FE6872201C40
:1072B000FFF753FEA872201CFFF74AFEE87270BD6C
:1072C0001C02002000401C461027000070B5081C5E
:1072D000141C0D1CFFF7E0FE061C701E8641281CC6
:1072E000FFF7D4FE7600064376B20223B6011E43B2
:1072F0002670281CFFF784FE114907F05DF806F0A0
:10730000BDFE6070281CFFF77BFE07F0D3FC0D4923
:1073100006F030FE081C642106F0D6FDA070281C83
:10732000FFF76EFE07F0C6FC642106F023FE04237F
:10733000E1700022E25401330C2BFAD170BDC0463B
:1073400000401C4610270000F7B5081C141C0D1C3B
:10735000FFF7A2FE061C701E8641281CFFF796FE52
:1073600076000643F6B22670281CFFF707FE76B2B9
:10737000B300061C701E86411E4376B204233601FC
:107380001E432670281CFFF73BFE534907F014F8F4
:1073900006F074FE6070281CFFF732FE07F08AFCCE
:1073A0004E4906F0E7FD081C642106F08DFDA07033
:1073B000281CFFF725FE07F07DFC642106F0DAFDAE
:1073C000281CE170FFF74CFE09F0D6FA3F4B3E4A0D
:1073D0000F1C01900E1C06F0EFFD002804D0802346
:1073E0001B06FE18012700E0071C394A394B311CE7
:1073F000019808F061FC09F019FA3949061C06F0F9
:1074000063FD37492071301C06F0B4FD081C334978
:1074100006F05AFD31496071301C06F0ABFD081CC6
:10742000642106F051FD6421A071301C06F0A2FD1C
:10743000C9B2E1710123002F01D0194300E0994343
:10744000E171281CFFF70EFE09F096FA1F4B1E4A49
:107450000E1C071C0D1C06F0AFFD002804D0802375
:107460001B06F518012600E0061C194A194B291CB9
:10747000381C08F021FC09F0D9F91949051C06F05F
:1074800023FD17492072281C06F074FD081C1349BF
:1074900006F01AFD11496072281C06F06BFD081CED
:1074A000642106F011FD6421A072281C06F062FD23
:1074B000C9B2E1720123002E01D0194300E09943C3
:1074C000E172F7BDC046C0460000000000000000A9
:1074D0000000000080842E4100401C461027000060
:1074E00040420F00C046C04610B5141CFFF72CFFE9
:1074F00023780F22934303221343237010BD10B54A
:10750000141CFFF7E3FE23780F2293430722134353
:10751000237010BD10B5141CFFF7D8FE23780F227E
:10752000934306221343237010BD10B5041C081C9E
:107530000138111C1A1C06281CD806F06DFC040822
:107540000C101B181400201CFFF74AFE12E0201C30
:10755000FFF7BCFE0EE0201CFFF7C6FF0AE0201C70
:10756000FFF7F2FE06E0201CFFF7C9FF02E0201C37
:10757000FFF7D0FF10BD10B50022011C0378101CCE
:10758000002B21D0032A1FD81C1C413C052C01D8FC
:10759000073B04E01C1C613C052C02D8273BDBB2F6
:1075A00007E0202B01D1022A0BD01C1C303C092CF7
:1075B0000AD80F2423400401181C2043013280B252
:1075C000D2B201310B78DBE710BD03784278191C89
:1075D0004139052901D8073B04E0191C6139052907
:1075E00002D8273BDBB204E0191C303900200929FE
:1075F0001BD8002A02D10F20184016E0111C413977
:10760000052901D8073A04E0111C6139052902D87F
:10761000273AD2B204E0111C30390020092904D8DD
:107620000F2002401B011A43D0B2704730B50D1C29
:1076300085B00E49041C06F07BF8642003F0C0FD01
:10764000686803681B6998470028F9DD3E2269686D
:1076500001A803F0E5FD01A9201C06F0BDF801A872
:1076600006F01FF8201C05B030BDC046E3500100F5
:1076700038B50C1C0C2151430831051C6118606899
:1076800005F096F8281C211CFFF7D0FF281C38BDF8
:10769000F0B5041C8BB00D1C08304F4906F048F8BB
:1076A000201C4E49143006F043F8201C4C49203071
:1076B00006F03EF8201C4B492C3006F039F8201C0F
:1076C0004949383006F034F8201C4849443006F067
:1076D0002FF8201C4649503006F02AF8201C454956
:1076E0005C3006F025F8201C4349683006F020F88D
:1076F000201C4249743006F01BF82560281CFFF757
:1077000023F903686060DB6898473D49606805F0CD
:1077100059F807A8211CFFF789FF3A4D07A9281C33
:1077200005F046F807A805F0BCFF3749606805F08A
:1077300049F807A8211CFFF779FF07A9281C05F0C5
:1077400037F807A805F0ADFF042201A8211CFFF7B8
:107750008FFF01A9281C05F02BF8002204A801A91D
:10776000112306F0B3F804A8284906F099F8012778
:10777000021E0FD107A801A9092306F0A7F807A840
:10778000234906F08DF8071C781E874107A8FFB231
:1077900005F087FF04A8261C05F083FF8036002F24
:1077A00004D000233370281C1A4903E001231A492E
:1077B0003370281C05F006F8281C184905F002F85B
:1077C00031780A22281C05F050F801A805F069FF5D
:1077D000201C0BB0F0BDC046CA510100CF510100C2
:1077E000D4510100D9510100314F0100EC51010089
:1077F000F1510100F6510100FB510100005201005E
:1078000006520100EC1200200C520100135201003C
:10781000255201002F520100335201003D52010058
:1078200070B5074C061C2368002B07D1842003F099
:107830000FFD311C051CFFF72BFF2560206870BD74
:107840002002002070B5051C86B00A1C6846291C61
:10785000FFF70EFF03A869460022072306F036F85B
:1078600003A8234906F01CF8061C03A805F019FF1D
:10787000002E35D103A86946321C112306F026F8E4
:1078800003A81C4906F00CF8041C03A805F009FF26
:10789000002C03D080352E70022422E003A8694614
:1078A000221C092306F012F803A8134905F0F8FF7B
:1078B000061C03A805F0F5FE002E03D080352C70C1
:1078C00003240EE003A869460622082305F0FEFF04
:1078D0000398FFF77AFE041C03A805F0E2FE01E01E
:1078E00001246442684605F0DCFE201C06B070BD31
:1078F0004E520100135201002552010008B500212B
:10790000FFF7A0FF08BD000070B5051C8AB001A8F4
:10791000291C0222FFF7ACFE07A801A900220723B9
:1079200005F0D4FF07A8304905F0BAFF061C07A8E8
:1079300005F0B7FE002E4ED107A801A9321C112375
:1079400005F0C4FF07A8294905F0AAFF041C07A8F1
:1079500005F0A7FE002C03D080352E7002243BE0FA
:1079600007A801A9221C092305F0B0FF07A8204998
:1079700005F096FF061C07A805F093FE002E03D025
:1079800080352C70032427E004A81A4905F0D0FEA6
:107990000622082307A801A905F098FF07A904A853
:1079A00005F01AFF07A805F07CFE09220B2307A8A3
:1079B00001A905F08BFF07A904A805F03FFF07A860
:1079C00005F06FFE0498FFF7D6FD840804A8A4B262
:1079D00005F067FE01E00124644201A805F061FEA4
:1079E000201C0AB070BDC0464E5201001352010067
:1079F00025520100E350010008B50821FFF722FFDE
:107A0000431C09D0831C09D0C31C0AD0642106F092
:107A10005BFA07F06FF905E0034803E0C0200006B9
:107A200000E0024808BDC046000080BF000040C022
:107A300008B50921FFF706FF07F05CF908BD000053
:107A4000F0B585B0041CFFF759FF07F053F9071C88
:107A5000201CFFF7D1FF304E051C3049301C04F0CC
:107A60008BFE281C08F088FF0223029003910093EC
:107A7000301C029A039B04F0BBFF201CFFF7D8FFC9
:107A80002749041C301C04F077FE201C08F074FF0A
:107A90000223041C0093301C0B1C221C0D1C04F040
:107AA000A7FF381C002106F0BBFA002825D1201CB6
:107AB000291C144B124A08F0FFF8134A134B07F025
:107AC00075F9021C0B1C0298039907F08BFC104AF5
:107AD000104B08F0F1F8041CFE200D1C8005391C29
:107AE00006F06AFC08F048FF021C0B1C201C291C35
:107AF00008F0E2F808F092FF00E0002005B0F0BDC9
:107B0000B81E85EB51B8F0BF8B6CE7FBA9712E4016
:107B10000000000000A07A40EC1200205652010044
:107B200065520100C046C04680300078704708B5F5
:107B30000A21FFF787FE07F0DDF808BD10B5054CF8
:107B40002368002B03D1012003F082FB2060206812
:107B500010BDC0462402002070B5194D0E1C281C13
:107B600003F0A2F8174C01210A22201C04F07DFE2C
:107B7000012003F025FB281C02F054FE201C0221EA
:107B80000A2204F072FE311C281C0C2202F031FE85
:107B90000A22201C032104F068FE281C002103F0A7
:107BA00033F804210A22201C04F05FFE281C03F095
:107BB000E1F8201C05210A2204F057FE002070BDC8
:107BC0007C0C0020EC120020437A002B04D183723D
:107BD000C372C36001234372704730B585B0041C83
:107BE00002AD00680291039205F054F96B79E179D6
:107BF000227A00932068002305F086FA297920680C
:107C0000029A05F017F9206805F03AF905B030BD81
:107C100070B5041C1826FFF7D7FF2079331C4343A7
:107C20000D4D0821EB18595605F092FAA079331C36
:107C300043430821EB18595605F08AFA6079082168
:107C40004643AD19695605F083FA044B201C06CB58
:107C5000FFF7C3FF70BDC046185501002802002081
:107C600007B5837A00910192002B0DD09A0706D5B3
:107C7000EFF310835A425341C37272B604E0DA073D
:107C800002D58289034B9A600099019AFFF7A5FFFC
:107C900007BDC04600180040837A002B0BD09A071E
:107CA00004D5C37A002B06D062B604E0DA0702D509
:107CB0008289014BDA6070470018004008B50068FF
:107CC000002901D1012100E0002105F0EDF808BDF7
:107CD00008B5031C032912D8081C1B6806F09CF881
:107CE000050B0208181C002107E0181C012104E004
:107CF000181C022101E0181C032105F0E9F808BD59
:107D000008B5006805F002F908BD70B5061C0C1C2A
:107D10008D18AC4206D02178301CFFF7F1FF20709F
:107D20000134F6E770BD00000F4B104A10491A608D
:107D300000225A711A710F4B0F4819600A211971EC
:107D4000092199710821597103215A72DA71197246
:107D50000A4B18601D2018711B2098711A205A7246
:107D60005871DA71197270472802002000093D002D
:107D7000DC15002030020020E01500204002002029
:107D8000014B0833036070477052010010B5044B7B
:107D9000041C0833036003F05FFA201C10BDC046CA
:107DA00070520100064A00238350064A8350812204
:107DB000D2008350044A83508222D20083507047FD
:107DC00014040000040400000C04000010B5044B6F
:107DD000041C08330360FFF7E5FF201C10BDC046FC
:107DE00070520100084BC2580332FF3292008218D1
:107DF0005268C3580133FF339B00C0184368D01A40
:107E000080239B00C018704714040000F8B5041CC0
:107E10000F1C161CFFF7E6FF051EB54200D9351CE6
:107E2000002D16D00C4E2A1CA059A3594002013334
:107E3000FF339B00E3185B68391C181820180430C6
:107E400008F01FFFA3599B00E418044BE258AA183E
:107E5000E250281CF8BDC0461404000004040000D1
:107E600070B5164E041CA359081C0133FF339B0048
:107E7000E3185D68A3590333FF339B00E3185B6885
:107E8000ED1A954200D9151C002D14D0A159A35903
:107E900049020333FF339B00E3185B682A1C59181F
:107EA0006118043108F0EDFEA3599B00E418044B5F
:107EB000E258AA18E250281C70BDC0461404000005
:107EC0000C04000038B5134D031C40590130FF303D
:107ED00080001818446858590330FF308000181883
:107EE0004068241A944200D9141C002C0FD05A590F
:107EF000585952020330FF30800018184068821829
:107F00009B180433081C221C191C08F0BAFE201C04
:107F100038BDC04614040000024BC3585B02C018B1
:107F20000430704714040000074BC2580132FF327E
:107F3000920082185268C3580333FF339B00C01865
:107F40004368D01A7047C046140400000A4BC25858
:107F5000002A01D1012200E00022C250C2580132A1
:107F6000FF32920082185160C3580333FF339B00E5
:107F7000C01800234360704714040000014B08330D
:107F8000036070478052010010B5044B041C083395
:107F9000036003F061F9201C10BDC046805201004F
:107FA000104B70B5083300250426041C036045609F
:107FB000291C321C083008F086FE201C291C321CAB
:107FC0000C3008F080FE1026201C291C321C1030BA
:107FD00008F079FE201C291C321C203008F073FEAA
:107FE000201C70BD8052010030B50F480F24057869
:107FF0002140A543294301700C4B3F210A40100248
:108000005C6C0B4A224002435A64586C094A000ACD
:10801000084205D0596C0A40802109040A4301E056
:10802000596C0A405A6430BD3F4800410048004145
:10803000FFC0FFFFFFFF3FFF01310A4B0901102A7C
:1080400004D0202A07D00A5A134009E00A5A1340E4
:108050008022520003E00A5A134080229200134308
:108060000B527047FFFCFFFF013109010A5A8023C0
:108070005B0113430B520A5A8023DB0013430B525C
:1080800070470000013109010A5A044B13400B529A
:108090000A5A80231B0113430B527047FFEFFFFF67
:1080A000F0B585B09C460AAB1B88019102930B1C6E
:1080B00001331B01195A0125041C281C29425FD1D8
:1080C0003049019F0E780F20074086433E430E70D3
:1080D000195B062081431953195B182081431953FA
:1080E0001B5B9B059B0FAB4204D00421022B02D0EB
:1080F000291C00E00221019F019801373E01335BFA
:108100000001DB04DB0C3353A519231803906046F0
:108110006A6098611A1C0023D361029805F0D4FEAE
:1081200080B26880335B590503D56B68029AD31817
:108130006B603B011B5B180505D50399029863181A
:108140009A6982189A613F013B5B01210B433B53C3
:108150000D4B0E4A1878084318701C78022004430F
:108160001C700B4B1C7820431870536C00209B0430
:108170009B0E834204D1019C1369A14019431161F4
:1081800005B0F0BD3F4800414D4800410048004166
:1081900040480041023189000A50704770B5184BC1
:1081A0000F221C8C174B14401978174E91430A1C50
:1081B00022431A70621C1201115A01239943115271
:1081C0003278051C1A420AD0327813433370A31C4C
:1081D0009B00C3185B68002B01D0201C98473278A5
:1081E000094B91070AD51A7802210A431A706318BD
:1081F0008B405B59002B01D0201C984770BDC046B6
:10820000004800413F4800414E48004108B502483F
:10821000FFF7C4FF08BDC0465002002010B5054C52
:10822000201CFFF7BDFE201C0349044A05F004FC96
:1082300010BDC046500200207D7F000000000020DD
:10824000704773B5051CEFF310860023019372B6D7
:10825000EB6901ACDA17520FD318DA102430211C65
:10826000FFF730FEF30700D462B6EB69202B01D193
:10827000019808E0102B02D10023E05E03E000200B
:10828000082B00D1207876BD0368002905D11A8B10
:108290005107FCD41A78042104E01A8B1107FCD48E
:1082A0001A7808210A431A7070470368002905D11B
:1082B0001A8BD106FCD41A78102104E01A8B91068F
:1082C000FCD41A7820210A431A707047F8B5041CB0
:1082D000FA2706A80678BF0007A8A760A37400784D
:1082E0000D4F01235B4200252075A3610837631CF5
:1082F000201C65602760E6746575E5612174627411
:108300002430DD77FFF762FD044B201CE550882305
:10831000DB00E550F8BDC046905201003C0400006F
:10832000F8B51C4D027C2B6808329200D158032707
:10833000041CB94301200143D150217C281CFFF7C4
:10834000A3FF217C281CFFF7B0FF134EA169301C4E
:10835000FFF78AFE301CA169104AFFF71BFF227C41
:108360002B68101C08308000C358A1691F40531EA1
:108370009A41012F01D12B3200E02932301CFFF746
:1083800033FE301CA169E269FFF756FE01236375D5
:10839000F8BDC046C4060020500200206D870000D2
:1083A00038B5437D041C012B01D0FFF7B9FFEFF373
:1083B000108572B6201C2430FFF714FDEB0700D4A3
:1083C00062B638BD38B5437D041C0D1C012B01D0AD
:1083D000FFF7A6FF124B227C1B680120998A002A16
:1083E00001D1090A00E0490A0140F6D0002A03D170
:1083F000198BC805FCD402E0198B8805FCD40C321B
:108400009200D550227C998A002A02D18022520003
:1084100001E0802292000A4301209A8238BDC046C2
:10842000C406002008B5FFF7CDFF08BDF0B5437DB9
:1084300087B0041C0F1C161C012B01D0FFF770FF26
:10844000EFF3108201231A40029272B6251C2435E4
:10845000391C321C281CFFF7D9FC671C0390FE7FD7
:10846000F6B2002E04D1281CFFF75EFD002804D1CF
:10847000029B002B1FD162B61DE00123FB77A3698D
:10848000281C0493FFF748FD0590247C0B4B0C340B
:108490001B68281CA4001C19FFF746FD80B2009041
:1084A0000499059A231C0648FFF7FAFD281C311C85
:1084B000FFF74CFDDCE7039807B0F0BDC4060020D1
:1084C0005002002008B5FFF7B1FF08BDF8B51B4DFD
:1084D000027C2B6808329200D1580327B943D1504F
:1084E000041C017C281CFFF7CFFE217C281CFFF711
:1084F000DCFE134EA169301CFFF7C4FD301CA169DE
:10850000104AFFF747FE227C2B68101C08308000C1
:10851000C358A1691F40531E9A41012F01D12B322C
:1085200000E02932301CFFF75FFD301CA169E269D1
:10853000FFF782FD02236375F8BDC046C406002024
:10854000500200206D870000F0B5437D87B0041C09
:10855000022B01D0FFF7BAFFEFF3108201231A407C
:10856000029272B6251C2435281CFFF7DDFC671C1F
:108570000390FB7F002B04D1281CFFF7D5FC061EBF
:1085800004D0029B002B20D162B61EE00123FB77B2
:10859000A3690F4A0493237C12680C339B00D21802
:1085A000281C0592FFF7B8FC041C281CFFF71AFCD6
:1085B00080B200900499059A231C0648FFF770FDCD
:1085C000281C311CFFF7C2FCDBE7039807B0F0BDA5
:1085D000C406002050020020F0B5437D87B0041C83
:1085E0000F1C161C022B01D0FFF770FFEFF3108257
:1085F00001231A40029272B6251C2435391C281C0E
:10860000321CFFF72DFC671C0390FB7F002B04D16D
:10861000281CFFF789FC061E04D0029B002B20D1EA
:1086200062B61EE00123FB77A3690F4A0493237C03
:1086300012680C339B00D218281C0592FFF76CFCC3
:10864000041C281CFFF7CEFB80B200900499059A09
:10865000231C0648FFF724FD281C311CFFF776FC7D
