:1020000000800020C1280000AB280000AB280000A1
:1020100000000000000000000000000000000000C0
:10202000000000000000000000000000AB280000DD
:102030000000000000000000AB280000152900008F
:10204000AB280000AB280000AB280000AB28000044
:10205000AB280000AB280000AB280000AD28000032
:10206000AB280000AB280000AB280000AB28000024
:1020700059270000AB280000CD360000AB28000037
:10208000AB280000AB280000AB280000AB28000004
:1020900000000000AB280000AB280000AB280000C7
:1020A000AB280000AB280000AB280000AB280000E4
:1020B0000000000010B5064C2378002B07D1054B1B
:1020C000002B02D0044800E000BF0123237010BDA4
:1020D00010010020000000005C53000008B5084B10
:1020E000002B03D00748084900E000BF07480368F9
:1020F000002B03D0064B002B00D0984708BDC046EC
:10210000000000005C5300001401002000010020CA
:1021100000000000F0B585B0041C02910C30184995
:10212000039201F09FF9029B8F206360039B800064
:10213000A36000F0AFFB0326012507220623071C3E
:10214000009601950F4900F079FF311C27600620A9
:1021500000F098FE311C072000F094FE0298291C24
:1021600000F090FC0398291C00F08CFC206896215C
:1021700003680902DB699847201C05B0F0BDC04622
:102180005A4F00009003002010B5041C002902D112
:102190008068012103E0012903D18068002100F05B
:1021A000CBFC642000F02EFB6068012100F0C4FC31
:1021B000014800F027FB10BDB80B000010B586B039
:1021C000041C1849684601F04DF91749206800F0D1
:1021D00029FD642000F016FB144800F013FB3E229A
:1021E000216803A800F03EFB03A9684601F08EF9C0
:1021F00003A801F0F0F80323002203A8694601F0C8
:10220000F7F90B4903A801F0DEF9041C03A801F05B
:10221000E2F8684601F0DFF8631E9C41E0B206B0C8
:1022200010BDC0465A4F00006C4E000088130000DD
:10223000704E00000068704710B586B0041C154948
:10224000684601F00FF92068134900F0EBFC6420A8
:1022500000F0D8FA206803681B6998470028F9DD68
:102260000A22216803A800F0FDFA03A9684601F0DC
:102270004DF903A801F0AFF80849684601F0A3F949
:10228000041C684601F0A7F8201C441EA04106B0BB
:1022900010BDC0465A4F00007C4E0000864E000024
:1022A00010B586B0041C1549684601F0DBF82068BB
:1022B000134900F0B7FC642000F0A4FA206803681A
:1022C0001B6998470028F9DD0A22216803A800F05D
:1022D000C9FA03A9684601F019F903A801F07BF8CF
:1022E0000849684601F06FF9041C601E8441684685
:1022F00001F071F86400201C06B010BD5A4F0000B8
:10230000894E0000864E000010B586B0041C1449AA
:10231000684601F0A7F82068124900F083FC2068A5
:1023200003681B6998470028F9DD0A22216803A881
:1023300000F098FA03A9684601F0E8F803A801F054
:102340004AF80949684601F03EF9041C601E8441C0
:10235000684601F040F8A400201C06B010BDC0463D
:102360005A4F0000944E0000864E000010B586B013
:10237000041C1549684601F075F82068134900F0FF
:1023800051FCC82000F03EFA206803681B6998479A
:102390000028F9DD0A22216803A800F063FA03A9E6
:1023A000684601F0B3F803A801F015F8084968463B
:1023B00001F009F9041C601E8441684601F00BF825
:1023C000E400201C06B010BD5A4F0000A14E0000D2
:1023D000864E0000F0B587B0041C0F1C68462149EA
:1023E00001F040F8204D2149281C00F01BFC204939
:1023F00003A8266801F036F8391C03A801F0C2F8DA
:102400001C4901F0CDF8011C301C00F001FC03A8B0
:1024100000F0E1FF642000F0F5F92068026812691D
:1024200090470028F9DD0A22216803A800F01AFA73
:1024300003A9684601F06AF803A800F0CCFF6946DA
:10244000281C00F0E5FB0C49684601F0BCF8041CB0
:10245000601E8441684600F0BEFF2401201C07B0C6
:10246000F0BDC0465A4F000038010020A94E0000C0
:10247000B34E0000BC4E0000864E0000F0B587B0A1
:10248000041C0F1C68461F4900F0ECFF1E4D1F493D
:10249000281C00F0C7FB1E4903A8266800F0E2FFD5
:1024A000391C03A801F06EF8011C301C00F0B0FBD1
:1024B00003A800F090FF174800F0A4F92068026814
:1024C000126990470028F9DD0A22216803A800F06C
:1024D000C9F903A9684601F019F803A800F07BFFC9
:1024E0006946281C00F094FB0B49684601F06BF824
:1024F000041C601E8441684600F06DFF6401201CCE
:1025000007B0F0BD5A4F000038010020C04E000057
:10251000C54E000088130000864E000010B586B03E
:10252000041C1549684600F09DFF2068134900F01F
:1025300079FB642000F066F9206803681B699847FE
:102540000028F9DD0A22216803A800F08BF903A90D
:10255000684600F0DBFF03A800F03DFF084968462D
:1025600001F031F8041C601E8441684600F033FF1E
:10257000A401201C06B010BD5A4F0000CE4E000032
:10258000864E0000F0B587B0041C0F1C68461F493A
:1025900000F068FF1E4D1F49281C00F043FB1E4938
:1025A00003A8266800F05EFF391C03A800F0EAFFCC
:1025B000011C301C00F02CFB03A800F00CFF174896
:1025C00000F020F920680268126990470028F9DDC0
:1025D0000A22216803A800F045F903A9684600F023
:1025E00095FF03A800F0F7FE6946281C00F010FBD9
:1025F0000B49684600F0E7FF041C601E84416846F2
:1026000000F0E9FEE401201C07B0F0BD5A4F0000C5
:1026100038010020D94E0000DE4E000010270000D7
:10262000864E00007FB5051C0C35041C281C00F0EC
:1026300053FF201CFFF7C2FD061C0120002E48D1CD
:102640002549264800F0EEFA311C201CFFF79CFDBE
:1026500020680368DB689847FA20800000F0D2F811
:10266000201CFFF7E9FD061C201CFFF719FE361899
:10267000201CFFF749FE3618201CFFF777FE291CA7
:10268000361801A800F038FF01A9201CFFF7A2FEB0
:10269000361801A800F09FFE291C01A800F02CFFAD
:1026A00001A9201CFFF7EAFE361801A800F093FEEE
:1026B000201CFFF733FF291C361801A800F01CFF6F
:1026C000201C01A9FFF75EFF341801A800F083FE6B
:1026D000201C04B070BDC046E74E00003801002049
:1026E0007FB5184C96218901201C00F0B5F91648D9
:1026F00000F088F8182000F0CDF801220021061C17
:10270000FFF708FD114D201C11492E6000F08AFAD8
:102710002E6801A80F4900F0A5FE01A9301CFFF7A3
:1027200081FF01A800F057FEFA20C00000F06AF80F
:102730002868FFF743FD0A22011C201C00F0C1FAA3
:102740007FBDC04638010020C40900002C010020D4
:10275000FF4E00001B4F000008B5034B1868FFF741
:1027600069FD00F053FD08BD2C01002070B51D4E21
:102770003068FFF75FFD03681B6998471A4C002813
:102780000BD03068FFF756FD03685B699847174B1D
:10279000C1B2201C197000F0CDF8201C00F0D4F854
:1027A00000281ED0201C00F0F7F8104D287030686B
:1027B000FFF740FD036829781B6898470C4E337873
:1027C000002B05D0201C0B4900F010FA00233370B9
:1027D0002978201C00F0AEF82B780A2B01D10123B8
:1027E000337070BD2C010020380100200100002052
:1027F000000000202A4F0000014B18687047C046B7
:102800003001002070B5041E08D0054B1D681E1C49
:1028100000F048F833685B1BA342F9D370BDC04693
:102820003001002008B5034B1A6801321A6000F02D
:1028300013FF08BD3001002010B5041CFFF7DCFFBA
:10284000E0602368201C5B699847002808DAFFF7DE
:10285000D3FFE368C01AA3689842F2D30120404234
:1028600010BD000070B50D1C0949041C161C00F0B9
:10287000F9FD281CFFF7E0FF002806DBB04204D07A
:10288000C1B2201C00F074FEF3E7201C70BDC046EE
:102890005A4F000008B502F09BF908BD08B502F0D8
:1028A000A1F908BD704700207047FEE708B5034B4B
:1028B0001B68002B00D0984708BDC046340100209B
:1028C00038B50F490F4CA14204D100F005FA00F0D1
:1028D000B9FA0BE00C4D8D42F7D00023CA18E81866
:1028E000A24204D2006804331060F7E7FEE790428A
:1028F000EBD0064B064A9342E7D2002204C3F9E725
:102900000000002010010020605300001001002092
:102910007C09002008B5FFF7C6FF002801D1FFF7AA
:1029200081FF08BD014B18607047C046340100208C
:102930003F20704713B502686B46D971073354685E
:10294000191C0122A04716BD08B50069022101F03B
:10295000AFFA08BD08B50069032101F0BFFA08BD50
:1029600038B50D1C041C131C006903212A1C01F03E
:10297000A5FB002801D10123636038BD10B5054CCB
:1029800023685A1C04D103685B6998472060031CC4
:10299000181C10BD54000020074A08B51368591CC4
:1029A00004D0012149421160181C03E00069022192
:1029B00001F076FB08BDC0465400002008B503783E
:1029C0000349023303704222024801F021FC08BD92
:1029D000100000205308002010B50178031C427835
:1029E0000020A12908D1212A2FD1184818490722EF
:1029F00001F00EFC012028E0212926D1202A05D152
:102A000013490722114801F0AFFA04E0222A10D13D
:102A10009A780F4BDA710E4B96221968D2009142C8
:102A200010D1DC7901231C400CD1FA2000F006FE05
:102A30000AE0232A09D1DA789B7812021A43054B5F
:102A40001A6002E000F000FE002010BD53080020D4
:102A5000040000200C00002070470000064BFA2103
:102A600089009960054900220831196004495A60BB
:102A700019611A767047C04638010020304F0000B7
:102A80005308002010B51824021C201C5043274B6B
:102A90001818007A40B2013046D0032944D8081CE7
:102AA000211C02F015F802331121624398569A183E
:102AB000C3011F4852681B18991840310220087042
:102AC0000121914059602FE06243985618499A18A5
:102AD0005268C3015B189918403106200870012123
:102AE0009140596099611FE051435A561048591856
:102AF0004B68D2011118C818403006240470012018
:102B0000984048600B49521850600DE06243985657
:102B10009A18C301064852681B18991840310220C0
:102B2000087001219140996010BDC046A04F00007F
:102B3000004400411044004118235843134AF0B5A3
:102B4000131808241C5701341FD08256104ED2018E
:102B50005D6801249019231C8668AB401E420BD18E
:102B60000E1C771EBE41401934404030A500047849
:102B70000426B4432C430470002903D1054952189C
:102B8000536002E0024E92199361F0BDA04F000025
:102B90000044004110440041F7B58A18061C0D1C82
:102BA00001920C1C019B671B9C4207D03368217863
:102BB0001B68301C984701340028F3D1381CFEBD37
:102BC00038B5051C0C1C081E07D002F0F3F82B6862
:102BD000021C5B68281C211C984738BD10B504688E
:102BE0000B1C9A6809686368984710BD08B5FFF721
:102BF000E7FF08BD08B503681B68984708BD0000DB
:102C000008B50249FFF7DCFF08BDC046584F000079
:102C100038B5041CFFF7E2FF051C201CFFF7F0FF8E
:102C2000401938BD38B5041CFFF7CAFF051C201C2D
:102C3000FFF7E6FF281838BDF0B58DB0161C0BABBA
:102C4000002201900C1C1A70012E00D80A266D4635
:102C50002B35201C311C01F089FF201CCFB2311C08
:102C600001F040FF291C041C092F01D8303700E077
:102C70003737FFB22F70013D002CEAD10198FFF7E2
:102C80009FFF0DB0F0BDF8B5041C0D1C161E04D13D
:102C90000368C9B21B68984712E00A2A0DD10029BF
:102CA0000ADA2D21FFF7A6FF6942071C321C201CFF
:102CB000FFF7C2FFC01903E000E0D2B2FFF7BCFF8C
:102CC000F8BD38B5041CFFF7DEFF051C201CFFF71C
:102CD00097FF281838BD000070B5494A1E21536877
:102CE00002208B430343474953608B6908242343E5
:102CF0008B61454C454B9C829C8A20439882101CDA
:102D0000DA689407FCD5424A012414701478E50768
:102D100004D53F4C647864B2002CF7DB0124946046
:102D2000547864B2002CFBDB3A4D394C6560547822
:102D300064B2002CFBDB8225354CED0165805478B4
:102D400064B2002CFBDB02249C84DC68E606FCD524
:102D5000314D2E4CE562DD682C4CEE06FBD5A58C82
:102D60002E4E3543A584DD68284CEE06FBD5A58C98
:102D700002263543A584DC682506FCD5234CE4688F
:102D80006606F8D5DC68E506FCD500249460547826
:102D900064B2002CFBDB224D1D4C656055781C4C49
:102DA0006DB2002DFADB1E6A1E4D35401D621D6A94
:102DB0008026B5431D620323A3601B4B63605378D9
:102DC0005BB2002BFBDB00230B72184A4B728B7239
:102DD000CB72174BFF211A60164B174A1B681268FB
:102DE0005C01D20E214011439A06520F12020B1CB5
:102DF0001343124A1385436880221343436070BD16
:102E000000400041000400400C06000000080040A3
:102E1000000C004001050100B905FF7D040A000017
:102E200000070300FFFCFFFF03060100006CDC024B
:102E30008400002024608000206080000040004268
:102E40007047000010B501F031FC01F09BFEFFF768
:102E5000F7FF0120FFF7D6FC084C201C00F0DCFE39
:102E6000201C00F039FFFFF73BFCFFF77FFC044B11
:102E7000002BFAD000E000BFF7E7C046530800205F
:102E80000000000018224243F8B52D4D0824AA186E
:102E90001457031C621C50D0481C00240C284CD82A
:102EA00001F016FE071E1E1E1E1E1E1E1E0A0A0A08
:102EB0000A000124644240E0092902D1181C0021C3
:102EC00003E00A2904D1181C0221FFF7DBFD23E0EF
:102ED00000240B2931D1181C0121FFF7D3FD2CE070
:102EE00018225343EA185268EB560120141C044080
:102EF0005508DB01002C11D0124C1B195D1930351F
:102F00002E780C010F21314021439A18C9B2297043
:102F1000403213781843107000240EE0094E0F273A
:102F20009B195D1930352E789A18BE433143C9B2CA
:102F300029704032137818431070201CF8BDC04629
:102F4000A04F0000004400410120704708B503680D
:102F5000014A1B6A984708BD13040000031CFC3398
:102F6000D9699A69914203D0DB69C018007D01E0FC
:102F700001204042704710B5041C006901F03FFC7D
:102F8000221C0023FC329361D36186229200A41894
:102F90006360A36010BD0000F0B587B001930CAB77
:102FA0001B78802602930DAB1B78002503930EAB94
:102FB0001B78760004930FAB1B78041C0593FA234F
:102FC0009B008360194B0F1C08330092456003601F
:102FD000291C321C143001F018FE231C8E22FC33F5
:102FE00052009D61A018DD61321C291C01F00DFE0C
:102FF00086229200A3185D60009A9D6089239B0041
:103000002761E254019A0A4B201CE254029A094BB0
:10301000E254039A084BE254049A8A239B00E25438
:10302000059A8E239B00E25407B0F0BD684F000064
:1030300025020000260200002702000030B585B0FE
:10304000041C08A8057809A8007800950190FF20C5
:1030500002900390201CFFF79FFF201C05B030BD9D
:10306000F023081C18403038434258417047F02381
:103070001B01194080239B0099420CD0C0239B0068
:10308000994206D080235B000520994204D000209D
:1030900002E0072000E0062070470F2319400129B5
:1030A00005D002394B424B410220C01A00E00020FB
:1030B00070470000F0B5892385B003919B00041C84
:1030C0001827C05C3B1C4343324E0821F318595665
:1030D000151CFFF7D7FE304B0821E05C3B1C434337
:1030E000F3185956FFF7CEFE2C4BE25C022A0AD1A8
:1030F0008E239B00E05CFF2805D047430821F71989
:103100007956FFF7BFFE8A27BF00E05DFF281AD07F
:103110000121FFF7B7FCE35D18225A43B35620495B
:10312000DB0158188B21890060501E49B6185B18C6
:103130008C21726889006350012191400A1C8D2105
:10314000890062501A6001210A1C039B206901F06A
:1031500003FC291C201CFFF78AFF291C071C201CCC
:10316000FFF79BFF291C061C201CFFF779FF391C69
:103170000090331C2069012201F012FB074B2069EB
:10318000E15C094BE25C01F027FB206901F045FBA3
:1031900005B0F0BDA04F000025020000270200008E
:1031A000184400411444004126020000031CFC3373
:1031B00058689B68C01A01D50130FF30704710B5C0
:1031C000041C8E235B00E018FFF7F0FF0028F8D105
:1031D000206901F02CFB10BD08B51430FFF7E6FFA5
:1031E00008BDFC30426883689A4204DB436880680B
:1031F000C01AFF3003E082684368D01A0138704774
:1032000008B51D30FF30FFF7ECFF08BD38B5041CD2
:10321000006901F028FB002805D0206901F033FB8C
:10322000206901F025FB206901F00DFB002820D06A
:10323000206901F028FB231CFC339A69D96901320B
:10324000D2B28A4203D09969611808759A618A23BB
:103250009B00E35CFF2B0CD0201C1430FFF7C1FF58
:10326000092806DC8B238D229B009200E358A2588C
:103270001A60206901F002FB00281FD08E22520044
:10328000A518281CFFF792FF031C2069002B13D000
:1032900086229200A31899685A68914206D09A68CB
:1032A000A95C9A680132D2B29A6001E001214942D8
:1032B000C9B201F0ECFA01E001F0F4FA206901F082
:1032C000C7FA002805D0206901F0C6FA206901F08C
:1032D000B6FA38BD70B5041C00690D1C01F0CEFAB9
:1032E0008E225200A61800280ED0301CFFF75EFF79
:1032F00000283DD008E0EFF31083DA0722D41F4BFB
:103300005A68D205D20D0AD186229200A3185868B5
:103310009A680130FF2108409042ECD01BE0103A3F
:10332000D2B253B2002B08DA0F231A40083A144BDA
:1033300092089200D218536804E09B08C033114AE7
:103340009B009B58206901F099FA0028DCD0201CD2
:10335000FFF75CFFD8E75A6801320A4099688A4251
:1033600002D0596875545A60206901F097FA03E059
:103370002069291C01F08BFA012070BD00ED00E0EE
:1033800018ED00E000E100E038B5031CFC33D9691A
:103390009A69041C914207D0DA698218157DDA69AE
:1033A0000132D2B2DA6101E001256D428A239B002D
:1033B000E35CFF2B0CD0201C1430FFF712FF0A280F
:1033C00006DD8C238D229B009200E358A2581A60E0
:1033D000281C38BD704710B5041C006801F002FCC1
:1033E000201C10BD10B5041C0068002801D001F09D
:1033F000F9FB00232360A360636010BD38B5041C93
:103400000D1C0068013101F0A5FC002801D021C489
:10341000012038BD036810B5041C002B02D043689E
:103420008B4209D2201CFFF7E9FF002805D0A368D2
:10343000002B01D122681370012010BD70B50E1C45
:10344000111C041C151CFFF7E5FF002803D1201CEC
:10345000FFF7C8FF04E0A5602068311C01F0A2FC62
:10346000201C70BD38B50023041C0D1C0360436094
:103470008360994207D0081C01F09CFC291C021CA7
:10348000201CFFF7DBFF201C38BD000038B5051CF1
:1034900000680C1C002811D0096800290CD00D4BC5
:1034A000002B09D06A68A3689A4205D301F07AFC20
:1034B000A368AB6000230AE001F094FB2268636814
:1034C0002A60A2686B600023AA6023606360A36027
:1034D00038BDC046D533000010B50B1C041E8C420D
:1034E00008D00968002903D09A68FFF7A7FF01E018
:1034F000FFF778FF201C10BD10B50023041C0360EB
:1035000043608360FFF7E8FF201C10BD10B5041E68
:103510008C4201D0FFF7BAFF201C10BD38B5041C47
:103520000D1E08D0081C01F045FC291C021C201CA3
:10353000FFF784FF01E0FFF755FF201C38BDF8B509
:10354000041C0F1C866801D100250FE00125002A0C
:103550000CD09619311CFFF75DFF0028F4D02268CB
:10356000A368391CD01801F01DFCA660281CF8BD0A
:1035700007B5002201AB19705A70191C0122FFF720
:10358000DEFF0EBD0B1C10B509689A68041CFFF71E
:10359000D6FF002802D1201CFFF724FF201C10BDFD
:1035A00038B5041C0D1E09D0081C01F003FC291CB1
:1035B000021C201CFFF7C3FF002802D1201CFFF7CC
:1035C00011FF201C38BD08B58368002B05D10029E8
:1035D00001D0087808E0012009E00068002901D145
:1035E000007801E001F0D4FB43425841C0B208BD6D
:1035F000F7B5071C0E1C141C1D1C9A4201D92C1C6B
:10360000151C381C0C49FFF72DFFB3689C4210D2E3
:103610009D4200D91D1C3268381C53191A7801923A
:1036200000221A7033681919FFF778FF3368019A7E
:103630005A55381CFEBDC0465A4F0000014B186059
:103640007047C04658000020024B012252421A60C7
:103650007047C04658000020154A1368581C25D0F2
:10366000013B1360002B21D172B6124A124B043277
:103670009A4207D8BFF34F8F104A114BDA60BFF35D
:103680004F8F11E00F4B197DC807FBD5188B2021F8
:10369000FF319208520001431983DA610A4A1A8005
:1036A0001A7DD107FCD5E5E7C046FDE77047C04667
:1036B0005800002000200000030200000400FA056A
:1036C00000ED00E00040004102A5FFFF08B5024800
:1036D000FFF79CFD08BDC0465401002013B51249F8
:1036E000124801F05BF81249124801F057F81249EC
:1036F000124801F053F81249124801F04FF81249EC
:10370000124801F04BF8124C1249201C01F046F807
:103710000323009301230193211C0D220E230E4845
:10372000FFF78CFC13BDC046000800429403002044
:10373000000C004298030020001000429C0300206F
:10374000001400429003002000180042A003002053
:10375000A4030020001C00425401002010B50723E0
:103760000F220240141C00093034092A00DD0734FE
:10377000CC54013BF4D210BD10B5054B041C0360C2
:10378000806901F02FFAA06A01F02CFA201C10BD0C
:103790000853000010B5041CFFF7EEFF201CFFF7D4
:1037A0007DF8201C10BD000070B582291ED1C2B268
:1037B0002A495301CB189D69294C80012C40C02512
:1037C000AD052C439C61274C0832201858610B68CA
:1037D000520199180C798020404220430871D15C35
:1037E0007020814330200143D15435E0002933D18A
:1037F000C2B21A495301CB189E68194DC0242E40FD
:10380000A40526439E60184E8001096830180832CE
:1038100058605201505C0726B04301263043505493
:103820009E6935402C439C610E4C5C61505C702459
:10383000A0431024204350549C680C488A18204010
:10384000802464032043986098684021800B8003A3
:10385000986053790B43537170BDC04658080020DF
:10386000FFFFFF8FB404002074060020FF3F00F02C
:1038700038B5041C08CC01211A78051C0A431A70BB
:103880008022201C0021520001F0BFF92B689A7899
:10389000D107FCD45C6238BD134BF0B51B689903AB
:1038A0005A029B01C90ED20E5B0F1F2900D10521C0
:1038B0001F2A00D11D22072B00D1032304688E018B
:1038C000278D0A491F2539403143218501682A4047
:1038D0000C8DAC4322430A8502681903108D044BFA
:1038E00003400B431385F0BD246080003FF8FFFFC9
:1038F000FF8FFFFFEFF3108303600123436072B675
:1039000070470368002B02D162B6BFF36F8F704718
:1039100037B50569041C6846002D12D1FFF7EAFF90
:10392000019B013B03D3621DD57FEDB2F9E76846E9
:103930000193FFF7E6FF0020854217D0206AE36974
:1039400013E0FFF7D7FF019B0025013B04D3221CA6
:1039500034321578EDB2F8E768460193FFF7D1FFEE
:103960000020854202D0206BE36AC01A3EBD0000F1
:10397000436810B51A68037A01215B01D318FF333D
:103980009A7A0A439A72037A42685B01D318C26832
:103990009C6891040B4A090922400A439A60037A01
:1039A00042685B01D3189A684021920B92039A6097
:1039B00043681A68037A08335B01D3181A790A43FB
:1039C0001A7110BDFF3F00F0F7B50569041C0E1C0D
:1039D000171C6846002D1FD1FFF78CFF019B013B90
:1039E0005A1C06D0621DD17F5A1E00293AD0131CE2
:1039F000F6E768460193FFF784FF0025E369BD42BF
:103A000035D0226A934232D25A1CE261A269D3189D
:103A10001B7873550135F1E7FFF76CFF019B013B04
:103A20005A1C08D0221C343215785A1EEDB2002DD3
:103A300018D0131CF4E768460193FFF762FF0025D6
:103A4000E36ABD4226D0226B934241D322E0621D3D
:103A50000021D17730321678581E8E4214D1031CC3
:103A60005A1CF4D168460193FFF74BFF38E0226AF5
:103A7000934235D10023E361012323616846FFF7B8
:103A800039FF019B013BEBE71170201C0193FFF70D
:103A90006FFFF6E7226B934222D10023E36223619A
:103AA0006846FFF727FF019B013B5A1CDAD0221C16
:103AB00034320021117001321678581E8E4201D125
:103AC000031CF2E71170201C0193FFF751FFEAE796
:103AD0005A1CE262A26AD3181B7873550135AFE70E
:103AE000281CFEBD37B54368027A1B6808325201B4
:103AF0009A18041CD0790123FF21184255D0D371A4
:103B0000A068656962680140002D1FD14901521803
:103B100091688904890C2162216A002942D063617D
:103B2000A36A68465360FFF7E5FE019B013B5D1CFD
:103B300034D0621D0120D0772F3211785D1EC9B2BA
:103B40001218002915D111702B1CF0E74B01D31866
:103B50009A689204920C2263226B002A22D00022DF
:103B60006261A26968465A60FFF7C4FE019B013B8F
:103B700012E0019310706846FFF7C3FE15E0221CA7
:103B8000343201201070621DD17F5D1EC9B2303207
:103B90000029EED111702B1C5D1CF0D168460193F9
:103BA000FFF7AFFE201CFFF7E3FE37BD37B500235C
:103BB0006C46E3710734201C0D1CFEF7FFFE2B68DA
:103BC0001818286000F072FF211C00F029FF2B68F4
:103BD0001818286020783EBD03290BD10D4BB22266
:103BE0001B685200985C802149420143995402218C
:103BF00068220CE001290CD1064B92221B6852006E
:103C0000985C802149420143995402212822FF32C5
:103C1000995470475808002038B5264B2021DA699E
:103C2000051C0A43DA61244B01201A78062402435A
:103C30001A70224B0F221978914319701978214379
:103C400019701F490C782043087019780A401A70BF
:103C50001A7860210A431A701A4B1B4A5A805A7804
:103C6000D209FCD11948FEF75DFE194C201CFFF764
:103C7000FFFD201CFFF710FE23687F2219780A4001
:103C80001A701A7804210A431A701A890C218A437F
:103C90001A81C1210F4A890050580002000A505071
:103CA000802111601A7802210A431A7001232B70B7
:103CB00038BDC04600040040584400413C44004127
:103CC00059440041000C0040064000008D460000B1
:103CD0005808002000E100E00078002810D0094BCF
:103CE00001211B681A898A431A811A8B08210A4309
:103CF0001A831A8B04210A431A83034B00221A6089
:103D00007047C046580800205C0900200F4B9A6994
:103D1000920B92039A611B680222FF331A72987900
:103D20008022524202439A711A7A9007FCD5084BBE
:103D3000081C997A7F221040914301439972997A25
:103D4000802252420A439A727047C04658080020A7
:103D50000050004110B50B790C1C002B0BD1081C36
:103D6000FEF73AFE002804D1094B9A69920B9203A0
:103D70009A6101200BE000F099FE211C00F084FE06
:103D80000028F6D1024B9A69920B92039A6110BDFA
:103D900058080020F7B50D1C832A18D1CAB236493D
:103DA0005301CB189C693548AD012040C024A405BF
:103DB000204398613248083245195D610B68520111
:103DC000D15C7020814340200143D15453E0022A4A
:103DD0004DD12C4B8900C8580191002802D00368AE
:103DE0001B6998473820FEF755FD274B224F802648
:103DF000036076000023421D036203614361C361D7
:103E000047608560C660D3772F32041CC3620363AA
:103E10001370301C537000F0DBFEA061301C00F00A
:103E2000D7FEFF231D406D01A0627F19B968134AB8
:103E300007250A40C02189050A43BA60A168626863
:103E40001940126808314901885CA84303252843BA
:103E50008854A268616813405B01A269CB185A605C
:103E6000201CFFF785FD074B01995C5003E0081CFF
:103E7000111CFFF799FCF7BD58080020FFFFFF8FCA
:103E8000B4040020340800200853000038B5051C95
:103E90000124064BA200D258002A06D0211C281C5F
:103EA0000134FFF777FFE4B2F3E738BD5C00002090
:103EB00008B5084B8A00D058002803D003689B68D7
:103EC000984706E0C9B2044B490159188868800434
:103ED000800C08BD340800205808002010B50C1CC8
:103EE000FFF7E6FF00280CD0064BE1B21B68083153
:103EF000490159184A7980235B4213434B710223CD
:103F0000CB7110BD5808002070B5CAB2134B1448CD
:103F1000540189015918031959609D6811490832E3
:103F200029408025AD022943996099684026890B74
:103F3000890399600368510159180D7935430D7152
:103F40005101591889794D06FAD551015918C97985
:103F5000CD07FAD50419A068C0B270BD7406002060
:103F600058080020FF3F00F038B50C4B141C1B68AC
:103F70000D1CFF335A7940210A435A710021FFF783
:103F8000C3FFA04200D9201C0023A34204D0044A4E
:103F90009A5CEA540133F8E738BDC046580800205F
:103FA0007406002010B5C9B20C48490143189A683C
:103FB0009204920C3F2A08D9141C9A68403CA4042D
:103FC000920BA40C9203224302E09A68920B920394
:103FD0009A6041188868C0B210BDC04658080020D9
:103FE000F0B51C1C2A4B85B01B68061C0D1C0292E8
:103FF000002B46D0274B8A00D058002805D00368F4
:1040000002995B68221C98473FE0301CFFF750FF85
:10401000A04204D2301C291CFFF74AFF041C291CB3
:10402000301CFFF7BFFF1C4FE9B24A01019139680C
:1040300003928B18FF335A7A01210A4317495A72A7
:10404000AB01C9180298221C00F0D6FD002C1BD031
:10405000301C291CFFF72CFF002815D1019B3A6862
:1040600008335B01D31819794020014319710121EC
:10407000D97103995318FF339A7A01210A439A722E
:1040800002E00120404200E0201C05B0F0BDC04627
:104090005C09002034080020580800207406002025
:1040A00013B56C460734221C0123FFF799FF012842
:1040B00001D1207801E00120404216BDF0B51C1C62
:1040C0003A4B85B01B680E1C0292002B60D08023F7
:1040D000DB019C425CD800220092002C56D0344D6B
:1040E000F7B22B6801933B1C0833019A5B01D3188C
:1040F0009B79DB091AD02F4B2F49186800F0F2FC8E
:104100002E4B1721584300F0EDFC3B1C0833019A5D
:104110005B01D318DB799A0708D4294B9A5D002AF2
:1041200038D1421E002835D0101CEEE7244B002267
:104130009A55251E3F2D00D93F25224AB301D31899
:10414000181C02992A1C039300F056FD184A7B01A3
:10415000D318039AA9045A619A69890C920B9203A5
:104160000A439A613B1C019A08335B01D31802226F
:10417000DA715979802252420A435A71009B029A9D
:104180005B1952190093641B0292A6E700980BE09A
:10419000012008E001229A557B01ED18AB69101C43
:1041A0009B0B9B03AB61404205B0F0BD5C09002056
:1041B000580800208400002040420F0070110100C8
:1041C000AC040020B404002070B50E4D1C1C8B0103
:1041D000ED18281C0E1C111C221C00F00DFDF6B25F
:1041E0000949760189194D618A69084B201C1340E1
:1041F0008B618B69A2049B0B920C9B0313438B6115
:1042000070BDC046B404002058080020FF3F00F0F5
:10421000F7B5114B01901B780F1C141C002B19D102
:104220000E4B1E78002E01D1151C08E00C4D0D48D8
:104230002E888019361900F0DFFC2E800AE0002D50
:1042400008D0BA192B1C01980021FFF7BDFF3618C2
:104250002D1AF4E7201CFEBD520800205008002053
:10426000AA040020A9030020F8B50E1C00AF151EFB
:10427000012D28D9D31DDB08DB006A46D21A9546EA
:10428000081C00F097FD01306C46400003232070AD
:1042900063700222AA420ED23378002B0BD0511C3D
:1042A000C9B20136A354A94204D000230232635498
:1042B000D2B2EFE72A1C0548211CFFF7A9FF431ED5
:1042C0009841C0B200E00020BD46F8BD5308002070
:1042D00008B5044B00221A70034B04491A88FFF7F3
:1042E00097FF08BD50080020AA040020A903002061
:1042F000F0B5204A87B001230026009102A913706F
:10430000051C0296FFF752FC03AC092701903A1CEA
:10431000201C311C00F079FC02236370A023E371A0
:10432000FA232372029B0122DB196380019B6271D5
:104330002371104A009B27701670BB4205D1281CC0
:10434000211C1A1CFFF764FF11E00B4B01221A70AD
:104350000A4B211C3A1C281C1E800296FFF758FFAE
:10436000281C02A9FFF722FC281CFFF7B1FF01203F
:1043700007B0F0BD5208002050080020AA04002019
:1043800070B5CE7892B0051C0C1C022E08D1C988DD
:104390002D48FFF7ADFF031C581E8341D8B251E0F2
:1043A00000F084FB211C00F050FB002803D0C31751
:1043B0001B1AD80F46E0012E04D1E2882349112AA6
:1043C0003BD837E0032E3DD1A278002A05D1204901
:1043D000E2880B7893422DD82FE0022A03D1A279EC
:1043E000281C1C4904E0012A05D1A2791A49281C7D
:1043F000FFF73AFF26E0032A24D1184B01A91868D9
:10440000FFF7ACF9164B03A91868FFF7A7F9154B8E
:1044100005A91868FFF7A2F9134B07A91868FFF759
:104420009DF900F043FB09A900F01FFBA279281CAD
:1044300001A9DDE7D2B2002A00D10A78281CFFF7D3
:10444000E7FE012012B070BD530800203053000079
:104450002C53000042530000205300000CA08000A9
:1044600040A0800044A0800048A0800073B5051CD7
:1044700048780C1C0B2878D800F02AFB081C7728F9
:10448000773E4306474B686F00206FE0097801AA2A
:10449000002903D111705170281C09E0002313700A
:1044A0005370334B1B78012B00D11370281C002153
:1044B00002234FE08A780023012A04D101AA137055
:1044C00053702C4BEEE72A4A137049E08E78012E88
:1044D00007D1284B01AA00211E701170281C331C23
:1044E00038E0002E08D1224A01231370224A916934
:1044F000890B8903916138E0A178281CFFF706FC3D
:1045000033E0281CFFF73CFF30E0281C00211B4A49
:104510001FE00A780020D30628D1281CFFF7B6FC3C
:10452000A2781549154B02241A600A682A23FF3322
:10453000D05C2043D0544A20FF30145C01231C433C
:1045400014548A69920B92038A610EE00C4A281C6B
:1045500000210123FFF738FE07E08A78084B1A6034
:10456000054B9A69920B92039A61012076BDC04671
:10457000A803002051080020580800205C090020F2
:1045800054080020F8B53B4B071C1C78002C70D158
:10459000394D2868838B19070ED5201C211CFFF785
:1045A00003F92B6810201A1CFF32917A0143917293
:1045B000324A146008229A832B689A8B500701D5DF
:1045C00004229A83FF331A7AD10626D510221A7252
:1045D0005A7940210A432A495A710A786023381CC3
:1045E0001A4202D1FFF742FF01E0FFF7B3FB0028B8
:1045F00006D02B688022FF33997952420A4301E0AA
:10460000204B20229A712B68FF331A7A500604D56A
:1046100040221A72597A0A435A722968FE230E8C74
:1046200000241E40E1B2002E23D0321C012322417F
:104630001A4216D0221C2868083252018218D079FA
:10464000184203D1D279DA401A4207D00E4BA200A9
:10465000D058002809D003681B6898470123A3405D
:104660009E430134092CDDD103E0381CFFF7B4FA76
:10467000F4E7F8BD50080020580800205C0900202D
:1046800074060020FF5000413408002008B502489D
:10469000FFF778FF08BDC04653080020014A024BCF
:1046A0001A6070470050004158080020314BFA2131
:1046B000186810B5890000F015FA2F4B01389842A0
:1046C00024D82E4A2E4B5060186AC0210002000ADE
:1046D0000906014319620024072194601160196AD8
:1046E00080220902090A12060A431A62254BFC219C
:1046F0001A6A0A431A62196AFC2292010A431A6270
:10470000196AA022D2020A431A6200E0FEE7201CC6
:1047100000210134FEF7B6F90F2CF8D11A4C63785A
:104720005BB2002BFADB194B6380194B5A7ED2091E
:10473000012AFAD0E422D2009A803F22DA70597E10
:10474000134AC9090129FAD0C0235B010020136173
:10475000907000F037F963785BB2002BFBDB0D4AF9
:10476000094B5A800C4BDA79D209012AFAD041223E
:104770005A7010BD84000020FFFFFF0010E000E031
:1047800000ED00E000040040000C00401E4000006E
:104790000040004221400000004800420160704794
:1047A000F7B508AC267804689D1E27686C1EA541E5
:1047B000ECB2920705683A4327063A432A6002683A
:1047C000072529405068B501002C00D05C0329431F
:1047D00001430C435460F7BD30B50368C0251C6825
:1047E000AD0312052A402243C024A402090421403B
:1047F0001143196003685A6814435C6030BD036854
:1048000001211A680A431A600268116801231942DB
:10481000FBD1D1691942F8D17047036802211A68A7
:104820000A431A600268D3699907FCD47047036889
:104830001A7ED10702D41A7E9107FCD5704703680F
:1048400000225A8370470368187E4007C00F7047E4
:104850000368187EC009704703688022197E52429F
:104860000A431A7670470368588B8007C00F704759
:10487000036802215A8B0A435A8370470368187EE3
:104880000123184070470368188DC0B27047036851
:104890001A7E01200242FBD019857047036801226D
:1048A0009A757047036801221A7570470368224A97
:1048B00030B5934211D0214A934211D0204A9342FD
:1048C00011D0204A934211D01F4A934211D01F4A5F
:1048D000934230D10E2319220DE0092314220AE05D
:1048E0000A23152207E00B23162204E00C231722CB
:1048F00001E00D231822DCB2154901209B08A040DD
:104900009B0008605B180320C021890004405D58AB
:10491000E000FF248440A5432C1CC0258540281CB2
:10492000204358508023DB011A430A4B5A805A789F
:1049300052B2002AFBDB30BD00080042000C0042EE
:10494000001000420014004200180042001C004207
:1049500000E100E0000C0040F8B5041C151C0E1C22
:104960001F1CFFF7A3FF201CFFF749FFB1001C220B
:104970000A4069072368090C0A431A6022688423E5
:104980009375012E1AD10821012D00D110210C4B55
:1049900079431868C00000F0A5F8236807219A89B8
:1049A0000140D2044903D20C0A439A8123680004CF
:1049B000C20C9889400B400310439881F8BDC04653
:1049C0008400002000B5144A517E131CC909012936
:1049D000F9D00138042813D81969104A0A401A611D
:1049E0005A780F218A4300F073F803050907030082
:1049F000012102E0032100E002210A435A700AE08B
:104A00001169F0231B050B43136153780F218B436E
:104A100002210B43537000BD00400042FFFFFFF036
:104A200070B544680E1C0025002C09D02368201C9A
:104A30005B68311C9847002804DB2D18E468F3E715
:104A4000281C01E00120404270BD38B544680D1CAF
:104A5000002C08D02368201C9B68291C984700283C
:104A600002D1E468F4E7201C38BD38B544680D1C59
:104A7000002C07D02368201C291CDB689847E468B9
:104A80002D18F5E72C7038BD38B544680D1C002C86
:104A900008D02368201C1B68291C9847002803D1D4
:104AA000E468F4E7201C00E0012038BD064B012239
:104AB000196810B51140054805D10224047004247A
:104AC000447041601A6010BD680900206009002030
:104AD00002B4714649084900095C49008E4402BC91
:104AE0007047C046002934D00123002210B4884208
:104AF0002CD301242407A14204D2814202D209010D
:104B00001B01F8E7E400A14204D2814202D249002D
:104B10005B00F8E7884201D3401A1A434C08A042D0
:104B200002D3001B5C0822438C08A04202D3001B66
:104B30009C082243CC08A04202D3001BDC0822437D
:104B4000002803D01B0901D00909E3E7101C10BCA1
:104B50007047002801D00020C04307B4024802A1DA
:104B60004018029003BDC046190000000029F0D093
:104B700003B5FFF7B9FF0EBC4243891A1847C04678
:104B80007047C04670B50E4B0E4D0024ED1AAD10A7
:104B90001E1CAC4204D0A300F35898470134F8E738
:104BA00000F058F9084B094D0024ED1AAD101E1CF9
:104BB000AC4204D0A300F35898470134F8E770BD25
:104BC000EC000020EC000020EC000020FC000020A5
:104BD00008B5034B011C186800F068F808BDC04612
:104BE000E800002008B5034B011C186800F016F817
:104BF00008BDC046E800002010B50023934203D052
:104C0000CC5CC4540133F9E710BD031C82189342F5
:104C100002D019700133FAE77047000030B500295F
:104C200040D004390B68002B00DAC9181E4A1368FB
:104C3000141C002B02D14B60116033E099420FD25B
:104C400008680A189A4205D113685268C0180860AB
:104C50004A6000E04B60216024E08A4203D8131CC4
:104C60005A68002AF9D11D685C198C420BD1096879
:104C7000691858181960904214D1146852680919BB
:104C800019605A600EE08C4202D90C23036009E0DF
:104C900008680C18944203D114685268001908601F
:104CA0004A60596030BDC0467009002070B50323CA
:104CB000CD1C9D430835061C0C2D01D20C2501E0AE
:104CC000002D3FDB8D423DD3204B1C681A1C211C5C
:104CD000002913D00868431B0DD40B2B02D90B609D
:104CE000CC181EE08C4202D1636813601AE0486859
:104CF00060600C1C16E00C1C4968E9E7144C206845
:104D0000002803D1301C00F031F82060301C291C31
:104D100000F02CF8431C15D0C41C03239C43844290
:104D20000AD12560201C0B300722231D9043C31A93
:104D30000BD05A42E25008E0211A301C00F016F85D
:104D40000130EED10C233360002070BD70090020CB
:104D50006C09002008B50A1C0349031C0868191CCB
:104D600000F02FF808BDC046E800002038B5074C19
:104D70000023051C081C236000F052F8431C03D1DB
:104D80002368002B00D02B6038BDC0467809002076
:104D900002780B7801300131002A01D09A42F7D015
:104DA000D01A7047031C0A7801311A700133002AA7
:104DB000F9D170470023C25C0133002AFBD1581E91
:104DC0007047F8B5061C0C1C151C002904D1111CD9
:104DD000FFF76CFF041C18E0002A03D1FFF71EFF49
:104DE0002C1C12E000F013F8A8420ED2301C291C33
:104DF000FFF75CFF071E07D0211C2A1CFFF7FCFEF3
:104E0000301C211CFFF70AFF3C1C201CF8BD043994
:104E10000B68181F002B02DAC8581B18181F7047A0
:104E2000094A1368002B0CD018186946884202D82A
:104E30001060181C7047054B0C2201201A6040427C
:104E4000F8E7034B1360EFE77409002078090020AE
:104E50007C090020F8B5C046F8BC08BC9E467047E7
:104E6000F8B5C046F8BC08BC9E467047415449009E
:104E7000454C4D0041542B4F52474C0041542B524E
:104E80004F4C453D31004F4B0041542B434D4F4457
:104E9000453D310041542B505357443D313233345A
:104EA0000041542B494E4954004170706169726150
:104EB00067650041542B504149523D002C31300070
:104EC00042696E640041542B42494E443D004154B6
:104ED0002B434D4F44453D30004C696E6B004154AF
:104EE0002B4C494E4B3D0041637469766174696F88
:104EF0006E206475206D6F64756C6520425400549B
:104F0000657374206465206C6120636C61737365E4
:104F100020426C7565746F6F746800453834452C99
:104F200038342C434346353441000D0A3E0000001E
:104F30000000000000000000352900006129000089
:104F40003129000055290000492900009929000055
:104F50007D290000000000000D0A006E616E0069EE
:104F60006E66006F76660000000000000000000022
:104F7000D5320000992B000001320000BF31000043
:104F8000D9310000893300005D2F00004D2F000053
:104F9000B5300000772F0000492F0000000000000E
:104FA0000000000016000000080000001C000000C7
:104FB000FF000004000406000000000017000000CD
:104FC000080000001C000000FF00010401040700AD
:104FD000000000000A000000080000001C000000A3
:104FE000120000010001FF00000000000B000000A3
:104FF000080000001C000000130001010101FF0077
:10500000010000000A000000080000001C00000071
:10501000FF00000500050A00010000000B00000071
:10502000080000001C000000FF00010501050B0046
:105030000000000014000000080000002C00000028
:10504000FF00020002000400000000001500000044
:10505000080000002C000000FF0003000300050012
:105060000000000010000000020000001C00000012
:10507000FF0000020002000000000000110000001C
:105080000200000004000000FF00FFFFFFFF01001E
:105090000000000013000000020000001C000000DF
:1050A000FF0001030103FF000000000008000000F2
:1050B00002000000040000001000FFFFFFFF1000CE
:1050C00000000000090000000200000004000000D1
:1050D0001100FFFFFFFFFF000100000017000000AC
:1050E0000300000004000000FF00FFFFFFFFFF00BF
:1050F0000100000016000000030000000400000092
:10510000FF00FFFFFFFFFF000000000002000000A3
:1051100001000000060000000000FFFFFFFFFF008D
:105120000100000002000000010000000400000077
:105130000A00FFFFFFFF0200010000000300000063
:1051400001000000040000000B00FFFFFFFF030050
:105150000000000004000000010000001C0000002E
:10516000040000000000FF00000000000500000037
:10517000010000001C000000050001000100FF000C
:105180000000000006000000010000000400000014
:105190000600FFFFFFFFFF00000000000700000007
:1051A00001000000040000000700FFFFFFFFFF00F8
:1051B00000000000180000000600000000000000D1
:1051C000FF00FFFFFFFFFF000000000019000000CC
:1051D0000600000000000000FF00FFFFFFFFFF00CF
:1051E00000000000120000000800000004000000A1
:1051F000FF00FFFFFFFFFF000000000003000000B2
:105200000800000004000000FF00FFFFFFFFFF0098
:10521000000000000C000000020000000000000080
:10522000FF00FFFFFFFFFF00000000000D00000077
:105230000200000000000000FF00FFFFFFFFFF0072
:10524000000000000E000000080000000000000048
:10525000FF00FFFFFFFFFF00000000000F00000045
:105260000200000000000000FF00FFFFFFFFFF0042
:10527000000000001B00000008000000000000000B
:10528000FF00FFFFFFFFFF00000000001C00000008
:105290000800000000000000FF00FFFFFFFFFF000C
:1052A00001000000080000000100000006000000EE
:1052B0000200FFFFFFFFFF000100000009000000E7
:1052C00001000000180000000300010401040900AF
:1052D00000000000000000000800000000000000C6
:1052E000FF00FFFFFFFFFF000000000001000000C3
:1052F0000800000000000000FF00FFFFFFFFFF00AC
:105300000000000000000000E53A0000C93900007C
:1053100011390000793700009537000000000000C7
:1053200041726475696E6F204C4C4300040309049C
:1053300012010002EF0201404123508000010102EE
:10534000030141726475696E6F204D4B5220464FC8
:1053500058203132303000430000000000000000CF
:105360000120000000C2010000000800FFFFFFFF55
:10537000080B000202020000090400000102020002
:10538000000524001001042402060524060001057E
:105390002401010107058103100010090401000226
:1053A0000A000000070502024000000705830240D2
:1053B00000000000FFFFFFFFFFFFFFFF00000000F5
:1053C00083000000020000008200000000000000D6
:1053D00000000000000000000000000000000000CD
:1053E0000000000040420F0000000000000000002C
:1053F00000000000000000000000000000000000AD
:1054000000000000000000005753000000000000F2
:10541000000000000000000000000000000000008C
:10542000000000000000000000000000000000007C
:10543000000000000000000000000000000000006C
:10544000000000000000000088000020DD200000B7
:105450005D2A0000DD3600009D460000B5200000FA
:10546000000000000000000000000000000000003C
:04000003000028C110
:00000001FF
